{"contracts/web3patreoncontract.sol":{"CreatorRegistry":{"abi":[{"inputs":[],"stateMutability":"nonpayable","type":"constructor"},{"anonymous":false,"inputs":[{"indexed":true,"internalType":"uint256","name":"creatorId","type":"uint256"},{"indexed":true,"internalType":"address","name":"wallet","type":"address"},{"indexed":false,"internalType":"string","name":"metadataURI","type":"string"}],"name":"CreatorRegistered","type":"event"},{"anonymous":false,"inputs":[{"indexed":true,"internalType":"uint256","name":"creatorId","type":"uint256"},{"indexed":false,"internalType":"uint256","name":"totalSubscribers","type":"uint256"},{"indexed":false,"internalType":"uint256","name":"totalEarnings","type":"uint256"}],"name":"CreatorStatsUpdated","type":"event"},{"anonymous":false,"inputs":[{"indexed":true,"internalType":"uint256","name":"creatorId","type":"uint256"},{"indexed":false,"internalType":"string","name":"metadataURI","type":"string"}],"name":"CreatorUpdated","type":"event"},{"anonymous":false,"inputs":[{"indexed":true,"internalType":"uint256","name":"creatorId","type":"uint256"}],"name":"CreatorVerified","type":"event"},{"anonymous":false,"inputs":[{"indexed":true,"internalType":"address","name":"previousOwner","type":"address"},{"indexed":true,"internalType":"address","name":"newOwner","type":"address"}],"name":"OwnershipTransferred","type":"event"},{"inputs":[{"internalType":"uint256","name":"","type":"uint256"}],"name":"creators","outputs":[{"internalType":"uint256","name":"id","type":"uint256"},{"internalType":"address payable","name":"wallet","type":"address"},{"internalType":"string","name":"metadataURI","type":"string"},{"internalType":"uint256","name":"totalSubscribers","type":"uint256"},{"internalType":"uint256","name":"totalEarnings","type":"uint256"},{"internalType":"bool","name":"isVerified","type":"bool"},{"internalType":"uint256","name":"createdAt","type":"uint256"},{"internalType":"uint256","name":"updatedAt","type":"uint256"}],"stateMutability":"view","type":"function"},{"inputs":[{"internalType":"uint256","name":"creatorId","type":"uint256"}],"name":"getCreator","outputs":[{"components":[{"internalType":"uint256","name":"id","type":"uint256"},{"internalType":"address payable","name":"wallet","type":"address"},{"internalType":"string","name":"metadataURI","type":"string"},{"internalType":"uint256","name":"totalSubscribers","type":"uint256"},{"internalType":"uint256","name":"totalEarnings","type":"uint256"},{"internalType":"bool","name":"isVerified","type":"bool"},{"internalType":"uint256","name":"createdAt","type":"uint256"},{"internalType":"uint256","name":"updatedAt","type":"uint256"}],"internalType":"struct CreatorRegistry.Creator","name":"","type":"tuple"}],"stateMutability":"view","type":"function"},{"inputs":[{"internalType":"address","name":"wallet","type":"address"}],"name":"getCreatorIdByWallet","outputs":[{"internalType":"uint256","name":"","type":"uint256"}],"stateMutability":"view","type":"function"},{"inputs":[],"name":"getTotalCreators","outputs":[{"internalType":"uint256","name":"","type":"uint256"}],"stateMutability":"view","type":"function"},{"inputs":[{"internalType":"address","name":"wallet","type":"address"}],"name":"isVerifiedCreator","outputs":[{"internalType":"bool","name":"","type":"bool"}],"stateMutability":"view","type":"function"},{"inputs":[],"name":"owner","outputs":[{"internalType":"address","name":"","type":"address"}],"stateMutability":"view","type":"function"},{"inputs":[{"internalType":"string","name":"metadataURI","type":"string"}],"name":"registerCreator","outputs":[],"stateMutability":"nonpayable","type":"function"},{"inputs":[],"name":"renounceOwnership","outputs":[],"stateMutability":"nonpayable","type":"function"},{"inputs":[{"internalType":"address","name":"newOwner","type":"address"}],"name":"transferOwnership","outputs":[],"stateMutability":"nonpayable","type":"function"},{"inputs":[{"internalType":"string","name":"metadataURI","type":"string"}],"name":"updateCreator","outputs":[],"stateMutability":"nonpayable","type":"function"},{"inputs":[{"internalType":"uint256","name":"creatorId","type":"uint256"},{"internalType":"int256","name":"subscriberChange","type":"int256"},{"internalType":"uint256","name":"earningsChange","type":"uint256"}],"name":"updateStats","outputs":[],"stateMutability":"nonpayable","type":"function"},{"inputs":[{"internalType":"uint256","name":"creatorId","type":"uint256"}],"name":"verifyCreator","outputs":[],"stateMutability":"nonpayable","type":"function"},{"inputs":[{"internalType":"address","name":"","type":"address"}],"name":"walletToCreatorId","outputs":[{"internalType":"uint256","name":"","type":"uint256"}],"stateMutability":"view","type":"function"}],"evm":{"bytecode":{"linkReferences":{},"object":"6080806040523461005f5760008054336001600160a01b0319821681178355916001600160a01b03909116907f8be0079c531659141344cd1fd0a4f28419497f9722a3daafe3b4186f6b6457e09080a360018055610f9490816100658239f35b600080fdfe608080604052600436101561001357600080fd5b60e0600035811c91826331e8e39d14610b6e575081634209e03d14610a2657816350dcf827146109e6578163663222c5146100b0578163715018a61461098d5781638da5cb5b14610964578163cd53d08e146108c7578163d48e638a1461077b578163dac0faf9146104ce57508063dde9be99146102af578063e5c14411146101be578063f2fde38b146100f35763fb23b20b146100b057600080fd5b346100ee5760203660031901126100ee576004356001600160a01b038116908190036100ee5760005260066020526020604060002054604051908152f35b600080fd5b346100ee5760203660031901126100ee576004356001600160a01b03818116918290036100ee57610122610d59565b811561016a57600054826bffffffffffffffffffffffff60a01b821617600055167f8be0079c531659141344cd1fd0a4f28419497f9722a3daafe3b4186f6b6457e0600080a3005b60405162461bcd60e51b815260206004820152602660248201527f4f776e61626c653a206e6577206f776e657220697320746865207a65726f206160448201526564647265737360d01b6064820152608490fd5b346100ee5760203660031901126100ee576004356101da610d59565b801515806102a3575b6101ec90610e53565b80600052600560205260ff6005604060002001541661025e57806000526005602052610236604060002060058101600160ff198254161790556001808060a01b0391015416610e94565b507fb58683e399165d7751bef535fe75340046e8c2a16fa78e063412916e9fa3d99a600080a2005b60405162461bcd60e51b815260206004820152601860248201527f43726561746f7220616c726561647920766572696669656400000000000000006044820152606490fd5b506002548111156101e3565b346100ee576102bd36610ce8565b336000526020906006825260406000205415610489576102df81511515610db1565b336000526006825260406000205490816000526005835260026040600020019281519367ffffffffffffffff85116104735761031b8154610b89565b601f811161042d575b5081601f86116001146103a85794807f0a2539dd6b1c295a14eb2f24af489e7f57b1fce0127fb2f8135295dd5e13e176959660009161039d575b508160011b916000199060031b1c19161790555b836000526005815242600760406000200155610398604051928284938452830190610ca8565b0390a2005b90508401518761035e565b601f1986169082600052836000209160005b81811061041657509187917f0a2539dd6b1c295a14eb2f24af489e7f57b1fce0127fb2f8135295dd5e13e1769798600194106103fd575b5050811b019055610372565b86015160001960f88460031b161c1916905587806103f1565b91928560018192868a0151815501940192016103ba565b8160005282600020601f870160051c810191848810610469575b601f0160051c01905b81811061045d5750610324565b60008155600101610450565b9091508190610447565b634e487b7160e01b600052604160045260246000fd5b60405162461bcd60e51b815260048101839052601860248201527f4e6f74206120726567697374657265642063726561746f7200000000000000006044820152606490fd5b346100ee576104dc36610ce8565b906104e5610dfd565b3360005260066020526040600020546107365761050482511515610db1565b60016002540190816002556040519061051c82610bc3565b8282526020820191338352604081018581526000606083015260006080830152600060a08301524260c0830152428383015284600052600560205260406000209382518555600185019060018060a01b039051166bffffffffffffffffffffffff60a01b8254161790555180519067ffffffffffffffff8211610473576105a66002860154610b89565b601f81116106ef575b50602090601f831160011461067b5760079493929160009183610670575b50508160011b916000199060031b1c19161760028501555b60608101516003850155608081015160048501556005840160a0820151151560ff8019835416911617905560c081015160068501550151910155336000526006602052806040600020557f4cfde7f67060004def7ffd71f6f34b90f732485709c3c9367aed20d0fd61a8ca604051602081528061066733956020830190610ca8565b0390a360018055005b0151905088806105cd565b906002860160005260206000209160005b601f19851681106106d757509183916001936007979695601f198116106106be575b505050811b0160028501556105e5565b015160001960f88460031b161c191690558880806106ae565b9192602060018192868501518155019401920161068c565b600286016000526020600020601f840160051c81016020851061072f575b601f830160051c820181106107235750506105af565b6000815560010161070d565b508061070d565b60405162461bcd60e51b815260206004820152601d60248201527f416c726561647920726567697374657265642061732063726561746f720000006044820152606490fd5b346100ee57602090816003193601126100ee576004356000826040516107a081610bc3565b8281528286820152606060408201528260608201528260808201528260a08201528260c08201520152801515806108bb575b6107db90610e53565b60005260058252604060002090604051916107f583610bc3565b8054835260018101546001600160a01b03908116858501908152909261081d60028401610c02565b9260408601938452600381015494606087019586526004820154946080880195865260ff6005840154169160a089019215158352600760068501549460c08b01958652015495858a019687526040519a8b9a818c5251908b0152511660408901525194610898610100968760608b01526101208a0190610ca8565b965160808901525160a088015251151560c0870152519085015251908301520390f35b506002548111156107d2565b346100ee5760203660031901126100ee576004356000526005602052604060002080549060018060a01b036001820154169261090560028301610c02565b90600383015492600481015460ff600583015416906109466007600685015494015495604051998a998a5260208a01526101008060408b0152890190610ca8565b9560608801526080870152151560a086015260c08501528301520390f35b346100ee5760003660031901126100ee576000546040516001600160a01b039091168152602090f35b346100ee5760003660031901126100ee576109a6610d59565b600080546001600160a01b0319811682556001600160a01b03167f8be0079c531659141344cd1fd0a4f28419497f9722a3daafe3b4186f6b6457e08280a3005b346100ee5760203660031901126100ee576004356001600160a01b038116908190036100ee57600052600460205260206040600020541515604051908152f35b346100ee5760603660031901126100ee57600435602435610a45610dfd565b81151580610b62575b610a5790610e53565b81600052600560205260406000209060008113600014610ac75781604091610a936003600080516020610f3f8339815191529501918254610f31565b90555b60036004820191610aaa6044358454610f31565b80935542600782015501549082519182526020820152a260018055005b60008112610ae8575b506040600080516020610f3f83398151915291610a96565b90600160ff1b8214610b305760038101908260000382541015600014610b46578154928301928311610b3057600080516020610f3f83398151915292604092555b9150610ad0565b634e487b7160e01b600052601160045260246000fd5b600080516020610f3f8339815191529250600060409255610b29565b50600254821115610a4e565b346100ee5760003660031901126100ee576020906002548152f35b90600182811c92168015610bb9575b6020831014610ba357565b634e487b7160e01b600052602260045260246000fd5b91607f1691610b98565b610100810190811067ffffffffffffffff82111761047357604052565b90601f8019910116810190811067ffffffffffffffff82111761047357604052565b9060405191826000825492610c1684610b89565b908184526001948581169081600014610c855750600114610c42575b5050610c4092500383610be0565b565b9093915060005260209081600020936000915b818310610c6d575050610c4093508201013880610c32565b85548884018501529485019487945091830191610c55565b915050610c4094506020925060ff191682840152151560051b8201013880610c32565b919082519283825260005b848110610cd4575050826000602080949584010152601f8019910116010190565b602081830181015184830182015201610cb3565b60206003198201126100ee5767ffffffffffffffff6004358181116100ee57826023820112156100ee5780600401359182116104735760405192610d36601f8401601f191660200185610be0565b828452602483830101116100ee5781600092602460209301838601378301015290565b6000546001600160a01b03163303610d6d57565b606460405162461bcd60e51b815260206004820152602060248201527f4f776e61626c653a2063616c6c6572206973206e6f7420746865206f776e65726044820152fd5b15610db857565b60405162461bcd60e51b815260206004820152601860248201527f4d657461646174612055524920697320726571756972656400000000000000006044820152606490fd5b600260015414610e0e576002600155565b60405162461bcd60e51b815260206004820152601f60248201527f5265656e7472616e637947756172643a207265656e7472616e742063616c6c006044820152606490fd5b15610e5a57565b60405162461bcd60e51b8152602060048201526012602482015271125b9d985b1a590818dc99585d1bdc88125160721b6044820152606490fd5b600081815260046020526040812054610f2c5760035468010000000000000000811015610f18576001810180600355811015610f045790826040927fc2575a0e9e593c00f959f8c92f12db2869c3395a3b0502d05e2516446f71f85b015560035492815260046020522055600190565b634e487b7160e01b82526032600452602482fd5b634e487b7160e01b82526041600452602482fd5b905090565b91908201809211610b305756fe3bf98f0e34ccfa8e143ea2f0c79aff94b8e681f3c11522f2713688acdc12b779a2646970667358221220bd4509509b7cf7fc2e603af13f7e9d45d09a4b4976a6d23a60e3ccc8275ef3fa64736f6c63430008140033","opcodes":"PUSH1 0x80 DUP1 PUSH1 0x40 MSTORE CALLVALUE PUSH2 0x5F JUMPI PUSH1 0x0 DUP1 SLOAD CALLER PUSH1 0x1 PUSH1 0x1 PUSH1 0xA0 SHL SUB NOT DUP3 AND DUP2 OR DUP4 SSTORE SWAP2 PUSH1 0x1 PUSH1 0x1 PUSH1 0xA0 SHL SUB SWAP1 SWAP2 AND SWAP1 PUSH32 0x8BE0079C531659141344CD1FD0A4F28419497F9722A3DAAFE3B4186F6B6457E0 SWAP1 DUP1 LOG3 PUSH1 0x1 DUP1 SSTORE PUSH2 0xF94 SWAP1 DUP2 PUSH2 0x65 DUP3 CODECOPY RETURN JUMPDEST PUSH1 0x0 DUP1 REVERT INVALID PUSH1 0x80 DUP1 PUSH1 0x40 MSTORE PUSH1 0x4 CALLDATASIZE LT ISZERO PUSH2 0x13 JUMPI PUSH1 0x0 DUP1 REVERT JUMPDEST PUSH1 0xE0 PUSH1 0x0 CALLDATALOAD DUP2 SHR SWAP2 DUP3 PUSH4 0x31E8E39D EQ PUSH2 0xB6E JUMPI POP DUP2 PUSH4 0x4209E03D EQ PUSH2 0xA26 JUMPI DUP2 PUSH4 0x50DCF827 EQ PUSH2 0x9E6 JUMPI DUP2 PUSH4 0x663222C5 EQ PUSH2 0xB0 JUMPI DUP2 PUSH4 0x715018A6 EQ PUSH2 0x98D JUMPI DUP2 PUSH4 0x8DA5CB5B EQ PUSH2 0x964 JUMPI DUP2 PUSH4 0xCD53D08E EQ PUSH2 0x8C7 JUMPI DUP2 PUSH4 0xD48E638A EQ PUSH2 0x77B JUMPI DUP2 PUSH4 0xDAC0FAF9 EQ PUSH2 0x4CE JUMPI POP DUP1 PUSH4 0xDDE9BE99 EQ PUSH2 0x2AF JUMPI DUP1 PUSH4 0xE5C14411 EQ PUSH2 0x1BE JUMPI DUP1 PUSH4 0xF2FDE38B EQ PUSH2 0xF3 JUMPI PUSH4 0xFB23B20B EQ PUSH2 0xB0 JUMPI PUSH1 0x0 DUP1 REVERT JUMPDEST CALLVALUE PUSH2 0xEE JUMPI PUSH1 0x20 CALLDATASIZE PUSH1 0x3 NOT ADD SLT PUSH2 0xEE JUMPI PUSH1 0x4 CALLDATALOAD PUSH1 0x1 PUSH1 0x1 PUSH1 0xA0 SHL SUB DUP2 AND SWAP1 DUP2 SWAP1 SUB PUSH2 0xEE JUMPI PUSH1 0x0 MSTORE PUSH1 0x6 PUSH1 0x20 MSTORE PUSH1 0x20 PUSH1 0x40 PUSH1 0x0 KECCAK256 SLOAD PUSH1 0x40 MLOAD SWAP1 DUP2 MSTORE RETURN JUMPDEST PUSH1 0x0 DUP1 REVERT JUMPDEST CALLVALUE PUSH2 0xEE JUMPI PUSH1 0x20 CALLDATASIZE PUSH1 0x3 NOT ADD SLT PUSH2 0xEE JUMPI PUSH1 0x4 CALLDATALOAD PUSH1 0x1 PUSH1 0x1 PUSH1 0xA0 SHL SUB DUP2 DUP2 AND SWAP2 DUP3 SWAP1 SUB PUSH2 0xEE JUMPI PUSH2 0x122 PUSH2 0xD59 JUMP JUMPDEST DUP2 ISZERO PUSH2 0x16A JUMPI PUSH1 0x0 SLOAD DUP3 PUSH12 0xFFFFFFFFFFFFFFFFFFFFFFFF PUSH1 0xA0 SHL DUP3 AND OR PUSH1 0x0 SSTORE AND PUSH32 0x8BE0079C531659141344CD1FD0A4F28419497F9722A3DAAFE3B4186F6B6457E0 PUSH1 0x0 DUP1 LOG3 STOP JUMPDEST PUSH1 0x40 MLOAD PUSH3 0x461BCD PUSH1 0xE5 SHL DUP2 MSTORE PUSH1 0x20 PUSH1 0x4 DUP3 ADD MSTORE PUSH1 0x26 PUSH1 0x24 DUP3 ADD MSTORE PUSH32 0x4F776E61626C653A206E6577206F776E657220697320746865207A65726F2061 PUSH1 0x44 DUP3 ADD MSTORE PUSH6 0x646472657373 PUSH1 0xD0 SHL PUSH1 0x64 DUP3 ADD MSTORE PUSH1 0x84 SWAP1 REVERT JUMPDEST CALLVALUE PUSH2 0xEE JUMPI PUSH1 0x20 CALLDATASIZE PUSH1 0x3 NOT ADD SLT PUSH2 0xEE JUMPI PUSH1 0x4 CALLDATALOAD PUSH2 0x1DA PUSH2 0xD59 JUMP JUMPDEST DUP1 ISZERO ISZERO DUP1 PUSH2 0x2A3 JUMPI JUMPDEST PUSH2 0x1EC SWAP1 PUSH2 0xE53 JUMP JUMPDEST DUP1 PUSH1 0x0 MSTORE PUSH1 0x5 PUSH1 0x20 MSTORE PUSH1 0xFF PUSH1 0x5 PUSH1 0x40 PUSH1 0x0 KECCAK256 ADD SLOAD AND PUSH2 0x25E JUMPI DUP1 PUSH1 0x0 MSTORE PUSH1 0x5 PUSH1 0x20 MSTORE PUSH2 0x236 PUSH1 0x40 PUSH1 0x0 KECCAK256 PUSH1 0x5 DUP2 ADD PUSH1 0x1 PUSH1 0xFF NOT DUP3 SLOAD AND OR SWAP1 SSTORE PUSH1 0x1 DUP1 DUP1 PUSH1 0xA0 SHL SUB SWAP2 ADD SLOAD AND PUSH2 0xE94 JUMP JUMPDEST POP PUSH32 0xB58683E399165D7751BEF535FE75340046E8C2A16FA78E063412916E9FA3D99A PUSH1 0x0 DUP1 LOG2 STOP JUMPDEST PUSH1 0x40 MLOAD PUSH3 0x461BCD PUSH1 0xE5 SHL DUP2 MSTORE PUSH1 0x20 PUSH1 0x4 DUP3 ADD MSTORE PUSH1 0x18 PUSH1 0x24 DUP3 ADD MSTORE PUSH32 0x43726561746F7220616C72656164792076657269666965640000000000000000 PUSH1 0x44 DUP3 ADD MSTORE PUSH1 0x64 SWAP1 REVERT JUMPDEST POP PUSH1 0x2 SLOAD DUP2 GT ISZERO PUSH2 0x1E3 JUMP JUMPDEST CALLVALUE PUSH2 0xEE JUMPI PUSH2 0x2BD CALLDATASIZE PUSH2 0xCE8 JUMP JUMPDEST CALLER PUSH1 0x0 MSTORE PUSH1 0x20 SWAP1 PUSH1 0x6 DUP3 MSTORE PUSH1 0x40 PUSH1 0x0 KECCAK256 SLOAD ISZERO PUSH2 0x489 JUMPI PUSH2 0x2DF DUP2 MLOAD ISZERO ISZERO PUSH2 0xDB1 JUMP JUMPDEST CALLER PUSH1 0x0 MSTORE PUSH1 0x6 DUP3 MSTORE PUSH1 0x40 PUSH1 0x0 KECCAK256 SLOAD SWAP1 DUP2 PUSH1 0x0 MSTORE PUSH1 0x5 DUP4 MSTORE PUSH1 0x2 PUSH1 0x40 PUSH1 0x0 KECCAK256 ADD SWAP3 DUP2 MLOAD SWAP4 PUSH8 0xFFFFFFFFFFFFFFFF DUP6 GT PUSH2 0x473 JUMPI PUSH2 0x31B DUP2 SLOAD PUSH2 0xB89 JUMP JUMPDEST PUSH1 0x1F DUP2 GT PUSH2 0x42D JUMPI JUMPDEST POP DUP2 PUSH1 0x1F DUP7 GT PUSH1 0x1 EQ PUSH2 0x3A8 JUMPI SWAP5 DUP1 PUSH32 0xA2539DD6B1C295A14EB2F24AF489E7F57B1FCE0127FB2F8135295DD5E13E176 SWAP6 SWAP7 PUSH1 0x0 SWAP2 PUSH2 0x39D JUMPI JUMPDEST POP DUP2 PUSH1 0x1 SHL SWAP2 PUSH1 0x0 NOT SWAP1 PUSH1 0x3 SHL SHR NOT AND OR SWAP1 SSTORE JUMPDEST DUP4 PUSH1 0x0 MSTORE PUSH1 0x5 DUP2 MSTORE TIMESTAMP PUSH1 0x7 PUSH1 0x40 PUSH1 0x0 KECCAK256 ADD SSTORE PUSH2 0x398 PUSH1 0x40 MLOAD SWAP3 DUP3 DUP5 SWAP4 DUP5 MSTORE DUP4 ADD SWAP1 PUSH2 0xCA8 JUMP JUMPDEST SUB SWAP1 LOG2 STOP JUMPDEST SWAP1 POP DUP5 ADD MLOAD DUP8 PUSH2 0x35E JUMP JUMPDEST PUSH1 0x1F NOT DUP7 AND SWAP1 DUP3 PUSH1 0x0 MSTORE DUP4 PUSH1 0x0 KECCAK256 SWAP2 PUSH1 0x0 JUMPDEST DUP2 DUP2 LT PUSH2 0x416 JUMPI POP SWAP2 DUP8 SWAP2 PUSH32 0xA2539DD6B1C295A14EB2F24AF489E7F57B1FCE0127FB2F8135295DD5E13E176 SWAP8 SWAP9 PUSH1 0x1 SWAP5 LT PUSH2 0x3FD JUMPI JUMPDEST POP POP DUP2 SHL ADD SWAP1 SSTORE PUSH2 0x372 JUMP JUMPDEST DUP7 ADD MLOAD PUSH1 0x0 NOT PUSH1 0xF8 DUP5 PUSH1 0x3 SHL AND SHR NOT AND SWAP1 SSTORE DUP8 DUP1 PUSH2 0x3F1 JUMP JUMPDEST SWAP2 SWAP3 DUP6 PUSH1 0x1 DUP2 SWAP3 DUP7 DUP11 ADD MLOAD DUP2 SSTORE ADD SWAP5 ADD SWAP3 ADD PUSH2 0x3BA JUMP JUMPDEST DUP2 PUSH1 0x0 MSTORE DUP3 PUSH1 0x0 KECCAK256 PUSH1 0x1F DUP8 ADD PUSH1 0x5 SHR DUP2 ADD SWAP2 DUP5 DUP9 LT PUSH2 0x469 JUMPI JUMPDEST PUSH1 0x1F ADD PUSH1 0x5 SHR ADD SWAP1 JUMPDEST DUP2 DUP2 LT PUSH2 0x45D JUMPI POP PUSH2 0x324 JUMP JUMPDEST PUSH1 0x0 DUP2 SSTORE PUSH1 0x1 ADD PUSH2 0x450 JUMP JUMPDEST SWAP1 SWAP2 POP DUP2 SWAP1 PUSH2 0x447 JUMP JUMPDEST PUSH4 0x4E487B71 PUSH1 0xE0 SHL PUSH1 0x0 MSTORE PUSH1 0x41 PUSH1 0x4 MSTORE PUSH1 0x24 PUSH1 0x0 REVERT JUMPDEST PUSH1 0x40 MLOAD PUSH3 0x461BCD PUSH1 0xE5 SHL DUP2 MSTORE PUSH1 0x4 DUP2 ADD DUP4 SWAP1 MSTORE PUSH1 0x18 PUSH1 0x24 DUP3 ADD MSTORE PUSH32 0x4E6F74206120726567697374657265642063726561746F720000000000000000 PUSH1 0x44 DUP3 ADD MSTORE PUSH1 0x64 SWAP1 REVERT JUMPDEST CALLVALUE PUSH2 0xEE JUMPI PUSH2 0x4DC CALLDATASIZE PUSH2 0xCE8 JUMP JUMPDEST SWAP1 PUSH2 0x4E5 PUSH2 0xDFD JUMP JUMPDEST CALLER PUSH1 0x0 MSTORE PUSH1 0x6 PUSH1 0x20 MSTORE PUSH1 0x40 PUSH1 0x0 KECCAK256 SLOAD PUSH2 0x736 JUMPI PUSH2 0x504 DUP3 MLOAD ISZERO ISZERO PUSH2 0xDB1 JUMP JUMPDEST PUSH1 0x1 PUSH1 0x2 SLOAD ADD SWAP1 DUP2 PUSH1 0x2 SSTORE PUSH1 0x40 MLOAD SWAP1 PUSH2 0x51C DUP3 PUSH2 0xBC3 JUMP JUMPDEST DUP3 DUP3 MSTORE PUSH1 0x20 DUP3 ADD SWAP2 CALLER DUP4 MSTORE PUSH1 0x40 DUP2 ADD DUP6 DUP2 MSTORE PUSH1 0x0 PUSH1 0x60 DUP4 ADD MSTORE PUSH1 0x0 PUSH1 0x80 DUP4 ADD MSTORE PUSH1 0x0 PUSH1 0xA0 DUP4 ADD MSTORE TIMESTAMP PUSH1 0xC0 DUP4 ADD MSTORE TIMESTAMP DUP4 DUP4 ADD MSTORE DUP5 PUSH1 0x0 MSTORE PUSH1 0x5 PUSH1 0x20 MSTORE PUSH1 0x40 PUSH1 0x0 KECCAK256 SWAP4 DUP3 MLOAD DUP6 SSTORE PUSH1 0x1 DUP6 ADD SWAP1 PUSH1 0x1 DUP1 PUSH1 0xA0 SHL SUB SWAP1 MLOAD AND PUSH12 0xFFFFFFFFFFFFFFFFFFFFFFFF PUSH1 0xA0 SHL DUP3 SLOAD AND OR SWAP1 SSTORE MLOAD DUP1 MLOAD SWAP1 PUSH8 0xFFFFFFFFFFFFFFFF DUP3 GT PUSH2 0x473 JUMPI PUSH2 0x5A6 PUSH1 0x2 DUP7 ADD SLOAD PUSH2 0xB89 JUMP JUMPDEST PUSH1 0x1F DUP2 GT PUSH2 0x6EF JUMPI JUMPDEST POP PUSH1 0x20 SWAP1 PUSH1 0x1F DUP4 GT PUSH1 0x1 EQ PUSH2 0x67B JUMPI PUSH1 0x7 SWAP5 SWAP4 SWAP3 SWAP2 PUSH1 0x0 SWAP2 DUP4 PUSH2 0x670 JUMPI JUMPDEST POP POP DUP2 PUSH1 0x1 SHL SWAP2 PUSH1 0x0 NOT SWAP1 PUSH1 0x3 SHL SHR NOT AND OR PUSH1 0x2 DUP6 ADD SSTORE JUMPDEST PUSH1 0x60 DUP2 ADD MLOAD PUSH1 0x3 DUP6 ADD SSTORE PUSH1 0x80 DUP2 ADD MLOAD PUSH1 0x4 DUP6 ADD SSTORE PUSH1 0x5 DUP5 ADD PUSH1 0xA0 DUP3 ADD MLOAD ISZERO ISZERO PUSH1 0xFF DUP1 NOT DUP4 SLOAD AND SWAP2 AND OR SWAP1 SSTORE PUSH1 0xC0 DUP2 ADD MLOAD PUSH1 0x6 DUP6 ADD SSTORE ADD MLOAD SWAP2 ADD SSTORE CALLER PUSH1 0x0 MSTORE PUSH1 0x6 PUSH1 0x20 MSTORE DUP1 PUSH1 0x40 PUSH1 0x0 KECCAK256 SSTORE PUSH32 0x4CFDE7F67060004DEF7FFD71F6F34B90F732485709C3C9367AED20D0FD61A8CA PUSH1 0x40 MLOAD PUSH1 0x20 DUP2 MSTORE DUP1 PUSH2 0x667 CALLER SWAP6 PUSH1 0x20 DUP4 ADD SWAP1 PUSH2 0xCA8 JUMP JUMPDEST SUB SWAP1 LOG3 PUSH1 0x1 DUP1 SSTORE STOP JUMPDEST ADD MLOAD SWAP1 POP DUP9 DUP1 PUSH2 0x5CD JUMP JUMPDEST SWAP1 PUSH1 0x2 DUP7 ADD PUSH1 0x0 MSTORE PUSH1 0x20 PUSH1 0x0 KECCAK256 SWAP2 PUSH1 0x0 JUMPDEST PUSH1 0x1F NOT DUP6 AND DUP2 LT PUSH2 0x6D7 JUMPI POP SWAP2 DUP4 SWAP2 PUSH1 0x1 SWAP4 PUSH1 0x7 SWAP8 SWAP7 SWAP6 PUSH1 0x1F NOT DUP2 AND LT PUSH2 0x6BE JUMPI JUMPDEST POP POP POP DUP2 SHL ADD PUSH1 0x2 DUP6 ADD SSTORE PUSH2 0x5E5 JUMP JUMPDEST ADD MLOAD PUSH1 0x0 NOT PUSH1 0xF8 DUP5 PUSH1 0x3 SHL AND SHR NOT AND SWAP1 SSTORE DUP9 DUP1 DUP1 PUSH2 0x6AE JUMP JUMPDEST SWAP2 SWAP3 PUSH1 0x20 PUSH1 0x1 DUP2 SWAP3 DUP7 DUP6 ADD MLOAD DUP2 SSTORE ADD SWAP5 ADD SWAP3 ADD PUSH2 0x68C JUMP JUMPDEST PUSH1 0x2 DUP7 ADD PUSH1 0x0 MSTORE PUSH1 0x20 PUSH1 0x0 KECCAK256 PUSH1 0x1F DUP5 ADD PUSH1 0x5 SHR DUP2 ADD PUSH1 0x20 DUP6 LT PUSH2 0x72F JUMPI JUMPDEST PUSH1 0x1F DUP4 ADD PUSH1 0x5 SHR DUP3 ADD DUP2 LT PUSH2 0x723 JUMPI POP POP PUSH2 0x5AF JUMP JUMPDEST PUSH1 0x0 DUP2 SSTORE PUSH1 0x1 ADD PUSH2 0x70D JUMP JUMPDEST POP DUP1 PUSH2 0x70D JUMP JUMPDEST PUSH1 0x40 MLOAD PUSH3 0x461BCD PUSH1 0xE5 SHL DUP2 MSTORE PUSH1 0x20 PUSH1 0x4 DUP3 ADD MSTORE PUSH1 0x1D PUSH1 0x24 DUP3 ADD MSTORE PUSH32 0x416C726561647920726567697374657265642061732063726561746F72000000 PUSH1 0x44 DUP3 ADD MSTORE PUSH1 0x64 SWAP1 REVERT JUMPDEST CALLVALUE PUSH2 0xEE JUMPI PUSH1 0x20 SWAP1 DUP2 PUSH1 0x3 NOT CALLDATASIZE ADD SLT PUSH2 0xEE JUMPI PUSH1 0x4 CALLDATALOAD PUSH1 0x0 DUP3 PUSH1 0x40 MLOAD PUSH2 0x7A0 DUP2 PUSH2 0xBC3 JUMP JUMPDEST DUP3 DUP2 MSTORE DUP3 DUP7 DUP3 ADD MSTORE PUSH1 0x60 PUSH1 0x40 DUP3 ADD MSTORE DUP3 PUSH1 0x60 DUP3 ADD MSTORE DUP3 PUSH1 0x80 DUP3 ADD MSTORE DUP3 PUSH1 0xA0 DUP3 ADD MSTORE DUP3 PUSH1 0xC0 DUP3 ADD MSTORE ADD MSTORE DUP1 ISZERO ISZERO DUP1 PUSH2 0x8BB JUMPI JUMPDEST PUSH2 0x7DB SWAP1 PUSH2 0xE53 JUMP JUMPDEST PUSH1 0x0 MSTORE PUSH1 0x5 DUP3 MSTORE PUSH1 0x40 PUSH1 0x0 KECCAK256 SWAP1 PUSH1 0x40 MLOAD SWAP2 PUSH2 0x7F5 DUP4 PUSH2 0xBC3 JUMP JUMPDEST DUP1 SLOAD DUP4 MSTORE PUSH1 0x1 DUP2 ADD SLOAD PUSH1 0x1 PUSH1 0x1 PUSH1 0xA0 SHL SUB SWAP1 DUP2 AND DUP6 DUP6 ADD SWAP1 DUP2 MSTORE SWAP1 SWAP3 PUSH2 0x81D PUSH1 0x2 DUP5 ADD PUSH2 0xC02 JUMP JUMPDEST SWAP3 PUSH1 0x40 DUP7 ADD SWAP4 DUP5 MSTORE PUSH1 0x3 DUP2 ADD SLOAD SWAP5 PUSH1 0x60 DUP8 ADD SWAP6 DUP7 MSTORE PUSH1 0x4 DUP3 ADD SLOAD SWAP5 PUSH1 0x80 DUP9 ADD SWAP6 DUP7 MSTORE PUSH1 0xFF PUSH1 0x5 DUP5 ADD SLOAD AND SWAP2 PUSH1 0xA0 DUP10 ADD SWAP3 ISZERO ISZERO DUP4 MSTORE PUSH1 0x7 PUSH1 0x6 DUP6 ADD SLOAD SWAP5 PUSH1 0xC0 DUP12 ADD SWAP6 DUP7 MSTORE ADD SLOAD SWAP6 DUP6 DUP11 ADD SWAP7 DUP8 MSTORE PUSH1 0x40 MLOAD SWAP11 DUP12 SWAP11 DUP2 DUP13 MSTORE MLOAD SWAP1 DUP12 ADD MSTORE MLOAD AND PUSH1 0x40 DUP10 ADD MSTORE MLOAD SWAP5 PUSH2 0x898 PUSH2 0x100 SWAP7 DUP8 PUSH1 0x60 DUP12 ADD MSTORE PUSH2 0x120 DUP11 ADD SWAP1 PUSH2 0xCA8 JUMP JUMPDEST SWAP7 MLOAD PUSH1 0x80 DUP10 ADD MSTORE MLOAD PUSH1 0xA0 DUP9 ADD MSTORE MLOAD ISZERO ISZERO PUSH1 0xC0 DUP8 ADD MSTORE MLOAD SWAP1 DUP6 ADD MSTORE MLOAD SWAP1 DUP4 ADD MSTORE SUB SWAP1 RETURN JUMPDEST POP PUSH1 0x2 SLOAD DUP2 GT ISZERO PUSH2 0x7D2 JUMP JUMPDEST CALLVALUE PUSH2 0xEE JUMPI PUSH1 0x20 CALLDATASIZE PUSH1 0x3 NOT ADD SLT PUSH2 0xEE JUMPI PUSH1 0x4 CALLDATALOAD PUSH1 0x0 MSTORE PUSH1 0x5 PUSH1 0x20 MSTORE PUSH1 0x40 PUSH1 0x0 KECCAK256 DUP1 SLOAD SWAP1 PUSH1 0x1 DUP1 PUSH1 0xA0 SHL SUB PUSH1 0x1 DUP3 ADD SLOAD AND SWAP3 PUSH2 0x905 PUSH1 0x2 DUP4 ADD PUSH2 0xC02 JUMP JUMPDEST SWAP1 PUSH1 0x3 DUP4 ADD SLOAD SWAP3 PUSH1 0x4 DUP2 ADD SLOAD PUSH1 0xFF PUSH1 0x5 DUP4 ADD SLOAD AND SWAP1 PUSH2 0x946 PUSH1 0x7 PUSH1 0x6 DUP6 ADD SLOAD SWAP5 ADD SLOAD SWAP6 PUSH1 0x40 MLOAD SWAP10 DUP11 SWAP10 DUP11 MSTORE PUSH1 0x20 DUP11 ADD MSTORE PUSH2 0x100 DUP1 PUSH1 0x40 DUP12 ADD MSTORE DUP10 ADD SWAP1 PUSH2 0xCA8 JUMP JUMPDEST SWAP6 PUSH1 0x60 DUP9 ADD MSTORE PUSH1 0x80 DUP8 ADD MSTORE ISZERO ISZERO PUSH1 0xA0 DUP7 ADD MSTORE PUSH1 0xC0 DUP6 ADD MSTORE DUP4 ADD MSTORE SUB SWAP1 RETURN JUMPDEST CALLVALUE PUSH2 0xEE JUMPI PUSH1 0x0 CALLDATASIZE PUSH1 0x3 NOT ADD SLT PUSH2 0xEE JUMPI PUSH1 0x0 SLOAD PUSH1 0x40 MLOAD PUSH1 0x1 PUSH1 0x1 PUSH1 0xA0 SHL SUB SWAP1 SWAP2 AND DUP2 MSTORE PUSH1 0x20 SWAP1 RETURN JUMPDEST CALLVALUE PUSH2 0xEE JUMPI PUSH1 0x0 CALLDATASIZE PUSH1 0x3 NOT ADD SLT PUSH2 0xEE JUMPI PUSH2 0x9A6 PUSH2 0xD59 JUMP JUMPDEST PUSH1 0x0 DUP1 SLOAD PUSH1 0x1 PUSH1 0x1 PUSH1 0xA0 SHL SUB NOT DUP2 AND DUP3 SSTORE PUSH1 0x1 PUSH1 0x1 PUSH1 0xA0 SHL SUB AND PUSH32 0x8BE0079C531659141344CD1FD0A4F28419497F9722A3DAAFE3B4186F6B6457E0 DUP3 DUP1 LOG3 STOP JUMPDEST CALLVALUE PUSH2 0xEE JUMPI PUSH1 0x20 CALLDATASIZE PUSH1 0x3 NOT ADD SLT PUSH2 0xEE JUMPI PUSH1 0x4 CALLDATALOAD PUSH1 0x1 PUSH1 0x1 PUSH1 0xA0 SHL SUB DUP2 AND SWAP1 DUP2 SWAP1 SUB PUSH2 0xEE JUMPI PUSH1 0x0 MSTORE PUSH1 0x4 PUSH1 0x20 MSTORE PUSH1 0x20 PUSH1 0x40 PUSH1 0x0 KECCAK256 SLOAD ISZERO ISZERO PUSH1 0x40 MLOAD SWAP1 DUP2 MSTORE RETURN JUMPDEST CALLVALUE PUSH2 0xEE JUMPI PUSH1 0x60 CALLDATASIZE PUSH1 0x3 NOT ADD SLT PUSH2 0xEE JUMPI PUSH1 0x4 CALLDATALOAD PUSH1 0x24 CALLDATALOAD PUSH2 0xA45 PUSH2 0xDFD JUMP JUMPDEST DUP2 ISZERO ISZERO DUP1 PUSH2 0xB62 JUMPI JUMPDEST PUSH2 0xA57 SWAP1 PUSH2 0xE53 JUMP JUMPDEST DUP2 PUSH1 0x0 MSTORE PUSH1 0x5 PUSH1 0x20 MSTORE PUSH1 0x40 PUSH1 0x0 KECCAK256 SWAP1 PUSH1 0x0 DUP2 SGT PUSH1 0x0 EQ PUSH2 0xAC7 JUMPI DUP2 PUSH1 0x40 SWAP2 PUSH2 0xA93 PUSH1 0x3 PUSH1 0x0 DUP1 MLOAD PUSH1 0x20 PUSH2 0xF3F DUP4 CODECOPY DUP2 MLOAD SWAP2 MSTORE SWAP6 ADD SWAP2 DUP3 SLOAD PUSH2 0xF31 JUMP JUMPDEST SWAP1 SSTORE JUMPDEST PUSH1 0x3 PUSH1 0x4 DUP3 ADD SWAP2 PUSH2 0xAAA PUSH1 0x44 CALLDATALOAD DUP5 SLOAD PUSH2 0xF31 JUMP JUMPDEST DUP1 SWAP4 SSTORE TIMESTAMP PUSH1 0x7 DUP3 ADD SSTORE ADD SLOAD SWAP1 DUP3 MLOAD SWAP2 DUP3 MSTORE PUSH1 0x20 DUP3 ADD MSTORE LOG2 PUSH1 0x1 DUP1 SSTORE STOP JUMPDEST PUSH1 0x0 DUP2 SLT PUSH2 0xAE8 JUMPI JUMPDEST POP PUSH1 0x40 PUSH1 0x0 DUP1 MLOAD PUSH1 0x20 PUSH2 0xF3F DUP4 CODECOPY DUP2 MLOAD SWAP2 MSTORE SWAP2 PUSH2 0xA96 JUMP JUMPDEST SWAP1 PUSH1 0x1 PUSH1 0xFF SHL DUP3 EQ PUSH2 0xB30 JUMPI PUSH1 0x3 DUP2 ADD SWAP1 DUP3 PUSH1 0x0 SUB DUP3 SLOAD LT ISZERO PUSH1 0x0 EQ PUSH2 0xB46 JUMPI DUP2 SLOAD SWAP3 DUP4 ADD SWAP3 DUP4 GT PUSH2 0xB30 JUMPI PUSH1 0x0 DUP1 MLOAD PUSH1 0x20 PUSH2 0xF3F DUP4 CODECOPY DUP2 MLOAD SWAP2 MSTORE SWAP3 PUSH1 0x40 SWAP3 SSTORE JUMPDEST SWAP2 POP PUSH2 0xAD0 JUMP JUMPDEST PUSH4 0x4E487B71 PUSH1 0xE0 SHL PUSH1 0x0 MSTORE PUSH1 0x11 PUSH1 0x4 MSTORE PUSH1 0x24 PUSH1 0x0 REVERT JUMPDEST PUSH1 0x0 DUP1 MLOAD PUSH1 0x20 PUSH2 0xF3F DUP4 CODECOPY DUP2 MLOAD SWAP2 MSTORE SWAP3 POP PUSH1 0x0 PUSH1 0x40 SWAP3 SSTORE PUSH2 0xB29 JUMP JUMPDEST POP PUSH1 0x2 SLOAD DUP3 GT ISZERO PUSH2 0xA4E JUMP JUMPDEST CALLVALUE PUSH2 0xEE JUMPI PUSH1 0x0 CALLDATASIZE PUSH1 0x3 NOT ADD SLT PUSH2 0xEE JUMPI PUSH1 0x20 SWAP1 PUSH1 0x2 SLOAD DUP2 MSTORE RETURN JUMPDEST SWAP1 PUSH1 0x1 DUP3 DUP2 SHR SWAP3 AND DUP1 ISZERO PUSH2 0xBB9 JUMPI JUMPDEST PUSH1 0x20 DUP4 LT EQ PUSH2 0xBA3 JUMPI JUMP JUMPDEST PUSH4 0x4E487B71 PUSH1 0xE0 SHL PUSH1 0x0 MSTORE PUSH1 0x22 PUSH1 0x4 MSTORE PUSH1 0x24 PUSH1 0x0 REVERT JUMPDEST SWAP2 PUSH1 0x7F AND SWAP2 PUSH2 0xB98 JUMP JUMPDEST PUSH2 0x100 DUP2 ADD SWAP1 DUP2 LT PUSH8 0xFFFFFFFFFFFFFFFF DUP3 GT OR PUSH2 0x473 JUMPI PUSH1 0x40 MSTORE JUMP JUMPDEST SWAP1 PUSH1 0x1F DUP1 NOT SWAP2 ADD AND DUP2 ADD SWAP1 DUP2 LT PUSH8 0xFFFFFFFFFFFFFFFF DUP3 GT OR PUSH2 0x473 JUMPI PUSH1 0x40 MSTORE JUMP JUMPDEST SWAP1 PUSH1 0x40 MLOAD SWAP2 DUP3 PUSH1 0x0 DUP3 SLOAD SWAP3 PUSH2 0xC16 DUP5 PUSH2 0xB89 JUMP JUMPDEST SWAP1 DUP2 DUP5 MSTORE PUSH1 0x1 SWAP5 DUP6 DUP2 AND SWAP1 DUP2 PUSH1 0x0 EQ PUSH2 0xC85 JUMPI POP PUSH1 0x1 EQ PUSH2 0xC42 JUMPI JUMPDEST POP POP PUSH2 0xC40 SWAP3 POP SUB DUP4 PUSH2 0xBE0 JUMP JUMPDEST JUMP JUMPDEST SWAP1 SWAP4 SWAP2 POP PUSH1 0x0 MSTORE PUSH1 0x20 SWAP1 DUP2 PUSH1 0x0 KECCAK256 SWAP4 PUSH1 0x0 SWAP2 JUMPDEST DUP2 DUP4 LT PUSH2 0xC6D JUMPI POP POP PUSH2 0xC40 SWAP4 POP DUP3 ADD ADD CODESIZE DUP1 PUSH2 0xC32 JUMP JUMPDEST DUP6 SLOAD DUP9 DUP5 ADD DUP6 ADD MSTORE SWAP5 DUP6 ADD SWAP5 DUP8 SWAP5 POP SWAP2 DUP4 ADD SWAP2 PUSH2 0xC55 JUMP JUMPDEST SWAP2 POP POP PUSH2 0xC40 SWAP5 POP PUSH1 0x20 SWAP3 POP PUSH1 0xFF NOT AND DUP3 DUP5 ADD MSTORE ISZERO ISZERO PUSH1 0x5 SHL DUP3 ADD ADD CODESIZE DUP1 PUSH2 0xC32 JUMP JUMPDEST SWAP2 SWAP1 DUP3 MLOAD SWAP3 DUP4 DUP3 MSTORE PUSH1 0x0 JUMPDEST DUP5 DUP2 LT PUSH2 0xCD4 JUMPI POP POP DUP3 PUSH1 0x0 PUSH1 0x20 DUP1 SWAP5 SWAP6 DUP5 ADD ADD MSTORE PUSH1 0x1F DUP1 NOT SWAP2 ADD AND ADD ADD SWAP1 JUMP JUMPDEST PUSH1 0x20 DUP2 DUP4 ADD DUP2 ADD MLOAD DUP5 DUP4 ADD DUP3 ADD MSTORE ADD PUSH2 0xCB3 JUMP JUMPDEST PUSH1 0x20 PUSH1 0x3 NOT DUP3 ADD SLT PUSH2 0xEE JUMPI PUSH8 0xFFFFFFFFFFFFFFFF PUSH1 0x4 CALLDATALOAD DUP2 DUP2 GT PUSH2 0xEE JUMPI DUP3 PUSH1 0x23 DUP3 ADD SLT ISZERO PUSH2 0xEE JUMPI DUP1 PUSH1 0x4 ADD CALLDATALOAD SWAP2 DUP3 GT PUSH2 0x473 JUMPI PUSH1 0x40 MLOAD SWAP3 PUSH2 0xD36 PUSH1 0x1F DUP5 ADD PUSH1 0x1F NOT AND PUSH1 0x20 ADD DUP6 PUSH2 0xBE0 JUMP JUMPDEST DUP3 DUP5 MSTORE PUSH1 0x24 DUP4 DUP4 ADD ADD GT PUSH2 0xEE JUMPI DUP2 PUSH1 0x0 SWAP3 PUSH1 0x24 PUSH1 0x20 SWAP4 ADD DUP4 DUP7 ADD CALLDATACOPY DUP4 ADD ADD MSTORE SWAP1 JUMP JUMPDEST PUSH1 0x0 SLOAD PUSH1 0x1 PUSH1 0x1 PUSH1 0xA0 SHL SUB AND CALLER SUB PUSH2 0xD6D JUMPI JUMP JUMPDEST PUSH1 0x64 PUSH1 0x40 MLOAD PUSH3 0x461BCD PUSH1 0xE5 SHL DUP2 MSTORE PUSH1 0x20 PUSH1 0x4 DUP3 ADD MSTORE PUSH1 0x20 PUSH1 0x24 DUP3 ADD MSTORE PUSH32 0x4F776E61626C653A2063616C6C6572206973206E6F7420746865206F776E6572 PUSH1 0x44 DUP3 ADD MSTORE REVERT JUMPDEST ISZERO PUSH2 0xDB8 JUMPI JUMP JUMPDEST PUSH1 0x40 MLOAD PUSH3 0x461BCD PUSH1 0xE5 SHL DUP2 MSTORE PUSH1 0x20 PUSH1 0x4 DUP3 ADD MSTORE PUSH1 0x18 PUSH1 0x24 DUP3 ADD MSTORE PUSH32 0x4D65746164617461205552492069732072657175697265640000000000000000 PUSH1 0x44 DUP3 ADD MSTORE PUSH1 0x64 SWAP1 REVERT JUMPDEST PUSH1 0x2 PUSH1 0x1 SLOAD EQ PUSH2 0xE0E JUMPI PUSH1 0x2 PUSH1 0x1 SSTORE JUMP JUMPDEST PUSH1 0x40 MLOAD PUSH3 0x461BCD PUSH1 0xE5 SHL DUP2 MSTORE PUSH1 0x20 PUSH1 0x4 DUP3 ADD MSTORE PUSH1 0x1F PUSH1 0x24 DUP3 ADD MSTORE PUSH32 0x5265656E7472616E637947756172643A207265656E7472616E742063616C6C00 PUSH1 0x44 DUP3 ADD MSTORE PUSH1 0x64 SWAP1 REVERT JUMPDEST ISZERO PUSH2 0xE5A JUMPI JUMP JUMPDEST PUSH1 0x40 MLOAD PUSH3 0x461BCD PUSH1 0xE5 SHL DUP2 MSTORE PUSH1 0x20 PUSH1 0x4 DUP3 ADD MSTORE PUSH1 0x12 PUSH1 0x24 DUP3 ADD MSTORE PUSH18 0x125B9D985B1A590818DC99585D1BDC881251 PUSH1 0x72 SHL PUSH1 0x44 DUP3 ADD MSTORE PUSH1 0x64 SWAP1 REVERT JUMPDEST PUSH1 0x0 DUP2 DUP2 MSTORE PUSH1 0x4 PUSH1 0x20 MSTORE PUSH1 0x40 DUP2 KECCAK256 SLOAD PUSH2 0xF2C JUMPI PUSH1 0x3 SLOAD PUSH9 0x10000000000000000 DUP2 LT ISZERO PUSH2 0xF18 JUMPI PUSH1 0x1 DUP2 ADD DUP1 PUSH1 0x3 SSTORE DUP2 LT ISZERO PUSH2 0xF04 JUMPI SWAP1 DUP3 PUSH1 0x40 SWAP3 PUSH32 0xC2575A0E9E593C00F959F8C92F12DB2869C3395A3B0502D05E2516446F71F85B ADD SSTORE PUSH1 0x3 SLOAD SWAP3 DUP2 MSTORE PUSH1 0x4 PUSH1 0x20 MSTORE KECCAK256 SSTORE PUSH1 0x1 SWAP1 JUMP JUMPDEST PUSH4 0x4E487B71 PUSH1 0xE0 SHL DUP3 MSTORE PUSH1 0x32 PUSH1 0x4 MSTORE PUSH1 0x24 DUP3 REVERT JUMPDEST PUSH4 0x4E487B71 PUSH1 0xE0 SHL DUP3 MSTORE PUSH1 0x41 PUSH1 0x4 MSTORE PUSH1 0x24 DUP3 REVERT JUMPDEST SWAP1 POP SWAP1 JUMP JUMPDEST SWAP2 SWAP1 DUP3 ADD DUP1 SWAP3 GT PUSH2 0xB30 JUMPI JUMP INVALID EXTCODESIZE 0xF9 DUP16 0xE CALLVALUE 0xCC STATICCALL DUP15 EQ RETURNDATACOPY LOG2 CREATE 0xC7 SWAP11 SELFDESTRUCT SWAP5 0xB8 0xE6 DUP2 RETURN 0xC1 ISZERO 0x22 CALLCODE PUSH18 0x3688ACDC12B779A2646970667358221220BD GASLIMIT MULMOD POP SWAP12 PUSH29 0xF7FC2E603AF13F7E9D45D09A4B4976A6D23A60E3CCC8275EF3FA64736F PUSH13 0x63430008140033000000000000 "},"methodIdentifiers":{"creators(uint256)":"cd53d08e","getCreator(uint256)":"d48e638a","getCreatorIdByWallet(address)":"fb23b20b","getTotalCreators()":"31e8e39d","isVerifiedCreator(address)":"50dcf827","owner()":"8da5cb5b","registerCreator(string)":"dac0faf9","renounceOwnership()":"715018a6","transferOwnership(address)":"f2fde38b","updateCreator(string)":"dde9be99","updateStats(uint256,int256,uint256)":"4209e03d","verifyCreator(uint256)":"e5c14411","walletToCreatorId(address)":"663222c5"}}}}}