{"contracts/web3patreoncontract.sol":{"SubscriptionManager":{"abi":[{"inputs":[{"internalType":"address","name":"_creatorRegistry","type":"address"},{"internalType":"address","name":"_contentNFT","type":"address"},{"internalType":"address","name":"_treasuryWallet","type":"address"}],"stateMutability":"nonpayable","type":"constructor"},{"anonymous":false,"inputs":[{"indexed":true,"internalType":"address","name":"previousOwner","type":"address"},{"indexed":true,"internalType":"address","name":"newOwner","type":"address"}],"name":"OwnershipTransferred","type":"event"},{"anonymous":false,"inputs":[{"indexed":true,"internalType":"uint256","name":"subscriptionId","type":"uint256"},{"indexed":false,"internalType":"uint256","name":"amount","type":"uint256"},{"indexed":false,"internalType":"address","name":"tokenAddress","type":"address"}],"name":"PaymentProcessed","type":"event"},{"anonymous":false,"inputs":[{"indexed":true,"internalType":"uint256","name":"subscriptionId","type":"uint256"}],"name":"SubscriptionCancelled","type":"event"},{"anonymous":false,"inputs":[{"indexed":true,"internalType":"uint256","name":"subscriptionId","type":"uint256"},{"indexed":true,"internalType":"address","name":"subscriber","type":"address"},{"indexed":true,"internalType":"uint256","name":"creatorId","type":"uint256"},{"indexed":false,"internalType":"uint256","name":"tierId","type":"uint256"},{"indexed":false,"internalType":"uint256","name":"amount","type":"uint256"},{"indexed":false,"internalType":"uint256","name":"startTime","type":"uint256"},{"indexed":false,"internalType":"uint256","name":"endTime","type":"uint256"}],"name":"SubscriptionCreated","type":"event"},{"anonymous":false,"inputs":[{"indexed":true,"internalType":"uint256","name":"subscriptionId","type":"uint256"},{"indexed":false,"internalType":"uint256","name":"newEndTime","type":"uint256"}],"name":"SubscriptionRenewed","type":"event"},{"inputs":[{"internalType":"uint256","name":"subscriptionId","type":"uint256"}],"name":"cancelSubscription","outputs":[],"stateMutability":"nonpayable","type":"function"},{"inputs":[],"name":"contentNFT","outputs":[{"internalType":"contract ContentNFT","name":"","type":"address"}],"stateMutability":"view","type":"function"},{"inputs":[],"name":"creatorRegistry","outputs":[{"internalType":"contract CreatorRegistry","name":"","type":"address"}],"stateMutability":"view","type":"function"},{"inputs":[{"internalType":"address","name":"subscriber","type":"address"},{"internalType":"uint256","name":"creatorId","type":"uint256"}],"name":"getSubscriberSubscriptions","outputs":[{"internalType":"uint256[]","name":"","type":"uint256[]"}],"stateMutability":"view","type":"function"},{"inputs":[{"internalType":"uint256","name":"subscriptionId","type":"uint256"}],"name":"getSubscription","outputs":[{"components":[{"internalType":"uint256","name":"id","type":"uint256"},{"internalType":"address","name":"subscriber","type":"address"},{"internalType":"uint256","name":"creatorId","type":"uint256"},{"internalType":"uint256","name":"tierId","type":"uint256"},{"internalType":"uint256","name":"amount","type":"uint256"},{"internalType":"uint256","name":"startTime","type":"uint256"},{"internalType":"uint256","name":"endTime","type":"uint256"},{"internalType":"enum SubscriptionManager.SubscriptionStatus","name":"status","type":"uint8"},{"internalType":"enum SubscriptionManager.PaymentType","name":"paymentType","type":"uint8"},{"internalType":"address","name":"tokenAddress","type":"address"}],"internalType":"struct SubscriptionManager.Subscription","name":"","type":"tuple"}],"stateMutability":"view","type":"function"},{"inputs":[{"internalType":"uint256","name":"subscriptionId","type":"uint256"}],"name":"isSubscriptionActive","outputs":[{"internalType":"bool","name":"","type":"bool"}],"stateMutability":"view","type":"function"},{"inputs":[],"name":"owner","outputs":[{"internalType":"address","name":"","type":"address"}],"stateMutability":"view","type":"function"},{"inputs":[],"name":"platformFeePercent","outputs":[{"internalType":"uint256","name":"","type":"uint256"}],"stateMutability":"view","type":"function"},{"inputs":[{"internalType":"uint256","name":"subscriptionId","type":"uint256"},{"internalType":"uint256","name":"months","type":"uint256"}],"name":"renewSubscription","outputs":[],"stateMutability":"payable","type":"function"},{"inputs":[],"name":"renounceOwnership","outputs":[],"stateMutability":"nonpayable","type":"function"},{"inputs":[{"internalType":"uint256","name":"newFeePercent","type":"uint256"}],"name":"setPlatformFee","outputs":[],"stateMutability":"nonpayable","type":"function"},{"inputs":[{"internalType":"address","name":"newTreasuryWallet","type":"address"}],"name":"setTreasuryWallet","outputs":[],"stateMutability":"nonpayable","type":"function"},{"inputs":[{"internalType":"uint256","name":"creatorId","type":"uint256"},{"internalType":"uint256","name":"tierId","type":"uint256"},{"internalType":"uint256","name":"months","type":"uint256"}],"name":"subscribe","outputs":[{"internalType":"uint256","name":"","type":"uint256"}],"stateMutability":"payable","type":"function"},{"inputs":[{"internalType":"uint256","name":"creatorId","type":"uint256"},{"internalType":"uint256","name":"tierId","type":"uint256"},{"internalType":"uint256","name":"months","type":"uint256"},{"internalType":"address","name":"tokenAddress","type":"address"}],"name":"subscribeWithERC20","outputs":[{"internalType":"uint256","name":"","type":"uint256"}],"stateMutability":"nonpayable","type":"function"},{"inputs":[{"internalType":"address","name":"","type":"address"},{"internalType":"uint256","name":"","type":"uint256"},{"internalType":"uint256","name":"","type":"uint256"}],"name":"subscriberSubscriptions","outputs":[{"internalType":"uint256","name":"","type":"uint256"}],"stateMutability":"view","type":"function"},{"inputs":[{"internalType":"uint256","name":"","type":"uint256"}],"name":"subscriptions","outputs":[{"internalType":"uint256","name":"id","type":"uint256"},{"internalType":"address","name":"subscriber","type":"address"},{"internalType":"uint256","name":"creatorId","type":"uint256"},{"internalType":"uint256","name":"tierId","type":"uint256"},{"internalType":"uint256","name":"amount","type":"uint256"},{"internalType":"uint256","name":"startTime","type":"uint256"},{"internalType":"uint256","name":"endTime","type":"uint256"},{"internalType":"enum SubscriptionManager.SubscriptionStatus","name":"status","type":"uint8"},{"internalType":"enum SubscriptionManager.PaymentType","name":"paymentType","type":"uint8"},{"internalType":"address","name":"tokenAddress","type":"address"}],"stateMutability":"view","type":"function"},{"inputs":[{"internalType":"address","name":"newOwner","type":"address"}],"name":"transferOwnership","outputs":[],"stateMutability":"nonpayable","type":"function"},{"inputs":[],"name":"treasuryWallet","outputs":[{"internalType":"address","name":"","type":"address"}],"stateMutability":"view","type":"function"}],"evm":{"bytecode":{"linkReferences":{},"object":"6080346200014557601f6200254638819003918201601f19168301916001600160401b038311848410176200014a5780849260609460405283398101031262000145576200004d8162000160565b620000696040620000616020850162000160565b930162000160565b6000549260018060a01b03199233848616176000556040519460018060a01b03938491823391167f8be0079c531659141344cd1fd0a4f28419497f9722a3daafe3b4186f6b6457e0600080a3600180556005805516948515620000f4575082168360025416176002551681600354161760035560045416176004556040516123d09081620001768239f35b62461bcd60e51b815260206004820152602660248201527f54726561737572792077616c6c65742063616e6e6f74206265207a65726f206160448201526564647265737360d01b6064820152608490fd5b600080fd5b634e487b7160e01b600052604160045260246000fd5b51906001600160a01b0382168203620001455756fe6080604052600436101561001257600080fd5b6000803560e01c806312e8e2c314611b1a57806321235083146119cd57806328aef969146119a45780632d5bbf60146118f957806337815b09146112d95780634626402b146112b057806357e2c0f5146111a05780635ec4033414610a845780636c9eb774146105c8578063715018a61461056e5780638c639a85146105505780638da5cb5b146105295780639a6a5cf014610500578063a8602fea14610465578063d61ee6ef146103ab578063dc311dd31461020e578063ea0da2a0146101ab5763f2fde38b146100e357600080fd5b346101a85760203660031901126101a8576100fc611bcb565b610104611c0f565b6001600160a01b0390811690811561015457600054826001600160601b0360a01b821617600055167f8be0079c531659141344cd1fd0a4f28419497f9722a3daafe3b4186f6b6457e0600080a380f35b60405162461bcd60e51b815260206004820152602660248201527f4f776e61626c653a206e6577206f776e657220697320746865207a65726f206160448201526564647265737360d01b6064820152608490fd5b80fd5b50346101a85760603660031901126101a8576101c5611bcb565b6001600160a01b0316815260086020908152604080832060243584529091528120805460443592908310156101a85760206102008484611be1565b90546040519160031b1c8152f35b50346101a85760203660031901126101a85760406101409160043581610120845161023881611d2c565b82815282602082015282868201528260608201528260808201528260a08201528260c08201528260e08201528261010082015201528015158061039f575b61027f906122e9565b815260076020522060076040519161029683611d2c565b8054835260018101546001600160a01b03166020840152600281015460408401526003810154606084015260048101546080840152600581015460a0840152600681015460c084015201546102f160ff821660e08401612139565b61030560ff8260081c166101008401612145565b60018060a01b039060101c16610120820152604051908051825260018060a01b03602082015116602083015260408101516040830152606081015160608301526080810151608083015260a081015160a083015260c081015160c083015261037560e082015160e0840190611b9b565b610389610100820151610100840190611bbe565b610120908101516001600160a01b031690820152f35b50600654811115610276565b50346101a85760403660031901126101a8576001600160a01b036103cd611bcb565b16815260206008815260408220602435835281526040822060405192838383549182815201908193835284832090835b8181106104515750505084610413910385611d49565b60405193838594850191818652518092526040850193925b82811061043a57505050500390f35b83518552869550938101939281019260010161042b565b8254845292860192600192830192016103fd565b50346101a85760203660031901126101a85761047f611bcb565b610487611c0f565b6001600160a01b031680156104ac576001600160601b0360a01b600454161760045580f35b60405162461bcd60e51b815260206004820152602660248201527f54726561737572792077616c6c65742063616e6e6f74206265207a65726f206160448201526564647265737360d01b6064820152608490fd5b50346101a857806003193601126101a8576002546040516001600160a01b039091168152602090f35b50346101a857806003193601126101a857546040516001600160a01b039091168152602090f35b50346101a857806003193601126101a8576020600554604051908152f35b50346101a857806003193601126101a857610587611c0f565b600080546001600160a01b0319811682556001600160a01b03167f8be0079c531659141344cd1fd0a4f28419497f9722a3daafe3b4186f6b6457e08280a380f35b5060603660031901126101a8576044356105e06121a3565b8015906105ed8215611c67565b6105fa6004351515611cc1565b600354604051632783162d60e11b815260248035600483015290918591839182906001600160a01b03165afa8015610a575760808391610654938791610a62575b5061064d600435602083015114611e86565b0151611ed2565b9261066184341015611efb565b606461066f60055486611ed2565b049161067b8386611f3e565b9260248360018060a01b036002541660405192838092636a4731c560e11b825260043560048301525afa908115610a575784806106ff946106e3828080808d819a829a8391610a35575b50602001516001600160a01b03165af16106dd61200e565b5061203e565b6004546001600160a01b03165af16106f961200e565b50612094565b843411610a0e575b600160065401938460065562278d008083029283041417156109fa5761072d904261212c565b9160405161073a81611d2c565b848152336020820152600435604082015260243560608201528560808201524260a08201528360c08201528260e08201526101008101838152610120820190848252868552600760205260e0600760408720855181556001810160018060a01b036020880151166001600160601b0360a01b82541617905560408601516002820155606086015160038201556080860151600482015560a0860151600582015560c086015160068201550193015160038110156109e6576107fb9084612151565b519060028210156109d25761ff0083549162010000600160b01b03905160101b169260081b1690610100600160b01b0319161717905533825260086020526040822060043583526020526108528460408420612169565b6003546040516323a36d2b60e01b8152336004820152602480359082015260016044820152906020908290606490829087906001600160a01b03165af180156109c75761098e575b506002546001600160a01b031690813b1561098a578291606483926040519485938492634209e03d60e01b845260043560048501526001602485015260448401525af1801561097f5761096b575b6020848060008051602061237b83398151915260408988825190857f4ce7d0494bae52234d5b23e3c0d5c50c951ee8559386326790cded1eccaa6d3f600435938061095033954289602435859094939260609260808301968352602083015260408201520152565b0390a48151908152600086820152a260018055604051908152f35b6109758291611d02565b6101a857806108e8565b6040513d84823e3d90fd5b8280fd5b6020813d6020116109bf575b816109a760209383611d49565b8101031261098a576109b890611f4b565b503861089a565b3d915061099a565b6040513d85823e3d90fd5b634e487b7160e01b85526021600452602485fd5b634e487b7160e01b86526021600452602486fd5b634e487b7160e01b82526011600452602482fd5b610a3082808080610a1f8a34611f3e565b335af1610a2a61200e565b506120e0565b610707565b610a5191503d8085833e610a498183611d49565b810190611f58565b386106c5565b6040513d86823e3d90fd5b610a7e91503d8089833e610a768183611d49565b810190611de9565b3861063b565b5060403660031901126101a857610a996121a3565b600435151580611192575b610aad906122e9565b60243515611143576004358152600760205260408120610ada60018060a01b036001830154163314612335565b60018060a01b0360035416826003830154602460405180948193632783162d60e11b835260048301525afa80156109c757610b24918491611129575b506080602435910151611ed2565b90600781015460ff8160081c1660028110156109d257849190610d4e575050610b4f82341015611efb565b826064610b5e60055485611ed2565b04610b698185611f3e565b9060018060a01b0360025416836002860154602460405180948193636a4731c560e11b835260048301525afa918215610a575784808093926106e3828080808b610bcd9b829a8391610a355750602001516001600160a01b03165af16106dd61200e565b833411610d38575b60028054908401546001600160a01b0390911691823b15610d345760648492836040519586948593634209e03d60e01b8552600485015282602485015260448401525af1801561097f57610d20575b5050600781015460ff811660038110156109d2576001148015610d13575b15610ce35762278d00806024350290602435820403610ccf57610c676006914261212c565b92839260ff191660078201555b01556040519081527f328f4610a15d0e6c197e13cb1b184720c7e4e7dcf6e07423b7625da3128358b1602060043592a26040519081526000602082015260008051602061237b833981519152604060043592a25b6001805580f35b634e487b7160e01b85526011600452602485fd5b50600681015462278d0090816024350291602435830403610ccf5760069291610d0b9161212c565b918291610c74565b5060068201544211610c42565b610d2990611d02565b61098a578238610c24565b8380fd5b610d4982808080610a1f8934611f3e565b610bd5565b604051636eb1769f60e11b81523360048201523060248201526020816044816001600160a01b03601087901c165afa80156109c757859184916110e9575b5090610d999110156121f9565b6064610da760055486611ed2565b0490610db38286611f3e565b9160018060a01b0360025416846002870154602460405180948193636a4731c560e11b835260048301525afa80156110c45784602091610e2f9388916110cf575b508201516040516323b872dd60e01b81523360048201526001600160a01b039091166024820152604481019190915291829081906064820190565b038188601088901c6001600160a01b03165af19081156110c4578591611078575b5090610ea292610e61602093612245565b600480546040516323b872dd60e01b815233928101929092526001600160a01b03166024820152604481019290925290928391908290879082906064820190565b039260101c6001600160a01b03165af180156109c757839061103d575b610ec9915061229d565b60028054908401546001600160a01b0390911691823b15610d345760648492836040519586948593634209e03d60e01b8552600485015282602485015260448401525af1801561097f57611029575b5050600781015460ff811660038110156109d257600114801561101c575b15610fdf5762278d00806024350290602435820403610ccf5791610fd791610f6d60008051602061237b833981519152944261212c565b9060ff191660078301555b8060068301556040519081527f328f4610a15d0e6c197e13cb1b184720c7e4e7dcf6e07423b7625da3128358b1602060043592a2600701546040805194855260109190911c6001600160a01b0316602085015260043593918291820190565b0390a2610cc8565b50600681015462278d0090816024350291602435830403610ccf5791611017610fd79260008051602061237b8339815191529461212c565b610f78565b5060068201544211610f36565b61103290611d02565b61098a578238610f18565b506020813d602011611070575b8161105760209383611d49565b8101031261098a5761106b610ec991611f4b565b610ebf565b3d915061104a565b9190506020823d6020116110bc575b8161109460209383611d49565b810103126110b857610ea292610e616110ae602094611f4b565b9293505092610e50565b8480fd5b3d9150611087565b6040513d87823e3d90fd5b6110e391503d808a833e610a498183611d49565b38610df4565b935050506020823d602011611121575b8161110660209383611d49565b8101031261111c57610d99848693519091610d8c565b600080fd5b3d91506110f9565b61113d91503d8086833e610a768183611d49565b38610b16565b60405162461bcd60e51b815260206004820152602160248201527f4d7573742072656e657720666f72206174206c65617374206f6e65206d6f6e746044820152600d60fb1b6064820152608490fd5b506006546004351115610aa4565b50346101a85760203660031901126101a857600435801515806112a4575b6111c7906122e9565b81526007602052604081206040516111de81611d2c565b8154815260018201546001600160a01b039081166020830152600283015460408301526003830154606083015260048301546080830152600583015460a0830152600683015460c0830190815260079093015460e0830192916101209161124860ff821686612139565b61125c60ff8260081c166101008601612145565b60101c169101525160038110156112905760209250159081611284575b506040519015158152f35b90505142111538611279565b634e487b7160e01b83526021600452602483fd5b506006548111156111be565b50346101a857806003193601126101a8576004546040516001600160a01b039091168152602090f35b50346101a85760803660031901126101a8576064356001600160a01b038116900361111c576113066121a3565b6113136044351515611c67565b6113206004351515611cc1565b6064356001600160a01b0316156118bc57600354604051632783162d60e11b815260248035600483015290918391839182906001600160a01b03165afa801561097f5761138d9183916118a2575b50611380600435602083015114611e86565b6080604435910151611ed2565b604051636eb1769f60e11b81523360048201523060248201529091906020816044816001600160a01b03606435165afa801561097f578390839061186c575b6113d8925010156121f9565b60646113e660055484611ed2565b046113f18184611f3e565b9060248360018060a01b036002541660405192838092636a4731c560e11b825260043560048301525afa908115610a57578361146b92602092879161185857508201516040516323b872dd60e01b81523360048201526001600160a01b039091166024820152604481019190915291829081906064820190565b0381876064356001600160a01b03165af1908115610a57578491611812575b506114d59161149a602092612245565b600480546040516323b872dd60e01b815233928101929092526001600160a01b03166024820152604481019190915291829081906064820190565b0381866064356001600160a01b03165af180156109c75783906117d7575b6114fd915061229d565b600160065401918260065562278d008060443502906044358204146044351517156109fa5761152c904261212c565b9160405161153981611d2c565b84815260208101903382526040810160043581526060820160243581526080830189815260a0840142815260c085019189835260e08601938985526101008701956001875260018060a01b03606435166101208901528c8b52600760205260408b209888518a5560018a019060018060a01b039051166001600160601b0360a01b8254161790555160028901555160038801555160048701555160058601555160068501555160038110156109e6576115f59060078501612151565b519060028210156109d2579060079161ff00838501549161012062010000600160b01b0391015160101b169260081b1690610100600160b01b031916171791015533825260086020526040822060043583526020526116578460408420612169565b6003546040516323a36d2b60e01b8152336004820152602480359082015260016044820152906020908290606490829087906001600160a01b03165af180156109c75761179e575b506002546001600160a01b031690813b1561098a578291606483926040519485938492634209e03d60e01b845260043560048501526001602485015260448401525af1801561097f5761178a575b6020848060008051602061237b83398151915261177b898860405190857f4ce7d0494bae52234d5b23e3c0d5c50c951ee8559386326790cded1eccaa6d3f600435938061175733954289602435859094939260609260808301968352602083015260408201520152565b0390a4604080519182526001600160a01b0360643516602083015290918291820190565b0390a260018055604051908152f35b6117948291611d02565b6101a857806116ed565b6020813d6020116117cf575b816117b760209383611d49565b8101031261098a576117c890611f4b565b503861169f565b3d91506117aa565b506020813d60201161180a575b816117f160209383611d49565b8101031261098a576118056114fd91611f4b565b6114f3565b3d91506117e4565b90506020813d602011611850575b8161182d60209383611d49565b81010312610d34576114d59161149a611847602093611f4b565b9250509161148a565b3d9150611820565b6110e391503d8089833e610a498183611d49565b50506020813d60201161189a575b8161188760209383611d49565b8101031261111c57826113d891516113cc565b3d915061187a565b6118b691503d8085833e610a768183611d49565b3861136e565b60405162461bcd60e51b8152602060048201526015602482015274496e76616c696420746f6b656e206164647265737360581b6044820152606490fd5b50346101a85760203660031901126101a857604061014091600435815260076020522080549060018060a01b03908160018201541690600281015460038201546004830154906005840154926007600686015495015495604051988952602089015260408801526060870152608086015260a085015260c084015261198460e0840160ff8316611b9b565b611998610100840160ff8360081c16611bbe565b60101c16610120820152f35b50346101a857806003193601126101a8576003546040516001600160a01b039091168152602090f35b50346101a85760203660031901126101a857600435906119eb6121a3565b81151580611b0e575b6119fd906122e9565b81815260076020526040812060018101546001600160a01b0390611a249082163314612335565b600782019081549160ff831660038110156109e657611ac9576002809360ff1916179055815416910154813b1561098a578291606483926040519485938492634209e03d60e01b8452600484015260001960248401528160448401525af1801561097f57611aba575b50907fbd2bcea75d16a85f005cd83447e0de57341bf926fe7419e6d553663e91ab4da78280a26001805580f35b611ac390611d02565b38611a8d565b60405162461bcd60e51b815260206004820152601760248201527f537562736372697074696f6e206e6f74206163746976650000000000000000006044820152606490fd5b506006548211156119f4565b50346101a85760203660031901126101a857600435611b37611c0f565b60648111611b455760055580f35b60405162461bcd60e51b815260206004820152602860248201527f4665652070657263656e74616765206d757374206265206265747765656e2030604482015267020616e64203130360c41b6064820152608490fd5b906003821015611ba85752565b634e487b7160e01b600052602160045260246000fd5b906002821015611ba85752565b600435906001600160a01b038216820361111c57565b8054821015611bf95760005260206000200190600090565b634e487b7160e01b600052603260045260246000fd5b6000546001600160a01b03163303611c2357565b606460405162461bcd60e51b815260206004820152602060248201527f4f776e61626c653a2063616c6c6572206973206e6f7420746865206f776e65726044820152fd5b15611c6e57565b60405162461bcd60e51b815260206004820152602560248201527f4d7573742073756273637269626520666f72206174206c65617374206f6e65206044820152640dadedce8d60db1b6064820152608490fd5b15611cc857565b60405162461bcd60e51b8152602060048201526012602482015271125b9d985b1a590818dc99585d1bdc88125160721b6044820152606490fd5b67ffffffffffffffff8111611d1657604052565b634e487b7160e01b600052604160045260246000fd5b610140810190811067ffffffffffffffff821117611d1657604052565b90601f8019910116810190811067ffffffffffffffff821117611d1657604052565b67ffffffffffffffff8111611d1657601f01601f191660200190565b919080601f8401121561111c57825190611da082611d6b565b91611dae6040519384611d49565b80835260209182828701011161111c5760005b818110611dd657508260009394955001015290565b8581018301518482018401528201611dc1565b9060208282031261111c57815167ffffffffffffffff9283821161111c570160c08183031261111c576040519260c0840184811082821117611d16576040528151845260208201516020850152604082015181811161111c5783611e4e918401611d87565b6040850152606082015190811161111c5760a092611e6d918301611d87565b606084015260808101516080840152015160a082015290565b15611e8d57565b60405162461bcd60e51b815260206004820152601f60248201527f5469657220646f6573206e6f742062656c6f6e6720746f2063726561746f72006044820152606490fd5b81810292918115918404141715611ee557565b634e487b7160e01b600052601160045260246000fd5b15611f0257565b60405162461bcd60e51b8152602060048201526014602482015273125b9cdd59999a58da595b9d081c185e5b595b9d60621b6044820152606490fd5b91908203918211611ee557565b5190811515820361111c57565b9060208282031261111c57815167ffffffffffffffff9283821161111c570161010092838284031261111c5760405193840184811082821117611d16576040528151845260208201516001600160a01b038116810361111c576020850152604082015190811161111c5760e092611fd0918301611d87565b60408401526060810151606084015260808101516080840152611ff560a08201611f4b565b60a084015260c081015160c0840152015160e082015290565b3d15612039573d9061201f82611d6b565b9161202d6040519384611d49565b82523d6000602084013e565b606090565b1561204557565b60405162461bcd60e51b815260206004820152602160248201527f4661696c656420746f2073656e64207061796d656e7420746f2063726561746f6044820152603960f91b6064820152608490fd5b1561209b57565b60405162461bcd60e51b815260206004820152601b60248201527f4661696c656420746f2073656e6420706c6174666f726d2066656500000000006044820152606490fd5b156120e757565b60405162461bcd60e51b815260206004820152601f60248201527f4661696c656420746f20726566756e6420657863657373207061796d656e74006044820152606490fd5b91908201809211611ee557565b6003821015611ba85752565b6002821015611ba85752565b906003811015611ba85760ff80198354169116179055565b805468010000000000000000811015611d165761218b91600182018155611be1565b819291549060031b91821b91600019901b1916179055565b6002600154146121b4576002600155565b60405162461bcd60e51b815260206004820152601f60248201527f5265656e7472616e637947756172643a207265656e7472616e742063616c6c006044820152606490fd5b1561220057565b60405162461bcd60e51b815260206004820152601c60248201527f496e73756666696369656e7420746f6b656e20616c6c6f77616e6365000000006044820152606490fd5b1561224c57565b60405162461bcd60e51b8152602060048201526024808201527f4661696c656420746f207472616e7366657220746f6b656e7320746f2063726560448201526330ba37b960e11b6064820152608490fd5b156122a457565b60405162461bcd60e51b815260206004820152601f60248201527f4661696c656420746f207472616e7366657220706c6174666f726d20666565006044820152606490fd5b156122f057565b60405162461bcd60e51b815260206004820152601760248201527f496e76616c696420737562736372697074696f6e2049440000000000000000006044820152606490fd5b1561233c57565b60405162461bcd60e51b81526020600482015260166024820152752737ba1039bab139b1b934b83a34b7b71037bbb732b960511b6044820152606490fdfed3cf07392836def0e201fe7eb13ae977b999e29d70d4c55f6c55ba26b001393ea26469706673582212201b5a032ce05af2590f66648934b9add5ea58d500fe1f53bf76d5f13b9d0b347564736f6c63430008140033","opcodes":"PUSH1 0x80 CALLVALUE PUSH3 0x145 JUMPI PUSH1 0x1F PUSH3 0x2546 CODESIZE DUP2 SWAP1 SUB SWAP2 DUP3 ADD PUSH1 0x1F NOT AND DUP4 ADD SWAP2 PUSH1 0x1 PUSH1 0x1 PUSH1 0x40 SHL SUB DUP4 GT DUP5 DUP5 LT OR PUSH3 0x14A JUMPI DUP1 DUP5 SWAP3 PUSH1 0x60 SWAP5 PUSH1 0x40 MSTORE DUP4 CODECOPY DUP2 ADD SUB SLT PUSH3 0x145 JUMPI PUSH3 0x4D DUP2 PUSH3 0x160 JUMP JUMPDEST PUSH3 0x69 PUSH1 0x40 PUSH3 0x61 PUSH1 0x20 DUP6 ADD PUSH3 0x160 JUMP JUMPDEST SWAP4 ADD PUSH3 0x160 JUMP JUMPDEST PUSH1 0x0 SLOAD SWAP3 PUSH1 0x1 DUP1 PUSH1 0xA0 SHL SUB NOT SWAP3 CALLER DUP5 DUP7 AND OR PUSH1 0x0 SSTORE PUSH1 0x40 MLOAD SWAP5 PUSH1 0x1 DUP1 PUSH1 0xA0 SHL SUB SWAP4 DUP5 SWAP2 DUP3 CALLER SWAP2 AND PUSH32 0x8BE0079C531659141344CD1FD0A4F28419497F9722A3DAAFE3B4186F6B6457E0 PUSH1 0x0 DUP1 LOG3 PUSH1 0x1 DUP1 SSTORE PUSH1 0x5 DUP1 SSTORE AND SWAP5 DUP6 ISZERO PUSH3 0xF4 JUMPI POP DUP3 AND DUP4 PUSH1 0x2 SLOAD AND OR PUSH1 0x2 SSTORE AND DUP2 PUSH1 0x3 SLOAD AND OR PUSH1 0x3 SSTORE PUSH1 0x4 SLOAD AND OR PUSH1 0x4 SSTORE PUSH1 0x40 MLOAD PUSH2 0x23D0 SWAP1 DUP2 PUSH3 0x176 DUP3 CODECOPY RETURN JUMPDEST PUSH3 0x461BCD PUSH1 0xE5 SHL DUP2 MSTORE PUSH1 0x20 PUSH1 0x4 DUP3 ADD MSTORE PUSH1 0x26 PUSH1 0x24 DUP3 ADD MSTORE PUSH32 0x54726561737572792077616C6C65742063616E6E6F74206265207A65726F2061 PUSH1 0x44 DUP3 ADD MSTORE PUSH6 0x646472657373 PUSH1 0xD0 SHL PUSH1 0x64 DUP3 ADD MSTORE PUSH1 0x84 SWAP1 REVERT JUMPDEST PUSH1 0x0 DUP1 REVERT JUMPDEST PUSH4 0x4E487B71 PUSH1 0xE0 SHL PUSH1 0x0 MSTORE PUSH1 0x41 PUSH1 0x4 MSTORE PUSH1 0x24 PUSH1 0x0 REVERT JUMPDEST MLOAD SWAP1 PUSH1 0x1 PUSH1 0x1 PUSH1 0xA0 SHL SUB DUP3 AND DUP3 SUB PUSH3 0x145 JUMPI JUMP INVALID PUSH1 0x80 PUSH1 0x40 MSTORE PUSH1 0x4 CALLDATASIZE LT ISZERO PUSH2 0x12 JUMPI PUSH1 0x0 DUP1 REVERT JUMPDEST PUSH1 0x0 DUP1 CALLDATALOAD PUSH1 0xE0 SHR DUP1 PUSH4 0x12E8E2C3 EQ PUSH2 0x1B1A JUMPI DUP1 PUSH4 0x21235083 EQ PUSH2 0x19CD JUMPI DUP1 PUSH4 0x28AEF969 EQ PUSH2 0x19A4 JUMPI DUP1 PUSH4 0x2D5BBF60 EQ PUSH2 0x18F9 JUMPI DUP1 PUSH4 0x37815B09 EQ PUSH2 0x12D9 JUMPI DUP1 PUSH4 0x4626402B EQ PUSH2 0x12B0 JUMPI DUP1 PUSH4 0x57E2C0F5 EQ PUSH2 0x11A0 JUMPI DUP1 PUSH4 0x5EC40334 EQ PUSH2 0xA84 JUMPI DUP1 PUSH4 0x6C9EB774 EQ PUSH2 0x5C8 JUMPI DUP1 PUSH4 0x715018A6 EQ PUSH2 0x56E JUMPI DUP1 PUSH4 0x8C639A85 EQ PUSH2 0x550 JUMPI DUP1 PUSH4 0x8DA5CB5B EQ PUSH2 0x529 JUMPI DUP1 PUSH4 0x9A6A5CF0 EQ PUSH2 0x500 JUMPI DUP1 PUSH4 0xA8602FEA EQ PUSH2 0x465 JUMPI DUP1 PUSH4 0xD61EE6EF EQ PUSH2 0x3AB JUMPI DUP1 PUSH4 0xDC311DD3 EQ PUSH2 0x20E JUMPI DUP1 PUSH4 0xEA0DA2A0 EQ PUSH2 0x1AB JUMPI PUSH4 0xF2FDE38B EQ PUSH2 0xE3 JUMPI PUSH1 0x0 DUP1 REVERT JUMPDEST CALLVALUE PUSH2 0x1A8 JUMPI PUSH1 0x20 CALLDATASIZE PUSH1 0x3 NOT ADD SLT PUSH2 0x1A8 JUMPI PUSH2 0xFC PUSH2 0x1BCB JUMP JUMPDEST PUSH2 0x104 PUSH2 0x1C0F JUMP JUMPDEST PUSH1 0x1 PUSH1 0x1 PUSH1 0xA0 SHL SUB SWAP1 DUP2 AND SWAP1 DUP2 ISZERO PUSH2 0x154 JUMPI PUSH1 0x0 SLOAD DUP3 PUSH1 0x1 PUSH1 0x1 PUSH1 0x60 SHL SUB PUSH1 0xA0 SHL DUP3 AND OR PUSH1 0x0 SSTORE AND PUSH32 0x8BE0079C531659141344CD1FD0A4F28419497F9722A3DAAFE3B4186F6B6457E0 PUSH1 0x0 DUP1 LOG3 DUP1 RETURN JUMPDEST PUSH1 0x40 MLOAD PUSH3 0x461BCD PUSH1 0xE5 SHL DUP2 MSTORE PUSH1 0x20 PUSH1 0x4 DUP3 ADD MSTORE PUSH1 0x26 PUSH1 0x24 DUP3 ADD MSTORE PUSH32 0x4F776E61626C653A206E6577206F776E657220697320746865207A65726F2061 PUSH1 0x44 DUP3 ADD MSTORE PUSH6 0x646472657373 PUSH1 0xD0 SHL PUSH1 0x64 DUP3 ADD MSTORE PUSH1 0x84 SWAP1 REVERT JUMPDEST DUP1 REVERT JUMPDEST POP CALLVALUE PUSH2 0x1A8 JUMPI PUSH1 0x60 CALLDATASIZE PUSH1 0x3 NOT ADD SLT PUSH2 0x1A8 JUMPI PUSH2 0x1C5 PUSH2 0x1BCB JUMP JUMPDEST PUSH1 0x1 PUSH1 0x1 PUSH1 0xA0 SHL SUB AND DUP2 MSTORE PUSH1 0x8 PUSH1 0x20 SWAP1 DUP2 MSTORE PUSH1 0x40 DUP1 DUP4 KECCAK256 PUSH1 0x24 CALLDATALOAD DUP5 MSTORE SWAP1 SWAP2 MSTORE DUP2 KECCAK256 DUP1 SLOAD PUSH1 0x44 CALLDATALOAD SWAP3 SWAP1 DUP4 LT ISZERO PUSH2 0x1A8 JUMPI PUSH1 0x20 PUSH2 0x200 DUP5 DUP5 PUSH2 0x1BE1 JUMP JUMPDEST SWAP1 SLOAD PUSH1 0x40 MLOAD SWAP2 PUSH1 0x3 SHL SHR DUP2 MSTORE RETURN JUMPDEST POP CALLVALUE PUSH2 0x1A8 JUMPI PUSH1 0x20 CALLDATASIZE PUSH1 0x3 NOT ADD SLT PUSH2 0x1A8 JUMPI PUSH1 0x40 PUSH2 0x140 SWAP2 PUSH1 0x4 CALLDATALOAD DUP2 PUSH2 0x120 DUP5 MLOAD PUSH2 0x238 DUP2 PUSH2 0x1D2C JUMP JUMPDEST DUP3 DUP2 MSTORE DUP3 PUSH1 0x20 DUP3 ADD MSTORE DUP3 DUP7 DUP3 ADD MSTORE DUP3 PUSH1 0x60 DUP3 ADD MSTORE DUP3 PUSH1 0x80 DUP3 ADD MSTORE DUP3 PUSH1 0xA0 DUP3 ADD MSTORE DUP3 PUSH1 0xC0 DUP3 ADD MSTORE DUP3 PUSH1 0xE0 DUP3 ADD MSTORE DUP3 PUSH2 0x100 DUP3 ADD MSTORE ADD MSTORE DUP1 ISZERO ISZERO DUP1 PUSH2 0x39F JUMPI JUMPDEST PUSH2 0x27F SWAP1 PUSH2 0x22E9 JUMP JUMPDEST DUP2 MSTORE PUSH1 0x7 PUSH1 0x20 MSTORE KECCAK256 PUSH1 0x7 PUSH1 0x40 MLOAD SWAP2 PUSH2 0x296 DUP4 PUSH2 0x1D2C JUMP JUMPDEST DUP1 SLOAD DUP4 MSTORE PUSH1 0x1 DUP2 ADD SLOAD PUSH1 0x1 PUSH1 0x1 PUSH1 0xA0 SHL SUB AND PUSH1 0x20 DUP5 ADD MSTORE PUSH1 0x2 DUP2 ADD SLOAD PUSH1 0x40 DUP5 ADD MSTORE PUSH1 0x3 DUP2 ADD SLOAD PUSH1 0x60 DUP5 ADD MSTORE PUSH1 0x4 DUP2 ADD SLOAD PUSH1 0x80 DUP5 ADD MSTORE PUSH1 0x5 DUP2 ADD SLOAD PUSH1 0xA0 DUP5 ADD MSTORE PUSH1 0x6 DUP2 ADD SLOAD PUSH1 0xC0 DUP5 ADD MSTORE ADD SLOAD PUSH2 0x2F1 PUSH1 0xFF DUP3 AND PUSH1 0xE0 DUP5 ADD PUSH2 0x2139 JUMP JUMPDEST PUSH2 0x305 PUSH1 0xFF DUP3 PUSH1 0x8 SHR AND PUSH2 0x100 DUP5 ADD PUSH2 0x2145 JUMP JUMPDEST PUSH1 0x1 DUP1 PUSH1 0xA0 SHL SUB SWAP1 PUSH1 0x10 SHR AND PUSH2 0x120 DUP3 ADD MSTORE PUSH1 0x40 MLOAD SWAP1 DUP1 MLOAD DUP3 MSTORE PUSH1 0x1 DUP1 PUSH1 0xA0 SHL SUB PUSH1 0x20 DUP3 ADD MLOAD AND PUSH1 0x20 DUP4 ADD MSTORE PUSH1 0x40 DUP2 ADD MLOAD PUSH1 0x40 DUP4 ADD MSTORE PUSH1 0x60 DUP2 ADD MLOAD PUSH1 0x60 DUP4 ADD MSTORE PUSH1 0x80 DUP2 ADD MLOAD PUSH1 0x80 DUP4 ADD MSTORE PUSH1 0xA0 DUP2 ADD MLOAD PUSH1 0xA0 DUP4 ADD MSTORE PUSH1 0xC0 DUP2 ADD MLOAD PUSH1 0xC0 DUP4 ADD MSTORE PUSH2 0x375 PUSH1 0xE0 DUP3 ADD MLOAD PUSH1 0xE0 DUP5 ADD SWAP1 PUSH2 0x1B9B JUMP JUMPDEST PUSH2 0x389 PUSH2 0x100 DUP3 ADD MLOAD PUSH2 0x100 DUP5 ADD SWAP1 PUSH2 0x1BBE JUMP JUMPDEST PUSH2 0x120 SWAP1 DUP2 ADD MLOAD PUSH1 0x1 PUSH1 0x1 PUSH1 0xA0 SHL SUB AND SWAP1 DUP3 ADD MSTORE RETURN JUMPDEST POP PUSH1 0x6 SLOAD DUP2 GT ISZERO PUSH2 0x276 JUMP JUMPDEST POP CALLVALUE PUSH2 0x1A8 JUMPI PUSH1 0x40 CALLDATASIZE PUSH1 0x3 NOT ADD SLT PUSH2 0x1A8 JUMPI PUSH1 0x1 PUSH1 0x1 PUSH1 0xA0 SHL SUB PUSH2 0x3CD PUSH2 0x1BCB JUMP JUMPDEST AND DUP2 MSTORE PUSH1 0x20 PUSH1 0x8 DUP2 MSTORE PUSH1 0x40 DUP3 KECCAK256 PUSH1 0x24 CALLDATALOAD DUP4 MSTORE DUP2 MSTORE PUSH1 0x40 DUP3 KECCAK256 PUSH1 0x40 MLOAD SWAP3 DUP4 DUP4 DUP4 SLOAD SWAP2 DUP3 DUP2 MSTORE ADD SWAP1 DUP2 SWAP4 DUP4 MSTORE DUP5 DUP4 KECCAK256 SWAP1 DUP4 JUMPDEST DUP2 DUP2 LT PUSH2 0x451 JUMPI POP POP POP DUP5 PUSH2 0x413 SWAP2 SUB DUP6 PUSH2 0x1D49 JUMP JUMPDEST PUSH1 0x40 MLOAD SWAP4 DUP4 DUP6 SWAP5 DUP6 ADD SWAP2 DUP2 DUP7 MSTORE MLOAD DUP1 SWAP3 MSTORE PUSH1 0x40 DUP6 ADD SWAP4 SWAP3 JUMPDEST DUP3 DUP2 LT PUSH2 0x43A JUMPI POP POP POP POP SUB SWAP1 RETURN JUMPDEST DUP4 MLOAD DUP6 MSTORE DUP7 SWAP6 POP SWAP4 DUP2 ADD SWAP4 SWAP3 DUP2 ADD SWAP3 PUSH1 0x1 ADD PUSH2 0x42B JUMP JUMPDEST DUP3 SLOAD DUP5 MSTORE SWAP3 DUP7 ADD SWAP3 PUSH1 0x1 SWAP3 DUP4 ADD SWAP3 ADD PUSH2 0x3FD JUMP JUMPDEST POP CALLVALUE PUSH2 0x1A8 JUMPI PUSH1 0x20 CALLDATASIZE PUSH1 0x3 NOT ADD SLT PUSH2 0x1A8 JUMPI PUSH2 0x47F PUSH2 0x1BCB JUMP JUMPDEST PUSH2 0x487 PUSH2 0x1C0F JUMP JUMPDEST PUSH1 0x1 PUSH1 0x1 PUSH1 0xA0 SHL SUB AND DUP1 ISZERO PUSH2 0x4AC JUMPI PUSH1 0x1 PUSH1 0x1 PUSH1 0x60 SHL SUB PUSH1 0xA0 SHL PUSH1 0x4 SLOAD AND OR PUSH1 0x4 SSTORE DUP1 RETURN JUMPDEST PUSH1 0x40 MLOAD PUSH3 0x461BCD PUSH1 0xE5 SHL DUP2 MSTORE PUSH1 0x20 PUSH1 0x4 DUP3 ADD MSTORE PUSH1 0x26 PUSH1 0x24 DUP3 ADD MSTORE PUSH32 0x54726561737572792077616C6C65742063616E6E6F74206265207A65726F2061 PUSH1 0x44 DUP3 ADD MSTORE PUSH6 0x646472657373 PUSH1 0xD0 SHL PUSH1 0x64 DUP3 ADD MSTORE PUSH1 0x84 SWAP1 REVERT JUMPDEST POP CALLVALUE PUSH2 0x1A8 JUMPI DUP1 PUSH1 0x3 NOT CALLDATASIZE ADD SLT PUSH2 0x1A8 JUMPI PUSH1 0x2 SLOAD PUSH1 0x40 MLOAD PUSH1 0x1 PUSH1 0x1 PUSH1 0xA0 SHL SUB SWAP1 SWAP2 AND DUP2 MSTORE PUSH1 0x20 SWAP1 RETURN JUMPDEST POP CALLVALUE PUSH2 0x1A8 JUMPI DUP1 PUSH1 0x3 NOT CALLDATASIZE ADD SLT PUSH2 0x1A8 JUMPI SLOAD PUSH1 0x40 MLOAD PUSH1 0x1 PUSH1 0x1 PUSH1 0xA0 SHL SUB SWAP1 SWAP2 AND DUP2 MSTORE PUSH1 0x20 SWAP1 RETURN JUMPDEST POP CALLVALUE PUSH2 0x1A8 JUMPI DUP1 PUSH1 0x3 NOT CALLDATASIZE ADD SLT PUSH2 0x1A8 JUMPI PUSH1 0x20 PUSH1 0x5 SLOAD PUSH1 0x40 MLOAD SWAP1 DUP2 MSTORE RETURN JUMPDEST POP CALLVALUE PUSH2 0x1A8 JUMPI DUP1 PUSH1 0x3 NOT CALLDATASIZE ADD SLT PUSH2 0x1A8 JUMPI PUSH2 0x587 PUSH2 0x1C0F JUMP JUMPDEST PUSH1 0x0 DUP1 SLOAD PUSH1 0x1 PUSH1 0x1 PUSH1 0xA0 SHL SUB NOT DUP2 AND DUP3 SSTORE PUSH1 0x1 PUSH1 0x1 PUSH1 0xA0 SHL SUB AND PUSH32 0x8BE0079C531659141344CD1FD0A4F28419497F9722A3DAAFE3B4186F6B6457E0 DUP3 DUP1 LOG3 DUP1 RETURN JUMPDEST POP PUSH1 0x60 CALLDATASIZE PUSH1 0x3 NOT ADD SLT PUSH2 0x1A8 JUMPI PUSH1 0x44 CALLDATALOAD PUSH2 0x5E0 PUSH2 0x21A3 JUMP JUMPDEST DUP1 ISZERO SWAP1 PUSH2 0x5ED DUP3 ISZERO PUSH2 0x1C67 JUMP JUMPDEST PUSH2 0x5FA PUSH1 0x4 CALLDATALOAD ISZERO ISZERO PUSH2 0x1CC1 JUMP JUMPDEST PUSH1 0x3 SLOAD PUSH1 0x40 MLOAD PUSH4 0x2783162D PUSH1 0xE1 SHL DUP2 MSTORE PUSH1 0x24 DUP1 CALLDATALOAD PUSH1 0x4 DUP4 ADD MSTORE SWAP1 SWAP2 DUP6 SWAP2 DUP4 SWAP2 DUP3 SWAP1 PUSH1 0x1 PUSH1 0x1 PUSH1 0xA0 SHL SUB AND GAS STATICCALL DUP1 ISZERO PUSH2 0xA57 JUMPI PUSH1 0x80 DUP4 SWAP2 PUSH2 0x654 SWAP4 DUP8 SWAP2 PUSH2 0xA62 JUMPI JUMPDEST POP PUSH2 0x64D PUSH1 0x4 CALLDATALOAD PUSH1 0x20 DUP4 ADD MLOAD EQ PUSH2 0x1E86 JUMP JUMPDEST ADD MLOAD PUSH2 0x1ED2 JUMP JUMPDEST SWAP3 PUSH2 0x661 DUP5 CALLVALUE LT ISZERO PUSH2 0x1EFB JUMP JUMPDEST PUSH1 0x64 PUSH2 0x66F PUSH1 0x5 SLOAD DUP7 PUSH2 0x1ED2 JUMP JUMPDEST DIV SWAP2 PUSH2 0x67B DUP4 DUP7 PUSH2 0x1F3E JUMP JUMPDEST SWAP3 PUSH1 0x24 DUP4 PUSH1 0x1 DUP1 PUSH1 0xA0 SHL SUB PUSH1 0x2 SLOAD AND PUSH1 0x40 MLOAD SWAP3 DUP4 DUP1 SWAP3 PUSH4 0x6A4731C5 PUSH1 0xE1 SHL DUP3 MSTORE PUSH1 0x4 CALLDATALOAD PUSH1 0x4 DUP4 ADD MSTORE GAS STATICCALL SWAP1 DUP2 ISZERO PUSH2 0xA57 JUMPI DUP5 DUP1 PUSH2 0x6FF SWAP5 PUSH2 0x6E3 DUP3 DUP1 DUP1 DUP1 DUP14 DUP2 SWAP11 DUP3 SWAP11 DUP4 SWAP2 PUSH2 0xA35 JUMPI JUMPDEST POP PUSH1 0x20 ADD MLOAD PUSH1 0x1 PUSH1 0x1 PUSH1 0xA0 SHL SUB AND GAS CALL PUSH2 0x6DD PUSH2 0x200E JUMP JUMPDEST POP PUSH2 0x203E JUMP JUMPDEST PUSH1 0x4 SLOAD PUSH1 0x1 PUSH1 0x1 PUSH1 0xA0 SHL SUB AND GAS CALL PUSH2 0x6F9 PUSH2 0x200E JUMP JUMPDEST POP PUSH2 0x2094 JUMP JUMPDEST DUP5 CALLVALUE GT PUSH2 0xA0E JUMPI JUMPDEST PUSH1 0x1 PUSH1 0x6 SLOAD ADD SWAP4 DUP5 PUSH1 0x6 SSTORE PUSH3 0x278D00 DUP1 DUP4 MUL SWAP3 DUP4 DIV EQ OR ISZERO PUSH2 0x9FA JUMPI PUSH2 0x72D SWAP1 TIMESTAMP PUSH2 0x212C JUMP JUMPDEST SWAP2 PUSH1 0x40 MLOAD PUSH2 0x73A DUP2 PUSH2 0x1D2C JUMP JUMPDEST DUP5 DUP2 MSTORE CALLER PUSH1 0x20 DUP3 ADD MSTORE PUSH1 0x4 CALLDATALOAD PUSH1 0x40 DUP3 ADD MSTORE PUSH1 0x24 CALLDATALOAD PUSH1 0x60 DUP3 ADD MSTORE DUP6 PUSH1 0x80 DUP3 ADD MSTORE TIMESTAMP PUSH1 0xA0 DUP3 ADD MSTORE DUP4 PUSH1 0xC0 DUP3 ADD MSTORE DUP3 PUSH1 0xE0 DUP3 ADD MSTORE PUSH2 0x100 DUP2 ADD DUP4 DUP2 MSTORE PUSH2 0x120 DUP3 ADD SWAP1 DUP5 DUP3 MSTORE DUP7 DUP6 MSTORE PUSH1 0x7 PUSH1 0x20 MSTORE PUSH1 0xE0 PUSH1 0x7 PUSH1 0x40 DUP8 KECCAK256 DUP6 MLOAD DUP2 SSTORE PUSH1 0x1 DUP2 ADD PUSH1 0x1 DUP1 PUSH1 0xA0 SHL SUB PUSH1 0x20 DUP9 ADD MLOAD AND PUSH1 0x1 PUSH1 0x1 PUSH1 0x60 SHL SUB PUSH1 0xA0 SHL DUP3 SLOAD AND OR SWAP1 SSTORE PUSH1 0x40 DUP7 ADD MLOAD PUSH1 0x2 DUP3 ADD SSTORE PUSH1 0x60 DUP7 ADD MLOAD PUSH1 0x3 DUP3 ADD SSTORE PUSH1 0x80 DUP7 ADD MLOAD PUSH1 0x4 DUP3 ADD SSTORE PUSH1 0xA0 DUP7 ADD MLOAD PUSH1 0x5 DUP3 ADD SSTORE PUSH1 0xC0 DUP7 ADD MLOAD PUSH1 0x6 DUP3 ADD SSTORE ADD SWAP4 ADD MLOAD PUSH1 0x3 DUP2 LT ISZERO PUSH2 0x9E6 JUMPI PUSH2 0x7FB SWAP1 DUP5 PUSH2 0x2151 JUMP JUMPDEST MLOAD SWAP1 PUSH1 0x2 DUP3 LT ISZERO PUSH2 0x9D2 JUMPI PUSH2 0xFF00 DUP4 SLOAD SWAP2 PUSH3 0x10000 PUSH1 0x1 PUSH1 0xB0 SHL SUB SWAP1 MLOAD PUSH1 0x10 SHL AND SWAP3 PUSH1 0x8 SHL AND SWAP1 PUSH2 0x100 PUSH1 0x1 PUSH1 0xB0 SHL SUB NOT AND OR OR SWAP1 SSTORE CALLER DUP3 MSTORE PUSH1 0x8 PUSH1 0x20 MSTORE PUSH1 0x40 DUP3 KECCAK256 PUSH1 0x4 CALLDATALOAD DUP4 MSTORE PUSH1 0x20 MSTORE PUSH2 0x852 DUP5 PUSH1 0x40 DUP5 KECCAK256 PUSH2 0x2169 JUMP JUMPDEST PUSH1 0x3 SLOAD PUSH1 0x40 MLOAD PUSH4 0x23A36D2B PUSH1 0xE0 SHL DUP2 MSTORE CALLER PUSH1 0x4 DUP3 ADD MSTORE PUSH1 0x24 DUP1 CALLDATALOAD SWAP1 DUP3 ADD MSTORE PUSH1 0x1 PUSH1 0x44 DUP3 ADD MSTORE SWAP1 PUSH1 0x20 SWAP1 DUP3 SWAP1 PUSH1 0x64 SWAP1 DUP3 SWAP1 DUP8 SWAP1 PUSH1 0x1 PUSH1 0x1 PUSH1 0xA0 SHL SUB AND GAS CALL DUP1 ISZERO PUSH2 0x9C7 JUMPI PUSH2 0x98E JUMPI JUMPDEST POP PUSH1 0x2 SLOAD PUSH1 0x1 PUSH1 0x1 PUSH1 0xA0 SHL SUB AND SWAP1 DUP2 EXTCODESIZE ISZERO PUSH2 0x98A JUMPI DUP3 SWAP2 PUSH1 0x64 DUP4 SWAP3 PUSH1 0x40 MLOAD SWAP5 DUP6 SWAP4 DUP5 SWAP3 PUSH4 0x4209E03D PUSH1 0xE0 SHL DUP5 MSTORE PUSH1 0x4 CALLDATALOAD PUSH1 0x4 DUP6 ADD MSTORE PUSH1 0x1 PUSH1 0x24 DUP6 ADD MSTORE PUSH1 0x44 DUP5 ADD MSTORE GAS CALL DUP1 ISZERO PUSH2 0x97F JUMPI PUSH2 0x96B JUMPI JUMPDEST PUSH1 0x20 DUP5 DUP1 PUSH1 0x0 DUP1 MLOAD PUSH1 0x20 PUSH2 0x237B DUP4 CODECOPY DUP2 MLOAD SWAP2 MSTORE PUSH1 0x40 DUP10 DUP9 DUP3 MLOAD SWAP1 DUP6 PUSH32 0x4CE7D0494BAE52234D5B23E3C0D5C50C951EE8559386326790CDED1ECCAA6D3F PUSH1 0x4 CALLDATALOAD SWAP4 DUP1 PUSH2 0x950 CALLER SWAP6 TIMESTAMP DUP10 PUSH1 0x24 CALLDATALOAD DUP6 SWAP1 SWAP5 SWAP4 SWAP3 PUSH1 0x60 SWAP3 PUSH1 0x80 DUP4 ADD SWAP7 DUP4 MSTORE PUSH1 0x20 DUP4 ADD MSTORE PUSH1 0x40 DUP3 ADD MSTORE ADD MSTORE JUMP JUMPDEST SUB SWAP1 LOG4 DUP2 MLOAD SWAP1 DUP2 MSTORE PUSH1 0x0 DUP7 DUP3 ADD MSTORE LOG2 PUSH1 0x1 DUP1 SSTORE PUSH1 0x40 MLOAD SWAP1 DUP2 MSTORE RETURN JUMPDEST PUSH2 0x975 DUP3 SWAP2 PUSH2 0x1D02 JUMP JUMPDEST PUSH2 0x1A8 JUMPI DUP1 PUSH2 0x8E8 JUMP JUMPDEST PUSH1 0x40 MLOAD RETURNDATASIZE DUP5 DUP3 RETURNDATACOPY RETURNDATASIZE SWAP1 REVERT JUMPDEST DUP3 DUP1 REVERT JUMPDEST PUSH1 0x20 DUP2 RETURNDATASIZE PUSH1 0x20 GT PUSH2 0x9BF JUMPI JUMPDEST DUP2 PUSH2 0x9A7 PUSH1 0x20 SWAP4 DUP4 PUSH2 0x1D49 JUMP JUMPDEST DUP2 ADD SUB SLT PUSH2 0x98A JUMPI PUSH2 0x9B8 SWAP1 PUSH2 0x1F4B JUMP JUMPDEST POP CODESIZE PUSH2 0x89A JUMP JUMPDEST RETURNDATASIZE SWAP2 POP PUSH2 0x99A JUMP JUMPDEST PUSH1 0x40 MLOAD RETURNDATASIZE DUP6 DUP3 RETURNDATACOPY RETURNDATASIZE SWAP1 REVERT JUMPDEST PUSH4 0x4E487B71 PUSH1 0xE0 SHL DUP6 MSTORE PUSH1 0x21 PUSH1 0x4 MSTORE PUSH1 0x24 DUP6 REVERT JUMPDEST PUSH4 0x4E487B71 PUSH1 0xE0 SHL DUP7 MSTORE PUSH1 0x21 PUSH1 0x4 MSTORE PUSH1 0x24 DUP7 REVERT JUMPDEST PUSH4 0x4E487B71 PUSH1 0xE0 SHL DUP3 MSTORE PUSH1 0x11 PUSH1 0x4 MSTORE PUSH1 0x24 DUP3 REVERT JUMPDEST PUSH2 0xA30 DUP3 DUP1 DUP1 DUP1 PUSH2 0xA1F DUP11 CALLVALUE PUSH2 0x1F3E JUMP JUMPDEST CALLER GAS CALL PUSH2 0xA2A PUSH2 0x200E JUMP JUMPDEST POP PUSH2 0x20E0 JUMP JUMPDEST PUSH2 0x707 JUMP JUMPDEST PUSH2 0xA51 SWAP2 POP RETURNDATASIZE DUP1 DUP6 DUP4 RETURNDATACOPY PUSH2 0xA49 DUP2 DUP4 PUSH2 0x1D49 JUMP JUMPDEST DUP2 ADD SWAP1 PUSH2 0x1F58 JUMP JUMPDEST CODESIZE PUSH2 0x6C5 JUMP JUMPDEST PUSH1 0x40 MLOAD RETURNDATASIZE DUP7 DUP3 RETURNDATACOPY RETURNDATASIZE SWAP1 REVERT JUMPDEST PUSH2 0xA7E SWAP2 POP RETURNDATASIZE DUP1 DUP10 DUP4 RETURNDATACOPY PUSH2 0xA76 DUP2 DUP4 PUSH2 0x1D49 JUMP JUMPDEST DUP2 ADD SWAP1 PUSH2 0x1DE9 JUMP JUMPDEST CODESIZE PUSH2 0x63B JUMP JUMPDEST POP PUSH1 0x40 CALLDATASIZE PUSH1 0x3 NOT ADD SLT PUSH2 0x1A8 JUMPI PUSH2 0xA99 PUSH2 0x21A3 JUMP JUMPDEST PUSH1 0x4 CALLDATALOAD ISZERO ISZERO DUP1 PUSH2 0x1192 JUMPI JUMPDEST PUSH2 0xAAD SWAP1 PUSH2 0x22E9 JUMP JUMPDEST PUSH1 0x24 CALLDATALOAD ISZERO PUSH2 0x1143 JUMPI PUSH1 0x4 CALLDATALOAD DUP2 MSTORE PUSH1 0x7 PUSH1 0x20 MSTORE PUSH1 0x40 DUP2 KECCAK256 PUSH2 0xADA PUSH1 0x1 DUP1 PUSH1 0xA0 SHL SUB PUSH1 0x1 DUP4 ADD SLOAD AND CALLER EQ PUSH2 0x2335 JUMP JUMPDEST PUSH1 0x1 DUP1 PUSH1 0xA0 SHL SUB PUSH1 0x3 SLOAD AND DUP3 PUSH1 0x3 DUP4 ADD SLOAD PUSH1 0x24 PUSH1 0x40 MLOAD DUP1 SWAP5 DUP2 SWAP4 PUSH4 0x2783162D PUSH1 0xE1 SHL DUP4 MSTORE PUSH1 0x4 DUP4 ADD MSTORE GAS STATICCALL DUP1 ISZERO PUSH2 0x9C7 JUMPI PUSH2 0xB24 SWAP2 DUP5 SWAP2 PUSH2 0x1129 JUMPI JUMPDEST POP PUSH1 0x80 PUSH1 0x24 CALLDATALOAD SWAP2 ADD MLOAD PUSH2 0x1ED2 JUMP JUMPDEST SWAP1 PUSH1 0x7 DUP2 ADD SLOAD PUSH1 0xFF DUP2 PUSH1 0x8 SHR AND PUSH1 0x2 DUP2 LT ISZERO PUSH2 0x9D2 JUMPI DUP5 SWAP2 SWAP1 PUSH2 0xD4E JUMPI POP POP PUSH2 0xB4F DUP3 CALLVALUE LT ISZERO PUSH2 0x1EFB JUMP JUMPDEST DUP3 PUSH1 0x64 PUSH2 0xB5E PUSH1 0x5 SLOAD DUP6 PUSH2 0x1ED2 JUMP JUMPDEST DIV PUSH2 0xB69 DUP2 DUP6 PUSH2 0x1F3E JUMP JUMPDEST SWAP1 PUSH1 0x1 DUP1 PUSH1 0xA0 SHL SUB PUSH1 0x2 SLOAD AND DUP4 PUSH1 0x2 DUP7 ADD SLOAD PUSH1 0x24 PUSH1 0x40 MLOAD DUP1 SWAP5 DUP2 SWAP4 PUSH4 0x6A4731C5 PUSH1 0xE1 SHL DUP4 MSTORE PUSH1 0x4 DUP4 ADD MSTORE GAS STATICCALL SWAP2 DUP3 ISZERO PUSH2 0xA57 JUMPI DUP5 DUP1 DUP1 SWAP4 SWAP3 PUSH2 0x6E3 DUP3 DUP1 DUP1 DUP1 DUP12 PUSH2 0xBCD SWAP12 DUP3 SWAP11 DUP4 SWAP2 PUSH2 0xA35 JUMPI POP PUSH1 0x20 ADD MLOAD PUSH1 0x1 PUSH1 0x1 PUSH1 0xA0 SHL SUB AND GAS CALL PUSH2 0x6DD PUSH2 0x200E JUMP JUMPDEST DUP4 CALLVALUE GT PUSH2 0xD38 JUMPI JUMPDEST PUSH1 0x2 DUP1 SLOAD SWAP1 DUP5 ADD SLOAD PUSH1 0x1 PUSH1 0x1 PUSH1 0xA0 SHL SUB SWAP1 SWAP2 AND SWAP2 DUP3 EXTCODESIZE ISZERO PUSH2 0xD34 JUMPI PUSH1 0x64 DUP5 SWAP3 DUP4 PUSH1 0x40 MLOAD SWAP6 DUP7 SWAP5 DUP6 SWAP4 PUSH4 0x4209E03D PUSH1 0xE0 SHL DUP6 MSTORE PUSH1 0x4 DUP6 ADD MSTORE DUP3 PUSH1 0x24 DUP6 ADD MSTORE PUSH1 0x44 DUP5 ADD MSTORE GAS CALL DUP1 ISZERO PUSH2 0x97F JUMPI PUSH2 0xD20 JUMPI JUMPDEST POP POP PUSH1 0x7 DUP2 ADD SLOAD PUSH1 0xFF DUP2 AND PUSH1 0x3 DUP2 LT ISZERO PUSH2 0x9D2 JUMPI PUSH1 0x1 EQ DUP1 ISZERO PUSH2 0xD13 JUMPI JUMPDEST ISZERO PUSH2 0xCE3 JUMPI PUSH3 0x278D00 DUP1 PUSH1 0x24 CALLDATALOAD MUL SWAP1 PUSH1 0x24 CALLDATALOAD DUP3 DIV SUB PUSH2 0xCCF JUMPI PUSH2 0xC67 PUSH1 0x6 SWAP2 TIMESTAMP PUSH2 0x212C JUMP JUMPDEST SWAP3 DUP4 SWAP3 PUSH1 0xFF NOT AND PUSH1 0x7 DUP3 ADD SSTORE JUMPDEST ADD SSTORE PUSH1 0x40 MLOAD SWAP1 DUP2 MSTORE PUSH32 0x328F4610A15D0E6C197E13CB1B184720C7E4E7DCF6E07423B7625DA3128358B1 PUSH1 0x20 PUSH1 0x4 CALLDATALOAD SWAP3 LOG2 PUSH1 0x40 MLOAD SWAP1 DUP2 MSTORE PUSH1 0x0 PUSH1 0x20 DUP3 ADD MSTORE PUSH1 0x0 DUP1 MLOAD PUSH1 0x20 PUSH2 0x237B DUP4 CODECOPY DUP2 MLOAD SWAP2 MSTORE PUSH1 0x40 PUSH1 0x4 CALLDATALOAD SWAP3 LOG2 JUMPDEST PUSH1 0x1 DUP1 SSTORE DUP1 RETURN JUMPDEST PUSH4 0x4E487B71 PUSH1 0xE0 SHL DUP6 MSTORE PUSH1 0x11 PUSH1 0x4 MSTORE PUSH1 0x24 DUP6 REVERT JUMPDEST POP PUSH1 0x6 DUP2 ADD SLOAD PUSH3 0x278D00 SWAP1 DUP2 PUSH1 0x24 CALLDATALOAD MUL SWAP2 PUSH1 0x24 CALLDATALOAD DUP4 DIV SUB PUSH2 0xCCF JUMPI PUSH1 0x6 SWAP3 SWAP2 PUSH2 0xD0B SWAP2 PUSH2 0x212C JUMP JUMPDEST SWAP2 DUP3 SWAP2 PUSH2 0xC74 JUMP JUMPDEST POP PUSH1 0x6 DUP3 ADD SLOAD TIMESTAMP GT PUSH2 0xC42 JUMP JUMPDEST PUSH2 0xD29 SWAP1 PUSH2 0x1D02 JUMP JUMPDEST PUSH2 0x98A JUMPI DUP3 CODESIZE PUSH2 0xC24 JUMP JUMPDEST DUP4 DUP1 REVERT JUMPDEST PUSH2 0xD49 DUP3 DUP1 DUP1 DUP1 PUSH2 0xA1F DUP10 CALLVALUE PUSH2 0x1F3E JUMP JUMPDEST PUSH2 0xBD5 JUMP JUMPDEST PUSH1 0x40 MLOAD PUSH4 0x6EB1769F PUSH1 0xE1 SHL DUP2 MSTORE CALLER PUSH1 0x4 DUP3 ADD MSTORE ADDRESS PUSH1 0x24 DUP3 ADD MSTORE PUSH1 0x20 DUP2 PUSH1 0x44 DUP2 PUSH1 0x1 PUSH1 0x1 PUSH1 0xA0 SHL SUB PUSH1 0x10 DUP8 SWAP1 SHR AND GAS STATICCALL DUP1 ISZERO PUSH2 0x9C7 JUMPI DUP6 SWAP2 DUP5 SWAP2 PUSH2 0x10E9 JUMPI JUMPDEST POP SWAP1 PUSH2 0xD99 SWAP2 LT ISZERO PUSH2 0x21F9 JUMP JUMPDEST PUSH1 0x64 PUSH2 0xDA7 PUSH1 0x5 SLOAD DUP7 PUSH2 0x1ED2 JUMP JUMPDEST DIV SWAP1 PUSH2 0xDB3 DUP3 DUP7 PUSH2 0x1F3E JUMP JUMPDEST SWAP2 PUSH1 0x1 DUP1 PUSH1 0xA0 SHL SUB PUSH1 0x2 SLOAD AND DUP5 PUSH1 0x2 DUP8 ADD SLOAD PUSH1 0x24 PUSH1 0x40 MLOAD DUP1 SWAP5 DUP2 SWAP4 PUSH4 0x6A4731C5 PUSH1 0xE1 SHL DUP4 MSTORE PUSH1 0x4 DUP4 ADD MSTORE GAS STATICCALL DUP1 ISZERO PUSH2 0x10C4 JUMPI DUP5 PUSH1 0x20 SWAP2 PUSH2 0xE2F SWAP4 DUP9 SWAP2 PUSH2 0x10CF JUMPI JUMPDEST POP DUP3 ADD MLOAD PUSH1 0x40 MLOAD PUSH4 0x23B872DD PUSH1 0xE0 SHL DUP2 MSTORE CALLER PUSH1 0x4 DUP3 ADD MSTORE PUSH1 0x1 PUSH1 0x1 PUSH1 0xA0 SHL SUB SWAP1 SWAP2 AND PUSH1 0x24 DUP3 ADD MSTORE PUSH1 0x44 DUP2 ADD SWAP2 SWAP1 SWAP2 MSTORE SWAP2 DUP3 SWAP1 DUP2 SWAP1 PUSH1 0x64 DUP3 ADD SWAP1 JUMP JUMPDEST SUB DUP2 DUP9 PUSH1 0x10 DUP9 SWAP1 SHR PUSH1 0x1 PUSH1 0x1 PUSH1 0xA0 SHL SUB AND GAS CALL SWAP1 DUP2 ISZERO PUSH2 0x10C4 JUMPI DUP6 SWAP2 PUSH2 0x1078 JUMPI JUMPDEST POP SWAP1 PUSH2 0xEA2 SWAP3 PUSH2 0xE61 PUSH1 0x20 SWAP4 PUSH2 0x2245 JUMP JUMPDEST PUSH1 0x4 DUP1 SLOAD PUSH1 0x40 MLOAD PUSH4 0x23B872DD PUSH1 0xE0 SHL DUP2 MSTORE CALLER SWAP3 DUP2 ADD SWAP3 SWAP1 SWAP3 MSTORE PUSH1 0x1 PUSH1 0x1 PUSH1 0xA0 SHL SUB AND PUSH1 0x24 DUP3 ADD MSTORE PUSH1 0x44 DUP2 ADD SWAP3 SWAP1 SWAP3 MSTORE SWAP1 SWAP3 DUP4 SWAP2 SWAP1 DUP3 SWAP1 DUP8 SWAP1 DUP3 SWAP1 PUSH1 0x64 DUP3 ADD SWAP1 JUMP JUMPDEST SUB SWAP3 PUSH1 0x10 SHR PUSH1 0x1 PUSH1 0x1 PUSH1 0xA0 SHL SUB AND GAS CALL DUP1 ISZERO PUSH2 0x9C7 JUMPI DUP4 SWAP1 PUSH2 0x103D JUMPI JUMPDEST PUSH2 0xEC9 SWAP2 POP PUSH2 0x229D JUMP JUMPDEST PUSH1 0x2 DUP1 SLOAD SWAP1 DUP5 ADD SLOAD PUSH1 0x1 PUSH1 0x1 PUSH1 0xA0 SHL SUB SWAP1 SWAP2 AND SWAP2 DUP3 EXTCODESIZE ISZERO PUSH2 0xD34 JUMPI PUSH1 0x64 DUP5 SWAP3 DUP4 PUSH1 0x40 MLOAD SWAP6 DUP7 SWAP5 DUP6 SWAP4 PUSH4 0x4209E03D PUSH1 0xE0 SHL DUP6 MSTORE PUSH1 0x4 DUP6 ADD MSTORE DUP3 PUSH1 0x24 DUP6 ADD MSTORE PUSH1 0x44 DUP5 ADD MSTORE GAS CALL DUP1 ISZERO PUSH2 0x97F JUMPI PUSH2 0x1029 JUMPI JUMPDEST POP POP PUSH1 0x7 DUP2 ADD SLOAD PUSH1 0xFF DUP2 AND PUSH1 0x3 DUP2 LT ISZERO PUSH2 0x9D2 JUMPI PUSH1 0x1 EQ DUP1 ISZERO PUSH2 0x101C JUMPI JUMPDEST ISZERO PUSH2 0xFDF JUMPI PUSH3 0x278D00 DUP1 PUSH1 0x24 CALLDATALOAD MUL SWAP1 PUSH1 0x24 CALLDATALOAD DUP3 DIV SUB PUSH2 0xCCF JUMPI SWAP2 PUSH2 0xFD7 SWAP2 PUSH2 0xF6D PUSH1 0x0 DUP1 MLOAD PUSH1 0x20 PUSH2 0x237B DUP4 CODECOPY DUP2 MLOAD SWAP2 MSTORE SWAP5 TIMESTAMP PUSH2 0x212C JUMP JUMPDEST SWAP1 PUSH1 0xFF NOT AND PUSH1 0x7 DUP4 ADD SSTORE JUMPDEST DUP1 PUSH1 0x6 DUP4 ADD SSTORE PUSH1 0x40 MLOAD SWAP1 DUP2 MSTORE PUSH32 0x328F4610A15D0E6C197E13CB1B184720C7E4E7DCF6E07423B7625DA3128358B1 PUSH1 0x20 PUSH1 0x4 CALLDATALOAD SWAP3 LOG2 PUSH1 0x7 ADD SLOAD PUSH1 0x40 DUP1 MLOAD SWAP5 DUP6 MSTORE PUSH1 0x10 SWAP2 SWAP1 SWAP2 SHR PUSH1 0x1 PUSH1 0x1 PUSH1 0xA0 SHL SUB AND PUSH1 0x20 DUP6 ADD MSTORE PUSH1 0x4 CALLDATALOAD SWAP4 SWAP2 DUP3 SWAP2 DUP3 ADD SWAP1 JUMP JUMPDEST SUB SWAP1 LOG2 PUSH2 0xCC8 JUMP JUMPDEST POP PUSH1 0x6 DUP2 ADD SLOAD PUSH3 0x278D00 SWAP1 DUP2 PUSH1 0x24 CALLDATALOAD MUL SWAP2 PUSH1 0x24 CALLDATALOAD DUP4 DIV SUB PUSH2 0xCCF JUMPI SWAP2 PUSH2 0x1017 PUSH2 0xFD7 SWAP3 PUSH1 0x0 DUP1 MLOAD PUSH1 0x20 PUSH2 0x237B DUP4 CODECOPY DUP2 MLOAD SWAP2 MSTORE SWAP5 PUSH2 0x212C JUMP JUMPDEST PUSH2 0xF78 JUMP JUMPDEST POP PUSH1 0x6 DUP3 ADD SLOAD TIMESTAMP GT PUSH2 0xF36 JUMP JUMPDEST PUSH2 0x1032 SWAP1 PUSH2 0x1D02 JUMP JUMPDEST PUSH2 0x98A JUMPI DUP3 CODESIZE PUSH2 0xF18 JUMP JUMPDEST POP PUSH1 0x20 DUP2 RETURNDATASIZE PUSH1 0x20 GT PUSH2 0x1070 JUMPI JUMPDEST DUP2 PUSH2 0x1057 PUSH1 0x20 SWAP4 DUP4 PUSH2 0x1D49 JUMP JUMPDEST DUP2 ADD SUB SLT PUSH2 0x98A JUMPI PUSH2 0x106B PUSH2 0xEC9 SWAP2 PUSH2 0x1F4B JUMP JUMPDEST PUSH2 0xEBF JUMP JUMPDEST RETURNDATASIZE SWAP2 POP PUSH2 0x104A JUMP JUMPDEST SWAP2 SWAP1 POP PUSH1 0x20 DUP3 RETURNDATASIZE PUSH1 0x20 GT PUSH2 0x10BC JUMPI JUMPDEST DUP2 PUSH2 0x1094 PUSH1 0x20 SWAP4 DUP4 PUSH2 0x1D49 JUMP JUMPDEST DUP2 ADD SUB SLT PUSH2 0x10B8 JUMPI PUSH2 0xEA2 SWAP3 PUSH2 0xE61 PUSH2 0x10AE PUSH1 0x20 SWAP5 PUSH2 0x1F4B JUMP JUMPDEST SWAP3 SWAP4 POP POP SWAP3 PUSH2 0xE50 JUMP JUMPDEST DUP5 DUP1 REVERT JUMPDEST RETURNDATASIZE SWAP2 POP PUSH2 0x1087 JUMP JUMPDEST PUSH1 0x40 MLOAD RETURNDATASIZE DUP8 DUP3 RETURNDATACOPY RETURNDATASIZE SWAP1 REVERT JUMPDEST PUSH2 0x10E3 SWAP2 POP RETURNDATASIZE DUP1 DUP11 DUP4 RETURNDATACOPY PUSH2 0xA49 DUP2 DUP4 PUSH2 0x1D49 JUMP JUMPDEST CODESIZE PUSH2 0xDF4 JUMP JUMPDEST SWAP4 POP POP POP PUSH1 0x20 DUP3 RETURNDATASIZE PUSH1 0x20 GT PUSH2 0x1121 JUMPI JUMPDEST DUP2 PUSH2 0x1106 PUSH1 0x20 SWAP4 DUP4 PUSH2 0x1D49 JUMP JUMPDEST DUP2 ADD SUB SLT PUSH2 0x111C JUMPI PUSH2 0xD99 DUP5 DUP7 SWAP4 MLOAD SWAP1 SWAP2 PUSH2 0xD8C JUMP JUMPDEST PUSH1 0x0 DUP1 REVERT JUMPDEST RETURNDATASIZE SWAP2 POP PUSH2 0x10F9 JUMP JUMPDEST PUSH2 0x113D SWAP2 POP RETURNDATASIZE DUP1 DUP7 DUP4 RETURNDATACOPY PUSH2 0xA76 DUP2 DUP4 PUSH2 0x1D49 JUMP JUMPDEST CODESIZE PUSH2 0xB16 JUMP JUMPDEST PUSH1 0x40 MLOAD PUSH3 0x461BCD PUSH1 0xE5 SHL DUP2 MSTORE PUSH1 0x20 PUSH1 0x4 DUP3 ADD MSTORE PUSH1 0x21 PUSH1 0x24 DUP3 ADD MSTORE PUSH32 0x4D7573742072656E657720666F72206174206C65617374206F6E65206D6F6E74 PUSH1 0x44 DUP3 ADD MSTORE PUSH1 0xD PUSH1 0xFB SHL PUSH1 0x64 DUP3 ADD MSTORE PUSH1 0x84 SWAP1 REVERT JUMPDEST POP PUSH1 0x6 SLOAD PUSH1 0x4 CALLDATALOAD GT ISZERO PUSH2 0xAA4 JUMP JUMPDEST POP CALLVALUE PUSH2 0x1A8 JUMPI PUSH1 0x20 CALLDATASIZE PUSH1 0x3 NOT ADD SLT PUSH2 0x1A8 JUMPI PUSH1 0x4 CALLDATALOAD DUP1 ISZERO ISZERO DUP1 PUSH2 0x12A4 JUMPI JUMPDEST PUSH2 0x11C7 SWAP1 PUSH2 0x22E9 JUMP JUMPDEST DUP2 MSTORE PUSH1 0x7 PUSH1 0x20 MSTORE PUSH1 0x40 DUP2 KECCAK256 PUSH1 0x40 MLOAD PUSH2 0x11DE DUP2 PUSH2 0x1D2C JUMP JUMPDEST DUP2 SLOAD DUP2 MSTORE PUSH1 0x1 DUP3 ADD SLOAD PUSH1 0x1 PUSH1 0x1 PUSH1 0xA0 SHL SUB SWAP1 DUP2 AND PUSH1 0x20 DUP4 ADD MSTORE PUSH1 0x2 DUP4 ADD SLOAD PUSH1 0x40 DUP4 ADD MSTORE PUSH1 0x3 DUP4 ADD SLOAD PUSH1 0x60 DUP4 ADD MSTORE PUSH1 0x4 DUP4 ADD SLOAD PUSH1 0x80 DUP4 ADD MSTORE PUSH1 0x5 DUP4 ADD SLOAD PUSH1 0xA0 DUP4 ADD MSTORE PUSH1 0x6 DUP4 ADD SLOAD PUSH1 0xC0 DUP4 ADD SWAP1 DUP2 MSTORE PUSH1 0x7 SWAP1 SWAP4 ADD SLOAD PUSH1 0xE0 DUP4 ADD SWAP3 SWAP2 PUSH2 0x120 SWAP2 PUSH2 0x1248 PUSH1 0xFF DUP3 AND DUP7 PUSH2 0x2139 JUMP JUMPDEST PUSH2 0x125C PUSH1 0xFF DUP3 PUSH1 0x8 SHR AND PUSH2 0x100 DUP7 ADD PUSH2 0x2145 JUMP JUMPDEST PUSH1 0x10 SHR AND SWAP2 ADD MSTORE MLOAD PUSH1 0x3 DUP2 LT ISZERO PUSH2 0x1290 JUMPI PUSH1 0x20 SWAP3 POP ISZERO SWAP1 DUP2 PUSH2 0x1284 JUMPI JUMPDEST POP PUSH1 0x40 MLOAD SWAP1 ISZERO ISZERO DUP2 MSTORE RETURN JUMPDEST SWAP1 POP MLOAD TIMESTAMP GT ISZERO CODESIZE PUSH2 0x1279 JUMP JUMPDEST PUSH4 0x4E487B71 PUSH1 0xE0 SHL DUP4 MSTORE PUSH1 0x21 PUSH1 0x4 MSTORE PUSH1 0x24 DUP4 REVERT JUMPDEST POP PUSH1 0x6 SLOAD DUP2 GT ISZERO PUSH2 0x11BE JUMP JUMPDEST POP CALLVALUE PUSH2 0x1A8 JUMPI DUP1 PUSH1 0x3 NOT CALLDATASIZE ADD SLT PUSH2 0x1A8 JUMPI PUSH1 0x4 SLOAD PUSH1 0x40 MLOAD PUSH1 0x1 PUSH1 0x1 PUSH1 0xA0 SHL SUB SWAP1 SWAP2 AND DUP2 MSTORE PUSH1 0x20 SWAP1 RETURN JUMPDEST POP CALLVALUE PUSH2 0x1A8 JUMPI PUSH1 0x80 CALLDATASIZE PUSH1 0x3 NOT ADD SLT PUSH2 0x1A8 JUMPI PUSH1 0x64 CALLDATALOAD PUSH1 0x1 PUSH1 0x1 PUSH1 0xA0 SHL SUB DUP2 AND SWAP1 SUB PUSH2 0x111C JUMPI PUSH2 0x1306 PUSH2 0x21A3 JUMP JUMPDEST PUSH2 0x1313 PUSH1 0x44 CALLDATALOAD ISZERO ISZERO PUSH2 0x1C67 JUMP JUMPDEST PUSH2 0x1320 PUSH1 0x4 CALLDATALOAD ISZERO ISZERO PUSH2 0x1CC1 JUMP JUMPDEST PUSH1 0x64 CALLDATALOAD PUSH1 0x1 PUSH1 0x1 PUSH1 0xA0 SHL SUB AND ISZERO PUSH2 0x18BC JUMPI PUSH1 0x3 SLOAD PUSH1 0x40 MLOAD PUSH4 0x2783162D PUSH1 0xE1 SHL DUP2 MSTORE PUSH1 0x24 DUP1 CALLDATALOAD PUSH1 0x4 DUP4 ADD MSTORE SWAP1 SWAP2 DUP4 SWAP2 DUP4 SWAP2 DUP3 SWAP1 PUSH1 0x1 PUSH1 0x1 PUSH1 0xA0 SHL SUB AND GAS STATICCALL DUP1 ISZERO PUSH2 0x97F JUMPI PUSH2 0x138D SWAP2 DUP4 SWAP2 PUSH2 0x18A2 JUMPI JUMPDEST POP PUSH2 0x1380 PUSH1 0x4 CALLDATALOAD PUSH1 0x20 DUP4 ADD MLOAD EQ PUSH2 0x1E86 JUMP JUMPDEST PUSH1 0x80 PUSH1 0x44 CALLDATALOAD SWAP2 ADD MLOAD PUSH2 0x1ED2 JUMP JUMPDEST PUSH1 0x40 MLOAD PUSH4 0x6EB1769F PUSH1 0xE1 SHL DUP2 MSTORE CALLER PUSH1 0x4 DUP3 ADD MSTORE ADDRESS PUSH1 0x24 DUP3 ADD MSTORE SWAP1 SWAP2 SWAP1 PUSH1 0x20 DUP2 PUSH1 0x44 DUP2 PUSH1 0x1 PUSH1 0x1 PUSH1 0xA0 SHL SUB PUSH1 0x64 CALLDATALOAD AND GAS STATICCALL DUP1 ISZERO PUSH2 0x97F JUMPI DUP4 SWAP1 DUP4 SWAP1 PUSH2 0x186C JUMPI JUMPDEST PUSH2 0x13D8 SWAP3 POP LT ISZERO PUSH2 0x21F9 JUMP JUMPDEST PUSH1 0x64 PUSH2 0x13E6 PUSH1 0x5 SLOAD DUP5 PUSH2 0x1ED2 JUMP JUMPDEST DIV PUSH2 0x13F1 DUP2 DUP5 PUSH2 0x1F3E JUMP JUMPDEST SWAP1 PUSH1 0x24 DUP4 PUSH1 0x1 DUP1 PUSH1 0xA0 SHL SUB PUSH1 0x2 SLOAD AND PUSH1 0x40 MLOAD SWAP3 DUP4 DUP1 SWAP3 PUSH4 0x6A4731C5 PUSH1 0xE1 SHL DUP3 MSTORE PUSH1 0x4 CALLDATALOAD PUSH1 0x4 DUP4 ADD MSTORE GAS STATICCALL SWAP1 DUP2 ISZERO PUSH2 0xA57 JUMPI DUP4 PUSH2 0x146B SWAP3 PUSH1 0x20 SWAP3 DUP8 SWAP2 PUSH2 0x1858 JUMPI POP DUP3 ADD MLOAD PUSH1 0x40 MLOAD PUSH4 0x23B872DD PUSH1 0xE0 SHL DUP2 MSTORE CALLER PUSH1 0x4 DUP3 ADD MSTORE PUSH1 0x1 PUSH1 0x1 PUSH1 0xA0 SHL SUB SWAP1 SWAP2 AND PUSH1 0x24 DUP3 ADD MSTORE PUSH1 0x44 DUP2 ADD SWAP2 SWAP1 SWAP2 MSTORE SWAP2 DUP3 SWAP1 DUP2 SWAP1 PUSH1 0x64 DUP3 ADD SWAP1 JUMP JUMPDEST SUB DUP2 DUP8 PUSH1 0x64 CALLDATALOAD PUSH1 0x1 PUSH1 0x1 PUSH1 0xA0 SHL SUB AND GAS CALL SWAP1 DUP2 ISZERO PUSH2 0xA57 JUMPI DUP5 SWAP2 PUSH2 0x1812 JUMPI JUMPDEST POP PUSH2 0x14D5 SWAP2 PUSH2 0x149A PUSH1 0x20 SWAP3 PUSH2 0x2245 JUMP JUMPDEST PUSH1 0x4 DUP1 SLOAD PUSH1 0x40 MLOAD PUSH4 0x23B872DD PUSH1 0xE0 SHL DUP2 MSTORE CALLER SWAP3 DUP2 ADD SWAP3 SWAP1 SWAP3 MSTORE PUSH1 0x1 PUSH1 0x1 PUSH1 0xA0 SHL SUB AND PUSH1 0x24 DUP3 ADD MSTORE PUSH1 0x44 DUP2 ADD SWAP2 SWAP1 SWAP2 MSTORE SWAP2 DUP3 SWAP1 DUP2 SWAP1 PUSH1 0x64 DUP3 ADD SWAP1 JUMP JUMPDEST SUB DUP2 DUP7 PUSH1 0x64 CALLDATALOAD PUSH1 0x1 PUSH1 0x1 PUSH1 0xA0 SHL SUB AND GAS CALL DUP1 ISZERO PUSH2 0x9C7 JUMPI DUP4 SWAP1 PUSH2 0x17D7 JUMPI JUMPDEST PUSH2 0x14FD SWAP2 POP PUSH2 0x229D JUMP JUMPDEST PUSH1 0x1 PUSH1 0x6 SLOAD ADD SWAP2 DUP3 PUSH1 0x6 SSTORE PUSH3 0x278D00 DUP1 PUSH1 0x44 CALLDATALOAD MUL SWAP1 PUSH1 0x44 CALLDATALOAD DUP3 DIV EQ PUSH1 0x44 CALLDATALOAD ISZERO OR ISZERO PUSH2 0x9FA JUMPI PUSH2 0x152C SWAP1 TIMESTAMP PUSH2 0x212C JUMP JUMPDEST SWAP2 PUSH1 0x40 MLOAD PUSH2 0x1539 DUP2 PUSH2 0x1D2C JUMP JUMPDEST DUP5 DUP2 MSTORE PUSH1 0x20 DUP2 ADD SWAP1 CALLER DUP3 MSTORE PUSH1 0x40 DUP2 ADD PUSH1 0x4 CALLDATALOAD DUP2 MSTORE PUSH1 0x60 DUP3 ADD PUSH1 0x24 CALLDATALOAD DUP2 MSTORE PUSH1 0x80 DUP4 ADD DUP10 DUP2 MSTORE PUSH1 0xA0 DUP5 ADD TIMESTAMP DUP2 MSTORE PUSH1 0xC0 DUP6 ADD SWAP2 DUP10 DUP4 MSTORE PUSH1 0xE0 DUP7 ADD SWAP4 DUP10 DUP6 MSTORE PUSH2 0x100 DUP8 ADD SWAP6 PUSH1 0x1 DUP8 MSTORE PUSH1 0x1 DUP1 PUSH1 0xA0 SHL SUB PUSH1 0x64 CALLDATALOAD AND PUSH2 0x120 DUP10 ADD MSTORE DUP13 DUP12 MSTORE PUSH1 0x7 PUSH1 0x20 MSTORE PUSH1 0x40 DUP12 KECCAK256 SWAP9 DUP9 MLOAD DUP11 SSTORE PUSH1 0x1 DUP11 ADD SWAP1 PUSH1 0x1 DUP1 PUSH1 0xA0 SHL SUB SWAP1 MLOAD AND PUSH1 0x1 PUSH1 0x1 PUSH1 0x60 SHL SUB PUSH1 0xA0 SHL DUP3 SLOAD AND OR SWAP1 SSTORE MLOAD PUSH1 0x2 DUP10 ADD SSTORE MLOAD PUSH1 0x3 DUP9 ADD SSTORE MLOAD PUSH1 0x4 DUP8 ADD SSTORE MLOAD PUSH1 0x5 DUP7 ADD SSTORE MLOAD PUSH1 0x6 DUP6 ADD SSTORE MLOAD PUSH1 0x3 DUP2 LT ISZERO PUSH2 0x9E6 JUMPI PUSH2 0x15F5 SWAP1 PUSH1 0x7 DUP6 ADD PUSH2 0x2151 JUMP JUMPDEST MLOAD SWAP1 PUSH1 0x2 DUP3 LT ISZERO PUSH2 0x9D2 JUMPI SWAP1 PUSH1 0x7 SWAP2 PUSH2 0xFF00 DUP4 DUP6 ADD SLOAD SWAP2 PUSH2 0x120 PUSH3 0x10000 PUSH1 0x1 PUSH1 0xB0 SHL SUB SWAP2 ADD MLOAD PUSH1 0x10 SHL AND SWAP3 PUSH1 0x8 SHL AND SWAP1 PUSH2 0x100 PUSH1 0x1 PUSH1 0xB0 SHL SUB NOT AND OR OR SWAP2 ADD SSTORE CALLER DUP3 MSTORE PUSH1 0x8 PUSH1 0x20 MSTORE PUSH1 0x40 DUP3 KECCAK256 PUSH1 0x4 CALLDATALOAD DUP4 MSTORE PUSH1 0x20 MSTORE PUSH2 0x1657 DUP5 PUSH1 0x40 DUP5 KECCAK256 PUSH2 0x2169 JUMP JUMPDEST PUSH1 0x3 SLOAD PUSH1 0x40 MLOAD PUSH4 0x23A36D2B PUSH1 0xE0 SHL DUP2 MSTORE CALLER PUSH1 0x4 DUP3 ADD MSTORE PUSH1 0x24 DUP1 CALLDATALOAD SWAP1 DUP3 ADD MSTORE PUSH1 0x1 PUSH1 0x44 DUP3 ADD MSTORE SWAP1 PUSH1 0x20 SWAP1 DUP3 SWAP1 PUSH1 0x64 SWAP1 DUP3 SWAP1 DUP8 SWAP1 PUSH1 0x1 PUSH1 0x1 PUSH1 0xA0 SHL SUB AND GAS CALL DUP1 ISZERO PUSH2 0x9C7 JUMPI PUSH2 0x179E JUMPI JUMPDEST POP PUSH1 0x2 SLOAD PUSH1 0x1 PUSH1 0x1 PUSH1 0xA0 SHL SUB AND SWAP1 DUP2 EXTCODESIZE ISZERO PUSH2 0x98A JUMPI DUP3 SWAP2 PUSH1 0x64 DUP4 SWAP3 PUSH1 0x40 MLOAD SWAP5 DUP6 SWAP4 DUP5 SWAP3 PUSH4 0x4209E03D PUSH1 0xE0 SHL DUP5 MSTORE PUSH1 0x4 CALLDATALOAD PUSH1 0x4 DUP6 ADD MSTORE PUSH1 0x1 PUSH1 0x24 DUP6 ADD MSTORE PUSH1 0x44 DUP5 ADD MSTORE GAS CALL DUP1 ISZERO PUSH2 0x97F JUMPI PUSH2 0x178A JUMPI JUMPDEST PUSH1 0x20 DUP5 DUP1 PUSH1 0x0 DUP1 MLOAD PUSH1 0x20 PUSH2 0x237B DUP4 CODECOPY DUP2 MLOAD SWAP2 MSTORE PUSH2 0x177B DUP10 DUP9 PUSH1 0x40 MLOAD SWAP1 DUP6 PUSH32 0x4CE7D0494BAE52234D5B23E3C0D5C50C951EE8559386326790CDED1ECCAA6D3F PUSH1 0x4 CALLDATALOAD SWAP4 DUP1 PUSH2 0x1757 CALLER SWAP6 TIMESTAMP DUP10 PUSH1 0x24 CALLDATALOAD DUP6 SWAP1 SWAP5 SWAP4 SWAP3 PUSH1 0x60 SWAP3 PUSH1 0x80 DUP4 ADD SWAP7 DUP4 MSTORE PUSH1 0x20 DUP4 ADD MSTORE PUSH1 0x40 DUP3 ADD MSTORE ADD MSTORE JUMP JUMPDEST SUB SWAP1 LOG4 PUSH1 0x40 DUP1 MLOAD SWAP2 DUP3 MSTORE PUSH1 0x1 PUSH1 0x1 PUSH1 0xA0 SHL SUB PUSH1 0x64 CALLDATALOAD AND PUSH1 0x20 DUP4 ADD MSTORE SWAP1 SWAP2 DUP3 SWAP2 DUP3 ADD SWAP1 JUMP JUMPDEST SUB SWAP1 LOG2 PUSH1 0x1 DUP1 SSTORE PUSH1 0x40 MLOAD SWAP1 DUP2 MSTORE RETURN JUMPDEST PUSH2 0x1794 DUP3 SWAP2 PUSH2 0x1D02 JUMP JUMPDEST PUSH2 0x1A8 JUMPI DUP1 PUSH2 0x16ED JUMP JUMPDEST PUSH1 0x20 DUP2 RETURNDATASIZE PUSH1 0x20 GT PUSH2 0x17CF JUMPI JUMPDEST DUP2 PUSH2 0x17B7 PUSH1 0x20 SWAP4 DUP4 PUSH2 0x1D49 JUMP JUMPDEST DUP2 ADD SUB SLT PUSH2 0x98A JUMPI PUSH2 0x17C8 SWAP1 PUSH2 0x1F4B JUMP JUMPDEST POP CODESIZE PUSH2 0x169F JUMP JUMPDEST RETURNDATASIZE SWAP2 POP PUSH2 0x17AA JUMP JUMPDEST POP PUSH1 0x20 DUP2 RETURNDATASIZE PUSH1 0x20 GT PUSH2 0x180A JUMPI JUMPDEST DUP2 PUSH2 0x17F1 PUSH1 0x20 SWAP4 DUP4 PUSH2 0x1D49 JUMP JUMPDEST DUP2 ADD SUB SLT PUSH2 0x98A JUMPI PUSH2 0x1805 PUSH2 0x14FD SWAP2 PUSH2 0x1F4B JUMP JUMPDEST PUSH2 0x14F3 JUMP JUMPDEST RETURNDATASIZE SWAP2 POP PUSH2 0x17E4 JUMP JUMPDEST SWAP1 POP PUSH1 0x20 DUP2 RETURNDATASIZE PUSH1 0x20 GT PUSH2 0x1850 JUMPI JUMPDEST DUP2 PUSH2 0x182D PUSH1 0x20 SWAP4 DUP4 PUSH2 0x1D49 JUMP JUMPDEST DUP2 ADD SUB SLT PUSH2 0xD34 JUMPI PUSH2 0x14D5 SWAP2 PUSH2 0x149A PUSH2 0x1847 PUSH1 0x20 SWAP4 PUSH2 0x1F4B JUMP JUMPDEST SWAP3 POP POP SWAP2 PUSH2 0x148A JUMP JUMPDEST RETURNDATASIZE SWAP2 POP PUSH2 0x1820 JUMP JUMPDEST PUSH2 0x10E3 SWAP2 POP RETURNDATASIZE DUP1 DUP10 DUP4 RETURNDATACOPY PUSH2 0xA49 DUP2 DUP4 PUSH2 0x1D49 JUMP JUMPDEST POP POP PUSH1 0x20 DUP2 RETURNDATASIZE PUSH1 0x20 GT PUSH2 0x189A JUMPI JUMPDEST DUP2 PUSH2 0x1887 PUSH1 0x20 SWAP4 DUP4 PUSH2 0x1D49 JUMP JUMPDEST DUP2 ADD SUB SLT PUSH2 0x111C JUMPI DUP3 PUSH2 0x13D8 SWAP2 MLOAD PUSH2 0x13CC JUMP JUMPDEST RETURNDATASIZE SWAP2 POP PUSH2 0x187A JUMP JUMPDEST PUSH2 0x18B6 SWAP2 POP RETURNDATASIZE DUP1 DUP6 DUP4 RETURNDATACOPY PUSH2 0xA76 DUP2 DUP4 PUSH2 0x1D49 JUMP JUMPDEST CODESIZE PUSH2 0x136E JUMP JUMPDEST PUSH1 0x40 MLOAD PUSH3 0x461BCD PUSH1 0xE5 SHL DUP2 MSTORE PUSH1 0x20 PUSH1 0x4 DUP3 ADD MSTORE PUSH1 0x15 PUSH1 0x24 DUP3 ADD MSTORE PUSH21 0x496E76616C696420746F6B656E2061646472657373 PUSH1 0x58 SHL PUSH1 0x44 DUP3 ADD MSTORE PUSH1 0x64 SWAP1 REVERT JUMPDEST POP CALLVALUE PUSH2 0x1A8 JUMPI PUSH1 0x20 CALLDATASIZE PUSH1 0x3 NOT ADD SLT PUSH2 0x1A8 JUMPI PUSH1 0x40 PUSH2 0x140 SWAP2 PUSH1 0x4 CALLDATALOAD DUP2 MSTORE PUSH1 0x7 PUSH1 0x20 MSTORE KECCAK256 DUP1 SLOAD SWAP1 PUSH1 0x1 DUP1 PUSH1 0xA0 SHL SUB SWAP1 DUP2 PUSH1 0x1 DUP3 ADD SLOAD AND SWAP1 PUSH1 0x2 DUP2 ADD SLOAD PUSH1 0x3 DUP3 ADD SLOAD PUSH1 0x4 DUP4 ADD SLOAD SWAP1 PUSH1 0x5 DUP5 ADD SLOAD SWAP3 PUSH1 0x7 PUSH1 0x6 DUP7 ADD SLOAD SWAP6 ADD SLOAD SWAP6 PUSH1 0x40 MLOAD SWAP9 DUP10 MSTORE PUSH1 0x20 DUP10 ADD MSTORE PUSH1 0x40 DUP9 ADD MSTORE PUSH1 0x60 DUP8 ADD MSTORE PUSH1 0x80 DUP7 ADD MSTORE PUSH1 0xA0 DUP6 ADD MSTORE PUSH1 0xC0 DUP5 ADD MSTORE PUSH2 0x1984 PUSH1 0xE0 DUP5 ADD PUSH1 0xFF DUP4 AND PUSH2 0x1B9B JUMP JUMPDEST PUSH2 0x1998 PUSH2 0x100 DUP5 ADD PUSH1 0xFF DUP4 PUSH1 0x8 SHR AND PUSH2 0x1BBE JUMP JUMPDEST PUSH1 0x10 SHR AND PUSH2 0x120 DUP3 ADD MSTORE RETURN JUMPDEST POP CALLVALUE PUSH2 0x1A8 JUMPI DUP1 PUSH1 0x3 NOT CALLDATASIZE ADD SLT PUSH2 0x1A8 JUMPI PUSH1 0x3 SLOAD PUSH1 0x40 MLOAD PUSH1 0x1 PUSH1 0x1 PUSH1 0xA0 SHL SUB SWAP1 SWAP2 AND DUP2 MSTORE PUSH1 0x20 SWAP1 RETURN JUMPDEST POP CALLVALUE PUSH2 0x1A8 JUMPI PUSH1 0x20 CALLDATASIZE PUSH1 0x3 NOT ADD SLT PUSH2 0x1A8 JUMPI PUSH1 0x4 CALLDATALOAD SWAP1 PUSH2 0x19EB PUSH2 0x21A3 JUMP JUMPDEST DUP2 ISZERO ISZERO DUP1 PUSH2 0x1B0E JUMPI JUMPDEST PUSH2 0x19FD SWAP1 PUSH2 0x22E9 JUMP JUMPDEST DUP2 DUP2 MSTORE PUSH1 0x7 PUSH1 0x20 MSTORE PUSH1 0x40 DUP2 KECCAK256 PUSH1 0x1 DUP2 ADD SLOAD PUSH1 0x1 PUSH1 0x1 PUSH1 0xA0 SHL SUB SWAP1 PUSH2 0x1A24 SWAP1 DUP3 AND CALLER EQ PUSH2 0x2335 JUMP JUMPDEST PUSH1 0x7 DUP3 ADD SWAP1 DUP2 SLOAD SWAP2 PUSH1 0xFF DUP4 AND PUSH1 0x3 DUP2 LT ISZERO PUSH2 0x9E6 JUMPI PUSH2 0x1AC9 JUMPI PUSH1 0x2 DUP1 SWAP4 PUSH1 0xFF NOT AND OR SWAP1 SSTORE DUP2 SLOAD AND SWAP2 ADD SLOAD DUP2 EXTCODESIZE ISZERO PUSH2 0x98A JUMPI DUP3 SWAP2 PUSH1 0x64 DUP4 SWAP3 PUSH1 0x40 MLOAD SWAP5 DUP6 SWAP4 DUP5 SWAP3 PUSH4 0x4209E03D PUSH1 0xE0 SHL DUP5 MSTORE PUSH1 0x4 DUP5 ADD MSTORE PUSH1 0x0 NOT PUSH1 0x24 DUP5 ADD MSTORE DUP2 PUSH1 0x44 DUP5 ADD MSTORE GAS CALL DUP1 ISZERO PUSH2 0x97F JUMPI PUSH2 0x1ABA JUMPI JUMPDEST POP SWAP1 PUSH32 0xBD2BCEA75D16A85F005CD83447E0DE57341BF926FE7419E6D553663E91AB4DA7 DUP3 DUP1 LOG2 PUSH1 0x1 DUP1 SSTORE DUP1 RETURN JUMPDEST PUSH2 0x1AC3 SWAP1 PUSH2 0x1D02 JUMP JUMPDEST CODESIZE PUSH2 0x1A8D JUMP JUMPDEST PUSH1 0x40 MLOAD PUSH3 0x461BCD PUSH1 0xE5 SHL DUP2 MSTORE PUSH1 0x20 PUSH1 0x4 DUP3 ADD MSTORE PUSH1 0x17 PUSH1 0x24 DUP3 ADD MSTORE PUSH32 0x537562736372697074696F6E206E6F7420616374697665000000000000000000 PUSH1 0x44 DUP3 ADD MSTORE PUSH1 0x64 SWAP1 REVERT JUMPDEST POP PUSH1 0x6 SLOAD DUP3 GT ISZERO PUSH2 0x19F4 JUMP JUMPDEST POP CALLVALUE PUSH2 0x1A8 JUMPI PUSH1 0x20 CALLDATASIZE PUSH1 0x3 NOT ADD SLT PUSH2 0x1A8 JUMPI PUSH1 0x4 CALLDATALOAD PUSH2 0x1B37 PUSH2 0x1C0F JUMP JUMPDEST PUSH1 0x64 DUP2 GT PUSH2 0x1B45 JUMPI PUSH1 0x5 SSTORE DUP1 RETURN JUMPDEST PUSH1 0x40 MLOAD PUSH3 0x461BCD PUSH1 0xE5 SHL DUP2 MSTORE PUSH1 0x20 PUSH1 0x4 DUP3 ADD MSTORE PUSH1 0x28 PUSH1 0x24 DUP3 ADD MSTORE PUSH32 0x4665652070657263656E74616765206D757374206265206265747765656E2030 PUSH1 0x44 DUP3 ADD MSTORE PUSH8 0x20616E642031303 PUSH1 0xC4 SHL PUSH1 0x64 DUP3 ADD MSTORE PUSH1 0x84 SWAP1 REVERT JUMPDEST SWAP1 PUSH1 0x3 DUP3 LT ISZERO PUSH2 0x1BA8 JUMPI MSTORE JUMP JUMPDEST PUSH4 0x4E487B71 PUSH1 0xE0 SHL PUSH1 0x0 MSTORE PUSH1 0x21 PUSH1 0x4 MSTORE PUSH1 0x24 PUSH1 0x0 REVERT JUMPDEST SWAP1 PUSH1 0x2 DUP3 LT ISZERO PUSH2 0x1BA8 JUMPI MSTORE JUMP JUMPDEST PUSH1 0x4 CALLDATALOAD SWAP1 PUSH1 0x1 PUSH1 0x1 PUSH1 0xA0 SHL SUB DUP3 AND DUP3 SUB PUSH2 0x111C JUMPI JUMP JUMPDEST DUP1 SLOAD DUP3 LT ISZERO PUSH2 0x1BF9 JUMPI PUSH1 0x0 MSTORE PUSH1 0x20 PUSH1 0x0 KECCAK256 ADD SWAP1 PUSH1 0x0 SWAP1 JUMP JUMPDEST PUSH4 0x4E487B71 PUSH1 0xE0 SHL PUSH1 0x0 MSTORE PUSH1 0x32 PUSH1 0x4 MSTORE PUSH1 0x24 PUSH1 0x0 REVERT JUMPDEST PUSH1 0x0 SLOAD PUSH1 0x1 PUSH1 0x1 PUSH1 0xA0 SHL SUB AND CALLER SUB PUSH2 0x1C23 JUMPI JUMP JUMPDEST PUSH1 0x64 PUSH1 0x40 MLOAD PUSH3 0x461BCD PUSH1 0xE5 SHL DUP2 MSTORE PUSH1 0x20 PUSH1 0x4 DUP3 ADD MSTORE PUSH1 0x20 PUSH1 0x24 DUP3 ADD MSTORE PUSH32 0x4F776E61626C653A2063616C6C6572206973206E6F7420746865206F776E6572 PUSH1 0x44 DUP3 ADD MSTORE REVERT JUMPDEST ISZERO PUSH2 0x1C6E JUMPI JUMP JUMPDEST PUSH1 0x40 MLOAD PUSH3 0x461BCD PUSH1 0xE5 SHL DUP2 MSTORE PUSH1 0x20 PUSH1 0x4 DUP3 ADD MSTORE PUSH1 0x25 PUSH1 0x24 DUP3 ADD MSTORE PUSH32 0x4D7573742073756273637269626520666F72206174206C65617374206F6E6520 PUSH1 0x44 DUP3 ADD MSTORE PUSH5 0xDADEDCE8D PUSH1 0xDB SHL PUSH1 0x64 DUP3 ADD MSTORE PUSH1 0x84 SWAP1 REVERT JUMPDEST ISZERO PUSH2 0x1CC8 JUMPI JUMP JUMPDEST PUSH1 0x40 MLOAD PUSH3 0x461BCD PUSH1 0xE5 SHL DUP2 MSTORE PUSH1 0x20 PUSH1 0x4 DUP3 ADD MSTORE PUSH1 0x12 PUSH1 0x24 DUP3 ADD MSTORE PUSH18 0x125B9D985B1A590818DC99585D1BDC881251 PUSH1 0x72 SHL PUSH1 0x44 DUP3 ADD MSTORE PUSH1 0x64 SWAP1 REVERT JUMPDEST PUSH8 0xFFFFFFFFFFFFFFFF DUP2 GT PUSH2 0x1D16 JUMPI PUSH1 0x40 MSTORE JUMP JUMPDEST PUSH4 0x4E487B71 PUSH1 0xE0 SHL PUSH1 0x0 MSTORE PUSH1 0x41 PUSH1 0x4 MSTORE PUSH1 0x24 PUSH1 0x0 REVERT JUMPDEST PUSH2 0x140 DUP2 ADD SWAP1 DUP2 LT PUSH8 0xFFFFFFFFFFFFFFFF DUP3 GT OR PUSH2 0x1D16 JUMPI PUSH1 0x40 MSTORE JUMP JUMPDEST SWAP1 PUSH1 0x1F DUP1 NOT SWAP2 ADD AND DUP2 ADD SWAP1 DUP2 LT PUSH8 0xFFFFFFFFFFFFFFFF DUP3 GT OR PUSH2 0x1D16 JUMPI PUSH1 0x40 MSTORE JUMP JUMPDEST PUSH8 0xFFFFFFFFFFFFFFFF DUP2 GT PUSH2 0x1D16 JUMPI PUSH1 0x1F ADD PUSH1 0x1F NOT AND PUSH1 0x20 ADD SWAP1 JUMP JUMPDEST SWAP2 SWAP1 DUP1 PUSH1 0x1F DUP5 ADD SLT ISZERO PUSH2 0x111C JUMPI DUP3 MLOAD SWAP1 PUSH2 0x1DA0 DUP3 PUSH2 0x1D6B JUMP JUMPDEST SWAP2 PUSH2 0x1DAE PUSH1 0x40 MLOAD SWAP4 DUP5 PUSH2 0x1D49 JUMP JUMPDEST DUP1 DUP4 MSTORE PUSH1 0x20 SWAP2 DUP3 DUP3 DUP8 ADD ADD GT PUSH2 0x111C JUMPI PUSH1 0x0 JUMPDEST DUP2 DUP2 LT PUSH2 0x1DD6 JUMPI POP DUP3 PUSH1 0x0 SWAP4 SWAP5 SWAP6 POP ADD ADD MSTORE SWAP1 JUMP JUMPDEST DUP6 DUP2 ADD DUP4 ADD MLOAD DUP5 DUP3 ADD DUP5 ADD MSTORE DUP3 ADD PUSH2 0x1DC1 JUMP JUMPDEST SWAP1 PUSH1 0x20 DUP3 DUP3 SUB SLT PUSH2 0x111C JUMPI DUP2 MLOAD PUSH8 0xFFFFFFFFFFFFFFFF SWAP3 DUP4 DUP3 GT PUSH2 0x111C JUMPI ADD PUSH1 0xC0 DUP2 DUP4 SUB SLT PUSH2 0x111C JUMPI PUSH1 0x40 MLOAD SWAP3 PUSH1 0xC0 DUP5 ADD DUP5 DUP2 LT DUP3 DUP3 GT OR PUSH2 0x1D16 JUMPI PUSH1 0x40 MSTORE DUP2 MLOAD DUP5 MSTORE PUSH1 0x20 DUP3 ADD MLOAD PUSH1 0x20 DUP6 ADD MSTORE PUSH1 0x40 DUP3 ADD MLOAD DUP2 DUP2 GT PUSH2 0x111C JUMPI DUP4 PUSH2 0x1E4E SWAP2 DUP5 ADD PUSH2 0x1D87 JUMP JUMPDEST PUSH1 0x40 DUP6 ADD MSTORE PUSH1 0x60 DUP3 ADD MLOAD SWAP1 DUP2 GT PUSH2 0x111C JUMPI PUSH1 0xA0 SWAP3 PUSH2 0x1E6D SWAP2 DUP4 ADD PUSH2 0x1D87 JUMP JUMPDEST PUSH1 0x60 DUP5 ADD MSTORE PUSH1 0x80 DUP2 ADD MLOAD PUSH1 0x80 DUP5 ADD MSTORE ADD MLOAD PUSH1 0xA0 DUP3 ADD MSTORE SWAP1 JUMP JUMPDEST ISZERO PUSH2 0x1E8D JUMPI JUMP JUMPDEST PUSH1 0x40 MLOAD PUSH3 0x461BCD PUSH1 0xE5 SHL DUP2 MSTORE PUSH1 0x20 PUSH1 0x4 DUP3 ADD MSTORE PUSH1 0x1F PUSH1 0x24 DUP3 ADD MSTORE PUSH32 0x5469657220646F6573206E6F742062656C6F6E6720746F2063726561746F7200 PUSH1 0x44 DUP3 ADD MSTORE PUSH1 0x64 SWAP1 REVERT JUMPDEST DUP2 DUP2 MUL SWAP3 SWAP2 DUP2 ISZERO SWAP2 DUP5 DIV EQ OR ISZERO PUSH2 0x1EE5 JUMPI JUMP JUMPDEST PUSH4 0x4E487B71 PUSH1 0xE0 SHL PUSH1 0x0 MSTORE PUSH1 0x11 PUSH1 0x4 MSTORE PUSH1 0x24 PUSH1 0x0 REVERT JUMPDEST ISZERO PUSH2 0x1F02 JUMPI JUMP JUMPDEST PUSH1 0x40 MLOAD PUSH3 0x461BCD PUSH1 0xE5 SHL DUP2 MSTORE PUSH1 0x20 PUSH1 0x4 DUP3 ADD MSTORE PUSH1 0x14 PUSH1 0x24 DUP3 ADD MSTORE PUSH20 0x125B9CDD59999A58DA595B9D081C185E5B595B9D PUSH1 0x62 SHL PUSH1 0x44 DUP3 ADD MSTORE PUSH1 0x64 SWAP1 REVERT JUMPDEST SWAP2 SWAP1 DUP3 SUB SWAP2 DUP3 GT PUSH2 0x1EE5 JUMPI JUMP JUMPDEST MLOAD SWAP1 DUP2 ISZERO ISZERO DUP3 SUB PUSH2 0x111C JUMPI JUMP JUMPDEST SWAP1 PUSH1 0x20 DUP3 DUP3 SUB SLT PUSH2 0x111C JUMPI DUP2 MLOAD PUSH8 0xFFFFFFFFFFFFFFFF SWAP3 DUP4 DUP3 GT PUSH2 0x111C JUMPI ADD PUSH2 0x100 SWAP3 DUP4 DUP3 DUP5 SUB SLT PUSH2 0x111C JUMPI PUSH1 0x40 MLOAD SWAP4 DUP5 ADD DUP5 DUP2 LT DUP3 DUP3 GT OR PUSH2 0x1D16 JUMPI PUSH1 0x40 MSTORE DUP2 MLOAD DUP5 MSTORE PUSH1 0x20 DUP3 ADD MLOAD PUSH1 0x1 PUSH1 0x1 PUSH1 0xA0 SHL SUB DUP2 AND DUP2 SUB PUSH2 0x111C JUMPI PUSH1 0x20 DUP6 ADD MSTORE PUSH1 0x40 DUP3 ADD MLOAD SWAP1 DUP2 GT PUSH2 0x111C JUMPI PUSH1 0xE0 SWAP3 PUSH2 0x1FD0 SWAP2 DUP4 ADD PUSH2 0x1D87 JUMP JUMPDEST PUSH1 0x40 DUP5 ADD MSTORE PUSH1 0x60 DUP2 ADD MLOAD PUSH1 0x60 DUP5 ADD MSTORE PUSH1 0x80 DUP2 ADD MLOAD PUSH1 0x80 DUP5 ADD MSTORE PUSH2 0x1FF5 PUSH1 0xA0 DUP3 ADD PUSH2 0x1F4B JUMP JUMPDEST PUSH1 0xA0 DUP5 ADD MSTORE PUSH1 0xC0 DUP2 ADD MLOAD PUSH1 0xC0 DUP5 ADD MSTORE ADD MLOAD PUSH1 0xE0 DUP3 ADD MSTORE SWAP1 JUMP JUMPDEST RETURNDATASIZE ISZERO PUSH2 0x2039 JUMPI RETURNDATASIZE SWAP1 PUSH2 0x201F DUP3 PUSH2 0x1D6B JUMP JUMPDEST SWAP2 PUSH2 0x202D PUSH1 0x40 MLOAD SWAP4 DUP5 PUSH2 0x1D49 JUMP JUMPDEST DUP3 MSTORE RETURNDATASIZE PUSH1 0x0 PUSH1 0x20 DUP5 ADD RETURNDATACOPY JUMP JUMPDEST PUSH1 0x60 SWAP1 JUMP JUMPDEST ISZERO PUSH2 0x2045 JUMPI JUMP JUMPDEST PUSH1 0x40 MLOAD PUSH3 0x461BCD PUSH1 0xE5 SHL DUP2 MSTORE PUSH1 0x20 PUSH1 0x4 DUP3 ADD MSTORE PUSH1 0x21 PUSH1 0x24 DUP3 ADD MSTORE PUSH32 0x4661696C656420746F2073656E64207061796D656E7420746F2063726561746F PUSH1 0x44 DUP3 ADD MSTORE PUSH1 0x39 PUSH1 0xF9 SHL PUSH1 0x64 DUP3 ADD MSTORE PUSH1 0x84 SWAP1 REVERT JUMPDEST ISZERO PUSH2 0x209B JUMPI JUMP JUMPDEST PUSH1 0x40 MLOAD PUSH3 0x461BCD PUSH1 0xE5 SHL DUP2 MSTORE PUSH1 0x20 PUSH1 0x4 DUP3 ADD MSTORE PUSH1 0x1B PUSH1 0x24 DUP3 ADD MSTORE PUSH32 0x4661696C656420746F2073656E6420706C6174666F726D206665650000000000 PUSH1 0x44 DUP3 ADD MSTORE PUSH1 0x64 SWAP1 REVERT JUMPDEST ISZERO PUSH2 0x20E7 JUMPI JUMP JUMPDEST PUSH1 0x40 MLOAD PUSH3 0x461BCD PUSH1 0xE5 SHL DUP2 MSTORE PUSH1 0x20 PUSH1 0x4 DUP3 ADD MSTORE PUSH1 0x1F PUSH1 0x24 DUP3 ADD MSTORE PUSH32 0x4661696C656420746F20726566756E6420657863657373207061796D656E7400 PUSH1 0x44 DUP3 ADD MSTORE PUSH1 0x64 SWAP1 REVERT JUMPDEST SWAP2 SWAP1 DUP3 ADD DUP1 SWAP3 GT PUSH2 0x1EE5 JUMPI JUMP JUMPDEST PUSH1 0x3 DUP3 LT ISZERO PUSH2 0x1BA8 JUMPI MSTORE JUMP JUMPDEST PUSH1 0x2 DUP3 LT ISZERO PUSH2 0x1BA8 JUMPI MSTORE JUMP JUMPDEST SWAP1 PUSH1 0x3 DUP2 LT ISZERO PUSH2 0x1BA8 JUMPI PUSH1 0xFF DUP1 NOT DUP4 SLOAD AND SWAP2 AND OR SWAP1 SSTORE JUMP JUMPDEST DUP1 SLOAD PUSH9 0x10000000000000000 DUP2 LT ISZERO PUSH2 0x1D16 JUMPI PUSH2 0x218B SWAP2 PUSH1 0x1 DUP3 ADD DUP2 SSTORE PUSH2 0x1BE1 JUMP JUMPDEST DUP2 SWAP3 SWAP2 SLOAD SWAP1 PUSH1 0x3 SHL SWAP2 DUP3 SHL SWAP2 PUSH1 0x0 NOT SWAP1 SHL NOT AND OR SWAP1 SSTORE JUMP JUMPDEST PUSH1 0x2 PUSH1 0x1 SLOAD EQ PUSH2 0x21B4 JUMPI PUSH1 0x2 PUSH1 0x1 SSTORE JUMP JUMPDEST PUSH1 0x40 MLOAD PUSH3 0x461BCD PUSH1 0xE5 SHL DUP2 MSTORE PUSH1 0x20 PUSH1 0x4 DUP3 ADD MSTORE PUSH1 0x1F PUSH1 0x24 DUP3 ADD MSTORE PUSH32 0x5265656E7472616E637947756172643A207265656E7472616E742063616C6C00 PUSH1 0x44 DUP3 ADD MSTORE PUSH1 0x64 SWAP1 REVERT JUMPDEST ISZERO PUSH2 0x2200 JUMPI JUMP JUMPDEST PUSH1 0x40 MLOAD PUSH3 0x461BCD PUSH1 0xE5 SHL DUP2 MSTORE PUSH1 0x20 PUSH1 0x4 DUP3 ADD MSTORE PUSH1 0x1C PUSH1 0x24 DUP3 ADD MSTORE PUSH32 0x496E73756666696369656E7420746F6B656E20616C6C6F77616E636500000000 PUSH1 0x44 DUP3 ADD MSTORE PUSH1 0x64 SWAP1 REVERT JUMPDEST ISZERO PUSH2 0x224C JUMPI JUMP JUMPDEST PUSH1 0x40 MLOAD PUSH3 0x461BCD PUSH1 0xE5 SHL DUP2 MSTORE PUSH1 0x20 PUSH1 0x4 DUP3 ADD MSTORE PUSH1 0x24 DUP1 DUP3 ADD MSTORE PUSH32 0x4661696C656420746F207472616E7366657220746F6B656E7320746F20637265 PUSH1 0x44 DUP3 ADD MSTORE PUSH4 0x30BA37B9 PUSH1 0xE1 SHL PUSH1 0x64 DUP3 ADD MSTORE PUSH1 0x84 SWAP1 REVERT JUMPDEST ISZERO PUSH2 0x22A4 JUMPI JUMP JUMPDEST PUSH1 0x40 MLOAD PUSH3 0x461BCD PUSH1 0xE5 SHL DUP2 MSTORE PUSH1 0x20 PUSH1 0x4 DUP3 ADD MSTORE PUSH1 0x1F PUSH1 0x24 DUP3 ADD MSTORE PUSH32 0x4661696C656420746F207472616E7366657220706C6174666F726D2066656500 PUSH1 0x44 DUP3 ADD MSTORE PUSH1 0x64 SWAP1 REVERT JUMPDEST ISZERO PUSH2 0x22F0 JUMPI JUMP JUMPDEST PUSH1 0x40 MLOAD PUSH3 0x461BCD PUSH1 0xE5 SHL DUP2 MSTORE PUSH1 0x20 PUSH1 0x4 DUP3 ADD MSTORE PUSH1 0x17 PUSH1 0x24 DUP3 ADD MSTORE PUSH32 0x496E76616C696420737562736372697074696F6E204944000000000000000000 PUSH1 0x44 DUP3 ADD MSTORE PUSH1 0x64 SWAP1 REVERT JUMPDEST ISZERO PUSH2 0x233C JUMPI JUMP JUMPDEST PUSH1 0x40 MLOAD PUSH3 0x461BCD PUSH1 0xE5 SHL DUP2 MSTORE PUSH1 0x20 PUSH1 0x4 DUP3 ADD MSTORE PUSH1 0x16 PUSH1 0x24 DUP3 ADD MSTORE PUSH22 0x2737BA1039BAB139B1B934B83A34B7B71037BBB732B9 PUSH1 0x51 SHL PUSH1 0x44 DUP3 ADD MSTORE PUSH1 0x64 SWAP1 REVERT INVALID 0xD3 0xCF SMOD CODECOPY 0x28 CALLDATASIZE 0xDE CREATE 0xE2 ADD INVALID PUSH31 0xB13AE977B999E29D70D4C55F6C55BA26B001393EA26469706673582212201B GAS SUB 0x2C 0xE0 GAS CALLCODE MSIZE 0xF PUSH7 0x648934B9ADD5EA PC 0xD5 STOP INVALID 0x1F MSTORE8 0xBF PUSH23 0xD5F13B9D0B347564736F6C634300081400330000000000 "},"methodIdentifiers":{"cancelSubscription(uint256)":"21235083","contentNFT()":"28aef969","creatorRegistry()":"9a6a5cf0","getSubscriberSubscriptions(address,uint256)":"d61ee6ef","getSubscription(uint256)":"dc311dd3","isSubscriptionActive(uint256)":"57e2c0f5","owner()":"8da5cb5b","platformFeePercent()":"8c639a85","renewSubscription(uint256,uint256)":"5ec40334","renounceOwnership()":"715018a6","setPlatformFee(uint256)":"12e8e2c3","setTreasuryWallet(address)":"a8602fea","subscribe(uint256,uint256,uint256)":"6c9eb774","subscribeWithERC20(uint256,uint256,uint256,address)":"37815b09","subscriberSubscriptions(address,uint256,uint256)":"ea0da2a0","subscriptions(uint256)":"2d5bbf60","transferOwnership(address)":"f2fde38b","treasuryWallet()":"4626402b"}}}}}