{"contracts/SubscriptionManager.sol":{"SubscriptionManager":{"abi":[{"inputs":[],"stateMutability":"nonpayable","type":"constructor"},{"anonymous":false,"inputs":[{"indexed":true,"internalType":"address","name":"previousOwner","type":"address"},{"indexed":true,"internalType":"address","name":"newOwner","type":"address"}],"name":"OwnershipTransferred","type":"event"},{"anonymous":false,"inputs":[{"indexed":true,"internalType":"uint256","name":"subscriptionId","type":"uint256"}],"name":"SubscriptionCancelled","type":"event"},{"anonymous":false,"inputs":[{"indexed":true,"internalType":"uint256","name":"subscriptionId","type":"uint256"},{"indexed":true,"internalType":"uint256","name":"creatorId","type":"uint256"},{"indexed":true,"internalType":"uint256","name":"tierId","type":"uint256"},{"indexed":false,"internalType":"address","name":"subscriber","type":"address"},{"indexed":false,"internalType":"uint256","name":"amountPaid","type":"uint256"},{"indexed":false,"internalType":"uint256","name":"startTime","type":"uint256"},{"indexed":false,"internalType":"uint256","name":"endTime","type":"uint256"}],"name":"SubscriptionCreated","type":"event"},{"anonymous":false,"inputs":[{"indexed":true,"internalType":"uint256","name":"subscriptionId","type":"uint256"},{"indexed":false,"internalType":"uint256","name":"newEndTime","type":"uint256"}],"name":"SubscriptionExtended","type":"event"},{"inputs":[{"internalType":"address","name":"","type":"address"},{"internalType":"uint256","name":"","type":"uint256"}],"name":"activeSubscriptionByCreator","outputs":[{"internalType":"uint256","name":"","type":"uint256"}],"stateMutability":"view","type":"function"},{"inputs":[{"internalType":"uint256","name":"subscriptionId","type":"uint256"}],"name":"cancelSubscription","outputs":[],"stateMutability":"nonpayable","type":"function"},{"inputs":[{"internalType":"uint256","name":"subscriptionId","type":"uint256"},{"internalType":"uint256","name":"additionalMonths","type":"uint256"},{"internalType":"uint256","name":"amount","type":"uint256"}],"name":"extendSubscription","outputs":[],"stateMutability":"payable","type":"function"},{"inputs":[{"internalType":"address","name":"subscriber","type":"address"},{"internalType":"uint256","name":"creatorId","type":"uint256"}],"name":"getActiveSubscription","outputs":[{"components":[{"internalType":"uint256","name":"id","type":"uint256"},{"internalType":"uint256","name":"creatorId","type":"uint256"},{"internalType":"uint256","name":"tierId","type":"uint256"},{"internalType":"address","name":"subscriber","type":"address"},{"internalType":"uint256","name":"startTime","type":"uint256"},{"internalType":"uint256","name":"endTime","type":"uint256"},{"internalType":"uint256","name":"amountPaid","type":"uint256"},{"internalType":"bool","name":"isActive","type":"bool"},{"internalType":"uint256","name":"createdAt","type":"uint256"}],"internalType":"struct SubscriptionManager.Subscription","name":"","type":"tuple"}],"stateMutability":"view","type":"function"},{"inputs":[{"internalType":"uint256","name":"subscriptionId","type":"uint256"}],"name":"getSubscription","outputs":[{"components":[{"internalType":"uint256","name":"id","type":"uint256"},{"internalType":"uint256","name":"creatorId","type":"uint256"},{"internalType":"uint256","name":"tierId","type":"uint256"},{"internalType":"address","name":"subscriber","type":"address"},{"internalType":"uint256","name":"startTime","type":"uint256"},{"internalType":"uint256","name":"endTime","type":"uint256"},{"internalType":"uint256","name":"amountPaid","type":"uint256"},{"internalType":"bool","name":"isActive","type":"bool"},{"internalType":"uint256","name":"createdAt","type":"uint256"}],"internalType":"struct SubscriptionManager.Subscription","name":"","type":"tuple"}],"stateMutability":"view","type":"function"},{"inputs":[],"name":"owner","outputs":[{"internalType":"address","name":"","type":"address"}],"stateMutability":"view","type":"function"},{"inputs":[],"name":"renounceOwnership","outputs":[],"stateMutability":"nonpayable","type":"function"},{"inputs":[{"internalType":"uint256","name":"creatorId","type":"uint256"},{"internalType":"uint256","name":"tierId","type":"uint256"},{"internalType":"uint256","name":"months","type":"uint256"},{"internalType":"uint256","name":"amount","type":"uint256"}],"name":"subscribe","outputs":[{"internalType":"uint256","name":"","type":"uint256"}],"stateMutability":"payable","type":"function"},{"inputs":[{"internalType":"uint256","name":"","type":"uint256"}],"name":"subscriptions","outputs":[{"internalType":"uint256","name":"id","type":"uint256"},{"internalType":"uint256","name":"creatorId","type":"uint256"},{"internalType":"uint256","name":"tierId","type":"uint256"},{"internalType":"address","name":"subscriber","type":"address"},{"internalType":"uint256","name":"startTime","type":"uint256"},{"internalType":"uint256","name":"endTime","type":"uint256"},{"internalType":"uint256","name":"amountPaid","type":"uint256"},{"internalType":"bool","name":"isActive","type":"bool"},{"internalType":"uint256","name":"createdAt","type":"uint256"}],"stateMutability":"view","type":"function"},{"inputs":[{"internalType":"uint256","name":"","type":"uint256"}],"name":"totalSubscriptionsByCreator","outputs":[{"internalType":"uint256","name":"","type":"uint256"}],"stateMutability":"view","type":"function"},{"inputs":[{"internalType":"address","name":"newOwner","type":"address"}],"name":"transferOwnership","outputs":[],"stateMutability":"nonpayable","type":"function"},{"inputs":[{"internalType":"address payable","name":"creator","type":"address"},{"internalType":"uint256","name":"amount","type":"uint256"}],"name":"withdrawFunds","outputs":[],"stateMutability":"nonpayable","type":"function"}],"evm":{"bytecode":{"linkReferences":{},"object":"6080806040523461005f5760008054336001600160a01b0319821681178355916001600160a01b03909116907f8be0079c531659141344cd1fd0a4f28419497f9722a3daafe3b4186f6b6457e09080a360018055610b9390816100658239f35b600080fdfe6040608081526004908136101561001557600080fd5b600091823560e01c80630dfb6a06146107fc5780631f5efb01146105d7578381632123508314610548575080632d5bbf60146104bc578063526e14421461039d578063715018a6146103405780638da5cb5b1461031457806390b5b0f0146102d65780639d293393146102af578063c10753291461020d578063dc311dd31461016c5763f2fde38b146100a757600080fd5b34610168576020366003190112610168576100c06108b8565b906100c961093c565b6001600160a01b0391821692831561011657505082546001600160a01b0319811683178455167f8be0079c531659141344cd1fd0a4f28419497f9722a3daafe3b4186f6b6457e08380a380f35b906020608492519162461bcd60e51b8352820152602660248201527f4f776e61626c653a206e6577206f776e657220697320746865207a65726f206160448201526564647265737360d01b6064820152fd5b8280fd5b509034610168576020366003190112610168576008816102099461018e610b1d565b50843581526003602052206101a1610a03565b815481526001820154602082015260028201548482015260038201546001600160a01b03166060820152938101546080850152600581015460a0850152600681015460c0850152600781015460ff16151560e0850152015461010083015251918291826108d3565b0390f35b503461016857816003193601126101685780356001600160a01b038116908190036102ab576024359161023e61093c565b8247106102715750838080938193828215610268575bf11561025e575080f35b51903d90823e3d90fd5b506108fc610254565b606490602085519162461bcd60e51b83528201526014602482015273496e73756666696369656e742062616c616e636560601b6044820152fd5b8380fd5b50346101685760203660031901126101685760209282913581526005845220549051908152f35b503461016857816003193601126101685760209282916001600160a01b036102fc6108b8565b16825284528181206024358252845220549051908152f35b50503461033c578160031936011261033c57905490516001600160a01b039091168152602090f35b5080fd5b833461039a578060031936011261039a5761035961093c565b80546001600160a01b03198116825581906001600160a01b03167f8be0079c531659141344cd1fd0a4f28419497f9722a3daafe3b4186f6b6457e08280a380f35b80fd5b5060603660031901126101685780359160243591604435906103bd610a3a565b6103c8823414610994565b8315610479578486526003602052828620906103f160018060a01b036003840154163314610a90565b61040160ff600784015416610ad1565b62278d00808602958604036104665750917f7c9715ccee1f26dcfbe9bdffd86d601cda0219953ca25469450e3124feadd7c1939161045860068561044c6005602098019687546109e0565b809655019182546109e0565b905551908152a26001805580f35b634e487b7160e01b875260119052602486fd5b606490602084519162461bcd60e51b8352820152601860248201527f496e76616c696420657874656e73696f6e20706572696f6400000000000000006044820152fd5b50346101685760203660031901126101685781610120938235815260036020522080549260018201549260028301549060018060a01b036003850154169084015490600585015492600686015494600860ff600789015416970154978151998a5260208a01528801526060870152608086015260a085015260c0840152151560e0830152610100820152f35b8281853461033c57602036600319011261033c5782359283835260036020528183209061058260018060a01b036003840154163314610a90565b60078201805461059460ff8216610ad1565b60ff19169055338452602052600182842091015483526020528120557fbd2bcea75d16a85f005cd83447e0de57341bf926fe7419e6d553663e91ab4da78280a280f35b50906080366003190112610168576044359160243581356064356105f9610a3a565b610604813414610994565b85156107b9573387526020968488528581208382528852858120548061079f575b506001948560025401978860025562278d008082029182040361078c5790600360088489878c8f8f8d8561065b8f9d9c426109e0565b9c8d95610666610a03565b9b8c96868852808801938452828801958652606088019633885261010060808a0199428b5260a081019b8c5260c081019c8d5260e081019d8e52019c8d42905252528d209a518b5551908a0155516002890155600388019060018060a01b039051166bffffffffffffffffffffffff60a01b8254161790555187870155516005860155516006850155600784019051151560ff8019835416911617905551910155338252808a528782208583528a52888883205560058a52878220918254916000198314610779575050927f38104ea88d3556f5a1309c009a56cd1d3e521704b37fa8c2a2b474d447cefc6292608092888b960190558851913383528b83015242898301526060820152a4805551908152f35b634e487b7160e01b825260119052602490fd5b634e487b7160e01b835260118252602483fd5b815260038852858120600701805460ff1916905538610625565b845162461bcd60e51b8152602081860152601b60248201527f496e76616c696420737562736372697074696f6e20706572696f6400000000006044820152606490fd5b5091903461033c578060031936011261033c576008610209938261081e6108b8565b94610827610b1d565b506001600160a01b039586168152602083815282822060243583528152828220548252600390522090610858610a03565b94825486526001830154602087015260028301548587015260038301541660608601528101546080850152600581015460a0850152600681015460c085015260ff600782015416151560e0850152015461010083015251918291826108d3565b600435906001600160a01b03821682036108ce57565b600080fd5b91909161012081019280518252602081015160208301526040810151604083015260018060a01b0360608201511660608301526080810151608083015260a081015160a083015260c081015160c083015260e0810151151560e083015261010080910151910152565b6000546001600160a01b0316330361095057565b606460405162461bcd60e51b815260206004820152602060248201527f4f776e61626c653a2063616c6c6572206973206e6f7420746865206f776e65726044820152fd5b1561099b57565b60405162461bcd60e51b815260206004820152601860248201527f496e636f7272656374207061796d656e7420616d6f756e7400000000000000006044820152606490fd5b919082018092116109ed57565b634e487b7160e01b600052601160045260246000fd5b60405190610120820182811067ffffffffffffffff821117610a2457604052565b634e487b7160e01b600052604160045260246000fd5b600260015414610a4b576002600155565b60405162461bcd60e51b815260206004820152601f60248201527f5265656e7472616e637947756172643a207265656e7472616e742063616c6c006044820152606490fd5b15610a9757565b60405162461bcd60e51b81526020600482015260126024820152712737ba103a34329039bab139b1b934b132b960711b6044820152606490fd5b15610ad857565b60405162461bcd60e51b815260206004820152601760248201527f537562736372697074696f6e206e6f74206163746976650000000000000000006044820152606490fd5b610b25610a03565b9060008083528060208401528060408401528060608401528060808401528060a08401528060c08401528060e084015261010083015256fea2646970667358221220764d764c0c32042114daa0ba0935fed0fca193add09f1408a17958f764352e9164736f6c63430008140033","opcodes":"PUSH1 0x80 DUP1 PUSH1 0x40 MSTORE CALLVALUE PUSH2 0x5F JUMPI PUSH1 0x0 DUP1 SLOAD CALLER PUSH1 0x1 PUSH1 0x1 PUSH1 0xA0 SHL SUB NOT DUP3 AND DUP2 OR DUP4 SSTORE SWAP2 PUSH1 0x1 PUSH1 0x1 PUSH1 0xA0 SHL SUB SWAP1 SWAP2 AND SWAP1 PUSH32 0x8BE0079C531659141344CD1FD0A4F28419497F9722A3DAAFE3B4186F6B6457E0 SWAP1 DUP1 LOG3 PUSH1 0x1 DUP1 SSTORE PUSH2 0xB93 SWAP1 DUP2 PUSH2 0x65 DUP3 CODECOPY RETURN JUMPDEST PUSH1 0x0 DUP1 REVERT INVALID PUSH1 0x40 PUSH1 0x80 DUP2 MSTORE PUSH1 0x4 SWAP1 DUP2 CALLDATASIZE LT ISZERO PUSH2 0x15 JUMPI PUSH1 0x0 DUP1 REVERT JUMPDEST PUSH1 0x0 SWAP2 DUP3 CALLDATALOAD PUSH1 0xE0 SHR DUP1 PUSH4 0xDFB6A06 EQ PUSH2 0x7FC JUMPI DUP1 PUSH4 0x1F5EFB01 EQ PUSH2 0x5D7 JUMPI DUP4 DUP2 PUSH4 0x21235083 EQ PUSH2 0x548 JUMPI POP DUP1 PUSH4 0x2D5BBF60 EQ PUSH2 0x4BC JUMPI DUP1 PUSH4 0x526E1442 EQ PUSH2 0x39D JUMPI DUP1 PUSH4 0x715018A6 EQ PUSH2 0x340 JUMPI DUP1 PUSH4 0x8DA5CB5B EQ PUSH2 0x314 JUMPI DUP1 PUSH4 0x90B5B0F0 EQ PUSH2 0x2D6 JUMPI DUP1 PUSH4 0x9D293393 EQ PUSH2 0x2AF JUMPI DUP1 PUSH4 0xC1075329 EQ PUSH2 0x20D JUMPI DUP1 PUSH4 0xDC311DD3 EQ PUSH2 0x16C JUMPI PUSH4 0xF2FDE38B EQ PUSH2 0xA7 JUMPI PUSH1 0x0 DUP1 REVERT JUMPDEST CALLVALUE PUSH2 0x168 JUMPI PUSH1 0x20 CALLDATASIZE PUSH1 0x3 NOT ADD SLT PUSH2 0x168 JUMPI PUSH2 0xC0 PUSH2 0x8B8 JUMP JUMPDEST SWAP1 PUSH2 0xC9 PUSH2 0x93C JUMP JUMPDEST PUSH1 0x1 PUSH1 0x1 PUSH1 0xA0 SHL SUB SWAP2 DUP3 AND SWAP3 DUP4 ISZERO PUSH2 0x116 JUMPI POP POP DUP3 SLOAD PUSH1 0x1 PUSH1 0x1 PUSH1 0xA0 SHL SUB NOT DUP2 AND DUP4 OR DUP5 SSTORE AND PUSH32 0x8BE0079C531659141344CD1FD0A4F28419497F9722A3DAAFE3B4186F6B6457E0 DUP4 DUP1 LOG3 DUP1 RETURN JUMPDEST SWAP1 PUSH1 0x20 PUSH1 0x84 SWAP3 MLOAD SWAP2 PUSH3 0x461BCD PUSH1 0xE5 SHL DUP4 MSTORE DUP3 ADD MSTORE PUSH1 0x26 PUSH1 0x24 DUP3 ADD MSTORE PUSH32 0x4F776E61626C653A206E6577206F776E657220697320746865207A65726F2061 PUSH1 0x44 DUP3 ADD MSTORE PUSH6 0x646472657373 PUSH1 0xD0 SHL PUSH1 0x64 DUP3 ADD MSTORE REVERT JUMPDEST DUP3 DUP1 REVERT JUMPDEST POP SWAP1 CALLVALUE PUSH2 0x168 JUMPI PUSH1 0x20 CALLDATASIZE PUSH1 0x3 NOT ADD SLT PUSH2 0x168 JUMPI PUSH1 0x8 DUP2 PUSH2 0x209 SWAP5 PUSH2 0x18E PUSH2 0xB1D JUMP JUMPDEST POP DUP5 CALLDATALOAD DUP2 MSTORE PUSH1 0x3 PUSH1 0x20 MSTORE KECCAK256 PUSH2 0x1A1 PUSH2 0xA03 JUMP JUMPDEST DUP2 SLOAD DUP2 MSTORE PUSH1 0x1 DUP3 ADD SLOAD PUSH1 0x20 DUP3 ADD MSTORE PUSH1 0x2 DUP3 ADD SLOAD DUP5 DUP3 ADD MSTORE PUSH1 0x3 DUP3 ADD SLOAD PUSH1 0x1 PUSH1 0x1 PUSH1 0xA0 SHL SUB AND PUSH1 0x60 DUP3 ADD MSTORE SWAP4 DUP2 ADD SLOAD PUSH1 0x80 DUP6 ADD MSTORE PUSH1 0x5 DUP2 ADD SLOAD PUSH1 0xA0 DUP6 ADD MSTORE PUSH1 0x6 DUP2 ADD SLOAD PUSH1 0xC0 DUP6 ADD MSTORE PUSH1 0x7 DUP2 ADD SLOAD PUSH1 0xFF AND ISZERO ISZERO PUSH1 0xE0 DUP6 ADD MSTORE ADD SLOAD PUSH2 0x100 DUP4 ADD MSTORE MLOAD SWAP2 DUP3 SWAP2 DUP3 PUSH2 0x8D3 JUMP JUMPDEST SUB SWAP1 RETURN JUMPDEST POP CALLVALUE PUSH2 0x168 JUMPI DUP2 PUSH1 0x3 NOT CALLDATASIZE ADD SLT PUSH2 0x168 JUMPI DUP1 CALLDATALOAD PUSH1 0x1 PUSH1 0x1 PUSH1 0xA0 SHL SUB DUP2 AND SWAP1 DUP2 SWAP1 SUB PUSH2 0x2AB JUMPI PUSH1 0x24 CALLDATALOAD SWAP2 PUSH2 0x23E PUSH2 0x93C JUMP JUMPDEST DUP3 SELFBALANCE LT PUSH2 0x271 JUMPI POP DUP4 DUP1 DUP1 SWAP4 DUP2 SWAP4 DUP3 DUP3 ISZERO PUSH2 0x268 JUMPI JUMPDEST CALL ISZERO PUSH2 0x25E JUMPI POP DUP1 RETURN JUMPDEST MLOAD SWAP1 RETURNDATASIZE SWAP1 DUP3 RETURNDATACOPY RETURNDATASIZE SWAP1 REVERT JUMPDEST POP PUSH2 0x8FC PUSH2 0x254 JUMP JUMPDEST PUSH1 0x64 SWAP1 PUSH1 0x20 DUP6 MLOAD SWAP2 PUSH3 0x461BCD PUSH1 0xE5 SHL DUP4 MSTORE DUP3 ADD MSTORE PUSH1 0x14 PUSH1 0x24 DUP3 ADD MSTORE PUSH20 0x496E73756666696369656E742062616C616E6365 PUSH1 0x60 SHL PUSH1 0x44 DUP3 ADD MSTORE REVERT JUMPDEST DUP4 DUP1 REVERT JUMPDEST POP CALLVALUE PUSH2 0x168 JUMPI PUSH1 0x20 CALLDATASIZE PUSH1 0x3 NOT ADD SLT PUSH2 0x168 JUMPI PUSH1 0x20 SWAP3 DUP3 SWAP2 CALLDATALOAD DUP2 MSTORE PUSH1 0x5 DUP5 MSTORE KECCAK256 SLOAD SWAP1 MLOAD SWAP1 DUP2 MSTORE RETURN JUMPDEST POP CALLVALUE PUSH2 0x168 JUMPI DUP2 PUSH1 0x3 NOT CALLDATASIZE ADD SLT PUSH2 0x168 JUMPI PUSH1 0x20 SWAP3 DUP3 SWAP2 PUSH1 0x1 PUSH1 0x1 PUSH1 0xA0 SHL SUB PUSH2 0x2FC PUSH2 0x8B8 JUMP JUMPDEST AND DUP3 MSTORE DUP5 MSTORE DUP2 DUP2 KECCAK256 PUSH1 0x24 CALLDATALOAD DUP3 MSTORE DUP5 MSTORE KECCAK256 SLOAD SWAP1 MLOAD SWAP1 DUP2 MSTORE RETURN JUMPDEST POP POP CALLVALUE PUSH2 0x33C JUMPI DUP2 PUSH1 0x3 NOT CALLDATASIZE ADD SLT PUSH2 0x33C JUMPI SWAP1 SLOAD SWAP1 MLOAD PUSH1 0x1 PUSH1 0x1 PUSH1 0xA0 SHL SUB SWAP1 SWAP2 AND DUP2 MSTORE PUSH1 0x20 SWAP1 RETURN JUMPDEST POP DUP1 REVERT JUMPDEST DUP4 CALLVALUE PUSH2 0x39A JUMPI DUP1 PUSH1 0x3 NOT CALLDATASIZE ADD SLT PUSH2 0x39A JUMPI PUSH2 0x359 PUSH2 0x93C JUMP JUMPDEST DUP1 SLOAD PUSH1 0x1 PUSH1 0x1 PUSH1 0xA0 SHL SUB NOT DUP2 AND DUP3 SSTORE DUP2 SWAP1 PUSH1 0x1 PUSH1 0x1 PUSH1 0xA0 SHL SUB AND PUSH32 0x8BE0079C531659141344CD1FD0A4F28419497F9722A3DAAFE3B4186F6B6457E0 DUP3 DUP1 LOG3 DUP1 RETURN JUMPDEST DUP1 REVERT JUMPDEST POP PUSH1 0x60 CALLDATASIZE PUSH1 0x3 NOT ADD SLT PUSH2 0x168 JUMPI DUP1 CALLDATALOAD SWAP2 PUSH1 0x24 CALLDATALOAD SWAP2 PUSH1 0x44 CALLDATALOAD SWAP1 PUSH2 0x3BD PUSH2 0xA3A JUMP JUMPDEST PUSH2 0x3C8 DUP3 CALLVALUE EQ PUSH2 0x994 JUMP JUMPDEST DUP4 ISZERO PUSH2 0x479 JUMPI DUP5 DUP7 MSTORE PUSH1 0x3 PUSH1 0x20 MSTORE DUP3 DUP7 KECCAK256 SWAP1 PUSH2 0x3F1 PUSH1 0x1 DUP1 PUSH1 0xA0 SHL SUB PUSH1 0x3 DUP5 ADD SLOAD AND CALLER EQ PUSH2 0xA90 JUMP JUMPDEST PUSH2 0x401 PUSH1 0xFF PUSH1 0x7 DUP5 ADD SLOAD AND PUSH2 0xAD1 JUMP JUMPDEST PUSH3 0x278D00 DUP1 DUP7 MUL SWAP6 DUP7 DIV SUB PUSH2 0x466 JUMPI POP SWAP2 PUSH32 0x7C9715CCEE1F26DCFBE9BDFFD86D601CDA0219953CA25469450E3124FEADD7C1 SWAP4 SWAP2 PUSH2 0x458 PUSH1 0x6 DUP6 PUSH2 0x44C PUSH1 0x5 PUSH1 0x20 SWAP9 ADD SWAP7 DUP8 SLOAD PUSH2 0x9E0 JUMP JUMPDEST DUP1 SWAP7 SSTORE ADD SWAP2 DUP3 SLOAD PUSH2 0x9E0 JUMP JUMPDEST SWAP1 SSTORE MLOAD SWAP1 DUP2 MSTORE LOG2 PUSH1 0x1 DUP1 SSTORE DUP1 RETURN JUMPDEST PUSH4 0x4E487B71 PUSH1 0xE0 SHL DUP8 MSTORE PUSH1 0x11 SWAP1 MSTORE PUSH1 0x24 DUP7 REVERT JUMPDEST PUSH1 0x64 SWAP1 PUSH1 0x20 DUP5 MLOAD SWAP2 PUSH3 0x461BCD PUSH1 0xE5 SHL DUP4 MSTORE DUP3 ADD MSTORE PUSH1 0x18 PUSH1 0x24 DUP3 ADD MSTORE PUSH32 0x496E76616C696420657874656E73696F6E20706572696F640000000000000000 PUSH1 0x44 DUP3 ADD MSTORE REVERT JUMPDEST POP CALLVALUE PUSH2 0x168 JUMPI PUSH1 0x20 CALLDATASIZE PUSH1 0x3 NOT ADD SLT PUSH2 0x168 JUMPI DUP2 PUSH2 0x120 SWAP4 DUP3 CALLDATALOAD DUP2 MSTORE PUSH1 0x3 PUSH1 0x20 MSTORE KECCAK256 DUP1 SLOAD SWAP3 PUSH1 0x1 DUP3 ADD SLOAD SWAP3 PUSH1 0x2 DUP4 ADD SLOAD SWAP1 PUSH1 0x1 DUP1 PUSH1 0xA0 SHL SUB PUSH1 0x3 DUP6 ADD SLOAD AND SWAP1 DUP5 ADD SLOAD SWAP1 PUSH1 0x5 DUP6 ADD SLOAD SWAP3 PUSH1 0x6 DUP7 ADD SLOAD SWAP5 PUSH1 0x8 PUSH1 0xFF PUSH1 0x7 DUP10 ADD SLOAD AND SWAP8 ADD SLOAD SWAP8 DUP2 MLOAD SWAP10 DUP11 MSTORE PUSH1 0x20 DUP11 ADD MSTORE DUP9 ADD MSTORE PUSH1 0x60 DUP8 ADD MSTORE PUSH1 0x80 DUP7 ADD MSTORE PUSH1 0xA0 DUP6 ADD MSTORE PUSH1 0xC0 DUP5 ADD MSTORE ISZERO ISZERO PUSH1 0xE0 DUP4 ADD MSTORE PUSH2 0x100 DUP3 ADD MSTORE RETURN JUMPDEST DUP3 DUP2 DUP6 CALLVALUE PUSH2 0x33C JUMPI PUSH1 0x20 CALLDATASIZE PUSH1 0x3 NOT ADD SLT PUSH2 0x33C JUMPI DUP3 CALLDATALOAD SWAP3 DUP4 DUP4 MSTORE PUSH1 0x3 PUSH1 0x20 MSTORE DUP2 DUP4 KECCAK256 SWAP1 PUSH2 0x582 PUSH1 0x1 DUP1 PUSH1 0xA0 SHL SUB PUSH1 0x3 DUP5 ADD SLOAD AND CALLER EQ PUSH2 0xA90 JUMP JUMPDEST PUSH1 0x7 DUP3 ADD DUP1 SLOAD PUSH2 0x594 PUSH1 0xFF DUP3 AND PUSH2 0xAD1 JUMP JUMPDEST PUSH1 0xFF NOT AND SWAP1 SSTORE CALLER DUP5 MSTORE PUSH1 0x20 MSTORE PUSH1 0x1 DUP3 DUP5 KECCAK256 SWAP2 ADD SLOAD DUP4 MSTORE PUSH1 0x20 MSTORE DUP2 KECCAK256 SSTORE PUSH32 0xBD2BCEA75D16A85F005CD83447E0DE57341BF926FE7419E6D553663E91AB4DA7 DUP3 DUP1 LOG2 DUP1 RETURN JUMPDEST POP SWAP1 PUSH1 0x80 CALLDATASIZE PUSH1 0x3 NOT ADD SLT PUSH2 0x168 JUMPI PUSH1 0x44 CALLDATALOAD SWAP2 PUSH1 0x24 CALLDATALOAD DUP2 CALLDATALOAD PUSH1 0x64 CALLDATALOAD PUSH2 0x5F9 PUSH2 0xA3A JUMP JUMPDEST PUSH2 0x604 DUP2 CALLVALUE EQ PUSH2 0x994 JUMP JUMPDEST DUP6 ISZERO PUSH2 0x7B9 JUMPI CALLER DUP8 MSTORE PUSH1 0x20 SWAP7 DUP5 DUP9 MSTORE DUP6 DUP2 KECCAK256 DUP4 DUP3 MSTORE DUP9 MSTORE DUP6 DUP2 KECCAK256 SLOAD DUP1 PUSH2 0x79F JUMPI JUMPDEST POP PUSH1 0x1 SWAP5 DUP6 PUSH1 0x2 SLOAD ADD SWAP8 DUP9 PUSH1 0x2 SSTORE PUSH3 0x278D00 DUP1 DUP3 MUL SWAP2 DUP3 DIV SUB PUSH2 0x78C JUMPI SWAP1 PUSH1 0x3 PUSH1 0x8 DUP5 DUP10 DUP8 DUP13 DUP16 DUP16 DUP14 DUP6 PUSH2 0x65B DUP16 SWAP14 SWAP13 TIMESTAMP PUSH2 0x9E0 JUMP JUMPDEST SWAP13 DUP14 SWAP6 PUSH2 0x666 PUSH2 0xA03 JUMP JUMPDEST SWAP12 DUP13 SWAP7 DUP7 DUP9 MSTORE DUP1 DUP9 ADD SWAP4 DUP5 MSTORE DUP3 DUP9 ADD SWAP6 DUP7 MSTORE PUSH1 0x60 DUP9 ADD SWAP7 CALLER DUP9 MSTORE PUSH2 0x100 PUSH1 0x80 DUP11 ADD SWAP10 TIMESTAMP DUP12 MSTORE PUSH1 0xA0 DUP2 ADD SWAP12 DUP13 MSTORE PUSH1 0xC0 DUP2 ADD SWAP13 DUP14 MSTORE PUSH1 0xE0 DUP2 ADD SWAP14 DUP15 MSTORE ADD SWAP13 DUP14 TIMESTAMP SWAP1 MSTORE MSTORE MSTORE DUP14 KECCAK256 SWAP11 MLOAD DUP12 SSTORE MLOAD SWAP1 DUP11 ADD SSTORE MLOAD PUSH1 0x2 DUP10 ADD SSTORE PUSH1 0x3 DUP9 ADD SWAP1 PUSH1 0x1 DUP1 PUSH1 0xA0 SHL SUB SWAP1 MLOAD AND PUSH12 0xFFFFFFFFFFFFFFFFFFFFFFFF PUSH1 0xA0 SHL DUP3 SLOAD AND OR SWAP1 SSTORE MLOAD DUP8 DUP8 ADD SSTORE MLOAD PUSH1 0x5 DUP7 ADD SSTORE MLOAD PUSH1 0x6 DUP6 ADD SSTORE PUSH1 0x7 DUP5 ADD SWAP1 MLOAD ISZERO ISZERO PUSH1 0xFF DUP1 NOT DUP4 SLOAD AND SWAP2 AND OR SWAP1 SSTORE MLOAD SWAP2 ADD SSTORE CALLER DUP3 MSTORE DUP1 DUP11 MSTORE DUP8 DUP3 KECCAK256 DUP6 DUP4 MSTORE DUP11 MSTORE DUP9 DUP9 DUP4 KECCAK256 SSTORE PUSH1 0x5 DUP11 MSTORE DUP8 DUP3 KECCAK256 SWAP2 DUP3 SLOAD SWAP2 PUSH1 0x0 NOT DUP4 EQ PUSH2 0x779 JUMPI POP POP SWAP3 PUSH32 0x38104EA88D3556F5A1309C009A56CD1D3E521704B37FA8C2A2B474D447CEFC62 SWAP3 PUSH1 0x80 SWAP3 DUP9 DUP12 SWAP7 ADD SWAP1 SSTORE DUP9 MLOAD SWAP2 CALLER DUP4 MSTORE DUP12 DUP4 ADD MSTORE TIMESTAMP DUP10 DUP4 ADD MSTORE PUSH1 0x60 DUP3 ADD MSTORE LOG4 DUP1 SSTORE MLOAD SWAP1 DUP2 MSTORE RETURN JUMPDEST PUSH4 0x4E487B71 PUSH1 0xE0 SHL DUP3 MSTORE PUSH1 0x11 SWAP1 MSTORE PUSH1 0x24 SWAP1 REVERT JUMPDEST PUSH4 0x4E487B71 PUSH1 0xE0 SHL DUP4 MSTORE PUSH1 0x11 DUP3 MSTORE PUSH1 0x24 DUP4 REVERT JUMPDEST DUP2 MSTORE PUSH1 0x3 DUP9 MSTORE DUP6 DUP2 KECCAK256 PUSH1 0x7 ADD DUP1 SLOAD PUSH1 0xFF NOT AND SWAP1 SSTORE CODESIZE PUSH2 0x625 JUMP JUMPDEST DUP5 MLOAD PUSH3 0x461BCD PUSH1 0xE5 SHL DUP2 MSTORE PUSH1 0x20 DUP2 DUP7 ADD MSTORE PUSH1 0x1B PUSH1 0x24 DUP3 ADD MSTORE PUSH32 0x496E76616C696420737562736372697074696F6E20706572696F640000000000 PUSH1 0x44 DUP3 ADD MSTORE PUSH1 0x64 SWAP1 REVERT JUMPDEST POP SWAP2 SWAP1 CALLVALUE PUSH2 0x33C JUMPI DUP1 PUSH1 0x3 NOT CALLDATASIZE ADD SLT PUSH2 0x33C JUMPI PUSH1 0x8 PUSH2 0x209 SWAP4 DUP3 PUSH2 0x81E PUSH2 0x8B8 JUMP JUMPDEST SWAP5 PUSH2 0x827 PUSH2 0xB1D JUMP JUMPDEST POP PUSH1 0x1 PUSH1 0x1 PUSH1 0xA0 SHL SUB SWAP6 DUP7 AND DUP2 MSTORE PUSH1 0x20 DUP4 DUP2 MSTORE DUP3 DUP3 KECCAK256 PUSH1 0x24 CALLDATALOAD DUP4 MSTORE DUP2 MSTORE DUP3 DUP3 KECCAK256 SLOAD DUP3 MSTORE PUSH1 0x3 SWAP1 MSTORE KECCAK256 SWAP1 PUSH2 0x858 PUSH2 0xA03 JUMP JUMPDEST SWAP5 DUP3 SLOAD DUP7 MSTORE PUSH1 0x1 DUP4 ADD SLOAD PUSH1 0x20 DUP8 ADD MSTORE PUSH1 0x2 DUP4 ADD SLOAD DUP6 DUP8 ADD MSTORE PUSH1 0x3 DUP4 ADD SLOAD AND PUSH1 0x60 DUP7 ADD MSTORE DUP2 ADD SLOAD PUSH1 0x80 DUP6 ADD MSTORE PUSH1 0x5 DUP2 ADD SLOAD PUSH1 0xA0 DUP6 ADD MSTORE PUSH1 0x6 DUP2 ADD SLOAD PUSH1 0xC0 DUP6 ADD MSTORE PUSH1 0xFF PUSH1 0x7 DUP3 ADD SLOAD AND ISZERO ISZERO PUSH1 0xE0 DUP6 ADD MSTORE ADD SLOAD PUSH2 0x100 DUP4 ADD MSTORE MLOAD SWAP2 DUP3 SWAP2 DUP3 PUSH2 0x8D3 JUMP JUMPDEST PUSH1 0x4 CALLDATALOAD SWAP1 PUSH1 0x1 PUSH1 0x1 PUSH1 0xA0 SHL SUB DUP3 AND DUP3 SUB PUSH2 0x8CE JUMPI JUMP JUMPDEST PUSH1 0x0 DUP1 REVERT JUMPDEST SWAP2 SWAP1 SWAP2 PUSH2 0x120 DUP2 ADD SWAP3 DUP1 MLOAD DUP3 MSTORE PUSH1 0x20 DUP2 ADD MLOAD PUSH1 0x20 DUP4 ADD MSTORE PUSH1 0x40 DUP2 ADD MLOAD PUSH1 0x40 DUP4 ADD MSTORE PUSH1 0x1 DUP1 PUSH1 0xA0 SHL SUB PUSH1 0x60 DUP3 ADD MLOAD AND PUSH1 0x60 DUP4 ADD MSTORE PUSH1 0x80 DUP2 ADD MLOAD PUSH1 0x80 DUP4 ADD MSTORE PUSH1 0xA0 DUP2 ADD MLOAD PUSH1 0xA0 DUP4 ADD MSTORE PUSH1 0xC0 DUP2 ADD MLOAD PUSH1 0xC0 DUP4 ADD MSTORE PUSH1 0xE0 DUP2 ADD MLOAD ISZERO ISZERO PUSH1 0xE0 DUP4 ADD MSTORE PUSH2 0x100 DUP1 SWAP2 ADD MLOAD SWAP2 ADD MSTORE JUMP JUMPDEST PUSH1 0x0 SLOAD PUSH1 0x1 PUSH1 0x1 PUSH1 0xA0 SHL SUB AND CALLER SUB PUSH2 0x950 JUMPI JUMP JUMPDEST PUSH1 0x64 PUSH1 0x40 MLOAD PUSH3 0x461BCD PUSH1 0xE5 SHL DUP2 MSTORE PUSH1 0x20 PUSH1 0x4 DUP3 ADD MSTORE PUSH1 0x20 PUSH1 0x24 DUP3 ADD MSTORE PUSH32 0x4F776E61626C653A2063616C6C6572206973206E6F7420746865206F776E6572 PUSH1 0x44 DUP3 ADD MSTORE REVERT JUMPDEST ISZERO PUSH2 0x99B JUMPI JUMP JUMPDEST PUSH1 0x40 MLOAD PUSH3 0x461BCD PUSH1 0xE5 SHL DUP2 MSTORE PUSH1 0x20 PUSH1 0x4 DUP3 ADD MSTORE PUSH1 0x18 PUSH1 0x24 DUP3 ADD MSTORE PUSH32 0x496E636F7272656374207061796D656E7420616D6F756E740000000000000000 PUSH1 0x44 DUP3 ADD MSTORE PUSH1 0x64 SWAP1 REVERT JUMPDEST SWAP2 SWAP1 DUP3 ADD DUP1 SWAP3 GT PUSH2 0x9ED JUMPI JUMP JUMPDEST PUSH4 0x4E487B71 PUSH1 0xE0 SHL PUSH1 0x0 MSTORE PUSH1 0x11 PUSH1 0x4 MSTORE PUSH1 0x24 PUSH1 0x0 REVERT JUMPDEST PUSH1 0x40 MLOAD SWAP1 PUSH2 0x120 DUP3 ADD DUP3 DUP2 LT PUSH8 0xFFFFFFFFFFFFFFFF DUP3 GT OR PUSH2 0xA24 JUMPI PUSH1 0x40 MSTORE JUMP JUMPDEST PUSH4 0x4E487B71 PUSH1 0xE0 SHL PUSH1 0x0 MSTORE PUSH1 0x41 PUSH1 0x4 MSTORE PUSH1 0x24 PUSH1 0x0 REVERT JUMPDEST PUSH1 0x2 PUSH1 0x1 SLOAD EQ PUSH2 0xA4B JUMPI PUSH1 0x2 PUSH1 0x1 SSTORE JUMP JUMPDEST PUSH1 0x40 MLOAD PUSH3 0x461BCD PUSH1 0xE5 SHL DUP2 MSTORE PUSH1 0x20 PUSH1 0x4 DUP3 ADD MSTORE PUSH1 0x1F PUSH1 0x24 DUP3 ADD MSTORE PUSH32 0x5265656E7472616E637947756172643A207265656E7472616E742063616C6C00 PUSH1 0x44 DUP3 ADD MSTORE PUSH1 0x64 SWAP1 REVERT JUMPDEST ISZERO PUSH2 0xA97 JUMPI JUMP JUMPDEST PUSH1 0x40 MLOAD PUSH3 0x461BCD PUSH1 0xE5 SHL DUP2 MSTORE PUSH1 0x20 PUSH1 0x4 DUP3 ADD MSTORE PUSH1 0x12 PUSH1 0x24 DUP3 ADD MSTORE PUSH18 0x2737BA103A34329039BAB139B1B934B132B9 PUSH1 0x71 SHL PUSH1 0x44 DUP3 ADD MSTORE PUSH1 0x64 SWAP1 REVERT JUMPDEST ISZERO PUSH2 0xAD8 JUMPI JUMP JUMPDEST PUSH1 0x40 MLOAD PUSH3 0x461BCD PUSH1 0xE5 SHL DUP2 MSTORE PUSH1 0x20 PUSH1 0x4 DUP3 ADD MSTORE PUSH1 0x17 PUSH1 0x24 DUP3 ADD MSTORE PUSH32 0x537562736372697074696F6E206E6F7420616374697665000000000000000000 PUSH1 0x44 DUP3 ADD MSTORE PUSH1 0x64 SWAP1 REVERT JUMPDEST PUSH2 0xB25 PUSH2 0xA03 JUMP JUMPDEST SWAP1 PUSH1 0x0 DUP1 DUP4 MSTORE DUP1 PUSH1 0x20 DUP5 ADD MSTORE DUP1 PUSH1 0x40 DUP5 ADD MSTORE DUP1 PUSH1 0x60 DUP5 ADD MSTORE DUP1 PUSH1 0x80 DUP5 ADD MSTORE DUP1 PUSH1 0xA0 DUP5 ADD MSTORE DUP1 PUSH1 0xC0 DUP5 ADD MSTORE DUP1 PUSH1 0xE0 DUP5 ADD MSTORE PUSH2 0x100 DUP4 ADD MSTORE JUMP INVALID LOG2 PUSH5 0x6970667358 0x22 SLT KECCAK256 PUSH23 0x4D764C0C32042114DAA0BA0935FED0FCA193ADD09F1408 LOG1 PUSH26 0x58F764352E9164736F6C63430008140033000000000000000000 "},"methodIdentifiers":{"activeSubscriptionByCreator(address,uint256)":"90b5b0f0","cancelSubscription(uint256)":"21235083","extendSubscription(uint256,uint256,uint256)":"526e1442","getActiveSubscription(address,uint256)":"0dfb6a06","getSubscription(uint256)":"dc311dd3","owner()":"8da5cb5b","renounceOwnership()":"715018a6","subscribe(uint256,uint256,uint256,uint256)":"1f5efb01","subscriptions(uint256)":"2d5bbf60","totalSubscriptionsByCreator(uint256)":"9d293393","transferOwnership(address)":"f2fde38b","withdrawFunds(address,uint256)":"c1075329"}}}}}