{"contracts/web3patreoncontract.sol":{"DeployerContract":{"abi":[{"inputs":[{"internalType":"address","name":"treasuryWallet","type":"address"}],"stateMutability":"nonpayable","type":"constructor"},{"anonymous":false,"inputs":[{"indexed":true,"internalType":"address","name":"creatorRegistry","type":"address"},{"indexed":true,"internalType":"address","name":"contentNFT","type":"address"},{"indexed":true,"internalType":"address","name":"subscriptionManager","type":"address"}],"name":"ContractsDeployed","type":"event"},{"inputs":[],"name":"contentNFT","outputs":[{"internalType":"address","name":"","type":"address"}],"stateMutability":"view","type":"function"},{"inputs":[],"name":"creatorRegistry","outputs":[{"internalType":"address","name":"","type":"address"}],"stateMutability":"view","type":"function"},{"inputs":[],"name":"owner","outputs":[{"internalType":"address","name":"","type":"address"}],"stateMutability":"view","type":"function"},{"inputs":[],"name":"subscriptionManager","outputs":[{"internalType":"address","name":"","type":"address"}],"stateMutability":"view","type":"function"}],"evm":{"bytecode":{"linkReferences":{},"object":"60803461032857600090601f615a3538819003918201601f19168301926001600160401b039290918385118386101761031457816020928492604097885283398101031261022e57516001600160a01b0391828216918290036103105781156102bd5760018060a01b031991338360035416176003558451610ff980820190828210858311176102a9579082916104718339039087f0801561029f57841691828488541617875586856003541693803b1561029b578190602489518094819363f2fde38b60e01b998a845260048401525af180156102915761027e575b508487541686519061208590818301918383108584111761023c579280926020928c9561146a8439815203019082f08015610272578616808660015416176001558660035416813b15610220578291602483928b5194859384928b845260048401525af1801561026857610250575b5085905416918560015416875193612546808601948686109086111761023c5792859491928b989796936060956134ef8639835260208301528982015203019084f08015610232578416809260025416176002558360035416823b1561022e57602484928388519586948593845260048401525af180156102245761020c575b50819054167f64ff5f080a9fbac5fd2b92ee5d223ab47abf2bc09caad8eefb67cdf7f7a1796c8260015416926002541693519480a461011a90816103578239f35b6102159061032d565b6102205782386101cb565b8280fd5b84513d84823e3d90fd5b8380fd5b85513d85823e3d90fd5b634e487b7160e01b8b52604160045260248bfd5b6102599061032d565b61026457863861014b565b8680fd5b88513d84823e3d90fd5b508651903d90823e3d90fd5b61028a9097919761032d565b95386100dc565b87513d8a823e3d90fd5b5080fd5b85513d88823e3d90fd5b634e487b7160e01b89526041600452602489fd5b835162461bcd60e51b815260206004820152602660248201527f54726561737572792077616c6c65742063616e6e6f74206265207a65726f206160448201526564647265737360d01b6064820152608490fd5b8480fd5b634e487b7160e01b86526041600452602486fd5b600080fd5b6001600160401b03811161034057604052565b634e487b7160e01b600052604160045260246000fdfe6080806040526004361015601257600080fd5b600090813560e01c90816328aef9691460bd575080638da5cb5b1460965780639a6a5cf01460715763bf158fd214604857600080fd5b34606e5780600319360112606e576002546040516001600160a01b039091168152602090f35b80fd5b5034606e5780600319360112606e57546040516001600160a01b039091168152602090f35b5034606e5780600319360112606e576003546040516001600160a01b039091168152602090f35b90503460e0578160031936011260e0576001546001600160a01b03168152602090f35b5080fdfea264697066735822122096370a91ba4f3657904954597f7471bd73c14b2f37d18cab0ebeaec39be94bb064736f6c634300081400336080806040523461005f5760008054336001600160a01b0319821681178355916001600160a01b03909116907f8be0079c531659141344cd1fd0a4f28419497f9722a3daafe3b4186f6b6457e09080a360018055610f9490816100658239f35b600080fdfe608080604052600436101561001357600080fd5b60e0600035811c91826331e8e39d14610b6e575081634209e03d14610a2657816350dcf827146109e6578163663222c5146100b0578163715018a61461098d5781638da5cb5b14610964578163cd53d08e146108c7578163d48e638a1461077b578163dac0faf9146104ce57508063dde9be99146102af578063e5c14411146101be578063f2fde38b146100f35763fb23b20b146100b057600080fd5b346100ee5760203660031901126100ee576004356001600160a01b038116908190036100ee5760005260066020526020604060002054604051908152f35b600080fd5b346100ee5760203660031901126100ee576004356001600160a01b03818116918290036100ee57610122610d59565b811561016a57600054826bffffffffffffffffffffffff60a01b821617600055167f8be0079c531659141344cd1fd0a4f28419497f9722a3daafe3b4186f6b6457e0600080a3005b60405162461bcd60e51b815260206004820152602660248201527f4f776e61626c653a206e6577206f776e657220697320746865207a65726f206160448201526564647265737360d01b6064820152608490fd5b346100ee5760203660031901126100ee576004356101da610d59565b801515806102a3575b6101ec90610e53565b80600052600560205260ff6005604060002001541661025e57806000526005602052610236604060002060058101600160ff198254161790556001808060a01b0391015416610e94565b507fb58683e399165d7751bef535fe75340046e8c2a16fa78e063412916e9fa3d99a600080a2005b60405162461bcd60e51b815260206004820152601860248201527f43726561746f7220616c726561647920766572696669656400000000000000006044820152606490fd5b506002548111156101e3565b346100ee576102bd36610ce8565b336000526020906006825260406000205415610489576102df81511515610db1565b336000526006825260406000205490816000526005835260026040600020019281519367ffffffffffffffff85116104735761031b8154610b89565b601f811161042d575b5081601f86116001146103a85794807f0a2539dd6b1c295a14eb2f24af489e7f57b1fce0127fb2f8135295dd5e13e176959660009161039d575b508160011b916000199060031b1c19161790555b836000526005815242600760406000200155610398604051928284938452830190610ca8565b0390a2005b90508401518761035e565b601f1986169082600052836000209160005b81811061041657509187917f0a2539dd6b1c295a14eb2f24af489e7f57b1fce0127fb2f8135295dd5e13e1769798600194106103fd575b5050811b019055610372565b86015160001960f88460031b161c1916905587806103f1565b91928560018192868a0151815501940192016103ba565b8160005282600020601f870160051c810191848810610469575b601f0160051c01905b81811061045d5750610324565b60008155600101610450565b9091508190610447565b634e487b7160e01b600052604160045260246000fd5b60405162461bcd60e51b815260048101839052601860248201527f4e6f74206120726567697374657265642063726561746f7200000000000000006044820152606490fd5b346100ee576104dc36610ce8565b906104e5610dfd565b3360005260066020526040600020546107365761050482511515610db1565b60016002540190816002556040519061051c82610bc3565b8282526020820191338352604081018581526000606083015260006080830152600060a08301524260c0830152428383015284600052600560205260406000209382518555600185019060018060a01b039051166bffffffffffffffffffffffff60a01b8254161790555180519067ffffffffffffffff8211610473576105a66002860154610b89565b601f81116106ef575b50602090601f831160011461067b5760079493929160009183610670575b50508160011b916000199060031b1c19161760028501555b60608101516003850155608081015160048501556005840160a0820151151560ff8019835416911617905560c081015160068501550151910155336000526006602052806040600020557f4cfde7f67060004def7ffd71f6f34b90f732485709c3c9367aed20d0fd61a8ca604051602081528061066733956020830190610ca8565b0390a360018055005b0151905088806105cd565b906002860160005260206000209160005b601f19851681106106d757509183916001936007979695601f198116106106be575b505050811b0160028501556105e5565b015160001960f88460031b161c191690558880806106ae565b9192602060018192868501518155019401920161068c565b600286016000526020600020601f840160051c81016020851061072f575b601f830160051c820181106107235750506105af565b6000815560010161070d565b508061070d565b60405162461bcd60e51b815260206004820152601d60248201527f416c726561647920726567697374657265642061732063726561746f720000006044820152606490fd5b346100ee57602090816003193601126100ee576004356000826040516107a081610bc3565b8281528286820152606060408201528260608201528260808201528260a08201528260c08201520152801515806108bb575b6107db90610e53565b60005260058252604060002090604051916107f583610bc3565b8054835260018101546001600160a01b03908116858501908152909261081d60028401610c02565b9260408601938452600381015494606087019586526004820154946080880195865260ff6005840154169160a089019215158352600760068501549460c08b01958652015495858a019687526040519a8b9a818c5251908b0152511660408901525194610898610100968760608b01526101208a0190610ca8565b965160808901525160a088015251151560c0870152519085015251908301520390f35b506002548111156107d2565b346100ee5760203660031901126100ee576004356000526005602052604060002080549060018060a01b036001820154169261090560028301610c02565b90600383015492600481015460ff600583015416906109466007600685015494015495604051998a998a5260208a01526101008060408b0152890190610ca8565b9560608801526080870152151560a086015260c08501528301520390f35b346100ee5760003660031901126100ee576000546040516001600160a01b039091168152602090f35b346100ee5760003660031901126100ee576109a6610d59565b600080546001600160a01b0319811682556001600160a01b03167f8be0079c531659141344cd1fd0a4f28419497f9722a3daafe3b4186f6b6457e08280a3005b346100ee5760203660031901126100ee576004356001600160a01b038116908190036100ee57600052600460205260206040600020541515604051908152f35b346100ee5760603660031901126100ee57600435602435610a45610dfd565b81151580610b62575b610a5790610e53565b81600052600560205260406000209060008113600014610ac75781604091610a936003600080516020610f3f8339815191529501918254610f31565b90555b60036004820191610aaa6044358454610f31565b80935542600782015501549082519182526020820152a260018055005b60008112610ae8575b506040600080516020610f3f83398151915291610a96565b90600160ff1b8214610b305760038101908260000382541015600014610b46578154928301928311610b3057600080516020610f3f83398151915292604092555b9150610ad0565b634e487b7160e01b600052601160045260246000fd5b600080516020610f3f8339815191529250600060409255610b29565b50600254821115610a4e565b346100ee5760003660031901126100ee576020906002548152f35b90600182811c92168015610bb9575b6020831014610ba357565b634e487b7160e01b600052602260045260246000fd5b91607f1691610b98565b610100810190811067ffffffffffffffff82111761047357604052565b90601f8019910116810190811067ffffffffffffffff82111761047357604052565b9060405191826000825492610c1684610b89565b908184526001948581169081600014610c855750600114610c42575b5050610c4092500383610be0565b565b9093915060005260209081600020936000915b818310610c6d575050610c4093508201013880610c32565b85548884018501529485019487945091830191610c55565b915050610c4094506020925060ff191682840152151560051b8201013880610c32565b919082519283825260005b848110610cd4575050826000602080949584010152601f8019910116010190565b602081830181015184830182015201610cb3565b60206003198201126100ee5767ffffffffffffffff6004358181116100ee57826023820112156100ee5780600401359182116104735760405192610d36601f8401601f191660200185610be0565b828452602483830101116100ee5781600092602460209301838601378301015290565b6000546001600160a01b03163303610d6d57565b606460405162461bcd60e51b815260206004820152602060248201527f4f776e61626c653a2063616c6c6572206973206e6f7420746865206f776e65726044820152fd5b15610db857565b60405162461bcd60e51b815260206004820152601860248201527f4d657461646174612055524920697320726571756972656400000000000000006044820152606490fd5b600260015414610e0e576002600155565b60405162461bcd60e51b815260206004820152601f60248201527f5265656e7472616e637947756172643a207265656e7472616e742063616c6c006044820152606490fd5b15610e5a57565b60405162461bcd60e51b8152602060048201526012602482015271125b9d985b1a590818dc99585d1bdc88125160721b6044820152606490fd5b600081815260046020526040812054610f2c5760035468010000000000000000811015610f18576001810180600355811015610f045790826040927fc2575a0e9e593c00f959f8c92f12db2869c3395a3b0502d05e2516446f71f85b015560035492815260046020522055600190565b634e487b7160e01b82526032600452602482fd5b634e487b7160e01b82526041600452602482fd5b905090565b91908201809211610b305756fe3bf98f0e34ccfa8e143ea2f0c79aff94b8e681f3c11522f2713688acdc12b779a2646970667358221220bd4509509b7cf7fc2e603af13f7e9d45d09a4b4976a6d23a60e3ccc8275ef3fa64736f6c634300081400336080346200017d576001600160401b0390601f6200208538819003918201601f19168301918483118484101762000167578084926020946040528339810103126200017d57516001600160a01b0391828216918290036200017d57604051906020820190811182821017620001675760405260008091526002546001908181811c911680156200015c575b60208210146200014857601f8111620000fa575b508160025560035460018060a01b03199233848316176003557f8be0079c531659141344cd1fd0a4f28419497f9722a3daafe3b4186f6b6457e0604051963393169180a36004556005541617600555611f029081620001838239f35b60028352601f0160051c7f405787fa12a823e0f2b7631cc41b3ba8828b3321ca811111fa75cd3aa3bb5ace9081019082905b8281106200013c5750506200009e565b8481550182906200012c565b634e487b7160e01b83526022600452602483fd5b90607f16906200008a565b634e487b7160e01b600052604160045260246000fd5b600080fdfe6080604052600436101561001257600080fd5b60003560e01c8062fdd58e1461185357806301ffc9a7146117e557806302fe53051461166c5780630e89341c1461160b57806323a36d2b146112da5780632eb2c2d614610fb0578063439e7eea14610a005780634e1273f41461085e5780634f062c5a14610746578063715018a6146106e95780638da5cb5b146106c05780639a6a5cf014610697578063a22cb465146105b3578063bc5aedc014610574578063c6530e4114610543578063cb1637de146104b6578063e985e9c514610460578063f242432a146101ba5763f2fde38b146100ec57600080fd5b346101b55760203660031901126101b557610105611879565b61010d611b00565b6001600160a01b0390811690811561016157600354826bffffffffffffffffffffffff60a01b821617600355167f8be0079c531659141344cd1fd0a4f28419497f9722a3daafe3b4186f6b6457e0600080a3005b60405162461bcd60e51b815260206004820152602660248201527f4f776e61626c653a206e6577206f776e657220697320746865207a65726f206160448201526564647265737360d01b6064820152608490fd5b600080fd5b346101b55760a03660031901126101b5576101d3611879565b6101db61188f565b906064356044356084356001600160401b0381116101b5576102019036906004016118e1565b6001600160a01b03938416933385148015610437575b61022090611c2c565b851661022d811515611c8f565b61023683611e59565b5061024084611e59565b50826000526020956000875260406000208660005287528460406000205461026a82821015611ce9565b85600052600089526040600020886000528952036040600020558360005260008752604060002082600052875260406000206102a7868254611d48565b90558186604051868152878a8201527fc3d58168c5ae7397731d063d5bbf3d657854427343f4c083240f7aacaa2d0f6260403392a43b6102e357005b61032793600087946040519687958694859363f23a6e6160e01b9b8c865233600487015260248601526044850152606484015260a0608484015260a4830190611937565b03925af160009181610408575b5061039f5782610342611d75565b6308c379a01461036a575b60405162461bcd60e51b81528061036660048201611e04565b0390fd5b610372611d93565b908161037e575061034d565b61036660405192839262461bcd60e51b845260048401526024830190611937565b6001600160e01b0319160390506103b257005b60405162461bcd60e51b815260206004820152602860248201527f455243313135353a204552433131353552656365697665722072656a656374656044820152676420746f6b656e7360c01b6064820152608490fd5b610429919250843d8611610430575b61042181836118c0565b810190611d55565b9084610334565b503d610417565b5084600052600160205260406000203360005260205261022060ff604060002054169050610217565b346101b55760403660031901126101b557610479611879565b61048161188f565b9060018060a01b03809116600052600160205260406000209116600052602052602060ff604060002054166040519015158152f35b346101b55760203660031901126101b5576004356000526007602052604060002080546001820154916104eb60028201611a5a565b6105346104fa60038401611a5a565b61052660056004860154950154936040519788978852602088015260c0604088015260c0870190611937565b908582036060870152611937565b91608084015260a08301520390f35b346101b55760403660031901126101b557602061056a610561611879565b60243590611b58565b1515604051908152f35b346101b55760403660031901126101b55760043560005260086020526040600020602435600052602052602060ff604060002054166040519015158152f35b346101b55760403660031901126101b5576105cc611879565b602435908115158092036101b5576001600160a01b03169033821461064057336000526001602052604060002082600052602052604060002060ff1981541660ff83161790556040519081527f17307eab39ab6107e8899845ad3d59bd9653f200f220920489ca2b5937696c3160203392a3005b60405162461bcd60e51b815260206004820152602960248201527f455243313135353a2073657474696e6720617070726f76616c20737461747573604482015268103337b91039b2b63360b91b6064820152608490fd5b346101b55760003660031901126101b5576005546040516001600160a01b039091168152602090f35b346101b55760003660031901126101b5576003546040516001600160a01b039091168152602090f35b346101b55760003660031901126101b557610702611b00565b600380546001600160a01b031981169091556000906001600160a01b03167f8be0079c531659141344cd1fd0a4f28419497f9722a3daafe3b4186f6b6457e08280a3005b346101b5576020806003193601126101b557600435600060a060405161076b816118a5565b828152828582015260606040820152606080820152826080820152015280151580610852575b61079a90611e8e565b600052600781526040600020604051906107b3826118a5565b8054825260018101548383019081526108416107d160028401611a5a565b6040850190815261082e6107e760038601611a5a565b916060870192835260056004870154966080890197885201549460a08801958652604051988998818a5251908901525160408801525160c0606088015260e0870190611937565b9051858203601f19016080870152611937565b915160a08401525160c08301520390f35b50600654811115610791565b346101b55760403660031901126101b5576004356001600160401b038082116101b557366023830112156101b55781600401359061089b82611977565b926108a960405194856118c0565b82845260209260248486019160051b830101913683116101b557602401905b8282106109e1575050506024359081116101b5576108ea90369060040161198e565b825181510361098a578251926108ff84611977565b9361090d60405195866118c0565b80855261091c601f1991611977565b01368486013760005b815181101561096f5761096a9061095a6001600160a01b036109478386611c02565b51166109538387611c02565b5190611b58565b6109648288611c02565b52611bdd565b610925565b5050506109866040519282849384528301906119ec565b0390f35b60405162461bcd60e51b815260048101839052602960248201527f455243313135353a206163636f756e747320616e6420696473206c656e677468604482015268040dad2e6dac2e8c6d60bb1b6064820152608490fd5b81356001600160a01b03811681036101b55781529084019084016108c8565b346101b55760603660031901126101b5576004356001600160401b0381116101b557610a309036906004016118e1565b6024356001600160401b0381116101b557610a4f9036906004016118e1565b60055460405163fb23b20b60e01b8082523360048301526001600160a01b039092169190602081602481865afa908115610e6b57600091610f7e575b5015610f3957835115610f0157825115610ebc5760443515610e775760209060246040518094819382523360048301525afa908115610e6b57600091610e39575b506001600654019182600655604051610ae4816118a5565b83815260208101918383526040820190868252606083015260443560808301524260a083015284600052600760205260406000209282518455516001840155518051906001600160401b038211610d53578190610b446002860154611a20565b601f8111610de6575b50602090601f8311600114610d7457600092610d69575b50508160011b916000199060031b1c19161760028301555b60608101518051906001600160401b038211610d5357610b9f6003850154611a20565b601f8111610d0c575b5091859391602097938890601f8311600114610c70577f4baf285bf2d939e1e30f6addbf03315085042274c5703fc126a1dde8ae20fe3a959383610c53969460059460a094600092610c65575b50508160011b916000199060031b1c19161760038501555b608081015160048501550151910155846000526008875260406000208460005287526040600020600160ff19825416179055604051918291604083526040830190611937565b604435888301520390a3604051908152f35b015190508d80610bf5565b9060038501600052896000209160005b601f1985168110610cf257509360018460059460a0947f4baf285bf2d939e1e30f6addbf03315085042274c5703fc126a1dde8ae20fe3a9a98610c539a98601f19811610610cd9575b505050811b016003850155610c0d565b015160001960f88460031b161c191690558d8080610cc9565b8183015184558a9850600190930192918b01918b01610c80565b600385016000526020600020601f840160051c810160208510610d4c575b601f830160051c82018110610d40575050610ba8565b60008155600101610d2a565b5080610d2a565b634e487b7160e01b600052604160045260246000fd5b015190508780610b64565b9250600285016000526020600020906000935b601f1984168510610dcb576001945083601f19811610610db2575b505050811b016002830155610b7c565b015160001960f88460031b161c19169055878080610da2565b81810151835560209485019460019093019290910190610d87565b909150600285016000526020600020601f840160051c810160208510610e32575b90849392915b601f830160051c82018110610e23575050610b4d565b60008155859450600101610e0d565b5080610e07565b90506020813d602011610e63575b81610e54602093836118c0565b810103126101b5575183610acc565b3d9150610e47565b6040513d6000823e3d90fd5b60405162461bcd60e51b815260206004820152601f60248201527f5072696365206d7573742062652067726561746572207468616e207a65726f006044820152606490fd5b60405162461bcd60e51b815260206004820152601860248201527f4d657461646174612055524920697320726571756972656400000000000000006044820152606490fd5b60405162461bcd60e51b815260206004820152601060248201526f13985b59481a5cc81c995c5d5a5c995960821b6044820152606490fd5b60405162461bcd60e51b815260206004820152601860248201527f4e6f74206120726567697374657265642063726561746f7200000000000000006044820152606490fd5b90506020813d602011610fa8575b81610f99602093836118c0565b810103126101b5575185610a8b565b3d9150610f8c565b346101b55760031960a0368201126101b557610fca611879565b90610fd361188f565b906001600160401b03906044358281116101b557610ff590369060040161198e565b6064358381116101b55761100d90369060040161198e565b926084359081116101b5576110269036906004016118e1565b6001600160a01b039586169590929033871480156112b1575b61104890611c2c565b825185510361125b5785169261105f841515611c8f565b60005b83518110156110f857806110796110f39286611c02565b516110848289611c02565b5190806000526020906000825260406000208c6000528252826040600020546110af82821015611ce9565b82600052600084528d6040600020906000528452036040600020556000526000815260406000209088600052526110ec6040600020918254611d48565b9055611bdd565b611062565b509094939291938287604051604081527f4a39dc06d4c0dbc64b70af90fd698a233a518aa5d07e595d983b8c0526c8f7fb611136604083018a6119ec565b9180830360208201528061114b33948b6119ec565b0390a43b61115557005b60006020946111b66111a79761119794604051998a988997889663bc197c8160e01b9e8f89523360048a0152602489015260a0604489015260a48801906119ec565b90848783030160648801526119ec565b91848303016084850152611937565b03925af16000918161123b575b5061122a576111d0611d75565b6308c379a0146111f35760405162461bcd60e51b81528061036660048201611e04565b6111fb611d93565b80611206575061034d565b60405162461bcd60e51b815260206004820152908190610366906024830190611937565b6001600160e01b031916036103b257005b61125491925060203d81116104305761042181836118c0565b90836111c3565b60405162461bcd60e51b815260206004820152602860248201527f455243313135353a2069647320616e6420616d6f756e7473206c656e677468206044820152670dad2e6dac2e8c6d60c31b6064820152608490fd5b5086600052600160205260406000203360005260205261104860ff60406000205416905061103f565b346101b55760603660031901126101b5576112f3611879565b6024908135604435916002600454146115c7576002600455811515806115bb575b61131d90611e8e565b821561157757604051926020938481018181106001600160401b0382111761156257604052600081526001600160a01b0383169283156115145761136085611e59565b5061136a83611e59565b5084600052600086526040600020846000528652604060002061138e848254611d48565b905583600060405187815285898201527fc3d58168c5ae7397731d063d5bbf3d657854427343f4c083240f7aacaa2d0f6260403392a43b611403575b50837f96234cb3d6c373a1aaa06497a540bc166d4b0359243a088eaf95e21d7253d0be91604051908152a3600160045560405160018152f35b60405185818061144163f23a6e6160e01b9586835233600484015260008c84015289604484015287606484015260a0608484015260a4830190611937565b03816000885af1600091816114f5575b506114b6578686611460611d75565b6308c379a0146114835760405162461bcd60e51b81528061036660048201611e04565b61148b611d93565b80611496575061034d565b6103669060405193849362461bcd60e51b85526004850152830190611937565b9091929394955063ffffffff60e01b16036103b257839291907f96234cb3d6c373a1aaa06497a540bc166d4b0359243a088eaf95e21d7253d0be6113ca565b61150d919250873d89116104305761042181836118c0565b9088611451565b60405162461bcd60e51b8152600481018790526021818901527f455243313135353a206d696e7420746f20746865207a65726f206164647265736044820152607360f81b6064820152608490fd5b86634e487b7160e01b60005260416004526000fd5b60405162461bcd60e51b8152602060048201819052818601527f416d6f756e74206d7573742062652067726561746572207468616e207a65726f6044820152606490fd5b50600654821115611314565b60405162461bcd60e51b815260206004820152601f818601527f5265656e7472616e637947756172643a207265656e7472616e742063616c6c006044820152606490fd5b346101b55760203660031901126101b55760043580151580611660575b61163190611e8e565b600052600760205261098661164c6003604060002001611a5a565b604051918291602083526020830190611937565b50600654811115611628565b346101b5576020806003193601126101b5576001600160401b036004358181116101b55761169e9036906004016118e1565b916116a7611b00565b8251918211610d53576116bb600254611a20565b601f8111611781575b5080601f8311600114611700575081926000926116f5575b5050600019600383901b1c191660019190911b17600255005b0151905082806116dc565b90601f1983169360026000527f405787fa12a823e0f2b7631cc41b3ba8828b3321ca811111fa75cd3aa3bb5ace926000905b8682106117695750508360019510611750575b505050811b01600255005b015160001960f88460031b161c19169055828080611745565b80600185968294968601518155019501930190611732565b60026000527f405787fa12a823e0f2b7631cc41b3ba8828b3321ca811111fa75cd3aa3bb5ace601f840160051c8101918385106117db575b601f0160051c01905b8181106117cf57506116c4565b600081556001016117c2565b90915081906117b9565b346101b55760203660031901126101b55760043563ffffffff60e01b81168091036101b557602090636cdb3d1360e11b8114908115611842575b8115611831575b506040519015158152f35b6301ffc9a760e01b14905082611826565b6303a24d0760e21b8114915061181f565b346101b55760403660031901126101b5576020611871610561611879565b604051908152f35b600435906001600160a01b03821682036101b557565b602435906001600160a01b03821682036101b557565b60c081019081106001600160401b03821117610d5357604052565b90601f801991011681019081106001600160401b03821117610d5357604052565b81601f820112156101b5578035906001600160401b038211610d535760405192611915601f8401601f1916602001856118c0565b828452602083830101116101b557816000926020809301838601378301015290565b919082519283825260005b848110611963575050826000602080949584010152601f8019910116010190565b602081830181015184830182015201611942565b6001600160401b038111610d535760051b60200190565b81601f820112156101b5578035916119a583611977565b926119b360405194856118c0565b808452602092838086019260051b8201019283116101b5578301905b8282106119dd575050505090565b813581529083019083016119cf565b90815180825260208080930193019160005b828110611a0c575050505090565b8351855293810193928101926001016119fe565b90600182811c92168015611a50575b6020831014611a3a57565b634e487b7160e01b600052602260045260246000fd5b91607f1691611a2f565b9060405191826000825492611a6e84611a20565b908184526001948581169081600014611add5750600114611a9a575b5050611a98925003836118c0565b565b9093915060005260209081600020936000915b818310611ac5575050611a9893508201013880611a8a565b85548884018501529485019487945091830191611aad565b915050611a9894506020925060ff191682840152151560051b8201013880611a8a565b6003546001600160a01b03163303611b1457565b606460405162461bcd60e51b815260206004820152602060248201527f4f776e61626c653a2063616c6c6572206973206e6f7420746865206f776e65726044820152fd5b6001600160a01b0316908115611b8557600052600060205260406000209060005260205260406000205490565b60405162461bcd60e51b815260206004820152602a60248201527f455243313135353a2061646472657373207a65726f206973206e6f742061207660448201526930b634b21037bbb732b960b11b6064820152608490fd5b6000198114611bec5760010190565b634e487b7160e01b600052601160045260246000fd5b8051821015611c165760209160051b010190565b634e487b7160e01b600052603260045260246000fd5b15611c3357565b60405162461bcd60e51b815260206004820152602e60248201527f455243313135353a2063616c6c6572206973206e6f7420746f6b656e206f776e60448201526d195c881bdc88185c1c1c9bdd995960921b6064820152608490fd5b15611c9657565b60405162461bcd60e51b815260206004820152602560248201527f455243313135353a207472616e7366657220746f20746865207a65726f206164604482015264647265737360d81b6064820152608490fd5b15611cf057565b60405162461bcd60e51b815260206004820152602a60248201527f455243313135353a20696e73756666696369656e742062616c616e636520666f60448201526939103a3930b739b332b960b11b6064820152608490fd5b91908201809211611bec57565b908160209103126101b557516001600160e01b0319811681036101b55790565b60009060033d11611d8257565b905060046000803e60005160e01c90565b600060443d10611df057604051600319913d83016004833e81516001600160401b03918282113d602484011117611df357818401948551938411611dfb573d85010160208487010111611df35750611df0929101602001906118c0565b90565b949350505050565b50949350505050565b60809060208152603460208201527f455243313135353a207472616e7366657220746f206e6f6e2d455243313135356040820152732932b1b2b4bb32b91034b6b83632b6b2b73a32b960611b60608201520190565b60405190604082018281106001600160401b03821117610d535760405260018252602082016020368237825115611c16575290565b15611e9557565b60405162461bcd60e51b815260206004820152600f60248201526e125b9d985b1a59081d1a595c881251608a1b6044820152606490fdfea2646970667358221220ce06daf8004618a26c0d38b1135328d04b99394f95d63cfabdff6364ac93e8fc64736f6c634300081400336080346200014557601f6200254638819003918201601f19168301916001600160401b038311848410176200014a5780849260609460405283398101031262000145576200004d8162000160565b620000696040620000616020850162000160565b930162000160565b6000549260018060a01b03199233848616176000556040519460018060a01b03938491823391167f8be0079c531659141344cd1fd0a4f28419497f9722a3daafe3b4186f6b6457e0600080a3600180556005805516948515620000f4575082168360025416176002551681600354161760035560045416176004556040516123d09081620001768239f35b62461bcd60e51b815260206004820152602660248201527f54726561737572792077616c6c65742063616e6e6f74206265207a65726f206160448201526564647265737360d01b6064820152608490fd5b600080fd5b634e487b7160e01b600052604160045260246000fd5b51906001600160a01b0382168203620001455756fe6080604052600436101561001257600080fd5b6000803560e01c806312e8e2c314611b1a57806321235083146119cd57806328aef969146119a45780632d5bbf60146118f957806337815b09146112d95780634626402b146112b057806357e2c0f5146111a05780635ec4033414610a845780636c9eb774146105c8578063715018a61461056e5780638c639a85146105505780638da5cb5b146105295780639a6a5cf014610500578063a8602fea14610465578063d61ee6ef146103ab578063dc311dd31461020e578063ea0da2a0146101ab5763f2fde38b146100e357600080fd5b346101a85760203660031901126101a8576100fc611bcb565b610104611c0f565b6001600160a01b0390811690811561015457600054826001600160601b0360a01b821617600055167f8be0079c531659141344cd1fd0a4f28419497f9722a3daafe3b4186f6b6457e0600080a380f35b60405162461bcd60e51b815260206004820152602660248201527f4f776e61626c653a206e6577206f776e657220697320746865207a65726f206160448201526564647265737360d01b6064820152608490fd5b80fd5b50346101a85760603660031901126101a8576101c5611bcb565b6001600160a01b0316815260086020908152604080832060243584529091528120805460443592908310156101a85760206102008484611be1565b90546040519160031b1c8152f35b50346101a85760203660031901126101a85760406101409160043581610120845161023881611d2c565b82815282602082015282868201528260608201528260808201528260a08201528260c08201528260e08201528261010082015201528015158061039f575b61027f906122e9565b815260076020522060076040519161029683611d2c565b8054835260018101546001600160a01b03166020840152600281015460408401526003810154606084015260048101546080840152600581015460a0840152600681015460c084015201546102f160ff821660e08401612139565b61030560ff8260081c166101008401612145565b60018060a01b039060101c16610120820152604051908051825260018060a01b03602082015116602083015260408101516040830152606081015160608301526080810151608083015260a081015160a083015260c081015160c083015261037560e082015160e0840190611b9b565b610389610100820151610100840190611bbe565b610120908101516001600160a01b031690820152f35b50600654811115610276565b50346101a85760403660031901126101a8576001600160a01b036103cd611bcb565b16815260206008815260408220602435835281526040822060405192838383549182815201908193835284832090835b8181106104515750505084610413910385611d49565b60405193838594850191818652518092526040850193925b82811061043a57505050500390f35b83518552869550938101939281019260010161042b565b8254845292860192600192830192016103fd565b50346101a85760203660031901126101a85761047f611bcb565b610487611c0f565b6001600160a01b031680156104ac576001600160601b0360a01b600454161760045580f35b60405162461bcd60e51b815260206004820152602660248201527f54726561737572792077616c6c65742063616e6e6f74206265207a65726f206160448201526564647265737360d01b6064820152608490fd5b50346101a857806003193601126101a8576002546040516001600160a01b039091168152602090f35b50346101a857806003193601126101a857546040516001600160a01b039091168152602090f35b50346101a857806003193601126101a8576020600554604051908152f35b50346101a857806003193601126101a857610587611c0f565b600080546001600160a01b0319811682556001600160a01b03167f8be0079c531659141344cd1fd0a4f28419497f9722a3daafe3b4186f6b6457e08280a380f35b5060603660031901126101a8576044356105e06121a3565b8015906105ed8215611c67565b6105fa6004351515611cc1565b600354604051632783162d60e11b815260248035600483015290918591839182906001600160a01b03165afa8015610a575760808391610654938791610a62575b5061064d600435602083015114611e86565b0151611ed2565b9261066184341015611efb565b606461066f60055486611ed2565b049161067b8386611f3e565b9260248360018060a01b036002541660405192838092636a4731c560e11b825260043560048301525afa908115610a575784806106ff946106e3828080808d819a829a8391610a35575b50602001516001600160a01b03165af16106dd61200e565b5061203e565b6004546001600160a01b03165af16106f961200e565b50612094565b843411610a0e575b600160065401938460065562278d008083029283041417156109fa5761072d904261212c565b9160405161073a81611d2c565b848152336020820152600435604082015260243560608201528560808201524260a08201528360c08201528260e08201526101008101838152610120820190848252868552600760205260e0600760408720855181556001810160018060a01b036020880151166001600160601b0360a01b82541617905560408601516002820155606086015160038201556080860151600482015560a0860151600582015560c086015160068201550193015160038110156109e6576107fb9084612151565b519060028210156109d25761ff0083549162010000600160b01b03905160101b169260081b1690610100600160b01b0319161717905533825260086020526040822060043583526020526108528460408420612169565b6003546040516323a36d2b60e01b8152336004820152602480359082015260016044820152906020908290606490829087906001600160a01b03165af180156109c75761098e575b506002546001600160a01b031690813b1561098a578291606483926040519485938492634209e03d60e01b845260043560048501526001602485015260448401525af1801561097f5761096b575b6020848060008051602061237b83398151915260408988825190857f4ce7d0494bae52234d5b23e3c0d5c50c951ee8559386326790cded1eccaa6d3f600435938061095033954289602435859094939260609260808301968352602083015260408201520152565b0390a48151908152600086820152a260018055604051908152f35b6109758291611d02565b6101a857806108e8565b6040513d84823e3d90fd5b8280fd5b6020813d6020116109bf575b816109a760209383611d49565b8101031261098a576109b890611f4b565b503861089a565b3d915061099a565b6040513d85823e3d90fd5b634e487b7160e01b85526021600452602485fd5b634e487b7160e01b86526021600452602486fd5b634e487b7160e01b82526011600452602482fd5b610a3082808080610a1f8a34611f3e565b335af1610a2a61200e565b506120e0565b610707565b610a5191503d8085833e610a498183611d49565b810190611f58565b386106c5565b6040513d86823e3d90fd5b610a7e91503d8089833e610a768183611d49565b810190611de9565b3861063b565b5060403660031901126101a857610a996121a3565b600435151580611192575b610aad906122e9565b60243515611143576004358152600760205260408120610ada60018060a01b036001830154163314612335565b60018060a01b0360035416826003830154602460405180948193632783162d60e11b835260048301525afa80156109c757610b24918491611129575b506080602435910151611ed2565b90600781015460ff8160081c1660028110156109d257849190610d4e575050610b4f82341015611efb565b826064610b5e60055485611ed2565b04610b698185611f3e565b9060018060a01b0360025416836002860154602460405180948193636a4731c560e11b835260048301525afa918215610a575784808093926106e3828080808b610bcd9b829a8391610a355750602001516001600160a01b03165af16106dd61200e565b833411610d38575b60028054908401546001600160a01b0390911691823b15610d345760648492836040519586948593634209e03d60e01b8552600485015282602485015260448401525af1801561097f57610d20575b5050600781015460ff811660038110156109d2576001148015610d13575b15610ce35762278d00806024350290602435820403610ccf57610c676006914261212c565b92839260ff191660078201555b01556040519081527f328f4610a15d0e6c197e13cb1b184720c7e4e7dcf6e07423b7625da3128358b1602060043592a26040519081526000602082015260008051602061237b833981519152604060043592a25b6001805580f35b634e487b7160e01b85526011600452602485fd5b50600681015462278d0090816024350291602435830403610ccf5760069291610d0b9161212c565b918291610c74565b5060068201544211610c42565b610d2990611d02565b61098a578238610c24565b8380fd5b610d4982808080610a1f8934611f3e565b610bd5565b604051636eb1769f60e11b81523360048201523060248201526020816044816001600160a01b03601087901c165afa80156109c757859184916110e9575b5090610d999110156121f9565b6064610da760055486611ed2565b0490610db38286611f3e565b9160018060a01b0360025416846002870154602460405180948193636a4731c560e11b835260048301525afa80156110c45784602091610e2f9388916110cf575b508201516040516323b872dd60e01b81523360048201526001600160a01b039091166024820152604481019190915291829081906064820190565b038188601088901c6001600160a01b03165af19081156110c4578591611078575b5090610ea292610e61602093612245565b600480546040516323b872dd60e01b815233928101929092526001600160a01b03166024820152604481019290925290928391908290879082906064820190565b039260101c6001600160a01b03165af180156109c757839061103d575b610ec9915061229d565b60028054908401546001600160a01b0390911691823b15610d345760648492836040519586948593634209e03d60e01b8552600485015282602485015260448401525af1801561097f57611029575b5050600781015460ff811660038110156109d257600114801561101c575b15610fdf5762278d00806024350290602435820403610ccf5791610fd791610f6d60008051602061237b833981519152944261212c565b9060ff191660078301555b8060068301556040519081527f328f4610a15d0e6c197e13cb1b184720c7e4e7dcf6e07423b7625da3128358b1602060043592a2600701546040805194855260109190911c6001600160a01b0316602085015260043593918291820190565b0390a2610cc8565b50600681015462278d0090816024350291602435830403610ccf5791611017610fd79260008051602061237b8339815191529461212c565b610f78565b5060068201544211610f36565b61103290611d02565b61098a578238610f18565b506020813d602011611070575b8161105760209383611d49565b8101031261098a5761106b610ec991611f4b565b610ebf565b3d915061104a565b9190506020823d6020116110bc575b8161109460209383611d49565b810103126110b857610ea292610e616110ae602094611f4b565b9293505092610e50565b8480fd5b3d9150611087565b6040513d87823e3d90fd5b6110e391503d808a833e610a498183611d49565b38610df4565b935050506020823d602011611121575b8161110660209383611d49565b8101031261111c57610d99848693519091610d8c565b600080fd5b3d91506110f9565b61113d91503d8086833e610a768183611d49565b38610b16565b60405162461bcd60e51b815260206004820152602160248201527f4d7573742072656e657720666f72206174206c65617374206f6e65206d6f6e746044820152600d60fb1b6064820152608490fd5b506006546004351115610aa4565b50346101a85760203660031901126101a857600435801515806112a4575b6111c7906122e9565b81526007602052604081206040516111de81611d2c565b8154815260018201546001600160a01b039081166020830152600283015460408301526003830154606083015260048301546080830152600583015460a0830152600683015460c0830190815260079093015460e0830192916101209161124860ff821686612139565b61125c60ff8260081c166101008601612145565b60101c169101525160038110156112905760209250159081611284575b506040519015158152f35b90505142111538611279565b634e487b7160e01b83526021600452602483fd5b506006548111156111be565b50346101a857806003193601126101a8576004546040516001600160a01b039091168152602090f35b50346101a85760803660031901126101a8576064356001600160a01b038116900361111c576113066121a3565b6113136044351515611c67565b6113206004351515611cc1565b6064356001600160a01b0316156118bc57600354604051632783162d60e11b815260248035600483015290918391839182906001600160a01b03165afa801561097f5761138d9183916118a2575b50611380600435602083015114611e86565b6080604435910151611ed2565b604051636eb1769f60e11b81523360048201523060248201529091906020816044816001600160a01b03606435165afa801561097f578390839061186c575b6113d8925010156121f9565b60646113e660055484611ed2565b046113f18184611f3e565b9060248360018060a01b036002541660405192838092636a4731c560e11b825260043560048301525afa908115610a57578361146b92602092879161185857508201516040516323b872dd60e01b81523360048201526001600160a01b039091166024820152604481019190915291829081906064820190565b0381876064356001600160a01b03165af1908115610a57578491611812575b506114d59161149a602092612245565b600480546040516323b872dd60e01b815233928101929092526001600160a01b03166024820152604481019190915291829081906064820190565b0381866064356001600160a01b03165af180156109c75783906117d7575b6114fd915061229d565b600160065401918260065562278d008060443502906044358204146044351517156109fa5761152c904261212c565b9160405161153981611d2c565b84815260208101903382526040810160043581526060820160243581526080830189815260a0840142815260c085019189835260e08601938985526101008701956001875260018060a01b03606435166101208901528c8b52600760205260408b209888518a5560018a019060018060a01b039051166001600160601b0360a01b8254161790555160028901555160038801555160048701555160058601555160068501555160038110156109e6576115f59060078501612151565b519060028210156109d2579060079161ff00838501549161012062010000600160b01b0391015160101b169260081b1690610100600160b01b031916171791015533825260086020526040822060043583526020526116578460408420612169565b6003546040516323a36d2b60e01b8152336004820152602480359082015260016044820152906020908290606490829087906001600160a01b03165af180156109c75761179e575b506002546001600160a01b031690813b1561098a578291606483926040519485938492634209e03d60e01b845260043560048501526001602485015260448401525af1801561097f5761178a575b6020848060008051602061237b83398151915261177b898860405190857f4ce7d0494bae52234d5b23e3c0d5c50c951ee8559386326790cded1eccaa6d3f600435938061175733954289602435859094939260609260808301968352602083015260408201520152565b0390a4604080519182526001600160a01b0360643516602083015290918291820190565b0390a260018055604051908152f35b6117948291611d02565b6101a857806116ed565b6020813d6020116117cf575b816117b760209383611d49565b8101031261098a576117c890611f4b565b503861169f565b3d91506117aa565b506020813d60201161180a575b816117f160209383611d49565b8101031261098a576118056114fd91611f4b565b6114f3565b3d91506117e4565b90506020813d602011611850575b8161182d60209383611d49565b81010312610d34576114d59161149a611847602093611f4b565b9250509161148a565b3d9150611820565b6110e391503d8089833e610a498183611d49565b50506020813d60201161189a575b8161188760209383611d49565b8101031261111c57826113d891516113cc565b3d915061187a565b6118b691503d8085833e610a768183611d49565b3861136e565b60405162461bcd60e51b8152602060048201526015602482015274496e76616c696420746f6b656e206164647265737360581b6044820152606490fd5b50346101a85760203660031901126101a857604061014091600435815260076020522080549060018060a01b03908160018201541690600281015460038201546004830154906005840154926007600686015495015495604051988952602089015260408801526060870152608086015260a085015260c084015261198460e0840160ff8316611b9b565b611998610100840160ff8360081c16611bbe565b60101c16610120820152f35b50346101a857806003193601126101a8576003546040516001600160a01b039091168152602090f35b50346101a85760203660031901126101a857600435906119eb6121a3565b81151580611b0e575b6119fd906122e9565b81815260076020526040812060018101546001600160a01b0390611a249082163314612335565b600782019081549160ff831660038110156109e657611ac9576002809360ff1916179055815416910154813b1561098a578291606483926040519485938492634209e03d60e01b8452600484015260001960248401528160448401525af1801561097f57611aba575b50907fbd2bcea75d16a85f005cd83447e0de57341bf926fe7419e6d553663e91ab4da78280a26001805580f35b611ac390611d02565b38611a8d565b60405162461bcd60e51b815260206004820152601760248201527f537562736372697074696f6e206e6f74206163746976650000000000000000006044820152606490fd5b506006548211156119f4565b50346101a85760203660031901126101a857600435611b37611c0f565b60648111611b455760055580f35b60405162461bcd60e51b815260206004820152602860248201527f4665652070657263656e74616765206d757374206265206265747765656e2030604482015267020616e64203130360c41b6064820152608490fd5b906003821015611ba85752565b634e487b7160e01b600052602160045260246000fd5b906002821015611ba85752565b600435906001600160a01b038216820361111c57565b8054821015611bf95760005260206000200190600090565b634e487b7160e01b600052603260045260246000fd5b6000546001600160a01b03163303611c2357565b606460405162461bcd60e51b815260206004820152602060248201527f4f776e61626c653a2063616c6c6572206973206e6f7420746865206f776e65726044820152fd5b15611c6e57565b60405162461bcd60e51b815260206004820152602560248201527f4d7573742073756273637269626520666f72206174206c65617374206f6e65206044820152640dadedce8d60db1b6064820152608490fd5b15611cc857565b60405162461bcd60e51b8152602060048201526012602482015271125b9d985b1a590818dc99585d1bdc88125160721b6044820152606490fd5b67ffffffffffffffff8111611d1657604052565b634e487b7160e01b600052604160045260246000fd5b610140810190811067ffffffffffffffff821117611d1657604052565b90601f8019910116810190811067ffffffffffffffff821117611d1657604052565b67ffffffffffffffff8111611d1657601f01601f191660200190565b919080601f8401121561111c57825190611da082611d6b565b91611dae6040519384611d49565b80835260209182828701011161111c5760005b818110611dd657508260009394955001015290565b8581018301518482018401528201611dc1565b9060208282031261111c57815167ffffffffffffffff9283821161111c570160c08183031261111c576040519260c0840184811082821117611d16576040528151845260208201516020850152604082015181811161111c5783611e4e918401611d87565b6040850152606082015190811161111c5760a092611e6d918301611d87565b606084015260808101516080840152015160a082015290565b15611e8d57565b60405162461bcd60e51b815260206004820152601f60248201527f5469657220646f6573206e6f742062656c6f6e6720746f2063726561746f72006044820152606490fd5b81810292918115918404141715611ee557565b634e487b7160e01b600052601160045260246000fd5b15611f0257565b60405162461bcd60e51b8152602060048201526014602482015273125b9cdd59999a58da595b9d081c185e5b595b9d60621b6044820152606490fd5b91908203918211611ee557565b5190811515820361111c57565b9060208282031261111c57815167ffffffffffffffff9283821161111c570161010092838284031261111c5760405193840184811082821117611d16576040528151845260208201516001600160a01b038116810361111c576020850152604082015190811161111c5760e092611fd0918301611d87565b60408401526060810151606084015260808101516080840152611ff560a08201611f4b565b60a084015260c081015160c0840152015160e082015290565b3d15612039573d9061201f82611d6b565b9161202d6040519384611d49565b82523d6000602084013e565b606090565b1561204557565b60405162461bcd60e51b815260206004820152602160248201527f4661696c656420746f2073656e64207061796d656e7420746f2063726561746f6044820152603960f91b6064820152608490fd5b1561209b57565b60405162461bcd60e51b815260206004820152601b60248201527f4661696c656420746f2073656e6420706c6174666f726d2066656500000000006044820152606490fd5b156120e757565b60405162461bcd60e51b815260206004820152601f60248201527f4661696c656420746f20726566756e6420657863657373207061796d656e74006044820152606490fd5b91908201809211611ee557565b6003821015611ba85752565b6002821015611ba85752565b906003811015611ba85760ff80198354169116179055565b805468010000000000000000811015611d165761218b91600182018155611be1565b819291549060031b91821b91600019901b1916179055565b6002600154146121b4576002600155565b60405162461bcd60e51b815260206004820152601f60248201527f5265656e7472616e637947756172643a207265656e7472616e742063616c6c006044820152606490fd5b1561220057565b60405162461bcd60e51b815260206004820152601c60248201527f496e73756666696369656e7420746f6b656e20616c6c6f77616e6365000000006044820152606490fd5b1561224c57565b60405162461bcd60e51b8152602060048201526024808201527f4661696c656420746f207472616e7366657220746f6b656e7320746f2063726560448201526330ba37b960e11b6064820152608490fd5b156122a457565b60405162461bcd60e51b815260206004820152601f60248201527f4661696c656420746f207472616e7366657220706c6174666f726d20666565006044820152606490fd5b156122f057565b60405162461bcd60e51b815260206004820152601760248201527f496e76616c696420737562736372697074696f6e2049440000000000000000006044820152606490fd5b1561233c57565b60405162461bcd60e51b81526020600482015260166024820152752737ba1039bab139b1b934b83a34b7b71037bbb732b960511b6044820152606490fdfed3cf07392836def0e201fe7eb13ae977b999e29d70d4c55f6c55ba26b001393ea26469706673582212201b5a032ce05af2590f66648934b9add5ea58d500fe1f53bf76d5f13b9d0b347564736f6c63430008140033","opcodes":"PUSH1 0x80 CALLVALUE PUSH2 0x328 JUMPI PUSH1 0x0 SWAP1 PUSH1 0x1F PUSH2 0x5A35 CODESIZE DUP2 SWAP1 SUB SWAP2 DUP3 ADD PUSH1 0x1F NOT AND DUP4 ADD SWAP3 PUSH1 0x1 PUSH1 0x1 PUSH1 0x40 SHL SUB SWAP3 SWAP1 SWAP2 DUP4 DUP6 GT DUP4 DUP7 LT OR PUSH2 0x314 JUMPI DUP2 PUSH1 0x20 SWAP3 DUP5 SWAP3 PUSH1 0x40 SWAP8 DUP9 MSTORE DUP4 CODECOPY DUP2 ADD SUB SLT PUSH2 0x22E JUMPI MLOAD PUSH1 0x1 PUSH1 0x1 PUSH1 0xA0 SHL SUB SWAP2 DUP3 DUP3 AND SWAP2 DUP3 SWAP1 SUB PUSH2 0x310 JUMPI DUP2 ISZERO PUSH2 0x2BD JUMPI PUSH1 0x1 DUP1 PUSH1 0xA0 SHL SUB NOT SWAP2 CALLER DUP4 PUSH1 0x3 SLOAD AND OR PUSH1 0x3 SSTORE DUP5 MLOAD PUSH2 0xFF9 DUP1 DUP3 ADD SWAP1 DUP3 DUP3 LT DUP6 DUP4 GT OR PUSH2 0x2A9 JUMPI SWAP1 DUP3 SWAP2 PUSH2 0x471 DUP4 CODECOPY SUB SWAP1 DUP8 CREATE DUP1 ISZERO PUSH2 0x29F JUMPI DUP5 AND SWAP2 DUP3 DUP5 DUP9 SLOAD AND OR DUP8 SSTORE DUP7 DUP6 PUSH1 0x3 SLOAD AND SWAP4 DUP1 EXTCODESIZE ISZERO PUSH2 0x29B JUMPI DUP2 SWAP1 PUSH1 0x24 DUP10 MLOAD DUP1 SWAP5 DUP2 SWAP4 PUSH4 0xF2FDE38B PUSH1 0xE0 SHL SWAP10 DUP11 DUP5 MSTORE PUSH1 0x4 DUP5 ADD MSTORE GAS CALL DUP1 ISZERO PUSH2 0x291 JUMPI PUSH2 0x27E JUMPI JUMPDEST POP DUP5 DUP8 SLOAD AND DUP7 MLOAD SWAP1 PUSH2 0x2085 SWAP1 DUP2 DUP4 ADD SWAP2 DUP4 DUP4 LT DUP6 DUP5 GT OR PUSH2 0x23C JUMPI SWAP3 DUP1 SWAP3 PUSH1 0x20 SWAP3 DUP13 SWAP6 PUSH2 0x146A DUP5 CODECOPY DUP2 MSTORE SUB ADD SWAP1 DUP3 CREATE DUP1 ISZERO PUSH2 0x272 JUMPI DUP7 AND DUP1 DUP7 PUSH1 0x1 SLOAD AND OR PUSH1 0x1 SSTORE DUP7 PUSH1 0x3 SLOAD AND DUP2 EXTCODESIZE ISZERO PUSH2 0x220 JUMPI DUP3 SWAP2 PUSH1 0x24 DUP4 SWAP3 DUP12 MLOAD SWAP5 DUP6 SWAP4 DUP5 SWAP3 DUP12 DUP5 MSTORE PUSH1 0x4 DUP5 ADD MSTORE GAS CALL DUP1 ISZERO PUSH2 0x268 JUMPI PUSH2 0x250 JUMPI JUMPDEST POP DUP6 SWAP1 SLOAD AND SWAP2 DUP6 PUSH1 0x1 SLOAD AND DUP8 MLOAD SWAP4 PUSH2 0x2546 DUP1 DUP7 ADD SWAP5 DUP7 DUP7 LT SWAP1 DUP7 GT OR PUSH2 0x23C JUMPI SWAP3 DUP6 SWAP5 SWAP2 SWAP3 DUP12 SWAP9 SWAP8 SWAP7 SWAP4 PUSH1 0x60 SWAP6 PUSH2 0x34EF DUP7 CODECOPY DUP4 MSTORE PUSH1 0x20 DUP4 ADD MSTORE DUP10 DUP3 ADD MSTORE SUB ADD SWAP1 DUP5 CREATE DUP1 ISZERO PUSH2 0x232 JUMPI DUP5 AND DUP1 SWAP3 PUSH1 0x2 SLOAD AND OR PUSH1 0x2 SSTORE DUP4 PUSH1 0x3 SLOAD AND DUP3 EXTCODESIZE ISZERO PUSH2 0x22E JUMPI PUSH1 0x24 DUP5 SWAP3 DUP4 DUP9 MLOAD SWAP6 DUP7 SWAP5 DUP6 SWAP4 DUP5 MSTORE PUSH1 0x4 DUP5 ADD MSTORE GAS CALL DUP1 ISZERO PUSH2 0x224 JUMPI PUSH2 0x20C JUMPI JUMPDEST POP DUP2 SWAP1 SLOAD AND PUSH32 0x64FF5F080A9FBAC5FD2B92EE5D223AB47ABF2BC09CAAD8EEFB67CDF7F7A1796C DUP3 PUSH1 0x1 SLOAD AND SWAP3 PUSH1 0x2 SLOAD AND SWAP4 MLOAD SWAP5 DUP1 LOG4 PUSH2 0x11A SWAP1 DUP2 PUSH2 0x357 DUP3 CODECOPY RETURN JUMPDEST PUSH2 0x215 SWAP1 PUSH2 0x32D JUMP JUMPDEST PUSH2 0x220 JUMPI DUP3 CODESIZE PUSH2 0x1CB JUMP JUMPDEST DUP3 DUP1 REVERT JUMPDEST DUP5 MLOAD RETURNDATASIZE DUP5 DUP3 RETURNDATACOPY RETURNDATASIZE SWAP1 REVERT JUMPDEST DUP4 DUP1 REVERT JUMPDEST DUP6 MLOAD RETURNDATASIZE DUP6 DUP3 RETURNDATACOPY RETURNDATASIZE SWAP1 REVERT JUMPDEST PUSH4 0x4E487B71 PUSH1 0xE0 SHL DUP12 MSTORE PUSH1 0x41 PUSH1 0x4 MSTORE PUSH1 0x24 DUP12 REVERT JUMPDEST PUSH2 0x259 SWAP1 PUSH2 0x32D JUMP JUMPDEST PUSH2 0x264 JUMPI DUP7 CODESIZE PUSH2 0x14B JUMP JUMPDEST DUP7 DUP1 REVERT JUMPDEST DUP9 MLOAD RETURNDATASIZE DUP5 DUP3 RETURNDATACOPY RETURNDATASIZE SWAP1 REVERT JUMPDEST POP DUP7 MLOAD SWAP1 RETURNDATASIZE SWAP1 DUP3 RETURNDATACOPY RETURNDATASIZE SWAP1 REVERT JUMPDEST PUSH2 0x28A SWAP1 SWAP8 SWAP2 SWAP8 PUSH2 0x32D JUMP JUMPDEST SWAP6 CODESIZE PUSH2 0xDC JUMP JUMPDEST DUP8 MLOAD RETURNDATASIZE DUP11 DUP3 RETURNDATACOPY RETURNDATASIZE SWAP1 REVERT JUMPDEST POP DUP1 REVERT JUMPDEST DUP6 MLOAD RETURNDATASIZE DUP9 DUP3 RETURNDATACOPY RETURNDATASIZE SWAP1 REVERT JUMPDEST PUSH4 0x4E487B71 PUSH1 0xE0 SHL DUP10 MSTORE PUSH1 0x41 PUSH1 0x4 MSTORE PUSH1 0x24 DUP10 REVERT JUMPDEST DUP4 MLOAD PUSH3 0x461BCD PUSH1 0xE5 SHL DUP2 MSTORE PUSH1 0x20 PUSH1 0x4 DUP3 ADD MSTORE PUSH1 0x26 PUSH1 0x24 DUP3 ADD MSTORE PUSH32 0x54726561737572792077616C6C65742063616E6E6F74206265207A65726F2061 PUSH1 0x44 DUP3 ADD MSTORE PUSH6 0x646472657373 PUSH1 0xD0 SHL PUSH1 0x64 DUP3 ADD MSTORE PUSH1 0x84 SWAP1 REVERT JUMPDEST DUP5 DUP1 REVERT JUMPDEST PUSH4 0x4E487B71 PUSH1 0xE0 SHL DUP7 MSTORE PUSH1 0x41 PUSH1 0x4 MSTORE PUSH1 0x24 DUP7 REVERT JUMPDEST PUSH1 0x0 DUP1 REVERT JUMPDEST PUSH1 0x1 PUSH1 0x1 PUSH1 0x40 SHL SUB DUP2 GT PUSH2 0x340 JUMPI PUSH1 0x40 MSTORE JUMP JUMPDEST PUSH4 0x4E487B71 PUSH1 0xE0 SHL PUSH1 0x0 MSTORE PUSH1 0x41 PUSH1 0x4 MSTORE PUSH1 0x24 PUSH1 0x0 REVERT INVALID PUSH1 0x80 DUP1 PUSH1 0x40 MSTORE PUSH1 0x4 CALLDATASIZE LT ISZERO PUSH1 0x12 JUMPI PUSH1 0x0 DUP1 REVERT JUMPDEST PUSH1 0x0 SWAP1 DUP2 CALLDATALOAD PUSH1 0xE0 SHR SWAP1 DUP2 PUSH4 0x28AEF969 EQ PUSH1 0xBD JUMPI POP DUP1 PUSH4 0x8DA5CB5B EQ PUSH1 0x96 JUMPI DUP1 PUSH4 0x9A6A5CF0 EQ PUSH1 0x71 JUMPI PUSH4 0xBF158FD2 EQ PUSH1 0x48 JUMPI PUSH1 0x0 DUP1 REVERT JUMPDEST CALLVALUE PUSH1 0x6E JUMPI DUP1 PUSH1 0x3 NOT CALLDATASIZE ADD SLT PUSH1 0x6E JUMPI PUSH1 0x2 SLOAD PUSH1 0x40 MLOAD PUSH1 0x1 PUSH1 0x1 PUSH1 0xA0 SHL SUB SWAP1 SWAP2 AND DUP2 MSTORE PUSH1 0x20 SWAP1 RETURN JUMPDEST DUP1 REVERT JUMPDEST POP CALLVALUE PUSH1 0x6E JUMPI DUP1 PUSH1 0x3 NOT CALLDATASIZE ADD SLT PUSH1 0x6E JUMPI SLOAD PUSH1 0x40 MLOAD PUSH1 0x1 PUSH1 0x1 PUSH1 0xA0 SHL SUB SWAP1 SWAP2 AND DUP2 MSTORE PUSH1 0x20 SWAP1 RETURN JUMPDEST POP CALLVALUE PUSH1 0x6E JUMPI DUP1 PUSH1 0x3 NOT CALLDATASIZE ADD SLT PUSH1 0x6E JUMPI PUSH1 0x3 SLOAD PUSH1 0x40 MLOAD PUSH1 0x1 PUSH1 0x1 PUSH1 0xA0 SHL SUB SWAP1 SWAP2 AND DUP2 MSTORE PUSH1 0x20 SWAP1 RETURN JUMPDEST SWAP1 POP CALLVALUE PUSH1 0xE0 JUMPI DUP2 PUSH1 0x3 NOT CALLDATASIZE ADD SLT PUSH1 0xE0 JUMPI PUSH1 0x1 SLOAD PUSH1 0x1 PUSH1 0x1 PUSH1 0xA0 SHL SUB AND DUP2 MSTORE PUSH1 0x20 SWAP1 RETURN JUMPDEST POP DUP1 REVERT INVALID LOG2 PUSH5 0x6970667358 0x22 SLT KECCAK256 SWAP7 CALLDATACOPY EXP SWAP2 0xBA 0x4F CALLDATASIZE JUMPI SWAP1 0x49 SLOAD MSIZE PUSH32 0x7471BD73C14B2F37D18CAB0EBEAEC39BE94BB064736F6C634300081400336080 DUP1 PUSH1 0x40 MSTORE CALLVALUE PUSH2 0x5F JUMPI PUSH1 0x0 DUP1 SLOAD CALLER PUSH1 0x1 PUSH1 0x1 PUSH1 0xA0 SHL SUB NOT DUP3 AND DUP2 OR DUP4 SSTORE SWAP2 PUSH1 0x1 PUSH1 0x1 PUSH1 0xA0 SHL SUB SWAP1 SWAP2 AND SWAP1 PUSH32 0x8BE0079C531659141344CD1FD0A4F28419497F9722A3DAAFE3B4186F6B6457E0 SWAP1 DUP1 LOG3 PUSH1 0x1 DUP1 SSTORE PUSH2 0xF94 SWAP1 DUP2 PUSH2 0x65 DUP3 CODECOPY RETURN JUMPDEST PUSH1 0x0 DUP1 REVERT INVALID PUSH1 0x80 DUP1 PUSH1 0x40 MSTORE PUSH1 0x4 CALLDATASIZE LT ISZERO PUSH2 0x13 JUMPI PUSH1 0x0 DUP1 REVERT JUMPDEST PUSH1 0xE0 PUSH1 0x0 CALLDATALOAD DUP2 SHR SWAP2 DUP3 PUSH4 0x31E8E39D EQ PUSH2 0xB6E JUMPI POP DUP2 PUSH4 0x4209E03D EQ PUSH2 0xA26 JUMPI DUP2 PUSH4 0x50DCF827 EQ PUSH2 0x9E6 JUMPI DUP2 PUSH4 0x663222C5 EQ PUSH2 0xB0 JUMPI DUP2 PUSH4 0x715018A6 EQ PUSH2 0x98D JUMPI DUP2 PUSH4 0x8DA5CB5B EQ PUSH2 0x964 JUMPI DUP2 PUSH4 0xCD53D08E EQ PUSH2 0x8C7 JUMPI DUP2 PUSH4 0xD48E638A EQ PUSH2 0x77B JUMPI DUP2 PUSH4 0xDAC0FAF9 EQ PUSH2 0x4CE JUMPI POP DUP1 PUSH4 0xDDE9BE99 EQ PUSH2 0x2AF JUMPI DUP1 PUSH4 0xE5C14411 EQ PUSH2 0x1BE JUMPI DUP1 PUSH4 0xF2FDE38B EQ PUSH2 0xF3 JUMPI PUSH4 0xFB23B20B EQ PUSH2 0xB0 JUMPI PUSH1 0x0 DUP1 REVERT JUMPDEST CALLVALUE PUSH2 0xEE JUMPI PUSH1 0x20 CALLDATASIZE PUSH1 0x3 NOT ADD SLT PUSH2 0xEE JUMPI PUSH1 0x4 CALLDATALOAD PUSH1 0x1 PUSH1 0x1 PUSH1 0xA0 SHL SUB DUP2 AND SWAP1 DUP2 SWAP1 SUB PUSH2 0xEE JUMPI PUSH1 0x0 MSTORE PUSH1 0x6 PUSH1 0x20 MSTORE PUSH1 0x20 PUSH1 0x40 PUSH1 0x0 KECCAK256 SLOAD PUSH1 0x40 MLOAD SWAP1 DUP2 MSTORE RETURN JUMPDEST PUSH1 0x0 DUP1 REVERT JUMPDEST CALLVALUE PUSH2 0xEE JUMPI PUSH1 0x20 CALLDATASIZE PUSH1 0x3 NOT ADD SLT PUSH2 0xEE JUMPI PUSH1 0x4 CALLDATALOAD PUSH1 0x1 PUSH1 0x1 PUSH1 0xA0 SHL SUB DUP2 DUP2 AND SWAP2 DUP3 SWAP1 SUB PUSH2 0xEE JUMPI PUSH2 0x122 PUSH2 0xD59 JUMP JUMPDEST DUP2 ISZERO PUSH2 0x16A JUMPI PUSH1 0x0 SLOAD DUP3 PUSH12 0xFFFFFFFFFFFFFFFFFFFFFFFF PUSH1 0xA0 SHL DUP3 AND OR PUSH1 0x0 SSTORE AND PUSH32 0x8BE0079C531659141344CD1FD0A4F28419497F9722A3DAAFE3B4186F6B6457E0 PUSH1 0x0 DUP1 LOG3 STOP JUMPDEST PUSH1 0x40 MLOAD PUSH3 0x461BCD PUSH1 0xE5 SHL DUP2 MSTORE PUSH1 0x20 PUSH1 0x4 DUP3 ADD MSTORE PUSH1 0x26 PUSH1 0x24 DUP3 ADD MSTORE PUSH32 0x4F776E61626C653A206E6577206F776E657220697320746865207A65726F2061 PUSH1 0x44 DUP3 ADD MSTORE PUSH6 0x646472657373 PUSH1 0xD0 SHL PUSH1 0x64 DUP3 ADD MSTORE PUSH1 0x84 SWAP1 REVERT JUMPDEST CALLVALUE PUSH2 0xEE JUMPI PUSH1 0x20 CALLDATASIZE PUSH1 0x3 NOT ADD SLT PUSH2 0xEE JUMPI PUSH1 0x4 CALLDATALOAD PUSH2 0x1DA PUSH2 0xD59 JUMP JUMPDEST DUP1 ISZERO ISZERO DUP1 PUSH2 0x2A3 JUMPI JUMPDEST PUSH2 0x1EC SWAP1 PUSH2 0xE53 JUMP JUMPDEST DUP1 PUSH1 0x0 MSTORE PUSH1 0x5 PUSH1 0x20 MSTORE PUSH1 0xFF PUSH1 0x5 PUSH1 0x40 PUSH1 0x0 KECCAK256 ADD SLOAD AND PUSH2 0x25E JUMPI DUP1 PUSH1 0x0 MSTORE PUSH1 0x5 PUSH1 0x20 MSTORE PUSH2 0x236 PUSH1 0x40 PUSH1 0x0 KECCAK256 PUSH1 0x5 DUP2 ADD PUSH1 0x1 PUSH1 0xFF NOT DUP3 SLOAD AND OR SWAP1 SSTORE PUSH1 0x1 DUP1 DUP1 PUSH1 0xA0 SHL SUB SWAP2 ADD SLOAD AND PUSH2 0xE94 JUMP JUMPDEST POP PUSH32 0xB58683E399165D7751BEF535FE75340046E8C2A16FA78E063412916E9FA3D99A PUSH1 0x0 DUP1 LOG2 STOP JUMPDEST PUSH1 0x40 MLOAD PUSH3 0x461BCD PUSH1 0xE5 SHL DUP2 MSTORE PUSH1 0x20 PUSH1 0x4 DUP3 ADD MSTORE PUSH1 0x18 PUSH1 0x24 DUP3 ADD MSTORE PUSH32 0x43726561746F7220616C72656164792076657269666965640000000000000000 PUSH1 0x44 DUP3 ADD MSTORE PUSH1 0x64 SWAP1 REVERT JUMPDEST POP PUSH1 0x2 SLOAD DUP2 GT ISZERO PUSH2 0x1E3 JUMP JUMPDEST CALLVALUE PUSH2 0xEE JUMPI PUSH2 0x2BD CALLDATASIZE PUSH2 0xCE8 JUMP JUMPDEST CALLER PUSH1 0x0 MSTORE PUSH1 0x20 SWAP1 PUSH1 0x6 DUP3 MSTORE PUSH1 0x40 PUSH1 0x0 KECCAK256 SLOAD ISZERO PUSH2 0x489 JUMPI PUSH2 0x2DF DUP2 MLOAD ISZERO ISZERO PUSH2 0xDB1 JUMP JUMPDEST CALLER PUSH1 0x0 MSTORE PUSH1 0x6 DUP3 MSTORE PUSH1 0x40 PUSH1 0x0 KECCAK256 SLOAD SWAP1 DUP2 PUSH1 0x0 MSTORE PUSH1 0x5 DUP4 MSTORE PUSH1 0x2 PUSH1 0x40 PUSH1 0x0 KECCAK256 ADD SWAP3 DUP2 MLOAD SWAP4 PUSH8 0xFFFFFFFFFFFFFFFF DUP6 GT PUSH2 0x473 JUMPI PUSH2 0x31B DUP2 SLOAD PUSH2 0xB89 JUMP JUMPDEST PUSH1 0x1F DUP2 GT PUSH2 0x42D JUMPI JUMPDEST POP DUP2 PUSH1 0x1F DUP7 GT PUSH1 0x1 EQ PUSH2 0x3A8 JUMPI SWAP5 DUP1 PUSH32 0xA2539DD6B1C295A14EB2F24AF489E7F57B1FCE0127FB2F8135295DD5E13E176 SWAP6 SWAP7 PUSH1 0x0 SWAP2 PUSH2 0x39D JUMPI JUMPDEST POP DUP2 PUSH1 0x1 SHL SWAP2 PUSH1 0x0 NOT SWAP1 PUSH1 0x3 SHL SHR NOT AND OR SWAP1 SSTORE JUMPDEST DUP4 PUSH1 0x0 MSTORE PUSH1 0x5 DUP2 MSTORE TIMESTAMP PUSH1 0x7 PUSH1 0x40 PUSH1 0x0 KECCAK256 ADD SSTORE PUSH2 0x398 PUSH1 0x40 MLOAD SWAP3 DUP3 DUP5 SWAP4 DUP5 MSTORE DUP4 ADD SWAP1 PUSH2 0xCA8 JUMP JUMPDEST SUB SWAP1 LOG2 STOP JUMPDEST SWAP1 POP DUP5 ADD MLOAD DUP8 PUSH2 0x35E JUMP JUMPDEST PUSH1 0x1F NOT DUP7 AND SWAP1 DUP3 PUSH1 0x0 MSTORE DUP4 PUSH1 0x0 KECCAK256 SWAP2 PUSH1 0x0 JUMPDEST DUP2 DUP2 LT PUSH2 0x416 JUMPI POP SWAP2 DUP8 SWAP2 PUSH32 0xA2539DD6B1C295A14EB2F24AF489E7F57B1FCE0127FB2F8135295DD5E13E176 SWAP8 SWAP9 PUSH1 0x1 SWAP5 LT PUSH2 0x3FD JUMPI JUMPDEST POP POP DUP2 SHL ADD SWAP1 SSTORE PUSH2 0x372 JUMP JUMPDEST DUP7 ADD MLOAD PUSH1 0x0 NOT PUSH1 0xF8 DUP5 PUSH1 0x3 SHL AND SHR NOT AND SWAP1 SSTORE DUP8 DUP1 PUSH2 0x3F1 JUMP JUMPDEST SWAP2 SWAP3 DUP6 PUSH1 0x1 DUP2 SWAP3 DUP7 DUP11 ADD MLOAD DUP2 SSTORE ADD SWAP5 ADD SWAP3 ADD PUSH2 0x3BA JUMP JUMPDEST DUP2 PUSH1 0x0 MSTORE DUP3 PUSH1 0x0 KECCAK256 PUSH1 0x1F DUP8 ADD PUSH1 0x5 SHR DUP2 ADD SWAP2 DUP5 DUP9 LT PUSH2 0x469 JUMPI JUMPDEST PUSH1 0x1F ADD PUSH1 0x5 SHR ADD SWAP1 JUMPDEST DUP2 DUP2 LT PUSH2 0x45D JUMPI POP PUSH2 0x324 JUMP JUMPDEST PUSH1 0x0 DUP2 SSTORE PUSH1 0x1 ADD PUSH2 0x450 JUMP JUMPDEST SWAP1 SWAP2 POP DUP2 SWAP1 PUSH2 0x447 JUMP JUMPDEST PUSH4 0x4E487B71 PUSH1 0xE0 SHL PUSH1 0x0 MSTORE PUSH1 0x41 PUSH1 0x4 MSTORE PUSH1 0x24 PUSH1 0x0 REVERT JUMPDEST PUSH1 0x40 MLOAD PUSH3 0x461BCD PUSH1 0xE5 SHL DUP2 MSTORE PUSH1 0x4 DUP2 ADD DUP4 SWAP1 MSTORE PUSH1 0x18 PUSH1 0x24 DUP3 ADD MSTORE PUSH32 0x4E6F74206120726567697374657265642063726561746F720000000000000000 PUSH1 0x44 DUP3 ADD MSTORE PUSH1 0x64 SWAP1 REVERT JUMPDEST CALLVALUE PUSH2 0xEE JUMPI PUSH2 0x4DC CALLDATASIZE PUSH2 0xCE8 JUMP JUMPDEST SWAP1 PUSH2 0x4E5 PUSH2 0xDFD JUMP JUMPDEST CALLER PUSH1 0x0 MSTORE PUSH1 0x6 PUSH1 0x20 MSTORE PUSH1 0x40 PUSH1 0x0 KECCAK256 SLOAD PUSH2 0x736 JUMPI PUSH2 0x504 DUP3 MLOAD ISZERO ISZERO PUSH2 0xDB1 JUMP JUMPDEST PUSH1 0x1 PUSH1 0x2 SLOAD ADD SWAP1 DUP2 PUSH1 0x2 SSTORE PUSH1 0x40 MLOAD SWAP1 PUSH2 0x51C DUP3 PUSH2 0xBC3 JUMP JUMPDEST DUP3 DUP3 MSTORE PUSH1 0x20 DUP3 ADD SWAP2 CALLER DUP4 MSTORE PUSH1 0x40 DUP2 ADD DUP6 DUP2 MSTORE PUSH1 0x0 PUSH1 0x60 DUP4 ADD MSTORE PUSH1 0x0 PUSH1 0x80 DUP4 ADD MSTORE PUSH1 0x0 PUSH1 0xA0 DUP4 ADD MSTORE TIMESTAMP PUSH1 0xC0 DUP4 ADD MSTORE TIMESTAMP DUP4 DUP4 ADD MSTORE DUP5 PUSH1 0x0 MSTORE PUSH1 0x5 PUSH1 0x20 MSTORE PUSH1 0x40 PUSH1 0x0 KECCAK256 SWAP4 DUP3 MLOAD DUP6 SSTORE PUSH1 0x1 DUP6 ADD SWAP1 PUSH1 0x1 DUP1 PUSH1 0xA0 SHL SUB SWAP1 MLOAD AND PUSH12 0xFFFFFFFFFFFFFFFFFFFFFFFF PUSH1 0xA0 SHL DUP3 SLOAD AND OR SWAP1 SSTORE MLOAD DUP1 MLOAD SWAP1 PUSH8 0xFFFFFFFFFFFFFFFF DUP3 GT PUSH2 0x473 JUMPI PUSH2 0x5A6 PUSH1 0x2 DUP7 ADD SLOAD PUSH2 0xB89 JUMP JUMPDEST PUSH1 0x1F DUP2 GT PUSH2 0x6EF JUMPI JUMPDEST POP PUSH1 0x20 SWAP1 PUSH1 0x1F DUP4 GT PUSH1 0x1 EQ PUSH2 0x67B JUMPI PUSH1 0x7 SWAP5 SWAP4 SWAP3 SWAP2 PUSH1 0x0 SWAP2 DUP4 PUSH2 0x670 JUMPI JUMPDEST POP POP DUP2 PUSH1 0x1 SHL SWAP2 PUSH1 0x0 NOT SWAP1 PUSH1 0x3 SHL SHR NOT AND OR PUSH1 0x2 DUP6 ADD SSTORE JUMPDEST PUSH1 0x60 DUP2 ADD MLOAD PUSH1 0x3 DUP6 ADD SSTORE PUSH1 0x80 DUP2 ADD MLOAD PUSH1 0x4 DUP6 ADD SSTORE PUSH1 0x5 DUP5 ADD PUSH1 0xA0 DUP3 ADD MLOAD ISZERO ISZERO PUSH1 0xFF DUP1 NOT DUP4 SLOAD AND SWAP2 AND OR SWAP1 SSTORE PUSH1 0xC0 DUP2 ADD MLOAD PUSH1 0x6 DUP6 ADD SSTORE ADD MLOAD SWAP2 ADD SSTORE CALLER PUSH1 0x0 MSTORE PUSH1 0x6 PUSH1 0x20 MSTORE DUP1 PUSH1 0x40 PUSH1 0x0 KECCAK256 SSTORE PUSH32 0x4CFDE7F67060004DEF7FFD71F6F34B90F732485709C3C9367AED20D0FD61A8CA PUSH1 0x40 MLOAD PUSH1 0x20 DUP2 MSTORE DUP1 PUSH2 0x667 CALLER SWAP6 PUSH1 0x20 DUP4 ADD SWAP1 PUSH2 0xCA8 JUMP JUMPDEST SUB SWAP1 LOG3 PUSH1 0x1 DUP1 SSTORE STOP JUMPDEST ADD MLOAD SWAP1 POP DUP9 DUP1 PUSH2 0x5CD JUMP JUMPDEST SWAP1 PUSH1 0x2 DUP7 ADD PUSH1 0x0 MSTORE PUSH1 0x20 PUSH1 0x0 KECCAK256 SWAP2 PUSH1 0x0 JUMPDEST PUSH1 0x1F NOT DUP6 AND DUP2 LT PUSH2 0x6D7 JUMPI POP SWAP2 DUP4 SWAP2 PUSH1 0x1 SWAP4 PUSH1 0x7 SWAP8 SWAP7 SWAP6 PUSH1 0x1F NOT DUP2 AND LT PUSH2 0x6BE JUMPI JUMPDEST POP POP POP DUP2 SHL ADD PUSH1 0x2 DUP6 ADD SSTORE PUSH2 0x5E5 JUMP JUMPDEST ADD MLOAD PUSH1 0x0 NOT PUSH1 0xF8 DUP5 PUSH1 0x3 SHL AND SHR NOT AND SWAP1 SSTORE DUP9 DUP1 DUP1 PUSH2 0x6AE JUMP JUMPDEST SWAP2 SWAP3 PUSH1 0x20 PUSH1 0x1 DUP2 SWAP3 DUP7 DUP6 ADD MLOAD DUP2 SSTORE ADD SWAP5 ADD SWAP3 ADD PUSH2 0x68C JUMP JUMPDEST PUSH1 0x2 DUP7 ADD PUSH1 0x0 MSTORE PUSH1 0x20 PUSH1 0x0 KECCAK256 PUSH1 0x1F DUP5 ADD PUSH1 0x5 SHR DUP2 ADD PUSH1 0x20 DUP6 LT PUSH2 0x72F JUMPI JUMPDEST PUSH1 0x1F DUP4 ADD PUSH1 0x5 SHR DUP3 ADD DUP2 LT PUSH2 0x723 JUMPI POP POP PUSH2 0x5AF JUMP JUMPDEST PUSH1 0x0 DUP2 SSTORE PUSH1 0x1 ADD PUSH2 0x70D JUMP JUMPDEST POP DUP1 PUSH2 0x70D JUMP JUMPDEST PUSH1 0x40 MLOAD PUSH3 0x461BCD PUSH1 0xE5 SHL DUP2 MSTORE PUSH1 0x20 PUSH1 0x4 DUP3 ADD MSTORE PUSH1 0x1D PUSH1 0x24 DUP3 ADD MSTORE PUSH32 0x416C726561647920726567697374657265642061732063726561746F72000000 PUSH1 0x44 DUP3 ADD MSTORE PUSH1 0x64 SWAP1 REVERT JUMPDEST CALLVALUE PUSH2 0xEE JUMPI PUSH1 0x20 SWAP1 DUP2 PUSH1 0x3 NOT CALLDATASIZE ADD SLT PUSH2 0xEE JUMPI PUSH1 0x4 CALLDATALOAD PUSH1 0x0 DUP3 PUSH1 0x40 MLOAD PUSH2 0x7A0 DUP2 PUSH2 0xBC3 JUMP JUMPDEST DUP3 DUP2 MSTORE DUP3 DUP7 DUP3 ADD MSTORE PUSH1 0x60 PUSH1 0x40 DUP3 ADD MSTORE DUP3 PUSH1 0x60 DUP3 ADD MSTORE DUP3 PUSH1 0x80 DUP3 ADD MSTORE DUP3 PUSH1 0xA0 DUP3 ADD MSTORE DUP3 PUSH1 0xC0 DUP3 ADD MSTORE ADD MSTORE DUP1 ISZERO ISZERO DUP1 PUSH2 0x8BB JUMPI JUMPDEST PUSH2 0x7DB SWAP1 PUSH2 0xE53 JUMP JUMPDEST PUSH1 0x0 MSTORE PUSH1 0x5 DUP3 MSTORE PUSH1 0x40 PUSH1 0x0 KECCAK256 SWAP1 PUSH1 0x40 MLOAD SWAP2 PUSH2 0x7F5 DUP4 PUSH2 0xBC3 JUMP JUMPDEST DUP1 SLOAD DUP4 MSTORE PUSH1 0x1 DUP2 ADD SLOAD PUSH1 0x1 PUSH1 0x1 PUSH1 0xA0 SHL SUB SWAP1 DUP2 AND DUP6 DUP6 ADD SWAP1 DUP2 MSTORE SWAP1 SWAP3 PUSH2 0x81D PUSH1 0x2 DUP5 ADD PUSH2 0xC02 JUMP JUMPDEST SWAP3 PUSH1 0x40 DUP7 ADD SWAP4 DUP5 MSTORE PUSH1 0x3 DUP2 ADD SLOAD SWAP5 PUSH1 0x60 DUP8 ADD SWAP6 DUP7 MSTORE PUSH1 0x4 DUP3 ADD SLOAD SWAP5 PUSH1 0x80 DUP9 ADD SWAP6 DUP7 MSTORE PUSH1 0xFF PUSH1 0x5 DUP5 ADD SLOAD AND SWAP2 PUSH1 0xA0 DUP10 ADD SWAP3 ISZERO ISZERO DUP4 MSTORE PUSH1 0x7 PUSH1 0x6 DUP6 ADD SLOAD SWAP5 PUSH1 0xC0 DUP12 ADD SWAP6 DUP7 MSTORE ADD SLOAD SWAP6 DUP6 DUP11 ADD SWAP7 DUP8 MSTORE PUSH1 0x40 MLOAD SWAP11 DUP12 SWAP11 DUP2 DUP13 MSTORE MLOAD SWAP1 DUP12 ADD MSTORE MLOAD AND PUSH1 0x40 DUP10 ADD MSTORE MLOAD SWAP5 PUSH2 0x898 PUSH2 0x100 SWAP7 DUP8 PUSH1 0x60 DUP12 ADD MSTORE PUSH2 0x120 DUP11 ADD SWAP1 PUSH2 0xCA8 JUMP JUMPDEST SWAP7 MLOAD PUSH1 0x80 DUP10 ADD MSTORE MLOAD PUSH1 0xA0 DUP9 ADD MSTORE MLOAD ISZERO ISZERO PUSH1 0xC0 DUP8 ADD MSTORE MLOAD SWAP1 DUP6 ADD MSTORE MLOAD SWAP1 DUP4 ADD MSTORE SUB SWAP1 RETURN JUMPDEST POP PUSH1 0x2 SLOAD DUP2 GT ISZERO PUSH2 0x7D2 JUMP JUMPDEST CALLVALUE PUSH2 0xEE JUMPI PUSH1 0x20 CALLDATASIZE PUSH1 0x3 NOT ADD SLT PUSH2 0xEE JUMPI PUSH1 0x4 CALLDATALOAD PUSH1 0x0 MSTORE PUSH1 0x5 PUSH1 0x20 MSTORE PUSH1 0x40 PUSH1 0x0 KECCAK256 DUP1 SLOAD SWAP1 PUSH1 0x1 DUP1 PUSH1 0xA0 SHL SUB PUSH1 0x1 DUP3 ADD SLOAD AND SWAP3 PUSH2 0x905 PUSH1 0x2 DUP4 ADD PUSH2 0xC02 JUMP JUMPDEST SWAP1 PUSH1 0x3 DUP4 ADD SLOAD SWAP3 PUSH1 0x4 DUP2 ADD SLOAD PUSH1 0xFF PUSH1 0x5 DUP4 ADD SLOAD AND SWAP1 PUSH2 0x946 PUSH1 0x7 PUSH1 0x6 DUP6 ADD SLOAD SWAP5 ADD SLOAD SWAP6 PUSH1 0x40 MLOAD SWAP10 DUP11 SWAP10 DUP11 MSTORE PUSH1 0x20 DUP11 ADD MSTORE PUSH2 0x100 DUP1 PUSH1 0x40 DUP12 ADD MSTORE DUP10 ADD SWAP1 PUSH2 0xCA8 JUMP JUMPDEST SWAP6 PUSH1 0x60 DUP9 ADD MSTORE PUSH1 0x80 DUP8 ADD MSTORE ISZERO ISZERO PUSH1 0xA0 DUP7 ADD MSTORE PUSH1 0xC0 DUP6 ADD MSTORE DUP4 ADD MSTORE SUB SWAP1 RETURN JUMPDEST CALLVALUE PUSH2 0xEE JUMPI PUSH1 0x0 CALLDATASIZE PUSH1 0x3 NOT ADD SLT PUSH2 0xEE JUMPI PUSH1 0x0 SLOAD PUSH1 0x40 MLOAD PUSH1 0x1 PUSH1 0x1 PUSH1 0xA0 SHL SUB SWAP1 SWAP2 AND DUP2 MSTORE PUSH1 0x20 SWAP1 RETURN JUMPDEST CALLVALUE PUSH2 0xEE JUMPI PUSH1 0x0 CALLDATASIZE PUSH1 0x3 NOT ADD SLT PUSH2 0xEE JUMPI PUSH2 0x9A6 PUSH2 0xD59 JUMP JUMPDEST PUSH1 0x0 DUP1 SLOAD PUSH1 0x1 PUSH1 0x1 PUSH1 0xA0 SHL SUB NOT DUP2 AND DUP3 SSTORE PUSH1 0x1 PUSH1 0x1 PUSH1 0xA0 SHL SUB AND PUSH32 0x8BE0079C531659141344CD1FD0A4F28419497F9722A3DAAFE3B4186F6B6457E0 DUP3 DUP1 LOG3 STOP JUMPDEST CALLVALUE PUSH2 0xEE JUMPI PUSH1 0x20 CALLDATASIZE PUSH1 0x3 NOT ADD SLT PUSH2 0xEE JUMPI PUSH1 0x4 CALLDATALOAD PUSH1 0x1 PUSH1 0x1 PUSH1 0xA0 SHL SUB DUP2 AND SWAP1 DUP2 SWAP1 SUB PUSH2 0xEE JUMPI PUSH1 0x0 MSTORE PUSH1 0x4 PUSH1 0x20 MSTORE PUSH1 0x20 PUSH1 0x40 PUSH1 0x0 KECCAK256 SLOAD ISZERO ISZERO PUSH1 0x40 MLOAD SWAP1 DUP2 MSTORE RETURN JUMPDEST CALLVALUE PUSH2 0xEE JUMPI PUSH1 0x60 CALLDATASIZE PUSH1 0x3 NOT ADD SLT PUSH2 0xEE JUMPI PUSH1 0x4 CALLDATALOAD PUSH1 0x24 CALLDATALOAD PUSH2 0xA45 PUSH2 0xDFD JUMP JUMPDEST DUP2 ISZERO ISZERO DUP1 PUSH2 0xB62 JUMPI JUMPDEST PUSH2 0xA57 SWAP1 PUSH2 0xE53 JUMP JUMPDEST DUP2 PUSH1 0x0 MSTORE PUSH1 0x5 PUSH1 0x20 MSTORE PUSH1 0x40 PUSH1 0x0 KECCAK256 SWAP1 PUSH1 0x0 DUP2 SGT PUSH1 0x0 EQ PUSH2 0xAC7 JUMPI DUP2 PUSH1 0x40 SWAP2 PUSH2 0xA93 PUSH1 0x3 PUSH1 0x0 DUP1 MLOAD PUSH1 0x20 PUSH2 0xF3F DUP4 CODECOPY DUP2 MLOAD SWAP2 MSTORE SWAP6 ADD SWAP2 DUP3 SLOAD PUSH2 0xF31 JUMP JUMPDEST SWAP1 SSTORE JUMPDEST PUSH1 0x3 PUSH1 0x4 DUP3 ADD SWAP2 PUSH2 0xAAA PUSH1 0x44 CALLDATALOAD DUP5 SLOAD PUSH2 0xF31 JUMP JUMPDEST DUP1 SWAP4 SSTORE TIMESTAMP PUSH1 0x7 DUP3 ADD SSTORE ADD SLOAD SWAP1 DUP3 MLOAD SWAP2 DUP3 MSTORE PUSH1 0x20 DUP3 ADD MSTORE LOG2 PUSH1 0x1 DUP1 SSTORE STOP JUMPDEST PUSH1 0x0 DUP2 SLT PUSH2 0xAE8 JUMPI JUMPDEST POP PUSH1 0x40 PUSH1 0x0 DUP1 MLOAD PUSH1 0x20 PUSH2 0xF3F DUP4 CODECOPY DUP2 MLOAD SWAP2 MSTORE SWAP2 PUSH2 0xA96 JUMP JUMPDEST SWAP1 PUSH1 0x1 PUSH1 0xFF SHL DUP3 EQ PUSH2 0xB30 JUMPI PUSH1 0x3 DUP2 ADD SWAP1 DUP3 PUSH1 0x0 SUB DUP3 SLOAD LT ISZERO PUSH1 0x0 EQ PUSH2 0xB46 JUMPI DUP2 SLOAD SWAP3 DUP4 ADD SWAP3 DUP4 GT PUSH2 0xB30 JUMPI PUSH1 0x0 DUP1 MLOAD PUSH1 0x20 PUSH2 0xF3F DUP4 CODECOPY DUP2 MLOAD SWAP2 MSTORE SWAP3 PUSH1 0x40 SWAP3 SSTORE JUMPDEST SWAP2 POP PUSH2 0xAD0 JUMP JUMPDEST PUSH4 0x4E487B71 PUSH1 0xE0 SHL PUSH1 0x0 MSTORE PUSH1 0x11 PUSH1 0x4 MSTORE PUSH1 0x24 PUSH1 0x0 REVERT JUMPDEST PUSH1 0x0 DUP1 MLOAD PUSH1 0x20 PUSH2 0xF3F DUP4 CODECOPY DUP2 MLOAD SWAP2 MSTORE SWAP3 POP PUSH1 0x0 PUSH1 0x40 SWAP3 SSTORE PUSH2 0xB29 JUMP JUMPDEST POP PUSH1 0x2 SLOAD DUP3 GT ISZERO PUSH2 0xA4E JUMP JUMPDEST CALLVALUE PUSH2 0xEE JUMPI PUSH1 0x0 CALLDATASIZE PUSH1 0x3 NOT ADD SLT PUSH2 0xEE JUMPI PUSH1 0x20 SWAP1 PUSH1 0x2 SLOAD DUP2 MSTORE RETURN JUMPDEST SWAP1 PUSH1 0x1 DUP3 DUP2 SHR SWAP3 AND DUP1 ISZERO PUSH2 0xBB9 JUMPI JUMPDEST PUSH1 0x20 DUP4 LT EQ PUSH2 0xBA3 JUMPI JUMP JUMPDEST PUSH4 0x4E487B71 PUSH1 0xE0 SHL PUSH1 0x0 MSTORE PUSH1 0x22 PUSH1 0x4 MSTORE PUSH1 0x24 PUSH1 0x0 REVERT JUMPDEST SWAP2 PUSH1 0x7F AND SWAP2 PUSH2 0xB98 JUMP JUMPDEST PUSH2 0x100 DUP2 ADD SWAP1 DUP2 LT PUSH8 0xFFFFFFFFFFFFFFFF DUP3 GT OR PUSH2 0x473 JUMPI PUSH1 0x40 MSTORE JUMP JUMPDEST SWAP1 PUSH1 0x1F DUP1 NOT SWAP2 ADD AND DUP2 ADD SWAP1 DUP2 LT PUSH8 0xFFFFFFFFFFFFFFFF DUP3 GT OR PUSH2 0x473 JUMPI PUSH1 0x40 MSTORE JUMP JUMPDEST SWAP1 PUSH1 0x40 MLOAD SWAP2 DUP3 PUSH1 0x0 DUP3 SLOAD SWAP3 PUSH2 0xC16 DUP5 PUSH2 0xB89 JUMP JUMPDEST SWAP1 DUP2 DUP5 MSTORE PUSH1 0x1 SWAP5 DUP6 DUP2 AND SWAP1 DUP2 PUSH1 0x0 EQ PUSH2 0xC85 JUMPI POP PUSH1 0x1 EQ PUSH2 0xC42 JUMPI JUMPDEST POP POP PUSH2 0xC40 SWAP3 POP SUB DUP4 PUSH2 0xBE0 JUMP JUMPDEST JUMP JUMPDEST SWAP1 SWAP4 SWAP2 POP PUSH1 0x0 MSTORE PUSH1 0x20 SWAP1 DUP2 PUSH1 0x0 KECCAK256 SWAP4 PUSH1 0x0 SWAP2 JUMPDEST DUP2 DUP4 LT PUSH2 0xC6D JUMPI POP POP PUSH2 0xC40 SWAP4 POP DUP3 ADD ADD CODESIZE DUP1 PUSH2 0xC32 JUMP JUMPDEST DUP6 SLOAD DUP9 DUP5 ADD DUP6 ADD MSTORE SWAP5 DUP6 ADD SWAP5 DUP8 SWAP5 POP SWAP2 DUP4 ADD SWAP2 PUSH2 0xC55 JUMP JUMPDEST SWAP2 POP POP PUSH2 0xC40 SWAP5 POP PUSH1 0x20 SWAP3 POP PUSH1 0xFF NOT AND DUP3 DUP5 ADD MSTORE ISZERO ISZERO PUSH1 0x5 SHL DUP3 ADD ADD CODESIZE DUP1 PUSH2 0xC32 JUMP JUMPDEST SWAP2 SWAP1 DUP3 MLOAD SWAP3 DUP4 DUP3 MSTORE PUSH1 0x0 JUMPDEST DUP5 DUP2 LT PUSH2 0xCD4 JUMPI POP POP DUP3 PUSH1 0x0 PUSH1 0x20 DUP1 SWAP5 SWAP6 DUP5 ADD ADD MSTORE PUSH1 0x1F DUP1 NOT SWAP2 ADD AND ADD ADD SWAP1 JUMP JUMPDEST PUSH1 0x20 DUP2 DUP4 ADD DUP2 ADD MLOAD DUP5 DUP4 ADD DUP3 ADD MSTORE ADD PUSH2 0xCB3 JUMP JUMPDEST PUSH1 0x20 PUSH1 0x3 NOT DUP3 ADD SLT PUSH2 0xEE JUMPI PUSH8 0xFFFFFFFFFFFFFFFF PUSH1 0x4 CALLDATALOAD DUP2 DUP2 GT PUSH2 0xEE JUMPI DUP3 PUSH1 0x23 DUP3 ADD SLT ISZERO PUSH2 0xEE JUMPI DUP1 PUSH1 0x4 ADD CALLDATALOAD SWAP2 DUP3 GT PUSH2 0x473 JUMPI PUSH1 0x40 MLOAD SWAP3 PUSH2 0xD36 PUSH1 0x1F DUP5 ADD PUSH1 0x1F NOT AND PUSH1 0x20 ADD DUP6 PUSH2 0xBE0 JUMP JUMPDEST DUP3 DUP5 MSTORE PUSH1 0x24 DUP4 DUP4 ADD ADD GT PUSH2 0xEE JUMPI DUP2 PUSH1 0x0 SWAP3 PUSH1 0x24 PUSH1 0x20 SWAP4 ADD DUP4 DUP7 ADD CALLDATACOPY DUP4 ADD ADD MSTORE SWAP1 JUMP JUMPDEST PUSH1 0x0 SLOAD PUSH1 0x1 PUSH1 0x1 PUSH1 0xA0 SHL SUB AND CALLER SUB PUSH2 0xD6D JUMPI JUMP JUMPDEST PUSH1 0x64 PUSH1 0x40 MLOAD PUSH3 0x461BCD PUSH1 0xE5 SHL DUP2 MSTORE PUSH1 0x20 PUSH1 0x4 DUP3 ADD MSTORE PUSH1 0x20 PUSH1 0x24 DUP3 ADD MSTORE PUSH32 0x4F776E61626C653A2063616C6C6572206973206E6F7420746865206F776E6572 PUSH1 0x44 DUP3 ADD MSTORE REVERT JUMPDEST ISZERO PUSH2 0xDB8 JUMPI JUMP JUMPDEST PUSH1 0x40 MLOAD PUSH3 0x461BCD PUSH1 0xE5 SHL DUP2 MSTORE PUSH1 0x20 PUSH1 0x4 DUP3 ADD MSTORE PUSH1 0x18 PUSH1 0x24 DUP3 ADD MSTORE PUSH32 0x4D65746164617461205552492069732072657175697265640000000000000000 PUSH1 0x44 DUP3 ADD MSTORE PUSH1 0x64 SWAP1 REVERT JUMPDEST PUSH1 0x2 PUSH1 0x1 SLOAD EQ PUSH2 0xE0E JUMPI PUSH1 0x2 PUSH1 0x1 SSTORE JUMP JUMPDEST PUSH1 0x40 MLOAD PUSH3 0x461BCD PUSH1 0xE5 SHL DUP2 MSTORE PUSH1 0x20 PUSH1 0x4 DUP3 ADD MSTORE PUSH1 0x1F PUSH1 0x24 DUP3 ADD MSTORE PUSH32 0x5265656E7472616E637947756172643A207265656E7472616E742063616C6C00 PUSH1 0x44 DUP3 ADD MSTORE PUSH1 0x64 SWAP1 REVERT JUMPDEST ISZERO PUSH2 0xE5A JUMPI JUMP JUMPDEST PUSH1 0x40 MLOAD PUSH3 0x461BCD PUSH1 0xE5 SHL DUP2 MSTORE PUSH1 0x20 PUSH1 0x4 DUP3 ADD MSTORE PUSH1 0x12 PUSH1 0x24 DUP3 ADD MSTORE PUSH18 0x125B9D985B1A590818DC99585D1BDC881251 PUSH1 0x72 SHL PUSH1 0x44 DUP3 ADD MSTORE PUSH1 0x64 SWAP1 REVERT JUMPDEST PUSH1 0x0 DUP2 DUP2 MSTORE PUSH1 0x4 PUSH1 0x20 MSTORE PUSH1 0x40 DUP2 KECCAK256 SLOAD PUSH2 0xF2C JUMPI PUSH1 0x3 SLOAD PUSH9 0x10000000000000000 DUP2 LT ISZERO PUSH2 0xF18 JUMPI PUSH1 0x1 DUP2 ADD DUP1 PUSH1 0x3 SSTORE DUP2 LT ISZERO PUSH2 0xF04 JUMPI SWAP1 DUP3 PUSH1 0x40 SWAP3 PUSH32 0xC2575A0E9E593C00F959F8C92F12DB2869C3395A3B0502D05E2516446F71F85B ADD SSTORE PUSH1 0x3 SLOAD SWAP3 DUP2 MSTORE PUSH1 0x4 PUSH1 0x20 MSTORE KECCAK256 SSTORE PUSH1 0x1 SWAP1 JUMP JUMPDEST PUSH4 0x4E487B71 PUSH1 0xE0 SHL DUP3 MSTORE PUSH1 0x32 PUSH1 0x4 MSTORE PUSH1 0x24 DUP3 REVERT JUMPDEST PUSH4 0x4E487B71 PUSH1 0xE0 SHL DUP3 MSTORE PUSH1 0x41 PUSH1 0x4 MSTORE PUSH1 0x24 DUP3 REVERT JUMPDEST SWAP1 POP SWAP1 JUMP JUMPDEST SWAP2 SWAP1 DUP3 ADD DUP1 SWAP3 GT PUSH2 0xB30 JUMPI JUMP INVALID EXTCODESIZE 0xF9 DUP16 0xE CALLVALUE 0xCC STATICCALL DUP15 EQ RETURNDATACOPY LOG2 CREATE 0xC7 SWAP11 SELFDESTRUCT SWAP5 0xB8 0xE6 DUP2 RETURN 0xC1 ISZERO 0x22 CALLCODE PUSH18 0x3688ACDC12B779A2646970667358221220BD GASLIMIT MULMOD POP SWAP12 PUSH29 0xF7FC2E603AF13F7E9D45D09A4B4976A6D23A60E3CCC8275EF3FA64736F PUSH13 0x63430008140033608034620001 PUSH30 0x576001600160401B0390601F6200208538819003918201601F1916830191 DUP5 DUP4 GT DUP5 DUP5 LT OR PUSH3 0x167 JUMPI DUP1 DUP5 SWAP3 PUSH1 0x20 SWAP5 PUSH1 0x40 MSTORE DUP4 CODECOPY DUP2 ADD SUB SLT PUSH3 0x17D JUMPI MLOAD PUSH1 0x1 PUSH1 0x1 PUSH1 0xA0 SHL SUB SWAP2 DUP3 DUP3 AND SWAP2 DUP3 SWAP1 SUB PUSH3 0x17D JUMPI PUSH1 0x40 MLOAD SWAP1 PUSH1 0x20 DUP3 ADD SWAP1 DUP2 GT DUP3 DUP3 LT OR PUSH3 0x167 JUMPI PUSH1 0x40 MSTORE PUSH1 0x0 DUP1 SWAP2 MSTORE PUSH1 0x2 SLOAD PUSH1 0x1 SWAP1 DUP2 DUP2 DUP2 SHR SWAP2 AND DUP1 ISZERO PUSH3 0x15C JUMPI JUMPDEST PUSH1 0x20 DUP3 LT EQ PUSH3 0x148 JUMPI PUSH1 0x1F DUP2 GT PUSH3 0xFA JUMPI JUMPDEST POP DUP2 PUSH1 0x2 SSTORE PUSH1 0x3 SLOAD PUSH1 0x1 DUP1 PUSH1 0xA0 SHL SUB NOT SWAP3 CALLER DUP5 DUP4 AND OR PUSH1 0x3 SSTORE PUSH32 0x8BE0079C531659141344CD1FD0A4F28419497F9722A3DAAFE3B4186F6B6457E0 PUSH1 0x40 MLOAD SWAP7 CALLER SWAP4 AND SWAP2 DUP1 LOG3 PUSH1 0x4 SSTORE PUSH1 0x5 SLOAD AND OR PUSH1 0x5 SSTORE PUSH2 0x1F02 SWAP1 DUP2 PUSH3 0x183 DUP3 CODECOPY RETURN JUMPDEST PUSH1 0x2 DUP4 MSTORE PUSH1 0x1F ADD PUSH1 0x5 SHR PUSH32 0x405787FA12A823E0F2B7631CC41B3BA8828B3321CA811111FA75CD3AA3BB5ACE SWAP1 DUP2 ADD SWAP1 DUP3 SWAP1 JUMPDEST DUP3 DUP2 LT PUSH3 0x13C JUMPI POP POP PUSH3 0x9E JUMP JUMPDEST DUP5 DUP2 SSTORE ADD DUP3 SWAP1 PUSH3 0x12C JUMP JUMPDEST PUSH4 0x4E487B71 PUSH1 0xE0 SHL DUP4 MSTORE PUSH1 0x22 PUSH1 0x4 MSTORE PUSH1 0x24 DUP4 REVERT JUMPDEST SWAP1 PUSH1 0x7F AND SWAP1 PUSH3 0x8A JUMP JUMPDEST PUSH4 0x4E487B71 PUSH1 0xE0 SHL PUSH1 0x0 MSTORE PUSH1 0x41 PUSH1 0x4 MSTORE PUSH1 0x24 PUSH1 0x0 REVERT JUMPDEST PUSH1 0x0 DUP1 REVERT INVALID PUSH1 0x80 PUSH1 0x40 MSTORE PUSH1 0x4 CALLDATASIZE LT ISZERO PUSH2 0x12 JUMPI PUSH1 0x0 DUP1 REVERT JUMPDEST PUSH1 0x0 CALLDATALOAD PUSH1 0xE0 SHR DUP1 PUSH3 0xFDD58E EQ PUSH2 0x1853 JUMPI DUP1 PUSH4 0x1FFC9A7 EQ PUSH2 0x17E5 JUMPI DUP1 PUSH4 0x2FE5305 EQ PUSH2 0x166C JUMPI DUP1 PUSH4 0xE89341C EQ PUSH2 0x160B JUMPI DUP1 PUSH4 0x23A36D2B EQ PUSH2 0x12DA JUMPI DUP1 PUSH4 0x2EB2C2D6 EQ PUSH2 0xFB0 JUMPI DUP1 PUSH4 0x439E7EEA EQ PUSH2 0xA00 JUMPI DUP1 PUSH4 0x4E1273F4 EQ PUSH2 0x85E JUMPI DUP1 PUSH4 0x4F062C5A EQ PUSH2 0x746 JUMPI DUP1 PUSH4 0x715018A6 EQ PUSH2 0x6E9 JUMPI DUP1 PUSH4 0x8DA5CB5B EQ PUSH2 0x6C0 JUMPI DUP1 PUSH4 0x9A6A5CF0 EQ PUSH2 0x697 JUMPI DUP1 PUSH4 0xA22CB465 EQ PUSH2 0x5B3 JUMPI DUP1 PUSH4 0xBC5AEDC0 EQ PUSH2 0x574 JUMPI DUP1 PUSH4 0xC6530E41 EQ PUSH2 0x543 JUMPI DUP1 PUSH4 0xCB1637DE EQ PUSH2 0x4B6 JUMPI DUP1 PUSH4 0xE985E9C5 EQ PUSH2 0x460 JUMPI DUP1 PUSH4 0xF242432A EQ PUSH2 0x1BA JUMPI PUSH4 0xF2FDE38B EQ PUSH2 0xEC JUMPI PUSH1 0x0 DUP1 REVERT JUMPDEST CALLVALUE PUSH2 0x1B5 JUMPI PUSH1 0x20 CALLDATASIZE PUSH1 0x3 NOT ADD SLT PUSH2 0x1B5 JUMPI PUSH2 0x105 PUSH2 0x1879 JUMP JUMPDEST PUSH2 0x10D PUSH2 0x1B00 JUMP JUMPDEST PUSH1 0x1 PUSH1 0x1 PUSH1 0xA0 SHL SUB SWAP1 DUP2 AND SWAP1 DUP2 ISZERO PUSH2 0x161 JUMPI PUSH1 0x3 SLOAD DUP3 PUSH12 0xFFFFFFFFFFFFFFFFFFFFFFFF PUSH1 0xA0 SHL DUP3 AND OR PUSH1 0x3 SSTORE AND PUSH32 0x8BE0079C531659141344CD1FD0A4F28419497F9722A3DAAFE3B4186F6B6457E0 PUSH1 0x0 DUP1 LOG3 STOP JUMPDEST PUSH1 0x40 MLOAD PUSH3 0x461BCD PUSH1 0xE5 SHL DUP2 MSTORE PUSH1 0x20 PUSH1 0x4 DUP3 ADD MSTORE PUSH1 0x26 PUSH1 0x24 DUP3 ADD MSTORE PUSH32 0x4F776E61626C653A206E6577206F776E657220697320746865207A65726F2061 PUSH1 0x44 DUP3 ADD MSTORE PUSH6 0x646472657373 PUSH1 0xD0 SHL PUSH1 0x64 DUP3 ADD MSTORE PUSH1 0x84 SWAP1 REVERT JUMPDEST PUSH1 0x0 DUP1 REVERT JUMPDEST CALLVALUE PUSH2 0x1B5 JUMPI PUSH1 0xA0 CALLDATASIZE PUSH1 0x3 NOT ADD SLT PUSH2 0x1B5 JUMPI PUSH2 0x1D3 PUSH2 0x1879 JUMP JUMPDEST PUSH2 0x1DB PUSH2 0x188F JUMP JUMPDEST SWAP1 PUSH1 0x64 CALLDATALOAD PUSH1 0x44 CALLDATALOAD PUSH1 0x84 CALLDATALOAD PUSH1 0x1 PUSH1 0x1 PUSH1 0x40 SHL SUB DUP2 GT PUSH2 0x1B5 JUMPI PUSH2 0x201 SWAP1 CALLDATASIZE SWAP1 PUSH1 0x4 ADD PUSH2 0x18E1 JUMP JUMPDEST PUSH1 0x1 PUSH1 0x1 PUSH1 0xA0 SHL SUB SWAP4 DUP5 AND SWAP4 CALLER DUP6 EQ DUP1 ISZERO PUSH2 0x437 JUMPI JUMPDEST PUSH2 0x220 SWAP1 PUSH2 0x1C2C JUMP JUMPDEST DUP6 AND PUSH2 0x22D DUP2 ISZERO ISZERO PUSH2 0x1C8F JUMP JUMPDEST PUSH2 0x236 DUP4 PUSH2 0x1E59 JUMP JUMPDEST POP PUSH2 0x240 DUP5 PUSH2 0x1E59 JUMP JUMPDEST POP DUP3 PUSH1 0x0 MSTORE PUSH1 0x20 SWAP6 PUSH1 0x0 DUP8 MSTORE PUSH1 0x40 PUSH1 0x0 KECCAK256 DUP7 PUSH1 0x0 MSTORE DUP8 MSTORE DUP5 PUSH1 0x40 PUSH1 0x0 KECCAK256 SLOAD PUSH2 0x26A DUP3 DUP3 LT ISZERO PUSH2 0x1CE9 JUMP JUMPDEST DUP6 PUSH1 0x0 MSTORE PUSH1 0x0 DUP10 MSTORE PUSH1 0x40 PUSH1 0x0 KECCAK256 DUP9 PUSH1 0x0 MSTORE DUP10 MSTORE SUB PUSH1 0x40 PUSH1 0x0 KECCAK256 SSTORE DUP4 PUSH1 0x0 MSTORE PUSH1 0x0 DUP8 MSTORE PUSH1 0x40 PUSH1 0x0 KECCAK256 DUP3 PUSH1 0x0 MSTORE DUP8 MSTORE PUSH1 0x40 PUSH1 0x0 KECCAK256 PUSH2 0x2A7 DUP7 DUP3 SLOAD PUSH2 0x1D48 JUMP JUMPDEST SWAP1 SSTORE DUP2 DUP7 PUSH1 0x40 MLOAD DUP7 DUP2 MSTORE DUP8 DUP11 DUP3 ADD MSTORE PUSH32 0xC3D58168C5AE7397731D063D5BBF3D657854427343F4C083240F7AACAA2D0F62 PUSH1 0x40 CALLER SWAP3 LOG4 EXTCODESIZE PUSH2 0x2E3 JUMPI STOP JUMPDEST PUSH2 0x327 SWAP4 PUSH1 0x0 DUP8 SWAP5 PUSH1 0x40 MLOAD SWAP7 DUP8 SWAP6 DUP7 SWAP5 DUP6 SWAP4 PUSH4 0xF23A6E61 PUSH1 0xE0 SHL SWAP12 DUP13 DUP7 MSTORE CALLER PUSH1 0x4 DUP8 ADD MSTORE PUSH1 0x24 DUP7 ADD MSTORE PUSH1 0x44 DUP6 ADD MSTORE PUSH1 0x64 DUP5 ADD MSTORE PUSH1 0xA0 PUSH1 0x84 DUP5 ADD MSTORE PUSH1 0xA4 DUP4 ADD SWAP1 PUSH2 0x1937 JUMP JUMPDEST SUB SWAP3 GAS CALL PUSH1 0x0 SWAP2 DUP2 PUSH2 0x408 JUMPI JUMPDEST POP PUSH2 0x39F JUMPI DUP3 PUSH2 0x342 PUSH2 0x1D75 JUMP JUMPDEST PUSH4 0x8C379A0 EQ PUSH2 0x36A JUMPI JUMPDEST PUSH1 0x40 MLOAD PUSH3 0x461BCD PUSH1 0xE5 SHL DUP2 MSTORE DUP1 PUSH2 0x366 PUSH1 0x4 DUP3 ADD PUSH2 0x1E04 JUMP JUMPDEST SUB SWAP1 REVERT JUMPDEST PUSH2 0x372 PUSH2 0x1D93 JUMP JUMPDEST SWAP1 DUP2 PUSH2 0x37E JUMPI POP PUSH2 0x34D JUMP JUMPDEST PUSH2 0x366 PUSH1 0x40 MLOAD SWAP3 DUP4 SWAP3 PUSH3 0x461BCD PUSH1 0xE5 SHL DUP5 MSTORE PUSH1 0x4 DUP5 ADD MSTORE PUSH1 0x24 DUP4 ADD SWAP1 PUSH2 0x1937 JUMP JUMPDEST PUSH1 0x1 PUSH1 0x1 PUSH1 0xE0 SHL SUB NOT AND SUB SWAP1 POP PUSH2 0x3B2 JUMPI STOP JUMPDEST PUSH1 0x40 MLOAD PUSH3 0x461BCD PUSH1 0xE5 SHL DUP2 MSTORE PUSH1 0x20 PUSH1 0x4 DUP3 ADD MSTORE PUSH1 0x28 PUSH1 0x24 DUP3 ADD MSTORE PUSH32 0x455243313135353A204552433131353552656365697665722072656A65637465 PUSH1 0x44 DUP3 ADD MSTORE PUSH8 0x6420746F6B656E73 PUSH1 0xC0 SHL PUSH1 0x64 DUP3 ADD MSTORE PUSH1 0x84 SWAP1 REVERT JUMPDEST PUSH2 0x429 SWAP2 SWAP3 POP DUP5 RETURNDATASIZE DUP7 GT PUSH2 0x430 JUMPI JUMPDEST PUSH2 0x421 DUP2 DUP4 PUSH2 0x18C0 JUMP JUMPDEST DUP2 ADD SWAP1 PUSH2 0x1D55 JUMP JUMPDEST SWAP1 DUP5 PUSH2 0x334 JUMP JUMPDEST POP RETURNDATASIZE PUSH2 0x417 JUMP JUMPDEST POP DUP5 PUSH1 0x0 MSTORE PUSH1 0x1 PUSH1 0x20 MSTORE PUSH1 0x40 PUSH1 0x0 KECCAK256 CALLER PUSH1 0x0 MSTORE PUSH1 0x20 MSTORE PUSH2 0x220 PUSH1 0xFF PUSH1 0x40 PUSH1 0x0 KECCAK256 SLOAD AND SWAP1 POP PUSH2 0x217 JUMP JUMPDEST CALLVALUE PUSH2 0x1B5 JUMPI PUSH1 0x40 CALLDATASIZE PUSH1 0x3 NOT ADD SLT PUSH2 0x1B5 JUMPI PUSH2 0x479 PUSH2 0x1879 JUMP JUMPDEST PUSH2 0x481 PUSH2 0x188F JUMP JUMPDEST SWAP1 PUSH1 0x1 DUP1 PUSH1 0xA0 SHL SUB DUP1 SWAP2 AND PUSH1 0x0 MSTORE PUSH1 0x1 PUSH1 0x20 MSTORE PUSH1 0x40 PUSH1 0x0 KECCAK256 SWAP2 AND PUSH1 0x0 MSTORE PUSH1 0x20 MSTORE PUSH1 0x20 PUSH1 0xFF PUSH1 0x40 PUSH1 0x0 KECCAK256 SLOAD AND PUSH1 0x40 MLOAD SWAP1 ISZERO ISZERO DUP2 MSTORE RETURN JUMPDEST CALLVALUE PUSH2 0x1B5 JUMPI PUSH1 0x20 CALLDATASIZE PUSH1 0x3 NOT ADD SLT PUSH2 0x1B5 JUMPI PUSH1 0x4 CALLDATALOAD PUSH1 0x0 MSTORE PUSH1 0x7 PUSH1 0x20 MSTORE PUSH1 0x40 PUSH1 0x0 KECCAK256 DUP1 SLOAD PUSH1 0x1 DUP3 ADD SLOAD SWAP2 PUSH2 0x4EB PUSH1 0x2 DUP3 ADD PUSH2 0x1A5A JUMP JUMPDEST PUSH2 0x534 PUSH2 0x4FA PUSH1 0x3 DUP5 ADD PUSH2 0x1A5A JUMP JUMPDEST PUSH2 0x526 PUSH1 0x5 PUSH1 0x4 DUP7 ADD SLOAD SWAP6 ADD SLOAD SWAP4 PUSH1 0x40 MLOAD SWAP8 DUP9 SWAP8 DUP9 MSTORE PUSH1 0x20 DUP9 ADD MSTORE PUSH1 0xC0 PUSH1 0x40 DUP9 ADD MSTORE PUSH1 0xC0 DUP8 ADD SWAP1 PUSH2 0x1937 JUMP JUMPDEST SWAP1 DUP6 DUP3 SUB PUSH1 0x60 DUP8 ADD MSTORE PUSH2 0x1937 JUMP JUMPDEST SWAP2 PUSH1 0x80 DUP5 ADD MSTORE PUSH1 0xA0 DUP4 ADD MSTORE SUB SWAP1 RETURN JUMPDEST CALLVALUE PUSH2 0x1B5 JUMPI PUSH1 0x40 CALLDATASIZE PUSH1 0x3 NOT ADD SLT PUSH2 0x1B5 JUMPI PUSH1 0x20 PUSH2 0x56A PUSH2 0x561 PUSH2 0x1879 JUMP JUMPDEST PUSH1 0x24 CALLDATALOAD SWAP1 PUSH2 0x1B58 JUMP JUMPDEST ISZERO ISZERO PUSH1 0x40 MLOAD SWAP1 DUP2 MSTORE RETURN JUMPDEST CALLVALUE PUSH2 0x1B5 JUMPI PUSH1 0x40 CALLDATASIZE PUSH1 0x3 NOT ADD SLT PUSH2 0x1B5 JUMPI PUSH1 0x4 CALLDATALOAD PUSH1 0x0 MSTORE PUSH1 0x8 PUSH1 0x20 MSTORE PUSH1 0x40 PUSH1 0x0 KECCAK256 PUSH1 0x24 CALLDATALOAD PUSH1 0x0 MSTORE PUSH1 0x20 MSTORE PUSH1 0x20 PUSH1 0xFF PUSH1 0x40 PUSH1 0x0 KECCAK256 SLOAD AND PUSH1 0x40 MLOAD SWAP1 ISZERO ISZERO DUP2 MSTORE RETURN JUMPDEST CALLVALUE PUSH2 0x1B5 JUMPI PUSH1 0x40 CALLDATASIZE PUSH1 0x3 NOT ADD SLT PUSH2 0x1B5 JUMPI PUSH2 0x5CC PUSH2 0x1879 JUMP JUMPDEST PUSH1 0x24 CALLDATALOAD SWAP1 DUP2 ISZERO ISZERO DUP1 SWAP3 SUB PUSH2 0x1B5 JUMPI PUSH1 0x1 PUSH1 0x1 PUSH1 0xA0 SHL SUB AND SWAP1 CALLER DUP3 EQ PUSH2 0x640 JUMPI CALLER PUSH1 0x0 MSTORE PUSH1 0x1 PUSH1 0x20 MSTORE PUSH1 0x40 PUSH1 0x0 KECCAK256 DUP3 PUSH1 0x0 MSTORE PUSH1 0x20 MSTORE PUSH1 0x40 PUSH1 0x0 KECCAK256 PUSH1 0xFF NOT DUP2 SLOAD AND PUSH1 0xFF DUP4 AND OR SWAP1 SSTORE PUSH1 0x40 MLOAD SWAP1 DUP2 MSTORE PUSH32 0x17307EAB39AB6107E8899845AD3D59BD9653F200F220920489CA2B5937696C31 PUSH1 0x20 CALLER SWAP3 LOG3 STOP JUMPDEST PUSH1 0x40 MLOAD PUSH3 0x461BCD PUSH1 0xE5 SHL DUP2 MSTORE PUSH1 0x20 PUSH1 0x4 DUP3 ADD MSTORE PUSH1 0x29 PUSH1 0x24 DUP3 ADD MSTORE PUSH32 0x455243313135353A2073657474696E6720617070726F76616C20737461747573 PUSH1 0x44 DUP3 ADD MSTORE PUSH9 0x103337B91039B2B633 PUSH1 0xB9 SHL PUSH1 0x64 DUP3 ADD MSTORE PUSH1 0x84 SWAP1 REVERT JUMPDEST CALLVALUE PUSH2 0x1B5 JUMPI PUSH1 0x0 CALLDATASIZE PUSH1 0x3 NOT ADD SLT PUSH2 0x1B5 JUMPI PUSH1 0x5 SLOAD PUSH1 0x40 MLOAD PUSH1 0x1 PUSH1 0x1 PUSH1 0xA0 SHL SUB SWAP1 SWAP2 AND DUP2 MSTORE PUSH1 0x20 SWAP1 RETURN JUMPDEST CALLVALUE PUSH2 0x1B5 JUMPI PUSH1 0x0 CALLDATASIZE PUSH1 0x3 NOT ADD SLT PUSH2 0x1B5 JUMPI PUSH1 0x3 SLOAD PUSH1 0x40 MLOAD PUSH1 0x1 PUSH1 0x1 PUSH1 0xA0 SHL SUB SWAP1 SWAP2 AND DUP2 MSTORE PUSH1 0x20 SWAP1 RETURN JUMPDEST CALLVALUE PUSH2 0x1B5 JUMPI PUSH1 0x0 CALLDATASIZE PUSH1 0x3 NOT ADD SLT PUSH2 0x1B5 JUMPI PUSH2 0x702 PUSH2 0x1B00 JUMP JUMPDEST PUSH1 0x3 DUP1 SLOAD PUSH1 0x1 PUSH1 0x1 PUSH1 0xA0 SHL SUB NOT DUP2 AND SWAP1 SWAP2 SSTORE PUSH1 0x0 SWAP1 PUSH1 0x1 PUSH1 0x1 PUSH1 0xA0 SHL SUB AND PUSH32 0x8BE0079C531659141344CD1FD0A4F28419497F9722A3DAAFE3B4186F6B6457E0 DUP3 DUP1 LOG3 STOP JUMPDEST CALLVALUE PUSH2 0x1B5 JUMPI PUSH1 0x20 DUP1 PUSH1 0x3 NOT CALLDATASIZE ADD SLT PUSH2 0x1B5 JUMPI PUSH1 0x4 CALLDATALOAD PUSH1 0x0 PUSH1 0xA0 PUSH1 0x40 MLOAD PUSH2 0x76B DUP2 PUSH2 0x18A5 JUMP JUMPDEST DUP3 DUP2 MSTORE DUP3 DUP6 DUP3 ADD MSTORE PUSH1 0x60 PUSH1 0x40 DUP3 ADD MSTORE PUSH1 0x60 DUP1 DUP3 ADD MSTORE DUP3 PUSH1 0x80 DUP3 ADD MSTORE ADD MSTORE DUP1 ISZERO ISZERO DUP1 PUSH2 0x852 JUMPI JUMPDEST PUSH2 0x79A SWAP1 PUSH2 0x1E8E JUMP JUMPDEST PUSH1 0x0 MSTORE PUSH1 0x7 DUP2 MSTORE PUSH1 0x40 PUSH1 0x0 KECCAK256 PUSH1 0x40 MLOAD SWAP1 PUSH2 0x7B3 DUP3 PUSH2 0x18A5 JUMP JUMPDEST DUP1 SLOAD DUP3 MSTORE PUSH1 0x1 DUP2 ADD SLOAD DUP4 DUP4 ADD SWAP1 DUP2 MSTORE PUSH2 0x841 PUSH2 0x7D1 PUSH1 0x2 DUP5 ADD PUSH2 0x1A5A JUMP JUMPDEST PUSH1 0x40 DUP6 ADD SWAP1 DUP2 MSTORE PUSH2 0x82E PUSH2 0x7E7 PUSH1 0x3 DUP7 ADD PUSH2 0x1A5A JUMP JUMPDEST SWAP2 PUSH1 0x60 DUP8 ADD SWAP3 DUP4 MSTORE PUSH1 0x5 PUSH1 0x4 DUP8 ADD SLOAD SWAP7 PUSH1 0x80 DUP10 ADD SWAP8 DUP9 MSTORE ADD SLOAD SWAP5 PUSH1 0xA0 DUP9 ADD SWAP6 DUP7 MSTORE PUSH1 0x40 MLOAD SWAP9 DUP10 SWAP9 DUP2 DUP11 MSTORE MLOAD SWAP1 DUP10 ADD MSTORE MLOAD PUSH1 0x40 DUP9 ADD MSTORE MLOAD PUSH1 0xC0 PUSH1 0x60 DUP9 ADD MSTORE PUSH1 0xE0 DUP8 ADD SWAP1 PUSH2 0x1937 JUMP JUMPDEST SWAP1 MLOAD DUP6 DUP3 SUB PUSH1 0x1F NOT ADD PUSH1 0x80 DUP8 ADD MSTORE PUSH2 0x1937 JUMP JUMPDEST SWAP2 MLOAD PUSH1 0xA0 DUP5 ADD MSTORE MLOAD PUSH1 0xC0 DUP4 ADD MSTORE SUB SWAP1 RETURN JUMPDEST POP PUSH1 0x6 SLOAD DUP2 GT ISZERO PUSH2 0x791 JUMP JUMPDEST CALLVALUE PUSH2 0x1B5 JUMPI PUSH1 0x40 CALLDATASIZE PUSH1 0x3 NOT ADD SLT PUSH2 0x1B5 JUMPI PUSH1 0x4 CALLDATALOAD PUSH1 0x1 PUSH1 0x1 PUSH1 0x40 SHL SUB DUP1 DUP3 GT PUSH2 0x1B5 JUMPI CALLDATASIZE PUSH1 0x23 DUP4 ADD SLT ISZERO PUSH2 0x1B5 JUMPI DUP2 PUSH1 0x4 ADD CALLDATALOAD SWAP1 PUSH2 0x89B DUP3 PUSH2 0x1977 JUMP JUMPDEST SWAP3 PUSH2 0x8A9 PUSH1 0x40 MLOAD SWAP5 DUP6 PUSH2 0x18C0 JUMP JUMPDEST DUP3 DUP5 MSTORE PUSH1 0x20 SWAP3 PUSH1 0x24 DUP5 DUP7 ADD SWAP2 PUSH1 0x5 SHL DUP4 ADD ADD SWAP2 CALLDATASIZE DUP4 GT PUSH2 0x1B5 JUMPI PUSH1 0x24 ADD SWAP1 JUMPDEST DUP3 DUP3 LT PUSH2 0x9E1 JUMPI POP POP POP PUSH1 0x24 CALLDATALOAD SWAP1 DUP2 GT PUSH2 0x1B5 JUMPI PUSH2 0x8EA SWAP1 CALLDATASIZE SWAP1 PUSH1 0x4 ADD PUSH2 0x198E JUMP JUMPDEST DUP3 MLOAD DUP2 MLOAD SUB PUSH2 0x98A JUMPI DUP3 MLOAD SWAP3 PUSH2 0x8FF DUP5 PUSH2 0x1977 JUMP JUMPDEST SWAP4 PUSH2 0x90D PUSH1 0x40 MLOAD SWAP6 DUP7 PUSH2 0x18C0 JUMP JUMPDEST DUP1 DUP6 MSTORE PUSH2 0x91C PUSH1 0x1F NOT SWAP2 PUSH2 0x1977 JUMP JUMPDEST ADD CALLDATASIZE DUP5 DUP7 ADD CALLDATACOPY PUSH1 0x0 JUMPDEST DUP2 MLOAD DUP2 LT ISZERO PUSH2 0x96F JUMPI PUSH2 0x96A SWAP1 PUSH2 0x95A PUSH1 0x1 PUSH1 0x1 PUSH1 0xA0 SHL SUB PUSH2 0x947 DUP4 DUP7 PUSH2 0x1C02 JUMP JUMPDEST MLOAD AND PUSH2 0x953 DUP4 DUP8 PUSH2 0x1C02 JUMP JUMPDEST MLOAD SWAP1 PUSH2 0x1B58 JUMP JUMPDEST PUSH2 0x964 DUP3 DUP9 PUSH2 0x1C02 JUMP JUMPDEST MSTORE PUSH2 0x1BDD JUMP JUMPDEST PUSH2 0x925 JUMP JUMPDEST POP POP POP PUSH2 0x986 PUSH1 0x40 MLOAD SWAP3 DUP3 DUP5 SWAP4 DUP5 MSTORE DUP4 ADD SWAP1 PUSH2 0x19EC JUMP JUMPDEST SUB SWAP1 RETURN JUMPDEST PUSH1 0x40 MLOAD PUSH3 0x461BCD PUSH1 0xE5 SHL DUP2 MSTORE PUSH1 0x4 DUP2 ADD DUP4 SWAP1 MSTORE PUSH1 0x29 PUSH1 0x24 DUP3 ADD MSTORE PUSH32 0x455243313135353A206163636F756E747320616E6420696473206C656E677468 PUSH1 0x44 DUP3 ADD MSTORE PUSH9 0x40DAD2E6DAC2E8C6D PUSH1 0xBB SHL PUSH1 0x64 DUP3 ADD MSTORE PUSH1 0x84 SWAP1 REVERT JUMPDEST DUP2 CALLDATALOAD PUSH1 0x1 PUSH1 0x1 PUSH1 0xA0 SHL SUB DUP2 AND DUP2 SUB PUSH2 0x1B5 JUMPI DUP2 MSTORE SWAP1 DUP5 ADD SWAP1 DUP5 ADD PUSH2 0x8C8 JUMP JUMPDEST CALLVALUE PUSH2 0x1B5 JUMPI PUSH1 0x60 CALLDATASIZE PUSH1 0x3 NOT ADD SLT PUSH2 0x1B5 JUMPI PUSH1 0x4 CALLDATALOAD PUSH1 0x1 PUSH1 0x1 PUSH1 0x40 SHL SUB DUP2 GT PUSH2 0x1B5 JUMPI PUSH2 0xA30 SWAP1 CALLDATASIZE SWAP1 PUSH1 0x4 ADD PUSH2 0x18E1 JUMP JUMPDEST PUSH1 0x24 CALLDATALOAD PUSH1 0x1 PUSH1 0x1 PUSH1 0x40 SHL SUB DUP2 GT PUSH2 0x1B5 JUMPI PUSH2 0xA4F SWAP1 CALLDATASIZE SWAP1 PUSH1 0x4 ADD PUSH2 0x18E1 JUMP JUMPDEST PUSH1 0x5 SLOAD PUSH1 0x40 MLOAD PUSH4 0xFB23B20B PUSH1 0xE0 SHL DUP1 DUP3 MSTORE CALLER PUSH1 0x4 DUP4 ADD MSTORE PUSH1 0x1 PUSH1 0x1 PUSH1 0xA0 SHL SUB SWAP1 SWAP3 AND SWAP2 SWAP1 PUSH1 0x20 DUP2 PUSH1 0x24 DUP2 DUP7 GAS STATICCALL SWAP1 DUP2 ISZERO PUSH2 0xE6B JUMPI PUSH1 0x0 SWAP2 PUSH2 0xF7E JUMPI JUMPDEST POP ISZERO PUSH2 0xF39 JUMPI DUP4 MLOAD ISZERO PUSH2 0xF01 JUMPI DUP3 MLOAD ISZERO PUSH2 0xEBC JUMPI PUSH1 0x44 CALLDATALOAD ISZERO PUSH2 0xE77 JUMPI PUSH1 0x20 SWAP1 PUSH1 0x24 PUSH1 0x40 MLOAD DUP1 SWAP5 DUP2 SWAP4 DUP3 MSTORE CALLER PUSH1 0x4 DUP4 ADD MSTORE GAS STATICCALL SWAP1 DUP2 ISZERO PUSH2 0xE6B JUMPI PUSH1 0x0 SWAP2 PUSH2 0xE39 JUMPI JUMPDEST POP PUSH1 0x1 PUSH1 0x6 SLOAD ADD SWAP2 DUP3 PUSH1 0x6 SSTORE PUSH1 0x40 MLOAD PUSH2 0xAE4 DUP2 PUSH2 0x18A5 JUMP JUMPDEST DUP4 DUP2 MSTORE PUSH1 0x20 DUP2 ADD SWAP2 DUP4 DUP4 MSTORE PUSH1 0x40 DUP3 ADD SWAP1 DUP7 DUP3 MSTORE PUSH1 0x60 DUP4 ADD MSTORE PUSH1 0x44 CALLDATALOAD PUSH1 0x80 DUP4 ADD MSTORE TIMESTAMP PUSH1 0xA0 DUP4 ADD MSTORE DUP5 PUSH1 0x0 MSTORE PUSH1 0x7 PUSH1 0x20 MSTORE PUSH1 0x40 PUSH1 0x0 KECCAK256 SWAP3 DUP3 MLOAD DUP5 SSTORE MLOAD PUSH1 0x1 DUP5 ADD SSTORE MLOAD DUP1 MLOAD SWAP1 PUSH1 0x1 PUSH1 0x1 PUSH1 0x40 SHL SUB DUP3 GT PUSH2 0xD53 JUMPI DUP2 SWAP1 PUSH2 0xB44 PUSH1 0x2 DUP7 ADD SLOAD PUSH2 0x1A20 JUMP JUMPDEST PUSH1 0x1F DUP2 GT PUSH2 0xDE6 JUMPI JUMPDEST POP PUSH1 0x20 SWAP1 PUSH1 0x1F DUP4 GT PUSH1 0x1 EQ PUSH2 0xD74 JUMPI PUSH1 0x0 SWAP3 PUSH2 0xD69 JUMPI JUMPDEST POP POP DUP2 PUSH1 0x1 SHL SWAP2 PUSH1 0x0 NOT SWAP1 PUSH1 0x3 SHL SHR NOT AND OR PUSH1 0x2 DUP4 ADD SSTORE JUMPDEST PUSH1 0x60 DUP2 ADD MLOAD DUP1 MLOAD SWAP1 PUSH1 0x1 PUSH1 0x1 PUSH1 0x40 SHL SUB DUP3 GT PUSH2 0xD53 JUMPI PUSH2 0xB9F PUSH1 0x3 DUP6 ADD SLOAD PUSH2 0x1A20 JUMP JUMPDEST PUSH1 0x1F DUP2 GT PUSH2 0xD0C JUMPI JUMPDEST POP SWAP2 DUP6 SWAP4 SWAP2 PUSH1 0x20 SWAP8 SWAP4 DUP9 SWAP1 PUSH1 0x1F DUP4 GT PUSH1 0x1 EQ PUSH2 0xC70 JUMPI PUSH32 0x4BAF285BF2D939E1E30F6ADDBF03315085042274C5703FC126A1DDE8AE20FE3A SWAP6 SWAP4 DUP4 PUSH2 0xC53 SWAP7 SWAP5 PUSH1 0x5 SWAP5 PUSH1 0xA0 SWAP5 PUSH1 0x0 SWAP3 PUSH2 0xC65 JUMPI JUMPDEST POP POP DUP2 PUSH1 0x1 SHL SWAP2 PUSH1 0x0 NOT SWAP1 PUSH1 0x3 SHL SHR NOT AND OR PUSH1 0x3 DUP6 ADD SSTORE JUMPDEST PUSH1 0x80 DUP2 ADD MLOAD PUSH1 0x4 DUP6 ADD SSTORE ADD MLOAD SWAP2 ADD SSTORE DUP5 PUSH1 0x0 MSTORE PUSH1 0x8 DUP8 MSTORE PUSH1 0x40 PUSH1 0x0 KECCAK256 DUP5 PUSH1 0x0 MSTORE DUP8 MSTORE PUSH1 0x40 PUSH1 0x0 KECCAK256 PUSH1 0x1 PUSH1 0xFF NOT DUP3 SLOAD AND OR SWAP1 SSTORE PUSH1 0x40 MLOAD SWAP2 DUP3 SWAP2 PUSH1 0x40 DUP4 MSTORE PUSH1 0x40 DUP4 ADD SWAP1 PUSH2 0x1937 JUMP JUMPDEST PUSH1 0x44 CALLDATALOAD DUP9 DUP4 ADD MSTORE SUB SWAP1 LOG3 PUSH1 0x40 MLOAD SWAP1 DUP2 MSTORE RETURN JUMPDEST ADD MLOAD SWAP1 POP DUP14 DUP1 PUSH2 0xBF5 JUMP JUMPDEST SWAP1 PUSH1 0x3 DUP6 ADD PUSH1 0x0 MSTORE DUP10 PUSH1 0x0 KECCAK256 SWAP2 PUSH1 0x0 JUMPDEST PUSH1 0x1F NOT DUP6 AND DUP2 LT PUSH2 0xCF2 JUMPI POP SWAP4 PUSH1 0x1 DUP5 PUSH1 0x5 SWAP5 PUSH1 0xA0 SWAP5 PUSH32 0x4BAF285BF2D939E1E30F6ADDBF03315085042274C5703FC126A1DDE8AE20FE3A SWAP11 SWAP9 PUSH2 0xC53 SWAP11 SWAP9 PUSH1 0x1F NOT DUP2 AND LT PUSH2 0xCD9 JUMPI JUMPDEST POP POP POP DUP2 SHL ADD PUSH1 0x3 DUP6 ADD SSTORE PUSH2 0xC0D JUMP JUMPDEST ADD MLOAD PUSH1 0x0 NOT PUSH1 0xF8 DUP5 PUSH1 0x3 SHL AND SHR NOT AND SWAP1 SSTORE DUP14 DUP1 DUP1 PUSH2 0xCC9 JUMP JUMPDEST DUP2 DUP4 ADD MLOAD DUP5 SSTORE DUP11 SWAP9 POP PUSH1 0x1 SWAP1 SWAP4 ADD SWAP3 SWAP2 DUP12 ADD SWAP2 DUP12 ADD PUSH2 0xC80 JUMP JUMPDEST PUSH1 0x3 DUP6 ADD PUSH1 0x0 MSTORE PUSH1 0x20 PUSH1 0x0 KECCAK256 PUSH1 0x1F DUP5 ADD PUSH1 0x5 SHR DUP2 ADD PUSH1 0x20 DUP6 LT PUSH2 0xD4C JUMPI JUMPDEST PUSH1 0x1F DUP4 ADD PUSH1 0x5 SHR DUP3 ADD DUP2 LT PUSH2 0xD40 JUMPI POP POP PUSH2 0xBA8 JUMP JUMPDEST PUSH1 0x0 DUP2 SSTORE PUSH1 0x1 ADD PUSH2 0xD2A JUMP JUMPDEST POP DUP1 PUSH2 0xD2A JUMP JUMPDEST PUSH4 0x4E487B71 PUSH1 0xE0 SHL PUSH1 0x0 MSTORE PUSH1 0x41 PUSH1 0x4 MSTORE PUSH1 0x24 PUSH1 0x0 REVERT JUMPDEST ADD MLOAD SWAP1 POP DUP8 DUP1 PUSH2 0xB64 JUMP JUMPDEST SWAP3 POP PUSH1 0x2 DUP6 ADD PUSH1 0x0 MSTORE PUSH1 0x20 PUSH1 0x0 KECCAK256 SWAP1 PUSH1 0x0 SWAP4 JUMPDEST PUSH1 0x1F NOT DUP5 AND DUP6 LT PUSH2 0xDCB JUMPI PUSH1 0x1 SWAP5 POP DUP4 PUSH1 0x1F NOT DUP2 AND LT PUSH2 0xDB2 JUMPI JUMPDEST POP POP POP DUP2 SHL ADD PUSH1 0x2 DUP4 ADD SSTORE PUSH2 0xB7C JUMP JUMPDEST ADD MLOAD PUSH1 0x0 NOT PUSH1 0xF8 DUP5 PUSH1 0x3 SHL AND SHR NOT AND SWAP1 SSTORE DUP8 DUP1 DUP1 PUSH2 0xDA2 JUMP JUMPDEST DUP2 DUP2 ADD MLOAD DUP4 SSTORE PUSH1 0x20 SWAP5 DUP6 ADD SWAP5 PUSH1 0x1 SWAP1 SWAP4 ADD SWAP3 SWAP1 SWAP2 ADD SWAP1 PUSH2 0xD87 JUMP JUMPDEST SWAP1 SWAP2 POP PUSH1 0x2 DUP6 ADD PUSH1 0x0 MSTORE PUSH1 0x20 PUSH1 0x0 KECCAK256 PUSH1 0x1F DUP5 ADD PUSH1 0x5 SHR DUP2 ADD PUSH1 0x20 DUP6 LT PUSH2 0xE32 JUMPI JUMPDEST SWAP1 DUP5 SWAP4 SWAP3 SWAP2 JUMPDEST PUSH1 0x1F DUP4 ADD PUSH1 0x5 SHR DUP3 ADD DUP2 LT PUSH2 0xE23 JUMPI POP POP PUSH2 0xB4D JUMP JUMPDEST PUSH1 0x0 DUP2 SSTORE DUP6 SWAP5 POP PUSH1 0x1 ADD PUSH2 0xE0D JUMP JUMPDEST POP DUP1 PUSH2 0xE07 JUMP JUMPDEST SWAP1 POP PUSH1 0x20 DUP2 RETURNDATASIZE PUSH1 0x20 GT PUSH2 0xE63 JUMPI JUMPDEST DUP2 PUSH2 0xE54 PUSH1 0x20 SWAP4 DUP4 PUSH2 0x18C0 JUMP JUMPDEST DUP2 ADD SUB SLT PUSH2 0x1B5 JUMPI MLOAD DUP4 PUSH2 0xACC JUMP JUMPDEST RETURNDATASIZE SWAP2 POP PUSH2 0xE47 JUMP JUMPDEST PUSH1 0x40 MLOAD RETURNDATASIZE PUSH1 0x0 DUP3 RETURNDATACOPY RETURNDATASIZE SWAP1 REVERT JUMPDEST PUSH1 0x40 MLOAD PUSH3 0x461BCD PUSH1 0xE5 SHL DUP2 MSTORE PUSH1 0x20 PUSH1 0x4 DUP3 ADD MSTORE PUSH1 0x1F PUSH1 0x24 DUP3 ADD MSTORE PUSH32 0x5072696365206D7573742062652067726561746572207468616E207A65726F00 PUSH1 0x44 DUP3 ADD MSTORE PUSH1 0x64 SWAP1 REVERT JUMPDEST PUSH1 0x40 MLOAD PUSH3 0x461BCD PUSH1 0xE5 SHL DUP2 MSTORE PUSH1 0x20 PUSH1 0x4 DUP3 ADD MSTORE PUSH1 0x18 PUSH1 0x24 DUP3 ADD MSTORE PUSH32 0x4D65746164617461205552492069732072657175697265640000000000000000 PUSH1 0x44 DUP3 ADD MSTORE PUSH1 0x64 SWAP1 REVERT JUMPDEST PUSH1 0x40 MLOAD PUSH3 0x461BCD PUSH1 0xE5 SHL DUP2 MSTORE PUSH1 0x20 PUSH1 0x4 DUP3 ADD MSTORE PUSH1 0x10 PUSH1 0x24 DUP3 ADD MSTORE PUSH16 0x13985B59481A5CC81C995C5D5A5C9959 PUSH1 0x82 SHL PUSH1 0x44 DUP3 ADD MSTORE PUSH1 0x64 SWAP1 REVERT JUMPDEST PUSH1 0x40 MLOAD PUSH3 0x461BCD PUSH1 0xE5 SHL DUP2 MSTORE PUSH1 0x20 PUSH1 0x4 DUP3 ADD MSTORE PUSH1 0x18 PUSH1 0x24 DUP3 ADD MSTORE PUSH32 0x4E6F74206120726567697374657265642063726561746F720000000000000000 PUSH1 0x44 DUP3 ADD MSTORE PUSH1 0x64 SWAP1 REVERT JUMPDEST SWAP1 POP PUSH1 0x20 DUP2 RETURNDATASIZE PUSH1 0x20 GT PUSH2 0xFA8 JUMPI JUMPDEST DUP2 PUSH2 0xF99 PUSH1 0x20 SWAP4 DUP4 PUSH2 0x18C0 JUMP JUMPDEST DUP2 ADD SUB SLT PUSH2 0x1B5 JUMPI MLOAD DUP6 PUSH2 0xA8B JUMP JUMPDEST RETURNDATASIZE SWAP2 POP PUSH2 0xF8C JUMP JUMPDEST CALLVALUE PUSH2 0x1B5 JUMPI PUSH1 0x3 NOT PUSH1 0xA0 CALLDATASIZE DUP3 ADD SLT PUSH2 0x1B5 JUMPI PUSH2 0xFCA PUSH2 0x1879 JUMP JUMPDEST SWAP1 PUSH2 0xFD3 PUSH2 0x188F JUMP JUMPDEST SWAP1 PUSH1 0x1 PUSH1 0x1 PUSH1 0x40 SHL SUB SWAP1 PUSH1 0x44 CALLDATALOAD DUP3 DUP2 GT PUSH2 0x1B5 JUMPI PUSH2 0xFF5 SWAP1 CALLDATASIZE SWAP1 PUSH1 0x4 ADD PUSH2 0x198E JUMP JUMPDEST PUSH1 0x64 CALLDATALOAD DUP4 DUP2 GT PUSH2 0x1B5 JUMPI PUSH2 0x100D SWAP1 CALLDATASIZE SWAP1 PUSH1 0x4 ADD PUSH2 0x198E JUMP JUMPDEST SWAP3 PUSH1 0x84 CALLDATALOAD SWAP1 DUP2 GT PUSH2 0x1B5 JUMPI PUSH2 0x1026 SWAP1 CALLDATASIZE SWAP1 PUSH1 0x4 ADD PUSH2 0x18E1 JUMP JUMPDEST PUSH1 0x1 PUSH1 0x1 PUSH1 0xA0 SHL SUB SWAP6 DUP7 AND SWAP6 SWAP1 SWAP3 SWAP1 CALLER DUP8 EQ DUP1 ISZERO PUSH2 0x12B1 JUMPI JUMPDEST PUSH2 0x1048 SWAP1 PUSH2 0x1C2C JUMP JUMPDEST DUP3 MLOAD DUP6 MLOAD SUB PUSH2 0x125B JUMPI DUP6 AND SWAP3 PUSH2 0x105F DUP5 ISZERO ISZERO PUSH2 0x1C8F JUMP JUMPDEST PUSH1 0x0 JUMPDEST DUP4 MLOAD DUP2 LT ISZERO PUSH2 0x10F8 JUMPI DUP1 PUSH2 0x1079 PUSH2 0x10F3 SWAP3 DUP7 PUSH2 0x1C02 JUMP JUMPDEST MLOAD PUSH2 0x1084 DUP3 DUP10 PUSH2 0x1C02 JUMP JUMPDEST MLOAD SWAP1 DUP1 PUSH1 0x0 MSTORE PUSH1 0x20 SWAP1 PUSH1 0x0 DUP3 MSTORE PUSH1 0x40 PUSH1 0x0 KECCAK256 DUP13 PUSH1 0x0 MSTORE DUP3 MSTORE DUP3 PUSH1 0x40 PUSH1 0x0 KECCAK256 SLOAD PUSH2 0x10AF DUP3 DUP3 LT ISZERO PUSH2 0x1CE9 JUMP JUMPDEST DUP3 PUSH1 0x0 MSTORE PUSH1 0x0 DUP5 MSTORE DUP14 PUSH1 0x40 PUSH1 0x0 KECCAK256 SWAP1 PUSH1 0x0 MSTORE DUP5 MSTORE SUB PUSH1 0x40 PUSH1 0x0 KECCAK256 SSTORE PUSH1 0x0 MSTORE PUSH1 0x0 DUP2 MSTORE PUSH1 0x40 PUSH1 0x0 KECCAK256 SWAP1 DUP9 PUSH1 0x0 MSTORE MSTORE PUSH2 0x10EC PUSH1 0x40 PUSH1 0x0 KECCAK256 SWAP2 DUP3 SLOAD PUSH2 0x1D48 JUMP JUMPDEST SWAP1 SSTORE PUSH2 0x1BDD JUMP JUMPDEST PUSH2 0x1062 JUMP JUMPDEST POP SWAP1 SWAP5 SWAP4 SWAP3 SWAP2 SWAP4 DUP3 DUP8 PUSH1 0x40 MLOAD PUSH1 0x40 DUP2 MSTORE PUSH32 0x4A39DC06D4C0DBC64B70AF90FD698A233A518AA5D07E595D983B8C0526C8F7FB PUSH2 0x1136 PUSH1 0x40 DUP4 ADD DUP11 PUSH2 0x19EC JUMP JUMPDEST SWAP2 DUP1 DUP4 SUB PUSH1 0x20 DUP3 ADD MSTORE DUP1 PUSH2 0x114B CALLER SWAP5 DUP12 PUSH2 0x19EC JUMP JUMPDEST SUB SWAP1 LOG4 EXTCODESIZE PUSH2 0x1155 JUMPI STOP JUMPDEST PUSH1 0x0 PUSH1 0x20 SWAP5 PUSH2 0x11B6 PUSH2 0x11A7 SWAP8 PUSH2 0x1197 SWAP5 PUSH1 0x40 MLOAD SWAP10 DUP11 SWAP9 DUP10 SWAP8 DUP9 SWAP7 PUSH4 0xBC197C81 PUSH1 0xE0 SHL SWAP15 DUP16 DUP10 MSTORE CALLER PUSH1 0x4 DUP11 ADD MSTORE PUSH1 0x24 DUP10 ADD MSTORE PUSH1 0xA0 PUSH1 0x44 DUP10 ADD MSTORE PUSH1 0xA4 DUP9 ADD SWAP1 PUSH2 0x19EC JUMP JUMPDEST SWAP1 DUP5 DUP8 DUP4 SUB ADD PUSH1 0x64 DUP9 ADD MSTORE PUSH2 0x19EC JUMP JUMPDEST SWAP2 DUP5 DUP4 SUB ADD PUSH1 0x84 DUP6 ADD MSTORE PUSH2 0x1937 JUMP JUMPDEST SUB SWAP3 GAS CALL PUSH1 0x0 SWAP2 DUP2 PUSH2 0x123B JUMPI JUMPDEST POP PUSH2 0x122A JUMPI PUSH2 0x11D0 PUSH2 0x1D75 JUMP JUMPDEST PUSH4 0x8C379A0 EQ PUSH2 0x11F3 JUMPI PUSH1 0x40 MLOAD PUSH3 0x461BCD PUSH1 0xE5 SHL DUP2 MSTORE DUP1 PUSH2 0x366 PUSH1 0x4 DUP3 ADD PUSH2 0x1E04 JUMP JUMPDEST PUSH2 0x11FB PUSH2 0x1D93 JUMP JUMPDEST DUP1 PUSH2 0x1206 JUMPI POP PUSH2 0x34D JUMP JUMPDEST PUSH1 0x40 MLOAD PUSH3 0x461BCD PUSH1 0xE5 SHL DUP2 MSTORE PUSH1 0x20 PUSH1 0x4 DUP3 ADD MSTORE SWAP1 DUP2 SWAP1 PUSH2 0x366 SWAP1 PUSH1 0x24 DUP4 ADD SWAP1 PUSH2 0x1937 JUMP JUMPDEST PUSH1 0x1 PUSH1 0x1 PUSH1 0xE0 SHL SUB NOT AND SUB PUSH2 0x3B2 JUMPI STOP JUMPDEST PUSH2 0x1254 SWAP2 SWAP3 POP PUSH1 0x20 RETURNDATASIZE DUP2 GT PUSH2 0x430 JUMPI PUSH2 0x421 DUP2 DUP4 PUSH2 0x18C0 JUMP JUMPDEST SWAP1 DUP4 PUSH2 0x11C3 JUMP JUMPDEST PUSH1 0x40 MLOAD PUSH3 0x461BCD PUSH1 0xE5 SHL DUP2 MSTORE PUSH1 0x20 PUSH1 0x4 DUP3 ADD MSTORE PUSH1 0x28 PUSH1 0x24 DUP3 ADD MSTORE PUSH32 0x455243313135353A2069647320616E6420616D6F756E7473206C656E67746820 PUSH1 0x44 DUP3 ADD MSTORE PUSH8 0xDAD2E6DAC2E8C6D PUSH1 0xC3 SHL PUSH1 0x64 DUP3 ADD MSTORE PUSH1 0x84 SWAP1 REVERT JUMPDEST POP DUP7 PUSH1 0x0 MSTORE PUSH1 0x1 PUSH1 0x20 MSTORE PUSH1 0x40 PUSH1 0x0 KECCAK256 CALLER PUSH1 0x0 MSTORE PUSH1 0x20 MSTORE PUSH2 0x1048 PUSH1 0xFF PUSH1 0x40 PUSH1 0x0 KECCAK256 SLOAD AND SWAP1 POP PUSH2 0x103F JUMP JUMPDEST CALLVALUE PUSH2 0x1B5 JUMPI PUSH1 0x60 CALLDATASIZE PUSH1 0x3 NOT ADD SLT PUSH2 0x1B5 JUMPI PUSH2 0x12F3 PUSH2 0x1879 JUMP JUMPDEST PUSH1 0x24 SWAP1 DUP2 CALLDATALOAD PUSH1 0x44 CALLDATALOAD SWAP2 PUSH1 0x2 PUSH1 0x4 SLOAD EQ PUSH2 0x15C7 JUMPI PUSH1 0x2 PUSH1 0x4 SSTORE DUP2 ISZERO ISZERO DUP1 PUSH2 0x15BB JUMPI JUMPDEST PUSH2 0x131D SWAP1 PUSH2 0x1E8E JUMP JUMPDEST DUP3 ISZERO PUSH2 0x1577 JUMPI PUSH1 0x40 MLOAD SWAP3 PUSH1 0x20 SWAP4 DUP5 DUP2 ADD DUP2 DUP2 LT PUSH1 0x1 PUSH1 0x1 PUSH1 0x40 SHL SUB DUP3 GT OR PUSH2 0x1562 JUMPI PUSH1 0x40 MSTORE PUSH1 0x0 DUP2 MSTORE PUSH1 0x1 PUSH1 0x1 PUSH1 0xA0 SHL SUB DUP4 AND SWAP3 DUP4 ISZERO PUSH2 0x1514 JUMPI PUSH2 0x1360 DUP6 PUSH2 0x1E59 JUMP JUMPDEST POP PUSH2 0x136A DUP4 PUSH2 0x1E59 JUMP JUMPDEST POP DUP5 PUSH1 0x0 MSTORE PUSH1 0x0 DUP7 MSTORE PUSH1 0x40 PUSH1 0x0 KECCAK256 DUP5 PUSH1 0x0 MSTORE DUP7 MSTORE PUSH1 0x40 PUSH1 0x0 KECCAK256 PUSH2 0x138E DUP5 DUP3 SLOAD PUSH2 0x1D48 JUMP JUMPDEST SWAP1 SSTORE DUP4 PUSH1 0x0 PUSH1 0x40 MLOAD DUP8 DUP2 MSTORE DUP6 DUP10 DUP3 ADD MSTORE PUSH32 0xC3D58168C5AE7397731D063D5BBF3D657854427343F4C083240F7AACAA2D0F62 PUSH1 0x40 CALLER SWAP3 LOG4 EXTCODESIZE PUSH2 0x1403 JUMPI JUMPDEST POP DUP4 PUSH32 0x96234CB3D6C373A1AAA06497A540BC166D4B0359243A088EAF95E21D7253D0BE SWAP2 PUSH1 0x40 MLOAD SWAP1 DUP2 MSTORE LOG3 PUSH1 0x1 PUSH1 0x4 SSTORE PUSH1 0x40 MLOAD PUSH1 0x1 DUP2 MSTORE RETURN JUMPDEST PUSH1 0x40 MLOAD DUP6 DUP2 DUP1 PUSH2 0x1441 PUSH4 0xF23A6E61 PUSH1 0xE0 SHL SWAP6 DUP7 DUP4 MSTORE CALLER PUSH1 0x4 DUP5 ADD MSTORE PUSH1 0x0 DUP13 DUP5 ADD MSTORE DUP10 PUSH1 0x44 DUP5 ADD MSTORE DUP8 PUSH1 0x64 DUP5 ADD MSTORE PUSH1 0xA0 PUSH1 0x84 DUP5 ADD MSTORE PUSH1 0xA4 DUP4 ADD SWAP1 PUSH2 0x1937 JUMP JUMPDEST SUB DUP2 PUSH1 0x0 DUP9 GAS CALL PUSH1 0x0 SWAP2 DUP2 PUSH2 0x14F5 JUMPI JUMPDEST POP PUSH2 0x14B6 JUMPI DUP7 DUP7 PUSH2 0x1460 PUSH2 0x1D75 JUMP JUMPDEST PUSH4 0x8C379A0 EQ PUSH2 0x1483 JUMPI PUSH1 0x40 MLOAD PUSH3 0x461BCD PUSH1 0xE5 SHL DUP2 MSTORE DUP1 PUSH2 0x366 PUSH1 0x4 DUP3 ADD PUSH2 0x1E04 JUMP JUMPDEST PUSH2 0x148B PUSH2 0x1D93 JUMP JUMPDEST DUP1 PUSH2 0x1496 JUMPI POP PUSH2 0x34D JUMP JUMPDEST PUSH2 0x366 SWAP1 PUSH1 0x40 MLOAD SWAP4 DUP5 SWAP4 PUSH3 0x461BCD PUSH1 0xE5 SHL DUP6 MSTORE PUSH1 0x4 DUP6 ADD MSTORE DUP4 ADD SWAP1 PUSH2 0x1937 JUMP JUMPDEST SWAP1 SWAP2 SWAP3 SWAP4 SWAP5 SWAP6 POP PUSH4 0xFFFFFFFF PUSH1 0xE0 SHL AND SUB PUSH2 0x3B2 JUMPI DUP4 SWAP3 SWAP2 SWAP1 PUSH32 0x96234CB3D6C373A1AAA06497A540BC166D4B0359243A088EAF95E21D7253D0BE PUSH2 0x13CA JUMP JUMPDEST PUSH2 0x150D SWAP2 SWAP3 POP DUP8 RETURNDATASIZE DUP10 GT PUSH2 0x430 JUMPI PUSH2 0x421 DUP2 DUP4 PUSH2 0x18C0 JUMP JUMPDEST SWAP1 DUP9 PUSH2 0x1451 JUMP JUMPDEST PUSH1 0x40 MLOAD PUSH3 0x461BCD PUSH1 0xE5 SHL DUP2 MSTORE PUSH1 0x4 DUP2 ADD DUP8 SWAP1 MSTORE PUSH1 0x21 DUP2 DUP10 ADD MSTORE PUSH32 0x455243313135353A206D696E7420746F20746865207A65726F20616464726573 PUSH1 0x44 DUP3 ADD MSTORE PUSH1 0x73 PUSH1 0xF8 SHL PUSH1 0x64 DUP3 ADD MSTORE PUSH1 0x84 SWAP1 REVERT JUMPDEST DUP7 PUSH4 0x4E487B71 PUSH1 0xE0 SHL PUSH1 0x0 MSTORE PUSH1 0x41 PUSH1 0x4 MSTORE PUSH1 0x0 REVERT JUMPDEST PUSH1 0x40 MLOAD PUSH3 0x461BCD PUSH1 0xE5 SHL DUP2 MSTORE PUSH1 0x20 PUSH1 0x4 DUP3 ADD DUP2 SWAP1 MSTORE DUP2 DUP7 ADD MSTORE PUSH32 0x416D6F756E74206D7573742062652067726561746572207468616E207A65726F PUSH1 0x44 DUP3 ADD MSTORE PUSH1 0x64 SWAP1 REVERT JUMPDEST POP PUSH1 0x6 SLOAD DUP3 GT ISZERO PUSH2 0x1314 JUMP JUMPDEST PUSH1 0x40 MLOAD PUSH3 0x461BCD PUSH1 0xE5 SHL DUP2 MSTORE PUSH1 0x20 PUSH1 0x4 DUP3 ADD MSTORE PUSH1 0x1F DUP2 DUP7 ADD MSTORE PUSH32 0x5265656E7472616E637947756172643A207265656E7472616E742063616C6C00 PUSH1 0x44 DUP3 ADD MSTORE PUSH1 0x64 SWAP1 REVERT JUMPDEST CALLVALUE PUSH2 0x1B5 JUMPI PUSH1 0x20 CALLDATASIZE PUSH1 0x3 NOT ADD SLT PUSH2 0x1B5 JUMPI PUSH1 0x4 CALLDATALOAD DUP1 ISZERO ISZERO DUP1 PUSH2 0x1660 JUMPI JUMPDEST PUSH2 0x1631 SWAP1 PUSH2 0x1E8E JUMP JUMPDEST PUSH1 0x0 MSTORE PUSH1 0x7 PUSH1 0x20 MSTORE PUSH2 0x986 PUSH2 0x164C PUSH1 0x3 PUSH1 0x40 PUSH1 0x0 KECCAK256 ADD PUSH2 0x1A5A JUMP JUMPDEST PUSH1 0x40 MLOAD SWAP2 DUP3 SWAP2 PUSH1 0x20 DUP4 MSTORE PUSH1 0x20 DUP4 ADD SWAP1 PUSH2 0x1937 JUMP JUMPDEST POP PUSH1 0x6 SLOAD DUP2 GT ISZERO PUSH2 0x1628 JUMP JUMPDEST CALLVALUE PUSH2 0x1B5 JUMPI PUSH1 0x20 DUP1 PUSH1 0x3 NOT CALLDATASIZE ADD SLT PUSH2 0x1B5 JUMPI PUSH1 0x1 PUSH1 0x1 PUSH1 0x40 SHL SUB PUSH1 0x4 CALLDATALOAD DUP2 DUP2 GT PUSH2 0x1B5 JUMPI PUSH2 0x169E SWAP1 CALLDATASIZE SWAP1 PUSH1 0x4 ADD PUSH2 0x18E1 JUMP JUMPDEST SWAP2 PUSH2 0x16A7 PUSH2 0x1B00 JUMP JUMPDEST DUP3 MLOAD SWAP2 DUP3 GT PUSH2 0xD53 JUMPI PUSH2 0x16BB PUSH1 0x2 SLOAD PUSH2 0x1A20 JUMP JUMPDEST PUSH1 0x1F DUP2 GT PUSH2 0x1781 JUMPI JUMPDEST POP DUP1 PUSH1 0x1F DUP4 GT PUSH1 0x1 EQ PUSH2 0x1700 JUMPI POP DUP2 SWAP3 PUSH1 0x0 SWAP3 PUSH2 0x16F5 JUMPI JUMPDEST POP POP PUSH1 0x0 NOT PUSH1 0x3 DUP4 SWAP1 SHL SHR NOT AND PUSH1 0x1 SWAP2 SWAP1 SWAP2 SHL OR PUSH1 0x2 SSTORE STOP JUMPDEST ADD MLOAD SWAP1 POP DUP3 DUP1 PUSH2 0x16DC JUMP JUMPDEST SWAP1 PUSH1 0x1F NOT DUP4 AND SWAP4 PUSH1 0x2 PUSH1 0x0 MSTORE PUSH32 0x405787FA12A823E0F2B7631CC41B3BA8828B3321CA811111FA75CD3AA3BB5ACE SWAP3 PUSH1 0x0 SWAP1 JUMPDEST DUP7 DUP3 LT PUSH2 0x1769 JUMPI POP POP DUP4 PUSH1 0x1 SWAP6 LT PUSH2 0x1750 JUMPI JUMPDEST POP POP POP DUP2 SHL ADD PUSH1 0x2 SSTORE STOP JUMPDEST ADD MLOAD PUSH1 0x0 NOT PUSH1 0xF8 DUP5 PUSH1 0x3 SHL AND SHR NOT AND SWAP1 SSTORE DUP3 DUP1 DUP1 PUSH2 0x1745 JUMP JUMPDEST DUP1 PUSH1 0x1 DUP6 SWAP7 DUP3 SWAP5 SWAP7 DUP7 ADD MLOAD DUP2 SSTORE ADD SWAP6 ADD SWAP4 ADD SWAP1 PUSH2 0x1732 JUMP JUMPDEST PUSH1 0x2 PUSH1 0x0 MSTORE PUSH32 0x405787FA12A823E0F2B7631CC41B3BA8828B3321CA811111FA75CD3AA3BB5ACE PUSH1 0x1F DUP5 ADD PUSH1 0x5 SHR DUP2 ADD SWAP2 DUP4 DUP6 LT PUSH2 0x17DB JUMPI JUMPDEST PUSH1 0x1F ADD PUSH1 0x5 SHR ADD SWAP1 JUMPDEST DUP2 DUP2 LT PUSH2 0x17CF JUMPI POP PUSH2 0x16C4 JUMP JUMPDEST PUSH1 0x0 DUP2 SSTORE PUSH1 0x1 ADD PUSH2 0x17C2 JUMP JUMPDEST SWAP1 SWAP2 POP DUP2 SWAP1 PUSH2 0x17B9 JUMP JUMPDEST CALLVALUE PUSH2 0x1B5 JUMPI PUSH1 0x20 CALLDATASIZE PUSH1 0x3 NOT ADD SLT PUSH2 0x1B5 JUMPI PUSH1 0x4 CALLDATALOAD PUSH4 0xFFFFFFFF PUSH1 0xE0 SHL DUP2 AND DUP1 SWAP2 SUB PUSH2 0x1B5 JUMPI PUSH1 0x20 SWAP1 PUSH4 0x6CDB3D13 PUSH1 0xE1 SHL DUP2 EQ SWAP1 DUP2 ISZERO PUSH2 0x1842 JUMPI JUMPDEST DUP2 ISZERO PUSH2 0x1831 JUMPI JUMPDEST POP PUSH1 0x40 MLOAD SWAP1 ISZERO ISZERO DUP2 MSTORE RETURN JUMPDEST PUSH4 0x1FFC9A7 PUSH1 0xE0 SHL EQ SWAP1 POP DUP3 PUSH2 0x1826 JUMP JUMPDEST PUSH4 0x3A24D07 PUSH1 0xE2 SHL DUP2 EQ SWAP2 POP PUSH2 0x181F JUMP JUMPDEST CALLVALUE PUSH2 0x1B5 JUMPI PUSH1 0x40 CALLDATASIZE PUSH1 0x3 NOT ADD SLT PUSH2 0x1B5 JUMPI PUSH1 0x20 PUSH2 0x1871 PUSH2 0x561 PUSH2 0x1879 JUMP JUMPDEST PUSH1 0x40 MLOAD SWAP1 DUP2 MSTORE RETURN JUMPDEST PUSH1 0x4 CALLDATALOAD SWAP1 PUSH1 0x1 PUSH1 0x1 PUSH1 0xA0 SHL SUB DUP3 AND DUP3 SUB PUSH2 0x1B5 JUMPI JUMP JUMPDEST PUSH1 0x24 CALLDATALOAD SWAP1 PUSH1 0x1 PUSH1 0x1 PUSH1 0xA0 SHL SUB DUP3 AND DUP3 SUB PUSH2 0x1B5 JUMPI JUMP JUMPDEST PUSH1 0xC0 DUP2 ADD SWAP1 DUP2 LT PUSH1 0x1 PUSH1 0x1 PUSH1 0x40 SHL SUB DUP3 GT OR PUSH2 0xD53 JUMPI PUSH1 0x40 MSTORE JUMP JUMPDEST SWAP1 PUSH1 0x1F DUP1 NOT SWAP2 ADD AND DUP2 ADD SWAP1 DUP2 LT PUSH1 0x1 PUSH1 0x1 PUSH1 0x40 SHL SUB DUP3 GT OR PUSH2 0xD53 JUMPI PUSH1 0x40 MSTORE JUMP JUMPDEST DUP2 PUSH1 0x1F DUP3 ADD SLT ISZERO PUSH2 0x1B5 JUMPI DUP1 CALLDATALOAD SWAP1 PUSH1 0x1 PUSH1 0x1 PUSH1 0x40 SHL SUB DUP3 GT PUSH2 0xD53 JUMPI PUSH1 0x40 MLOAD SWAP3 PUSH2 0x1915 PUSH1 0x1F DUP5 ADD PUSH1 0x1F NOT AND PUSH1 0x20 ADD DUP6 PUSH2 0x18C0 JUMP JUMPDEST DUP3 DUP5 MSTORE PUSH1 0x20 DUP4 DUP4 ADD ADD GT PUSH2 0x1B5 JUMPI DUP2 PUSH1 0x0 SWAP3 PUSH1 0x20 DUP1 SWAP4 ADD DUP4 DUP7 ADD CALLDATACOPY DUP4 ADD ADD MSTORE SWAP1 JUMP JUMPDEST SWAP2 SWAP1 DUP3 MLOAD SWAP3 DUP4 DUP3 MSTORE PUSH1 0x0 JUMPDEST DUP5 DUP2 LT PUSH2 0x1963 JUMPI POP POP DUP3 PUSH1 0x0 PUSH1 0x20 DUP1 SWAP5 SWAP6 DUP5 ADD ADD MSTORE PUSH1 0x1F DUP1 NOT SWAP2 ADD AND ADD ADD SWAP1 JUMP JUMPDEST PUSH1 0x20 DUP2 DUP4 ADD DUP2 ADD MLOAD DUP5 DUP4 ADD DUP3 ADD MSTORE ADD PUSH2 0x1942 JUMP JUMPDEST PUSH1 0x1 PUSH1 0x1 PUSH1 0x40 SHL SUB DUP2 GT PUSH2 0xD53 JUMPI PUSH1 0x5 SHL PUSH1 0x20 ADD SWAP1 JUMP JUMPDEST DUP2 PUSH1 0x1F DUP3 ADD SLT ISZERO PUSH2 0x1B5 JUMPI DUP1 CALLDATALOAD SWAP2 PUSH2 0x19A5 DUP4 PUSH2 0x1977 JUMP JUMPDEST SWAP3 PUSH2 0x19B3 PUSH1 0x40 MLOAD SWAP5 DUP6 PUSH2 0x18C0 JUMP JUMPDEST DUP1 DUP5 MSTORE PUSH1 0x20 SWAP3 DUP4 DUP1 DUP7 ADD SWAP3 PUSH1 0x5 SHL DUP3 ADD ADD SWAP3 DUP4 GT PUSH2 0x1B5 JUMPI DUP4 ADD SWAP1 JUMPDEST DUP3 DUP3 LT PUSH2 0x19DD JUMPI POP POP POP POP SWAP1 JUMP JUMPDEST DUP2 CALLDATALOAD DUP2 MSTORE SWAP1 DUP4 ADD SWAP1 DUP4 ADD PUSH2 0x19CF JUMP JUMPDEST SWAP1 DUP2 MLOAD DUP1 DUP3 MSTORE PUSH1 0x20 DUP1 DUP1 SWAP4 ADD SWAP4 ADD SWAP2 PUSH1 0x0 JUMPDEST DUP3 DUP2 LT PUSH2 0x1A0C JUMPI POP POP POP POP SWAP1 JUMP JUMPDEST DUP4 MLOAD DUP6 MSTORE SWAP4 DUP2 ADD SWAP4 SWAP3 DUP2 ADD SWAP3 PUSH1 0x1 ADD PUSH2 0x19FE JUMP JUMPDEST SWAP1 PUSH1 0x1 DUP3 DUP2 SHR SWAP3 AND DUP1 ISZERO PUSH2 0x1A50 JUMPI JUMPDEST PUSH1 0x20 DUP4 LT EQ PUSH2 0x1A3A JUMPI JUMP JUMPDEST PUSH4 0x4E487B71 PUSH1 0xE0 SHL PUSH1 0x0 MSTORE PUSH1 0x22 PUSH1 0x4 MSTORE PUSH1 0x24 PUSH1 0x0 REVERT JUMPDEST SWAP2 PUSH1 0x7F AND SWAP2 PUSH2 0x1A2F JUMP JUMPDEST SWAP1 PUSH1 0x40 MLOAD SWAP2 DUP3 PUSH1 0x0 DUP3 SLOAD SWAP3 PUSH2 0x1A6E DUP5 PUSH2 0x1A20 JUMP JUMPDEST SWAP1 DUP2 DUP5 MSTORE PUSH1 0x1 SWAP5 DUP6 DUP2 AND SWAP1 DUP2 PUSH1 0x0 EQ PUSH2 0x1ADD JUMPI POP PUSH1 0x1 EQ PUSH2 0x1A9A JUMPI JUMPDEST POP POP PUSH2 0x1A98 SWAP3 POP SUB DUP4 PUSH2 0x18C0 JUMP JUMPDEST JUMP JUMPDEST SWAP1 SWAP4 SWAP2 POP PUSH1 0x0 MSTORE PUSH1 0x20 SWAP1 DUP2 PUSH1 0x0 KECCAK256 SWAP4 PUSH1 0x0 SWAP2 JUMPDEST DUP2 DUP4 LT PUSH2 0x1AC5 JUMPI POP POP PUSH2 0x1A98 SWAP4 POP DUP3 ADD ADD CODESIZE DUP1 PUSH2 0x1A8A JUMP JUMPDEST DUP6 SLOAD DUP9 DUP5 ADD DUP6 ADD MSTORE SWAP5 DUP6 ADD SWAP5 DUP8 SWAP5 POP SWAP2 DUP4 ADD SWAP2 PUSH2 0x1AAD JUMP JUMPDEST SWAP2 POP POP PUSH2 0x1A98 SWAP5 POP PUSH1 0x20 SWAP3 POP PUSH1 0xFF NOT AND DUP3 DUP5 ADD MSTORE ISZERO ISZERO PUSH1 0x5 SHL DUP3 ADD ADD CODESIZE DUP1 PUSH2 0x1A8A JUMP JUMPDEST PUSH1 0x3 SLOAD PUSH1 0x1 PUSH1 0x1 PUSH1 0xA0 SHL SUB AND CALLER SUB PUSH2 0x1B14 JUMPI JUMP JUMPDEST PUSH1 0x64 PUSH1 0x40 MLOAD PUSH3 0x461BCD PUSH1 0xE5 SHL DUP2 MSTORE PUSH1 0x20 PUSH1 0x4 DUP3 ADD MSTORE PUSH1 0x20 PUSH1 0x24 DUP3 ADD MSTORE PUSH32 0x4F776E61626C653A2063616C6C6572206973206E6F7420746865206F776E6572 PUSH1 0x44 DUP3 ADD MSTORE REVERT JUMPDEST PUSH1 0x1 PUSH1 0x1 PUSH1 0xA0 SHL SUB AND SWAP1 DUP2 ISZERO PUSH2 0x1B85 JUMPI PUSH1 0x0 MSTORE PUSH1 0x0 PUSH1 0x20 MSTORE PUSH1 0x40 PUSH1 0x0 KECCAK256 SWAP1 PUSH1 0x0 MSTORE PUSH1 0x20 MSTORE PUSH1 0x40 PUSH1 0x0 KECCAK256 SLOAD SWAP1 JUMP JUMPDEST PUSH1 0x40 MLOAD PUSH3 0x461BCD PUSH1 0xE5 SHL DUP2 MSTORE PUSH1 0x20 PUSH1 0x4 DUP3 ADD MSTORE PUSH1 0x2A PUSH1 0x24 DUP3 ADD MSTORE PUSH32 0x455243313135353A2061646472657373207A65726F206973206E6F7420612076 PUSH1 0x44 DUP3 ADD MSTORE PUSH10 0x30B634B21037BBB732B9 PUSH1 0xB1 SHL PUSH1 0x64 DUP3 ADD MSTORE PUSH1 0x84 SWAP1 REVERT JUMPDEST PUSH1 0x0 NOT DUP2 EQ PUSH2 0x1BEC JUMPI PUSH1 0x1 ADD SWAP1 JUMP JUMPDEST PUSH4 0x4E487B71 PUSH1 0xE0 SHL PUSH1 0x0 MSTORE PUSH1 0x11 PUSH1 0x4 MSTORE PUSH1 0x24 PUSH1 0x0 REVERT JUMPDEST DUP1 MLOAD DUP3 LT ISZERO PUSH2 0x1C16 JUMPI PUSH1 0x20 SWAP2 PUSH1 0x5 SHL ADD ADD SWAP1 JUMP JUMPDEST PUSH4 0x4E487B71 PUSH1 0xE0 SHL PUSH1 0x0 MSTORE PUSH1 0x32 PUSH1 0x4 MSTORE PUSH1 0x24 PUSH1 0x0 REVERT JUMPDEST ISZERO PUSH2 0x1C33 JUMPI JUMP JUMPDEST PUSH1 0x40 MLOAD PUSH3 0x461BCD PUSH1 0xE5 SHL DUP2 MSTORE PUSH1 0x20 PUSH1 0x4 DUP3 ADD MSTORE PUSH1 0x2E PUSH1 0x24 DUP3 ADD MSTORE PUSH32 0x455243313135353A2063616C6C6572206973206E6F7420746F6B656E206F776E PUSH1 0x44 DUP3 ADD MSTORE PUSH14 0x195C881BDC88185C1C1C9BDD9959 PUSH1 0x92 SHL PUSH1 0x64 DUP3 ADD MSTORE PUSH1 0x84 SWAP1 REVERT JUMPDEST ISZERO PUSH2 0x1C96 JUMPI JUMP JUMPDEST PUSH1 0x40 MLOAD PUSH3 0x461BCD PUSH1 0xE5 SHL DUP2 MSTORE PUSH1 0x20 PUSH1 0x4 DUP3 ADD MSTORE PUSH1 0x25 PUSH1 0x24 DUP3 ADD MSTORE PUSH32 0x455243313135353A207472616E7366657220746F20746865207A65726F206164 PUSH1 0x44 DUP3 ADD MSTORE PUSH5 0x6472657373 PUSH1 0xD8 SHL PUSH1 0x64 DUP3 ADD MSTORE PUSH1 0x84 SWAP1 REVERT JUMPDEST ISZERO PUSH2 0x1CF0 JUMPI JUMP JUMPDEST PUSH1 0x40 MLOAD PUSH3 0x461BCD PUSH1 0xE5 SHL DUP2 MSTORE PUSH1 0x20 PUSH1 0x4 DUP3 ADD MSTORE PUSH1 0x2A PUSH1 0x24 DUP3 ADD MSTORE PUSH32 0x455243313135353A20696E73756666696369656E742062616C616E636520666F PUSH1 0x44 DUP3 ADD MSTORE PUSH10 0x39103A3930B739B332B9 PUSH1 0xB1 SHL PUSH1 0x64 DUP3 ADD MSTORE PUSH1 0x84 SWAP1 REVERT JUMPDEST SWAP2 SWAP1 DUP3 ADD DUP1 SWAP3 GT PUSH2 0x1BEC JUMPI JUMP JUMPDEST SWAP1 DUP2 PUSH1 0x20 SWAP2 SUB SLT PUSH2 0x1B5 JUMPI MLOAD PUSH1 0x1 PUSH1 0x1 PUSH1 0xE0 SHL SUB NOT DUP2 AND DUP2 SUB PUSH2 0x1B5 JUMPI SWAP1 JUMP JUMPDEST PUSH1 0x0 SWAP1 PUSH1 0x3 RETURNDATASIZE GT PUSH2 0x1D82 JUMPI JUMP JUMPDEST SWAP1 POP PUSH1 0x4 PUSH1 0x0 DUP1 RETURNDATACOPY PUSH1 0x0 MLOAD PUSH1 0xE0 SHR SWAP1 JUMP JUMPDEST PUSH1 0x0 PUSH1 0x44 RETURNDATASIZE LT PUSH2 0x1DF0 JUMPI PUSH1 0x40 MLOAD PUSH1 0x3 NOT SWAP2 RETURNDATASIZE DUP4 ADD PUSH1 0x4 DUP4 RETURNDATACOPY DUP2 MLOAD PUSH1 0x1 PUSH1 0x1 PUSH1 0x40 SHL SUB SWAP2 DUP3 DUP3 GT RETURNDATASIZE PUSH1 0x24 DUP5 ADD GT OR PUSH2 0x1DF3 JUMPI DUP2 DUP5 ADD SWAP5 DUP6 MLOAD SWAP4 DUP5 GT PUSH2 0x1DFB JUMPI RETURNDATASIZE DUP6 ADD ADD PUSH1 0x20 DUP5 DUP8 ADD ADD GT PUSH2 0x1DF3 JUMPI POP PUSH2 0x1DF0 SWAP3 SWAP2 ADD PUSH1 0x20 ADD SWAP1 PUSH2 0x18C0 JUMP JUMPDEST SWAP1 JUMP JUMPDEST SWAP5 SWAP4 POP POP POP POP JUMP JUMPDEST POP SWAP5 SWAP4 POP POP POP POP JUMP JUMPDEST PUSH1 0x80 SWAP1 PUSH1 0x20 DUP2 MSTORE PUSH1 0x34 PUSH1 0x20 DUP3 ADD MSTORE PUSH32 0x455243313135353A207472616E7366657220746F206E6F6E2D45524331313535 PUSH1 0x40 DUP3 ADD MSTORE PUSH20 0x2932B1B2B4BB32B91034B6B83632B6B2B73A32B9 PUSH1 0x61 SHL PUSH1 0x60 DUP3 ADD MSTORE ADD SWAP1 JUMP JUMPDEST PUSH1 0x40 MLOAD SWAP1 PUSH1 0x40 DUP3 ADD DUP3 DUP2 LT PUSH1 0x1 PUSH1 0x1 PUSH1 0x40 SHL SUB DUP3 GT OR PUSH2 0xD53 JUMPI PUSH1 0x40 MSTORE PUSH1 0x1 DUP3 MSTORE PUSH1 0x20 DUP3 ADD PUSH1 0x20 CALLDATASIZE DUP3 CALLDATACOPY DUP3 MLOAD ISZERO PUSH2 0x1C16 JUMPI MSTORE SWAP1 JUMP JUMPDEST ISZERO PUSH2 0x1E95 JUMPI JUMP JUMPDEST PUSH1 0x40 MLOAD PUSH3 0x461BCD PUSH1 0xE5 SHL DUP2 MSTORE PUSH1 0x20 PUSH1 0x4 DUP3 ADD MSTORE PUSH1 0xF PUSH1 0x24 DUP3 ADD MSTORE PUSH15 0x125B9D985B1A59081D1A595C881251 PUSH1 0x8A SHL PUSH1 0x44 DUP3 ADD MSTORE PUSH1 0x64 SWAP1 REVERT INVALID LOG2 PUSH5 0x6970667358 0x22 SLT KECCAK256 0xCE MOD 0xDA 0xF8 STOP CHAINID XOR LOG2 PUSH13 0xD38B1135328D04B99394F95D6 EXTCODECOPY STATICCALL 0xBD SELFDESTRUCT PUSH4 0x64AC93E8 0xFC PUSH5 0x736F6C6343 STOP ADDMOD EQ STOP CALLER PUSH1 0x80 CALLVALUE PUSH3 0x145 JUMPI PUSH1 0x1F PUSH3 0x2546 CODESIZE DUP2 SWAP1 SUB SWAP2 DUP3 ADD PUSH1 0x1F NOT AND DUP4 ADD SWAP2 PUSH1 0x1 PUSH1 0x1 PUSH1 0x40 SHL SUB DUP4 GT DUP5 DUP5 LT OR PUSH3 0x14A JUMPI DUP1 DUP5 SWAP3 PUSH1 0x60 SWAP5 PUSH1 0x40 MSTORE DUP4 CODECOPY DUP2 ADD SUB SLT PUSH3 0x145 JUMPI PUSH3 0x4D DUP2 PUSH3 0x160 JUMP JUMPDEST PUSH3 0x69 PUSH1 0x40 PUSH3 0x61 PUSH1 0x20 DUP6 ADD PUSH3 0x160 JUMP JUMPDEST SWAP4 ADD PUSH3 0x160 JUMP JUMPDEST PUSH1 0x0 SLOAD SWAP3 PUSH1 0x1 DUP1 PUSH1 0xA0 SHL SUB NOT SWAP3 CALLER DUP5 DUP7 AND OR PUSH1 0x0 SSTORE PUSH1 0x40 MLOAD SWAP5 PUSH1 0x1 DUP1 PUSH1 0xA0 SHL SUB SWAP4 DUP5 SWAP2 DUP3 CALLER SWAP2 AND PUSH32 0x8BE0079C531659141344CD1FD0A4F28419497F9722A3DAAFE3B4186F6B6457E0 PUSH1 0x0 DUP1 LOG3 PUSH1 0x1 DUP1 SSTORE PUSH1 0x5 DUP1 SSTORE AND SWAP5 DUP6 ISZERO PUSH3 0xF4 JUMPI POP DUP3 AND DUP4 PUSH1 0x2 SLOAD AND OR PUSH1 0x2 SSTORE AND DUP2 PUSH1 0x3 SLOAD AND OR PUSH1 0x3 SSTORE PUSH1 0x4 SLOAD AND OR PUSH1 0x4 SSTORE PUSH1 0x40 MLOAD PUSH2 0x23D0 SWAP1 DUP2 PUSH3 0x176 DUP3 CODECOPY RETURN JUMPDEST PUSH3 0x461BCD PUSH1 0xE5 SHL DUP2 MSTORE PUSH1 0x20 PUSH1 0x4 DUP3 ADD MSTORE PUSH1 0x26 PUSH1 0x24 DUP3 ADD MSTORE PUSH32 0x54726561737572792077616C6C65742063616E6E6F74206265207A65726F2061 PUSH1 0x44 DUP3 ADD MSTORE PUSH6 0x646472657373 PUSH1 0xD0 SHL PUSH1 0x64 DUP3 ADD MSTORE PUSH1 0x84 SWAP1 REVERT JUMPDEST PUSH1 0x0 DUP1 REVERT JUMPDEST PUSH4 0x4E487B71 PUSH1 0xE0 SHL PUSH1 0x0 MSTORE PUSH1 0x41 PUSH1 0x4 MSTORE PUSH1 0x24 PUSH1 0x0 REVERT JUMPDEST MLOAD SWAP1 PUSH1 0x1 PUSH1 0x1 PUSH1 0xA0 SHL SUB DUP3 AND DUP3 SUB PUSH3 0x145 JUMPI JUMP INVALID PUSH1 0x80 PUSH1 0x40 MSTORE PUSH1 0x4 CALLDATASIZE LT ISZERO PUSH2 0x12 JUMPI PUSH1 0x0 DUP1 REVERT JUMPDEST PUSH1 0x0 DUP1 CALLDATALOAD PUSH1 0xE0 SHR DUP1 PUSH4 0x12E8E2C3 EQ PUSH2 0x1B1A JUMPI DUP1 PUSH4 0x21235083 EQ PUSH2 0x19CD JUMPI DUP1 PUSH4 0x28AEF969 EQ PUSH2 0x19A4 JUMPI DUP1 PUSH4 0x2D5BBF60 EQ PUSH2 0x18F9 JUMPI DUP1 PUSH4 0x37815B09 EQ PUSH2 0x12D9 JUMPI DUP1 PUSH4 0x4626402B EQ PUSH2 0x12B0 JUMPI DUP1 PUSH4 0x57E2C0F5 EQ PUSH2 0x11A0 JUMPI DUP1 PUSH4 0x5EC40334 EQ PUSH2 0xA84 JUMPI DUP1 PUSH4 0x6C9EB774 EQ PUSH2 0x5C8 JUMPI DUP1 PUSH4 0x715018A6 EQ PUSH2 0x56E JUMPI DUP1 PUSH4 0x8C639A85 EQ PUSH2 0x550 JUMPI DUP1 PUSH4 0x8DA5CB5B EQ PUSH2 0x529 JUMPI DUP1 PUSH4 0x9A6A5CF0 EQ PUSH2 0x500 JUMPI DUP1 PUSH4 0xA8602FEA EQ PUSH2 0x465 JUMPI DUP1 PUSH4 0xD61EE6EF EQ PUSH2 0x3AB JUMPI DUP1 PUSH4 0xDC311DD3 EQ PUSH2 0x20E JUMPI DUP1 PUSH4 0xEA0DA2A0 EQ PUSH2 0x1AB JUMPI PUSH4 0xF2FDE38B EQ PUSH2 0xE3 JUMPI PUSH1 0x0 DUP1 REVERT JUMPDEST CALLVALUE PUSH2 0x1A8 JUMPI PUSH1 0x20 CALLDATASIZE PUSH1 0x3 NOT ADD SLT PUSH2 0x1A8 JUMPI PUSH2 0xFC PUSH2 0x1BCB JUMP JUMPDEST PUSH2 0x104 PUSH2 0x1C0F JUMP JUMPDEST PUSH1 0x1 PUSH1 0x1 PUSH1 0xA0 SHL SUB SWAP1 DUP2 AND SWAP1 DUP2 ISZERO PUSH2 0x154 JUMPI PUSH1 0x0 SLOAD DUP3 PUSH1 0x1 PUSH1 0x1 PUSH1 0x60 SHL SUB PUSH1 0xA0 SHL DUP3 AND OR PUSH1 0x0 SSTORE AND PUSH32 0x8BE0079C531659141344CD1FD0A4F28419497F9722A3DAAFE3B4186F6B6457E0 PUSH1 0x0 DUP1 LOG3 DUP1 RETURN JUMPDEST PUSH1 0x40 MLOAD PUSH3 0x461BCD PUSH1 0xE5 SHL DUP2 MSTORE PUSH1 0x20 PUSH1 0x4 DUP3 ADD MSTORE PUSH1 0x26 PUSH1 0x24 DUP3 ADD MSTORE PUSH32 0x4F776E61626C653A206E6577206F776E657220697320746865207A65726F2061 PUSH1 0x44 DUP3 ADD MSTORE PUSH6 0x646472657373 PUSH1 0xD0 SHL PUSH1 0x64 DUP3 ADD MSTORE PUSH1 0x84 SWAP1 REVERT JUMPDEST DUP1 REVERT JUMPDEST POP CALLVALUE PUSH2 0x1A8 JUMPI PUSH1 0x60 CALLDATASIZE PUSH1 0x3 NOT ADD SLT PUSH2 0x1A8 JUMPI PUSH2 0x1C5 PUSH2 0x1BCB JUMP JUMPDEST PUSH1 0x1 PUSH1 0x1 PUSH1 0xA0 SHL SUB AND DUP2 MSTORE PUSH1 0x8 PUSH1 0x20 SWAP1 DUP2 MSTORE PUSH1 0x40 DUP1 DUP4 KECCAK256 PUSH1 0x24 CALLDATALOAD DUP5 MSTORE SWAP1 SWAP2 MSTORE DUP2 KECCAK256 DUP1 SLOAD PUSH1 0x44 CALLDATALOAD SWAP3 SWAP1 DUP4 LT ISZERO PUSH2 0x1A8 JUMPI PUSH1 0x20 PUSH2 0x200 DUP5 DUP5 PUSH2 0x1BE1 JUMP JUMPDEST SWAP1 SLOAD PUSH1 0x40 MLOAD SWAP2 PUSH1 0x3 SHL SHR DUP2 MSTORE RETURN JUMPDEST POP CALLVALUE PUSH2 0x1A8 JUMPI PUSH1 0x20 CALLDATASIZE PUSH1 0x3 NOT ADD SLT PUSH2 0x1A8 JUMPI PUSH1 0x40 PUSH2 0x140 SWAP2 PUSH1 0x4 CALLDATALOAD DUP2 PUSH2 0x120 DUP5 MLOAD PUSH2 0x238 DUP2 PUSH2 0x1D2C JUMP JUMPDEST DUP3 DUP2 MSTORE DUP3 PUSH1 0x20 DUP3 ADD MSTORE DUP3 DUP7 DUP3 ADD MSTORE DUP3 PUSH1 0x60 DUP3 ADD MSTORE DUP3 PUSH1 0x80 DUP3 ADD MSTORE DUP3 PUSH1 0xA0 DUP3 ADD MSTORE DUP3 PUSH1 0xC0 DUP3 ADD MSTORE DUP3 PUSH1 0xE0 DUP3 ADD MSTORE DUP3 PUSH2 0x100 DUP3 ADD MSTORE ADD MSTORE DUP1 ISZERO ISZERO DUP1 PUSH2 0x39F JUMPI JUMPDEST PUSH2 0x27F SWAP1 PUSH2 0x22E9 JUMP JUMPDEST DUP2 MSTORE PUSH1 0x7 PUSH1 0x20 MSTORE KECCAK256 PUSH1 0x7 PUSH1 0x40 MLOAD SWAP2 PUSH2 0x296 DUP4 PUSH2 0x1D2C JUMP JUMPDEST DUP1 SLOAD DUP4 MSTORE PUSH1 0x1 DUP2 ADD SLOAD PUSH1 0x1 PUSH1 0x1 PUSH1 0xA0 SHL SUB AND PUSH1 0x20 DUP5 ADD MSTORE PUSH1 0x2 DUP2 ADD SLOAD PUSH1 0x40 DUP5 ADD MSTORE PUSH1 0x3 DUP2 ADD SLOAD PUSH1 0x60 DUP5 ADD MSTORE PUSH1 0x4 DUP2 ADD SLOAD PUSH1 0x80 DUP5 ADD MSTORE PUSH1 0x5 DUP2 ADD SLOAD PUSH1 0xA0 DUP5 ADD MSTORE PUSH1 0x6 DUP2 ADD SLOAD PUSH1 0xC0 DUP5 ADD MSTORE ADD SLOAD PUSH2 0x2F1 PUSH1 0xFF DUP3 AND PUSH1 0xE0 DUP5 ADD PUSH2 0x2139 JUMP JUMPDEST PUSH2 0x305 PUSH1 0xFF DUP3 PUSH1 0x8 SHR AND PUSH2 0x100 DUP5 ADD PUSH2 0x2145 JUMP JUMPDEST PUSH1 0x1 DUP1 PUSH1 0xA0 SHL SUB SWAP1 PUSH1 0x10 SHR AND PUSH2 0x120 DUP3 ADD MSTORE PUSH1 0x40 MLOAD SWAP1 DUP1 MLOAD DUP3 MSTORE PUSH1 0x1 DUP1 PUSH1 0xA0 SHL SUB PUSH1 0x20 DUP3 ADD MLOAD AND PUSH1 0x20 DUP4 ADD MSTORE PUSH1 0x40 DUP2 ADD MLOAD PUSH1 0x40 DUP4 ADD MSTORE PUSH1 0x60 DUP2 ADD MLOAD PUSH1 0x60 DUP4 ADD MSTORE PUSH1 0x80 DUP2 ADD MLOAD PUSH1 0x80 DUP4 ADD MSTORE PUSH1 0xA0 DUP2 ADD MLOAD PUSH1 0xA0 DUP4 ADD MSTORE PUSH1 0xC0 DUP2 ADD MLOAD PUSH1 0xC0 DUP4 ADD MSTORE PUSH2 0x375 PUSH1 0xE0 DUP3 ADD MLOAD PUSH1 0xE0 DUP5 ADD SWAP1 PUSH2 0x1B9B JUMP JUMPDEST PUSH2 0x389 PUSH2 0x100 DUP3 ADD MLOAD PUSH2 0x100 DUP5 ADD SWAP1 PUSH2 0x1BBE JUMP JUMPDEST PUSH2 0x120 SWAP1 DUP2 ADD MLOAD PUSH1 0x1 PUSH1 0x1 PUSH1 0xA0 SHL SUB AND SWAP1 DUP3 ADD MSTORE RETURN JUMPDEST POP PUSH1 0x6 SLOAD DUP2 GT ISZERO PUSH2 0x276 JUMP JUMPDEST POP CALLVALUE PUSH2 0x1A8 JUMPI PUSH1 0x40 CALLDATASIZE PUSH1 0x3 NOT ADD SLT PUSH2 0x1A8 JUMPI PUSH1 0x1 PUSH1 0x1 PUSH1 0xA0 SHL SUB PUSH2 0x3CD PUSH2 0x1BCB JUMP JUMPDEST AND DUP2 MSTORE PUSH1 0x20 PUSH1 0x8 DUP2 MSTORE PUSH1 0x40 DUP3 KECCAK256 PUSH1 0x24 CALLDATALOAD DUP4 MSTORE DUP2 MSTORE PUSH1 0x40 DUP3 KECCAK256 PUSH1 0x40 MLOAD SWAP3 DUP4 DUP4 DUP4 SLOAD SWAP2 DUP3 DUP2 MSTORE ADD SWAP1 DUP2 SWAP4 DUP4 MSTORE DUP5 DUP4 KECCAK256 SWAP1 DUP4 JUMPDEST DUP2 DUP2 LT PUSH2 0x451 JUMPI POP POP POP DUP5 PUSH2 0x413 SWAP2 SUB DUP6 PUSH2 0x1D49 JUMP JUMPDEST PUSH1 0x40 MLOAD SWAP4 DUP4 DUP6 SWAP5 DUP6 ADD SWAP2 DUP2 DUP7 MSTORE MLOAD DUP1 SWAP3 MSTORE PUSH1 0x40 DUP6 ADD SWAP4 SWAP3 JUMPDEST DUP3 DUP2 LT PUSH2 0x43A JUMPI POP POP POP POP SUB SWAP1 RETURN JUMPDEST DUP4 MLOAD DUP6 MSTORE DUP7 SWAP6 POP SWAP4 DUP2 ADD SWAP4 SWAP3 DUP2 ADD SWAP3 PUSH1 0x1 ADD PUSH2 0x42B JUMP JUMPDEST DUP3 SLOAD DUP5 MSTORE SWAP3 DUP7 ADD SWAP3 PUSH1 0x1 SWAP3 DUP4 ADD SWAP3 ADD PUSH2 0x3FD JUMP JUMPDEST POP CALLVALUE PUSH2 0x1A8 JUMPI PUSH1 0x20 CALLDATASIZE PUSH1 0x3 NOT ADD SLT PUSH2 0x1A8 JUMPI PUSH2 0x47F PUSH2 0x1BCB JUMP JUMPDEST PUSH2 0x487 PUSH2 0x1C0F JUMP JUMPDEST PUSH1 0x1 PUSH1 0x1 PUSH1 0xA0 SHL SUB AND DUP1 ISZERO PUSH2 0x4AC JUMPI PUSH1 0x1 PUSH1 0x1 PUSH1 0x60 SHL SUB PUSH1 0xA0 SHL PUSH1 0x4 SLOAD AND OR PUSH1 0x4 SSTORE DUP1 RETURN JUMPDEST PUSH1 0x40 MLOAD PUSH3 0x461BCD PUSH1 0xE5 SHL DUP2 MSTORE PUSH1 0x20 PUSH1 0x4 DUP3 ADD MSTORE PUSH1 0x26 PUSH1 0x24 DUP3 ADD MSTORE PUSH32 0x54726561737572792077616C6C65742063616E6E6F74206265207A65726F2061 PUSH1 0x44 DUP3 ADD MSTORE PUSH6 0x646472657373 PUSH1 0xD0 SHL PUSH1 0x64 DUP3 ADD MSTORE PUSH1 0x84 SWAP1 REVERT JUMPDEST POP CALLVALUE PUSH2 0x1A8 JUMPI DUP1 PUSH1 0x3 NOT CALLDATASIZE ADD SLT PUSH2 0x1A8 JUMPI PUSH1 0x2 SLOAD PUSH1 0x40 MLOAD PUSH1 0x1 PUSH1 0x1 PUSH1 0xA0 SHL SUB SWAP1 SWAP2 AND DUP2 MSTORE PUSH1 0x20 SWAP1 RETURN JUMPDEST POP CALLVALUE PUSH2 0x1A8 JUMPI DUP1 PUSH1 0x3 NOT CALLDATASIZE ADD SLT PUSH2 0x1A8 JUMPI SLOAD PUSH1 0x40 MLOAD PUSH1 0x1 PUSH1 0x1 PUSH1 0xA0 SHL SUB SWAP1 SWAP2 AND DUP2 MSTORE PUSH1 0x20 SWAP1 RETURN JUMPDEST POP CALLVALUE PUSH2 0x1A8 JUMPI DUP1 PUSH1 0x3 NOT CALLDATASIZE ADD SLT PUSH2 0x1A8 JUMPI PUSH1 0x20 PUSH1 0x5 SLOAD PUSH1 0x40 MLOAD SWAP1 DUP2 MSTORE RETURN JUMPDEST POP CALLVALUE PUSH2 0x1A8 JUMPI DUP1 PUSH1 0x3 NOT CALLDATASIZE ADD SLT PUSH2 0x1A8 JUMPI PUSH2 0x587 PUSH2 0x1C0F JUMP JUMPDEST PUSH1 0x0 DUP1 SLOAD PUSH1 0x1 PUSH1 0x1 PUSH1 0xA0 SHL SUB NOT DUP2 AND DUP3 SSTORE PUSH1 0x1 PUSH1 0x1 PUSH1 0xA0 SHL SUB AND PUSH32 0x8BE0079C531659141344CD1FD0A4F28419497F9722A3DAAFE3B4186F6B6457E0 DUP3 DUP1 LOG3 DUP1 RETURN JUMPDEST POP PUSH1 0x60 CALLDATASIZE PUSH1 0x3 NOT ADD SLT PUSH2 0x1A8 JUMPI PUSH1 0x44 CALLDATALOAD PUSH2 0x5E0 PUSH2 0x21A3 JUMP JUMPDEST DUP1 ISZERO SWAP1 PUSH2 0x5ED DUP3 ISZERO PUSH2 0x1C67 JUMP JUMPDEST PUSH2 0x5FA PUSH1 0x4 CALLDATALOAD ISZERO ISZERO PUSH2 0x1CC1 JUMP JUMPDEST PUSH1 0x3 SLOAD PUSH1 0x40 MLOAD PUSH4 0x2783162D PUSH1 0xE1 SHL DUP2 MSTORE PUSH1 0x24 DUP1 CALLDATALOAD PUSH1 0x4 DUP4 ADD MSTORE SWAP1 SWAP2 DUP6 SWAP2 DUP4 SWAP2 DUP3 SWAP1 PUSH1 0x1 PUSH1 0x1 PUSH1 0xA0 SHL SUB AND GAS STATICCALL DUP1 ISZERO PUSH2 0xA57 JUMPI PUSH1 0x80 DUP4 SWAP2 PUSH2 0x654 SWAP4 DUP8 SWAP2 PUSH2 0xA62 JUMPI JUMPDEST POP PUSH2 0x64D PUSH1 0x4 CALLDATALOAD PUSH1 0x20 DUP4 ADD MLOAD EQ PUSH2 0x1E86 JUMP JUMPDEST ADD MLOAD PUSH2 0x1ED2 JUMP JUMPDEST SWAP3 PUSH2 0x661 DUP5 CALLVALUE LT ISZERO PUSH2 0x1EFB JUMP JUMPDEST PUSH1 0x64 PUSH2 0x66F PUSH1 0x5 SLOAD DUP7 PUSH2 0x1ED2 JUMP JUMPDEST DIV SWAP2 PUSH2 0x67B DUP4 DUP7 PUSH2 0x1F3E JUMP JUMPDEST SWAP3 PUSH1 0x24 DUP4 PUSH1 0x1 DUP1 PUSH1 0xA0 SHL SUB PUSH1 0x2 SLOAD AND PUSH1 0x40 MLOAD SWAP3 DUP4 DUP1 SWAP3 PUSH4 0x6A4731C5 PUSH1 0xE1 SHL DUP3 MSTORE PUSH1 0x4 CALLDATALOAD PUSH1 0x4 DUP4 ADD MSTORE GAS STATICCALL SWAP1 DUP2 ISZERO PUSH2 0xA57 JUMPI DUP5 DUP1 PUSH2 0x6FF SWAP5 PUSH2 0x6E3 DUP3 DUP1 DUP1 DUP1 DUP14 DUP2 SWAP11 DUP3 SWAP11 DUP4 SWAP2 PUSH2 0xA35 JUMPI JUMPDEST POP PUSH1 0x20 ADD MLOAD PUSH1 0x1 PUSH1 0x1 PUSH1 0xA0 SHL SUB AND GAS CALL PUSH2 0x6DD PUSH2 0x200E JUMP JUMPDEST POP PUSH2 0x203E JUMP JUMPDEST PUSH1 0x4 SLOAD PUSH1 0x1 PUSH1 0x1 PUSH1 0xA0 SHL SUB AND GAS CALL PUSH2 0x6F9 PUSH2 0x200E JUMP JUMPDEST POP PUSH2 0x2094 JUMP JUMPDEST DUP5 CALLVALUE GT PUSH2 0xA0E JUMPI JUMPDEST PUSH1 0x1 PUSH1 0x6 SLOAD ADD SWAP4 DUP5 PUSH1 0x6 SSTORE PUSH3 0x278D00 DUP1 DUP4 MUL SWAP3 DUP4 DIV EQ OR ISZERO PUSH2 0x9FA JUMPI PUSH2 0x72D SWAP1 TIMESTAMP PUSH2 0x212C JUMP JUMPDEST SWAP2 PUSH1 0x40 MLOAD PUSH2 0x73A DUP2 PUSH2 0x1D2C JUMP JUMPDEST DUP5 DUP2 MSTORE CALLER PUSH1 0x20 DUP3 ADD MSTORE PUSH1 0x4 CALLDATALOAD PUSH1 0x40 DUP3 ADD MSTORE PUSH1 0x24 CALLDATALOAD PUSH1 0x60 DUP3 ADD MSTORE DUP6 PUSH1 0x80 DUP3 ADD MSTORE TIMESTAMP PUSH1 0xA0 DUP3 ADD MSTORE DUP4 PUSH1 0xC0 DUP3 ADD MSTORE DUP3 PUSH1 0xE0 DUP3 ADD MSTORE PUSH2 0x100 DUP2 ADD DUP4 DUP2 MSTORE PUSH2 0x120 DUP3 ADD SWAP1 DUP5 DUP3 MSTORE DUP7 DUP6 MSTORE PUSH1 0x7 PUSH1 0x20 MSTORE PUSH1 0xE0 PUSH1 0x7 PUSH1 0x40 DUP8 KECCAK256 DUP6 MLOAD DUP2 SSTORE PUSH1 0x1 DUP2 ADD PUSH1 0x1 DUP1 PUSH1 0xA0 SHL SUB PUSH1 0x20 DUP9 ADD MLOAD AND PUSH1 0x1 PUSH1 0x1 PUSH1 0x60 SHL SUB PUSH1 0xA0 SHL DUP3 SLOAD AND OR SWAP1 SSTORE PUSH1 0x40 DUP7 ADD MLOAD PUSH1 0x2 DUP3 ADD SSTORE PUSH1 0x60 DUP7 ADD MLOAD PUSH1 0x3 DUP3 ADD SSTORE PUSH1 0x80 DUP7 ADD MLOAD PUSH1 0x4 DUP3 ADD SSTORE PUSH1 0xA0 DUP7 ADD MLOAD PUSH1 0x5 DUP3 ADD SSTORE PUSH1 0xC0 DUP7 ADD MLOAD PUSH1 0x6 DUP3 ADD SSTORE ADD SWAP4 ADD MLOAD PUSH1 0x3 DUP2 LT ISZERO PUSH2 0x9E6 JUMPI PUSH2 0x7FB SWAP1 DUP5 PUSH2 0x2151 JUMP JUMPDEST MLOAD SWAP1 PUSH1 0x2 DUP3 LT ISZERO PUSH2 0x9D2 JUMPI PUSH2 0xFF00 DUP4 SLOAD SWAP2 PUSH3 0x10000 PUSH1 0x1 PUSH1 0xB0 SHL SUB SWAP1 MLOAD PUSH1 0x10 SHL AND SWAP3 PUSH1 0x8 SHL AND SWAP1 PUSH2 0x100 PUSH1 0x1 PUSH1 0xB0 SHL SUB NOT AND OR OR SWAP1 SSTORE CALLER DUP3 MSTORE PUSH1 0x8 PUSH1 0x20 MSTORE PUSH1 0x40 DUP3 KECCAK256 PUSH1 0x4 CALLDATALOAD DUP4 MSTORE PUSH1 0x20 MSTORE PUSH2 0x852 DUP5 PUSH1 0x40 DUP5 KECCAK256 PUSH2 0x2169 JUMP JUMPDEST PUSH1 0x3 SLOAD PUSH1 0x40 MLOAD PUSH4 0x23A36D2B PUSH1 0xE0 SHL DUP2 MSTORE CALLER PUSH1 0x4 DUP3 ADD MSTORE PUSH1 0x24 DUP1 CALLDATALOAD SWAP1 DUP3 ADD MSTORE PUSH1 0x1 PUSH1 0x44 DUP3 ADD MSTORE SWAP1 PUSH1 0x20 SWAP1 DUP3 SWAP1 PUSH1 0x64 SWAP1 DUP3 SWAP1 DUP8 SWAP1 PUSH1 0x1 PUSH1 0x1 PUSH1 0xA0 SHL SUB AND GAS CALL DUP1 ISZERO PUSH2 0x9C7 JUMPI PUSH2 0x98E JUMPI JUMPDEST POP PUSH1 0x2 SLOAD PUSH1 0x1 PUSH1 0x1 PUSH1 0xA0 SHL SUB AND SWAP1 DUP2 EXTCODESIZE ISZERO PUSH2 0x98A JUMPI DUP3 SWAP2 PUSH1 0x64 DUP4 SWAP3 PUSH1 0x40 MLOAD SWAP5 DUP6 SWAP4 DUP5 SWAP3 PUSH4 0x4209E03D PUSH1 0xE0 SHL DUP5 MSTORE PUSH1 0x4 CALLDATALOAD PUSH1 0x4 DUP6 ADD MSTORE PUSH1 0x1 PUSH1 0x24 DUP6 ADD MSTORE PUSH1 0x44 DUP5 ADD MSTORE GAS CALL DUP1 ISZERO PUSH2 0x97F JUMPI PUSH2 0x96B JUMPI JUMPDEST PUSH1 0x20 DUP5 DUP1 PUSH1 0x0 DUP1 MLOAD PUSH1 0x20 PUSH2 0x237B DUP4 CODECOPY DUP2 MLOAD SWAP2 MSTORE PUSH1 0x40 DUP10 DUP9 DUP3 MLOAD SWAP1 DUP6 PUSH32 0x4CE7D0494BAE52234D5B23E3C0D5C50C951EE8559386326790CDED1ECCAA6D3F PUSH1 0x4 CALLDATALOAD SWAP4 DUP1 PUSH2 0x950 CALLER SWAP6 TIMESTAMP DUP10 PUSH1 0x24 CALLDATALOAD DUP6 SWAP1 SWAP5 SWAP4 SWAP3 PUSH1 0x60 SWAP3 PUSH1 0x80 DUP4 ADD SWAP7 DUP4 MSTORE PUSH1 0x20 DUP4 ADD MSTORE PUSH1 0x40 DUP3 ADD MSTORE ADD MSTORE JUMP JUMPDEST SUB SWAP1 LOG4 DUP2 MLOAD SWAP1 DUP2 MSTORE PUSH1 0x0 DUP7 DUP3 ADD MSTORE LOG2 PUSH1 0x1 DUP1 SSTORE PUSH1 0x40 MLOAD SWAP1 DUP2 MSTORE RETURN JUMPDEST PUSH2 0x975 DUP3 SWAP2 PUSH2 0x1D02 JUMP JUMPDEST PUSH2 0x1A8 JUMPI DUP1 PUSH2 0x8E8 JUMP JUMPDEST PUSH1 0x40 MLOAD RETURNDATASIZE DUP5 DUP3 RETURNDATACOPY RETURNDATASIZE SWAP1 REVERT JUMPDEST DUP3 DUP1 REVERT JUMPDEST PUSH1 0x20 DUP2 RETURNDATASIZE PUSH1 0x20 GT PUSH2 0x9BF JUMPI JUMPDEST DUP2 PUSH2 0x9A7 PUSH1 0x20 SWAP4 DUP4 PUSH2 0x1D49 JUMP JUMPDEST DUP2 ADD SUB SLT PUSH2 0x98A JUMPI PUSH2 0x9B8 SWAP1 PUSH2 0x1F4B JUMP JUMPDEST POP CODESIZE PUSH2 0x89A JUMP JUMPDEST RETURNDATASIZE SWAP2 POP PUSH2 0x99A JUMP JUMPDEST PUSH1 0x40 MLOAD RETURNDATASIZE DUP6 DUP3 RETURNDATACOPY RETURNDATASIZE SWAP1 REVERT JUMPDEST PUSH4 0x4E487B71 PUSH1 0xE0 SHL DUP6 MSTORE PUSH1 0x21 PUSH1 0x4 MSTORE PUSH1 0x24 DUP6 REVERT JUMPDEST PUSH4 0x4E487B71 PUSH1 0xE0 SHL DUP7 MSTORE PUSH1 0x21 PUSH1 0x4 MSTORE PUSH1 0x24 DUP7 REVERT JUMPDEST PUSH4 0x4E487B71 PUSH1 0xE0 SHL DUP3 MSTORE PUSH1 0x11 PUSH1 0x4 MSTORE PUSH1 0x24 DUP3 REVERT JUMPDEST PUSH2 0xA30 DUP3 DUP1 DUP1 DUP1 PUSH2 0xA1F DUP11 CALLVALUE PUSH2 0x1F3E JUMP JUMPDEST CALLER GAS CALL PUSH2 0xA2A PUSH2 0x200E JUMP JUMPDEST POP PUSH2 0x20E0 JUMP JUMPDEST PUSH2 0x707 JUMP JUMPDEST PUSH2 0xA51 SWAP2 POP RETURNDATASIZE DUP1 DUP6 DUP4 RETURNDATACOPY PUSH2 0xA49 DUP2 DUP4 PUSH2 0x1D49 JUMP JUMPDEST DUP2 ADD SWAP1 PUSH2 0x1F58 JUMP JUMPDEST CODESIZE PUSH2 0x6C5 JUMP JUMPDEST PUSH1 0x40 MLOAD RETURNDATASIZE DUP7 DUP3 RETURNDATACOPY RETURNDATASIZE SWAP1 REVERT JUMPDEST PUSH2 0xA7E SWAP2 POP RETURNDATASIZE DUP1 DUP10 DUP4 RETURNDATACOPY PUSH2 0xA76 DUP2 DUP4 PUSH2 0x1D49 JUMP JUMPDEST DUP2 ADD SWAP1 PUSH2 0x1DE9 JUMP JUMPDEST CODESIZE PUSH2 0x63B JUMP JUMPDEST POP PUSH1 0x40 CALLDATASIZE PUSH1 0x3 NOT ADD SLT PUSH2 0x1A8 JUMPI PUSH2 0xA99 PUSH2 0x21A3 JUMP JUMPDEST PUSH1 0x4 CALLDATALOAD ISZERO ISZERO DUP1 PUSH2 0x1192 JUMPI JUMPDEST PUSH2 0xAAD SWAP1 PUSH2 0x22E9 JUMP JUMPDEST PUSH1 0x24 CALLDATALOAD ISZERO PUSH2 0x1143 JUMPI PUSH1 0x4 CALLDATALOAD DUP2 MSTORE PUSH1 0x7 PUSH1 0x20 MSTORE PUSH1 0x40 DUP2 KECCAK256 PUSH2 0xADA PUSH1 0x1 DUP1 PUSH1 0xA0 SHL SUB PUSH1 0x1 DUP4 ADD SLOAD AND CALLER EQ PUSH2 0x2335 JUMP JUMPDEST PUSH1 0x1 DUP1 PUSH1 0xA0 SHL SUB PUSH1 0x3 SLOAD AND DUP3 PUSH1 0x3 DUP4 ADD SLOAD PUSH1 0x24 PUSH1 0x40 MLOAD DUP1 SWAP5 DUP2 SWAP4 PUSH4 0x2783162D PUSH1 0xE1 SHL DUP4 MSTORE PUSH1 0x4 DUP4 ADD MSTORE GAS STATICCALL DUP1 ISZERO PUSH2 0x9C7 JUMPI PUSH2 0xB24 SWAP2 DUP5 SWAP2 PUSH2 0x1129 JUMPI JUMPDEST POP PUSH1 0x80 PUSH1 0x24 CALLDATALOAD SWAP2 ADD MLOAD PUSH2 0x1ED2 JUMP JUMPDEST SWAP1 PUSH1 0x7 DUP2 ADD SLOAD PUSH1 0xFF DUP2 PUSH1 0x8 SHR AND PUSH1 0x2 DUP2 LT ISZERO PUSH2 0x9D2 JUMPI DUP5 SWAP2 SWAP1 PUSH2 0xD4E JUMPI POP POP PUSH2 0xB4F DUP3 CALLVALUE LT ISZERO PUSH2 0x1EFB JUMP JUMPDEST DUP3 PUSH1 0x64 PUSH2 0xB5E PUSH1 0x5 SLOAD DUP6 PUSH2 0x1ED2 JUMP JUMPDEST DIV PUSH2 0xB69 DUP2 DUP6 PUSH2 0x1F3E JUMP JUMPDEST SWAP1 PUSH1 0x1 DUP1 PUSH1 0xA0 SHL SUB PUSH1 0x2 SLOAD AND DUP4 PUSH1 0x2 DUP7 ADD SLOAD PUSH1 0x24 PUSH1 0x40 MLOAD DUP1 SWAP5 DUP2 SWAP4 PUSH4 0x6A4731C5 PUSH1 0xE1 SHL DUP4 MSTORE PUSH1 0x4 DUP4 ADD MSTORE GAS STATICCALL SWAP2 DUP3 ISZERO PUSH2 0xA57 JUMPI DUP5 DUP1 DUP1 SWAP4 SWAP3 PUSH2 0x6E3 DUP3 DUP1 DUP1 DUP1 DUP12 PUSH2 0xBCD SWAP12 DUP3 SWAP11 DUP4 SWAP2 PUSH2 0xA35 JUMPI POP PUSH1 0x20 ADD MLOAD PUSH1 0x1 PUSH1 0x1 PUSH1 0xA0 SHL SUB AND GAS CALL PUSH2 0x6DD PUSH2 0x200E JUMP JUMPDEST DUP4 CALLVALUE GT PUSH2 0xD38 JUMPI JUMPDEST PUSH1 0x2 DUP1 SLOAD SWAP1 DUP5 ADD SLOAD PUSH1 0x1 PUSH1 0x1 PUSH1 0xA0 SHL SUB SWAP1 SWAP2 AND SWAP2 DUP3 EXTCODESIZE ISZERO PUSH2 0xD34 JUMPI PUSH1 0x64 DUP5 SWAP3 DUP4 PUSH1 0x40 MLOAD SWAP6 DUP7 SWAP5 DUP6 SWAP4 PUSH4 0x4209E03D PUSH1 0xE0 SHL DUP6 MSTORE PUSH1 0x4 DUP6 ADD MSTORE DUP3 PUSH1 0x24 DUP6 ADD MSTORE PUSH1 0x44 DUP5 ADD MSTORE GAS CALL DUP1 ISZERO PUSH2 0x97F JUMPI PUSH2 0xD20 JUMPI JUMPDEST POP POP PUSH1 0x7 DUP2 ADD SLOAD PUSH1 0xFF DUP2 AND PUSH1 0x3 DUP2 LT ISZERO PUSH2 0x9D2 JUMPI PUSH1 0x1 EQ DUP1 ISZERO PUSH2 0xD13 JUMPI JUMPDEST ISZERO PUSH2 0xCE3 JUMPI PUSH3 0x278D00 DUP1 PUSH1 0x24 CALLDATALOAD MUL SWAP1 PUSH1 0x24 CALLDATALOAD DUP3 DIV SUB PUSH2 0xCCF JUMPI PUSH2 0xC67 PUSH1 0x6 SWAP2 TIMESTAMP PUSH2 0x212C JUMP JUMPDEST SWAP3 DUP4 SWAP3 PUSH1 0xFF NOT AND PUSH1 0x7 DUP3 ADD SSTORE JUMPDEST ADD SSTORE PUSH1 0x40 MLOAD SWAP1 DUP2 MSTORE PUSH32 0x328F4610A15D0E6C197E13CB1B184720C7E4E7DCF6E07423B7625DA3128358B1 PUSH1 0x20 PUSH1 0x4 CALLDATALOAD SWAP3 LOG2 PUSH1 0x40 MLOAD SWAP1 DUP2 MSTORE PUSH1 0x0 PUSH1 0x20 DUP3 ADD MSTORE PUSH1 0x0 DUP1 MLOAD PUSH1 0x20 PUSH2 0x237B DUP4 CODECOPY DUP2 MLOAD SWAP2 MSTORE PUSH1 0x40 PUSH1 0x4 CALLDATALOAD SWAP3 LOG2 JUMPDEST PUSH1 0x1 DUP1 SSTORE DUP1 RETURN JUMPDEST PUSH4 0x4E487B71 PUSH1 0xE0 SHL DUP6 MSTORE PUSH1 0x11 PUSH1 0x4 MSTORE PUSH1 0x24 DUP6 REVERT JUMPDEST POP PUSH1 0x6 DUP2 ADD SLOAD PUSH3 0x278D00 SWAP1 DUP2 PUSH1 0x24 CALLDATALOAD MUL SWAP2 PUSH1 0x24 CALLDATALOAD DUP4 DIV SUB PUSH2 0xCCF JUMPI PUSH1 0x6 SWAP3 SWAP2 PUSH2 0xD0B SWAP2 PUSH2 0x212C JUMP JUMPDEST SWAP2 DUP3 SWAP2 PUSH2 0xC74 JUMP JUMPDEST POP PUSH1 0x6 DUP3 ADD SLOAD TIMESTAMP GT PUSH2 0xC42 JUMP JUMPDEST PUSH2 0xD29 SWAP1 PUSH2 0x1D02 JUMP JUMPDEST PUSH2 0x98A JUMPI DUP3 CODESIZE PUSH2 0xC24 JUMP JUMPDEST DUP4 DUP1 REVERT JUMPDEST PUSH2 0xD49 DUP3 DUP1 DUP1 DUP1 PUSH2 0xA1F DUP10 CALLVALUE PUSH2 0x1F3E JUMP JUMPDEST PUSH2 0xBD5 JUMP JUMPDEST PUSH1 0x40 MLOAD PUSH4 0x6EB1769F PUSH1 0xE1 SHL DUP2 MSTORE CALLER PUSH1 0x4 DUP3 ADD MSTORE ADDRESS PUSH1 0x24 DUP3 ADD MSTORE PUSH1 0x20 DUP2 PUSH1 0x44 DUP2 PUSH1 0x1 PUSH1 0x1 PUSH1 0xA0 SHL SUB PUSH1 0x10 DUP8 SWAP1 SHR AND GAS STATICCALL DUP1 ISZERO PUSH2 0x9C7 JUMPI DUP6 SWAP2 DUP5 SWAP2 PUSH2 0x10E9 JUMPI JUMPDEST POP SWAP1 PUSH2 0xD99 SWAP2 LT ISZERO PUSH2 0x21F9 JUMP JUMPDEST PUSH1 0x64 PUSH2 0xDA7 PUSH1 0x5 SLOAD DUP7 PUSH2 0x1ED2 JUMP JUMPDEST DIV SWAP1 PUSH2 0xDB3 DUP3 DUP7 PUSH2 0x1F3E JUMP JUMPDEST SWAP2 PUSH1 0x1 DUP1 PUSH1 0xA0 SHL SUB PUSH1 0x2 SLOAD AND DUP5 PUSH1 0x2 DUP8 ADD SLOAD PUSH1 0x24 PUSH1 0x40 MLOAD DUP1 SWAP5 DUP2 SWAP4 PUSH4 0x6A4731C5 PUSH1 0xE1 SHL DUP4 MSTORE PUSH1 0x4 DUP4 ADD MSTORE GAS STATICCALL DUP1 ISZERO PUSH2 0x10C4 JUMPI DUP5 PUSH1 0x20 SWAP2 PUSH2 0xE2F SWAP4 DUP9 SWAP2 PUSH2 0x10CF JUMPI JUMPDEST POP DUP3 ADD MLOAD PUSH1 0x40 MLOAD PUSH4 0x23B872DD PUSH1 0xE0 SHL DUP2 MSTORE CALLER PUSH1 0x4 DUP3 ADD MSTORE PUSH1 0x1 PUSH1 0x1 PUSH1 0xA0 SHL SUB SWAP1 SWAP2 AND PUSH1 0x24 DUP3 ADD MSTORE PUSH1 0x44 DUP2 ADD SWAP2 SWAP1 SWAP2 MSTORE SWAP2 DUP3 SWAP1 DUP2 SWAP1 PUSH1 0x64 DUP3 ADD SWAP1 JUMP JUMPDEST SUB DUP2 DUP9 PUSH1 0x10 DUP9 SWAP1 SHR PUSH1 0x1 PUSH1 0x1 PUSH1 0xA0 SHL SUB AND GAS CALL SWAP1 DUP2 ISZERO PUSH2 0x10C4 JUMPI DUP6 SWAP2 PUSH2 0x1078 JUMPI JUMPDEST POP SWAP1 PUSH2 0xEA2 SWAP3 PUSH2 0xE61 PUSH1 0x20 SWAP4 PUSH2 0x2245 JUMP JUMPDEST PUSH1 0x4 DUP1 SLOAD PUSH1 0x40 MLOAD PUSH4 0x23B872DD PUSH1 0xE0 SHL DUP2 MSTORE CALLER SWAP3 DUP2 ADD SWAP3 SWAP1 SWAP3 MSTORE PUSH1 0x1 PUSH1 0x1 PUSH1 0xA0 SHL SUB AND PUSH1 0x24 DUP3 ADD MSTORE PUSH1 0x44 DUP2 ADD SWAP3 SWAP1 SWAP3 MSTORE SWAP1 SWAP3 DUP4 SWAP2 SWAP1 DUP3 SWAP1 DUP8 SWAP1 DUP3 SWAP1 PUSH1 0x64 DUP3 ADD SWAP1 JUMP JUMPDEST SUB SWAP3 PUSH1 0x10 SHR PUSH1 0x1 PUSH1 0x1 PUSH1 0xA0 SHL SUB AND GAS CALL DUP1 ISZERO PUSH2 0x9C7 JUMPI DUP4 SWAP1 PUSH2 0x103D JUMPI JUMPDEST PUSH2 0xEC9 SWAP2 POP PUSH2 0x229D JUMP JUMPDEST PUSH1 0x2 DUP1 SLOAD SWAP1 DUP5 ADD SLOAD PUSH1 0x1 PUSH1 0x1 PUSH1 0xA0 SHL SUB SWAP1 SWAP2 AND SWAP2 DUP3 EXTCODESIZE ISZERO PUSH2 0xD34 JUMPI PUSH1 0x64 DUP5 SWAP3 DUP4 PUSH1 0x40 MLOAD SWAP6 DUP7 SWAP5 DUP6 SWAP4 PUSH4 0x4209E03D PUSH1 0xE0 SHL DUP6 MSTORE PUSH1 0x4 DUP6 ADD MSTORE DUP3 PUSH1 0x24 DUP6 ADD MSTORE PUSH1 0x44 DUP5 ADD MSTORE GAS CALL DUP1 ISZERO PUSH2 0x97F JUMPI PUSH2 0x1029 JUMPI JUMPDEST POP POP PUSH1 0x7 DUP2 ADD SLOAD PUSH1 0xFF DUP2 AND PUSH1 0x3 DUP2 LT ISZERO PUSH2 0x9D2 JUMPI PUSH1 0x1 EQ DUP1 ISZERO PUSH2 0x101C JUMPI JUMPDEST ISZERO PUSH2 0xFDF JUMPI PUSH3 0x278D00 DUP1 PUSH1 0x24 CALLDATALOAD MUL SWAP1 PUSH1 0x24 CALLDATALOAD DUP3 DIV SUB PUSH2 0xCCF JUMPI SWAP2 PUSH2 0xFD7 SWAP2 PUSH2 0xF6D PUSH1 0x0 DUP1 MLOAD PUSH1 0x20 PUSH2 0x237B DUP4 CODECOPY DUP2 MLOAD SWAP2 MSTORE SWAP5 TIMESTAMP PUSH2 0x212C JUMP JUMPDEST SWAP1 PUSH1 0xFF NOT AND PUSH1 0x7 DUP4 ADD SSTORE JUMPDEST DUP1 PUSH1 0x6 DUP4 ADD SSTORE PUSH1 0x40 MLOAD SWAP1 DUP2 MSTORE PUSH32 0x328F4610A15D0E6C197E13CB1B184720C7E4E7DCF6E07423B7625DA3128358B1 PUSH1 0x20 PUSH1 0x4 CALLDATALOAD SWAP3 LOG2 PUSH1 0x7 ADD SLOAD PUSH1 0x40 DUP1 MLOAD SWAP5 DUP6 MSTORE PUSH1 0x10 SWAP2 SWAP1 SWAP2 SHR PUSH1 0x1 PUSH1 0x1 PUSH1 0xA0 SHL SUB AND PUSH1 0x20 DUP6 ADD MSTORE PUSH1 0x4 CALLDATALOAD SWAP4 SWAP2 DUP3 SWAP2 DUP3 ADD SWAP1 JUMP JUMPDEST SUB SWAP1 LOG2 PUSH2 0xCC8 JUMP JUMPDEST POP PUSH1 0x6 DUP2 ADD SLOAD PUSH3 0x278D00 SWAP1 DUP2 PUSH1 0x24 CALLDATALOAD MUL SWAP2 PUSH1 0x24 CALLDATALOAD DUP4 DIV SUB PUSH2 0xCCF JUMPI SWAP2 PUSH2 0x1017 PUSH2 0xFD7 SWAP3 PUSH1 0x0 DUP1 MLOAD PUSH1 0x20 PUSH2 0x237B DUP4 CODECOPY DUP2 MLOAD SWAP2 MSTORE SWAP5 PUSH2 0x212C JUMP JUMPDEST PUSH2 0xF78 JUMP JUMPDEST POP PUSH1 0x6 DUP3 ADD SLOAD TIMESTAMP GT PUSH2 0xF36 JUMP JUMPDEST PUSH2 0x1032 SWAP1 PUSH2 0x1D02 JUMP JUMPDEST PUSH2 0x98A JUMPI DUP3 CODESIZE PUSH2 0xF18 JUMP JUMPDEST POP PUSH1 0x20 DUP2 RETURNDATASIZE PUSH1 0x20 GT PUSH2 0x1070 JUMPI JUMPDEST DUP2 PUSH2 0x1057 PUSH1 0x20 SWAP4 DUP4 PUSH2 0x1D49 JUMP JUMPDEST DUP2 ADD SUB SLT PUSH2 0x98A JUMPI PUSH2 0x106B PUSH2 0xEC9 SWAP2 PUSH2 0x1F4B JUMP JUMPDEST PUSH2 0xEBF JUMP JUMPDEST RETURNDATASIZE SWAP2 POP PUSH2 0x104A JUMP JUMPDEST SWAP2 SWAP1 POP PUSH1 0x20 DUP3 RETURNDATASIZE PUSH1 0x20 GT PUSH2 0x10BC JUMPI JUMPDEST DUP2 PUSH2 0x1094 PUSH1 0x20 SWAP4 DUP4 PUSH2 0x1D49 JUMP JUMPDEST DUP2 ADD SUB SLT PUSH2 0x10B8 JUMPI PUSH2 0xEA2 SWAP3 PUSH2 0xE61 PUSH2 0x10AE PUSH1 0x20 SWAP5 PUSH2 0x1F4B JUMP JUMPDEST SWAP3 SWAP4 POP POP SWAP3 PUSH2 0xE50 JUMP JUMPDEST DUP5 DUP1 REVERT JUMPDEST RETURNDATASIZE SWAP2 POP PUSH2 0x1087 JUMP JUMPDEST PUSH1 0x40 MLOAD RETURNDATASIZE DUP8 DUP3 RETURNDATACOPY RETURNDATASIZE SWAP1 REVERT JUMPDEST PUSH2 0x10E3 SWAP2 POP RETURNDATASIZE DUP1 DUP11 DUP4 RETURNDATACOPY PUSH2 0xA49 DUP2 DUP4 PUSH2 0x1D49 JUMP JUMPDEST CODESIZE PUSH2 0xDF4 JUMP JUMPDEST SWAP4 POP POP POP PUSH1 0x20 DUP3 RETURNDATASIZE PUSH1 0x20 GT PUSH2 0x1121 JUMPI JUMPDEST DUP2 PUSH2 0x1106 PUSH1 0x20 SWAP4 DUP4 PUSH2 0x1D49 JUMP JUMPDEST DUP2 ADD SUB SLT PUSH2 0x111C JUMPI PUSH2 0xD99 DUP5 DUP7 SWAP4 MLOAD SWAP1 SWAP2 PUSH2 0xD8C JUMP JUMPDEST PUSH1 0x0 DUP1 REVERT JUMPDEST RETURNDATASIZE SWAP2 POP PUSH2 0x10F9 JUMP JUMPDEST PUSH2 0x113D SWAP2 POP RETURNDATASIZE DUP1 DUP7 DUP4 RETURNDATACOPY PUSH2 0xA76 DUP2 DUP4 PUSH2 0x1D49 JUMP JUMPDEST CODESIZE PUSH2 0xB16 JUMP JUMPDEST PUSH1 0x40 MLOAD PUSH3 0x461BCD PUSH1 0xE5 SHL DUP2 MSTORE PUSH1 0x20 PUSH1 0x4 DUP3 ADD MSTORE PUSH1 0x21 PUSH1 0x24 DUP3 ADD MSTORE PUSH32 0x4D7573742072656E657720666F72206174206C65617374206F6E65206D6F6E74 PUSH1 0x44 DUP3 ADD MSTORE PUSH1 0xD PUSH1 0xFB SHL PUSH1 0x64 DUP3 ADD MSTORE PUSH1 0x84 SWAP1 REVERT JUMPDEST POP PUSH1 0x6 SLOAD PUSH1 0x4 CALLDATALOAD GT ISZERO PUSH2 0xAA4 JUMP JUMPDEST POP CALLVALUE PUSH2 0x1A8 JUMPI PUSH1 0x20 CALLDATASIZE PUSH1 0x3 NOT ADD SLT PUSH2 0x1A8 JUMPI PUSH1 0x4 CALLDATALOAD DUP1 ISZERO ISZERO DUP1 PUSH2 0x12A4 JUMPI JUMPDEST PUSH2 0x11C7 SWAP1 PUSH2 0x22E9 JUMP JUMPDEST DUP2 MSTORE PUSH1 0x7 PUSH1 0x20 MSTORE PUSH1 0x40 DUP2 KECCAK256 PUSH1 0x40 MLOAD PUSH2 0x11DE DUP2 PUSH2 0x1D2C JUMP JUMPDEST DUP2 SLOAD DUP2 MSTORE PUSH1 0x1 DUP3 ADD SLOAD PUSH1 0x1 PUSH1 0x1 PUSH1 0xA0 SHL SUB SWAP1 DUP2 AND PUSH1 0x20 DUP4 ADD MSTORE PUSH1 0x2 DUP4 ADD SLOAD PUSH1 0x40 DUP4 ADD MSTORE PUSH1 0x3 DUP4 ADD SLOAD PUSH1 0x60 DUP4 ADD MSTORE PUSH1 0x4 DUP4 ADD SLOAD PUSH1 0x80 DUP4 ADD MSTORE PUSH1 0x5 DUP4 ADD SLOAD PUSH1 0xA0 DUP4 ADD MSTORE PUSH1 0x6 DUP4 ADD SLOAD PUSH1 0xC0 DUP4 ADD SWAP1 DUP2 MSTORE PUSH1 0x7 SWAP1 SWAP4 ADD SLOAD PUSH1 0xE0 DUP4 ADD SWAP3 SWAP2 PUSH2 0x120 SWAP2 PUSH2 0x1248 PUSH1 0xFF DUP3 AND DUP7 PUSH2 0x2139 JUMP JUMPDEST PUSH2 0x125C PUSH1 0xFF DUP3 PUSH1 0x8 SHR AND PUSH2 0x100 DUP7 ADD PUSH2 0x2145 JUMP JUMPDEST PUSH1 0x10 SHR AND SWAP2 ADD MSTORE MLOAD PUSH1 0x3 DUP2 LT ISZERO PUSH2 0x1290 JUMPI PUSH1 0x20 SWAP3 POP ISZERO SWAP1 DUP2 PUSH2 0x1284 JUMPI JUMPDEST POP PUSH1 0x40 MLOAD SWAP1 ISZERO ISZERO DUP2 MSTORE RETURN JUMPDEST SWAP1 POP MLOAD TIMESTAMP GT ISZERO CODESIZE PUSH2 0x1279 JUMP JUMPDEST PUSH4 0x4E487B71 PUSH1 0xE0 SHL DUP4 MSTORE PUSH1 0x21 PUSH1 0x4 MSTORE PUSH1 0x24 DUP4 REVERT JUMPDEST POP PUSH1 0x6 SLOAD DUP2 GT ISZERO PUSH2 0x11BE JUMP JUMPDEST POP CALLVALUE PUSH2 0x1A8 JUMPI DUP1 PUSH1 0x3 NOT CALLDATASIZE ADD SLT PUSH2 0x1A8 JUMPI PUSH1 0x4 SLOAD PUSH1 0x40 MLOAD PUSH1 0x1 PUSH1 0x1 PUSH1 0xA0 SHL SUB SWAP1 SWAP2 AND DUP2 MSTORE PUSH1 0x20 SWAP1 RETURN JUMPDEST POP CALLVALUE PUSH2 0x1A8 JUMPI PUSH1 0x80 CALLDATASIZE PUSH1 0x3 NOT ADD SLT PUSH2 0x1A8 JUMPI PUSH1 0x64 CALLDATALOAD PUSH1 0x1 PUSH1 0x1 PUSH1 0xA0 SHL SUB DUP2 AND SWAP1 SUB PUSH2 0x111C JUMPI PUSH2 0x1306 PUSH2 0x21A3 JUMP JUMPDEST PUSH2 0x1313 PUSH1 0x44 CALLDATALOAD ISZERO ISZERO PUSH2 0x1C67 JUMP JUMPDEST PUSH2 0x1320 PUSH1 0x4 CALLDATALOAD ISZERO ISZERO PUSH2 0x1CC1 JUMP JUMPDEST PUSH1 0x64 CALLDATALOAD PUSH1 0x1 PUSH1 0x1 PUSH1 0xA0 SHL SUB AND ISZERO PUSH2 0x18BC JUMPI PUSH1 0x3 SLOAD PUSH1 0x40 MLOAD PUSH4 0x2783162D PUSH1 0xE1 SHL DUP2 MSTORE PUSH1 0x24 DUP1 CALLDATALOAD PUSH1 0x4 DUP4 ADD MSTORE SWAP1 SWAP2 DUP4 SWAP2 DUP4 SWAP2 DUP3 SWAP1 PUSH1 0x1 PUSH1 0x1 PUSH1 0xA0 SHL SUB AND GAS STATICCALL DUP1 ISZERO PUSH2 0x97F JUMPI PUSH2 0x138D SWAP2 DUP4 SWAP2 PUSH2 0x18A2 JUMPI JUMPDEST POP PUSH2 0x1380 PUSH1 0x4 CALLDATALOAD PUSH1 0x20 DUP4 ADD MLOAD EQ PUSH2 0x1E86 JUMP JUMPDEST PUSH1 0x80 PUSH1 0x44 CALLDATALOAD SWAP2 ADD MLOAD PUSH2 0x1ED2 JUMP JUMPDEST PUSH1 0x40 MLOAD PUSH4 0x6EB1769F PUSH1 0xE1 SHL DUP2 MSTORE CALLER PUSH1 0x4 DUP3 ADD MSTORE ADDRESS PUSH1 0x24 DUP3 ADD MSTORE SWAP1 SWAP2 SWAP1 PUSH1 0x20 DUP2 PUSH1 0x44 DUP2 PUSH1 0x1 PUSH1 0x1 PUSH1 0xA0 SHL SUB PUSH1 0x64 CALLDATALOAD AND GAS STATICCALL DUP1 ISZERO PUSH2 0x97F JUMPI DUP4 SWAP1 DUP4 SWAP1 PUSH2 0x186C JUMPI JUMPDEST PUSH2 0x13D8 SWAP3 POP LT ISZERO PUSH2 0x21F9 JUMP JUMPDEST PUSH1 0x64 PUSH2 0x13E6 PUSH1 0x5 SLOAD DUP5 PUSH2 0x1ED2 JUMP JUMPDEST DIV PUSH2 0x13F1 DUP2 DUP5 PUSH2 0x1F3E JUMP JUMPDEST SWAP1 PUSH1 0x24 DUP4 PUSH1 0x1 DUP1 PUSH1 0xA0 SHL SUB PUSH1 0x2 SLOAD AND PUSH1 0x40 MLOAD SWAP3 DUP4 DUP1 SWAP3 PUSH4 0x6A4731C5 PUSH1 0xE1 SHL DUP3 MSTORE PUSH1 0x4 CALLDATALOAD PUSH1 0x4 DUP4 ADD MSTORE GAS STATICCALL SWAP1 DUP2 ISZERO PUSH2 0xA57 JUMPI DUP4 PUSH2 0x146B SWAP3 PUSH1 0x20 SWAP3 DUP8 SWAP2 PUSH2 0x1858 JUMPI POP DUP3 ADD MLOAD PUSH1 0x40 MLOAD PUSH4 0x23B872DD PUSH1 0xE0 SHL DUP2 MSTORE CALLER PUSH1 0x4 DUP3 ADD MSTORE PUSH1 0x1 PUSH1 0x1 PUSH1 0xA0 SHL SUB SWAP1 SWAP2 AND PUSH1 0x24 DUP3 ADD MSTORE PUSH1 0x44 DUP2 ADD SWAP2 SWAP1 SWAP2 MSTORE SWAP2 DUP3 SWAP1 DUP2 SWAP1 PUSH1 0x64 DUP3 ADD SWAP1 JUMP JUMPDEST SUB DUP2 DUP8 PUSH1 0x64 CALLDATALOAD PUSH1 0x1 PUSH1 0x1 PUSH1 0xA0 SHL SUB AND GAS CALL SWAP1 DUP2 ISZERO PUSH2 0xA57 JUMPI DUP5 SWAP2 PUSH2 0x1812 JUMPI JUMPDEST POP PUSH2 0x14D5 SWAP2 PUSH2 0x149A PUSH1 0x20 SWAP3 PUSH2 0x2245 JUMP JUMPDEST PUSH1 0x4 DUP1 SLOAD PUSH1 0x40 MLOAD PUSH4 0x23B872DD PUSH1 0xE0 SHL DUP2 MSTORE CALLER SWAP3 DUP2 ADD SWAP3 SWAP1 SWAP3 MSTORE PUSH1 0x1 PUSH1 0x1 PUSH1 0xA0 SHL SUB AND PUSH1 0x24 DUP3 ADD MSTORE PUSH1 0x44 DUP2 ADD SWAP2 SWAP1 SWAP2 MSTORE SWAP2 DUP3 SWAP1 DUP2 SWAP1 PUSH1 0x64 DUP3 ADD SWAP1 JUMP JUMPDEST SUB DUP2 DUP7 PUSH1 0x64 CALLDATALOAD PUSH1 0x1 PUSH1 0x1 PUSH1 0xA0 SHL SUB AND GAS CALL DUP1 ISZERO PUSH2 0x9C7 JUMPI DUP4 SWAP1 PUSH2 0x17D7 JUMPI JUMPDEST PUSH2 0x14FD SWAP2 POP PUSH2 0x229D JUMP JUMPDEST PUSH1 0x1 PUSH1 0x6 SLOAD ADD SWAP2 DUP3 PUSH1 0x6 SSTORE PUSH3 0x278D00 DUP1 PUSH1 0x44 CALLDATALOAD MUL SWAP1 PUSH1 0x44 CALLDATALOAD DUP3 DIV EQ PUSH1 0x44 CALLDATALOAD ISZERO OR ISZERO PUSH2 0x9FA JUMPI PUSH2 0x152C SWAP1 TIMESTAMP PUSH2 0x212C JUMP JUMPDEST SWAP2 PUSH1 0x40 MLOAD PUSH2 0x1539 DUP2 PUSH2 0x1D2C JUMP JUMPDEST DUP5 DUP2 MSTORE PUSH1 0x20 DUP2 ADD SWAP1 CALLER DUP3 MSTORE PUSH1 0x40 DUP2 ADD PUSH1 0x4 CALLDATALOAD DUP2 MSTORE PUSH1 0x60 DUP3 ADD PUSH1 0x24 CALLDATALOAD DUP2 MSTORE PUSH1 0x80 DUP4 ADD DUP10 DUP2 MSTORE PUSH1 0xA0 DUP5 ADD TIMESTAMP DUP2 MSTORE PUSH1 0xC0 DUP6 ADD SWAP2 DUP10 DUP4 MSTORE PUSH1 0xE0 DUP7 ADD SWAP4 DUP10 DUP6 MSTORE PUSH2 0x100 DUP8 ADD SWAP6 PUSH1 0x1 DUP8 MSTORE PUSH1 0x1 DUP1 PUSH1 0xA0 SHL SUB PUSH1 0x64 CALLDATALOAD AND PUSH2 0x120 DUP10 ADD MSTORE DUP13 DUP12 MSTORE PUSH1 0x7 PUSH1 0x20 MSTORE PUSH1 0x40 DUP12 KECCAK256 SWAP9 DUP9 MLOAD DUP11 SSTORE PUSH1 0x1 DUP11 ADD SWAP1 PUSH1 0x1 DUP1 PUSH1 0xA0 SHL SUB SWAP1 MLOAD AND PUSH1 0x1 PUSH1 0x1 PUSH1 0x60 SHL SUB PUSH1 0xA0 SHL DUP3 SLOAD AND OR SWAP1 SSTORE MLOAD PUSH1 0x2 DUP10 ADD SSTORE MLOAD PUSH1 0x3 DUP9 ADD SSTORE MLOAD PUSH1 0x4 DUP8 ADD SSTORE MLOAD PUSH1 0x5 DUP7 ADD SSTORE MLOAD PUSH1 0x6 DUP6 ADD SSTORE MLOAD PUSH1 0x3 DUP2 LT ISZERO PUSH2 0x9E6 JUMPI PUSH2 0x15F5 SWAP1 PUSH1 0x7 DUP6 ADD PUSH2 0x2151 JUMP JUMPDEST MLOAD SWAP1 PUSH1 0x2 DUP3 LT ISZERO PUSH2 0x9D2 JUMPI SWAP1 PUSH1 0x7 SWAP2 PUSH2 0xFF00 DUP4 DUP6 ADD SLOAD SWAP2 PUSH2 0x120 PUSH3 0x10000 PUSH1 0x1 PUSH1 0xB0 SHL SUB SWAP2 ADD MLOAD PUSH1 0x10 SHL AND SWAP3 PUSH1 0x8 SHL AND SWAP1 PUSH2 0x100 PUSH1 0x1 PUSH1 0xB0 SHL SUB NOT AND OR OR SWAP2 ADD SSTORE CALLER DUP3 MSTORE PUSH1 0x8 PUSH1 0x20 MSTORE PUSH1 0x40 DUP3 KECCAK256 PUSH1 0x4 CALLDATALOAD DUP4 MSTORE PUSH1 0x20 MSTORE PUSH2 0x1657 DUP5 PUSH1 0x40 DUP5 KECCAK256 PUSH2 0x2169 JUMP JUMPDEST PUSH1 0x3 SLOAD PUSH1 0x40 MLOAD PUSH4 0x23A36D2B PUSH1 0xE0 SHL DUP2 MSTORE CALLER PUSH1 0x4 DUP3 ADD MSTORE PUSH1 0x24 DUP1 CALLDATALOAD SWAP1 DUP3 ADD MSTORE PUSH1 0x1 PUSH1 0x44 DUP3 ADD MSTORE SWAP1 PUSH1 0x20 SWAP1 DUP3 SWAP1 PUSH1 0x64 SWAP1 DUP3 SWAP1 DUP8 SWAP1 PUSH1 0x1 PUSH1 0x1 PUSH1 0xA0 SHL SUB AND GAS CALL DUP1 ISZERO PUSH2 0x9C7 JUMPI PUSH2 0x179E JUMPI JUMPDEST POP PUSH1 0x2 SLOAD PUSH1 0x1 PUSH1 0x1 PUSH1 0xA0 SHL SUB AND SWAP1 DUP2 EXTCODESIZE ISZERO PUSH2 0x98A JUMPI DUP3 SWAP2 PUSH1 0x64 DUP4 SWAP3 PUSH1 0x40 MLOAD SWAP5 DUP6 SWAP4 DUP5 SWAP3 PUSH4 0x4209E03D PUSH1 0xE0 SHL DUP5 MSTORE PUSH1 0x4 CALLDATALOAD PUSH1 0x4 DUP6 ADD MSTORE PUSH1 0x1 PUSH1 0x24 DUP6 ADD MSTORE PUSH1 0x44 DUP5 ADD MSTORE GAS CALL DUP1 ISZERO PUSH2 0x97F JUMPI PUSH2 0x178A JUMPI JUMPDEST PUSH1 0x20 DUP5 DUP1 PUSH1 0x0 DUP1 MLOAD PUSH1 0x20 PUSH2 0x237B DUP4 CODECOPY DUP2 MLOAD SWAP2 MSTORE PUSH2 0x177B DUP10 DUP9 PUSH1 0x40 MLOAD SWAP1 DUP6 PUSH32 0x4CE7D0494BAE52234D5B23E3C0D5C50C951EE8559386326790CDED1ECCAA6D3F PUSH1 0x4 CALLDATALOAD SWAP4 DUP1 PUSH2 0x1757 CALLER SWAP6 TIMESTAMP DUP10 PUSH1 0x24 CALLDATALOAD DUP6 SWAP1 SWAP5 SWAP4 SWAP3 PUSH1 0x60 SWAP3 PUSH1 0x80 DUP4 ADD SWAP7 DUP4 MSTORE PUSH1 0x20 DUP4 ADD MSTORE PUSH1 0x40 DUP3 ADD MSTORE ADD MSTORE JUMP JUMPDEST SUB SWAP1 LOG4 PUSH1 0x40 DUP1 MLOAD SWAP2 DUP3 MSTORE PUSH1 0x1 PUSH1 0x1 PUSH1 0xA0 SHL SUB PUSH1 0x64 CALLDATALOAD AND PUSH1 0x20 DUP4 ADD MSTORE SWAP1 SWAP2 DUP3 SWAP2 DUP3 ADD SWAP1 JUMP JUMPDEST SUB SWAP1 LOG2 PUSH1 0x1 DUP1 SSTORE PUSH1 0x40 MLOAD SWAP1 DUP2 MSTORE RETURN JUMPDEST PUSH2 0x1794 DUP3 SWAP2 PUSH2 0x1D02 JUMP JUMPDEST PUSH2 0x1A8 JUMPI DUP1 PUSH2 0x16ED JUMP JUMPDEST PUSH1 0x20 DUP2 RETURNDATASIZE PUSH1 0x20 GT PUSH2 0x17CF JUMPI JUMPDEST DUP2 PUSH2 0x17B7 PUSH1 0x20 SWAP4 DUP4 PUSH2 0x1D49 JUMP JUMPDEST DUP2 ADD SUB SLT PUSH2 0x98A JUMPI PUSH2 0x17C8 SWAP1 PUSH2 0x1F4B JUMP JUMPDEST POP CODESIZE PUSH2 0x169F JUMP JUMPDEST RETURNDATASIZE SWAP2 POP PUSH2 0x17AA JUMP JUMPDEST POP PUSH1 0x20 DUP2 RETURNDATASIZE PUSH1 0x20 GT PUSH2 0x180A JUMPI JUMPDEST DUP2 PUSH2 0x17F1 PUSH1 0x20 SWAP4 DUP4 PUSH2 0x1D49 JUMP JUMPDEST DUP2 ADD SUB SLT PUSH2 0x98A JUMPI PUSH2 0x1805 PUSH2 0x14FD SWAP2 PUSH2 0x1F4B JUMP JUMPDEST PUSH2 0x14F3 JUMP JUMPDEST RETURNDATASIZE SWAP2 POP PUSH2 0x17E4 JUMP JUMPDEST SWAP1 POP PUSH1 0x20 DUP2 RETURNDATASIZE PUSH1 0x20 GT PUSH2 0x1850 JUMPI JUMPDEST DUP2 PUSH2 0x182D PUSH1 0x20 SWAP4 DUP4 PUSH2 0x1D49 JUMP JUMPDEST DUP2 ADD SUB SLT PUSH2 0xD34 JUMPI PUSH2 0x14D5 SWAP2 PUSH2 0x149A PUSH2 0x1847 PUSH1 0x20 SWAP4 PUSH2 0x1F4B JUMP JUMPDEST SWAP3 POP POP SWAP2 PUSH2 0x148A JUMP JUMPDEST RETURNDATASIZE SWAP2 POP PUSH2 0x1820 JUMP JUMPDEST PUSH2 0x10E3 SWAP2 POP RETURNDATASIZE DUP1 DUP10 DUP4 RETURNDATACOPY PUSH2 0xA49 DUP2 DUP4 PUSH2 0x1D49 JUMP JUMPDEST POP POP PUSH1 0x20 DUP2 RETURNDATASIZE PUSH1 0x20 GT PUSH2 0x189A JUMPI JUMPDEST DUP2 PUSH2 0x1887 PUSH1 0x20 SWAP4 DUP4 PUSH2 0x1D49 JUMP JUMPDEST DUP2 ADD SUB SLT PUSH2 0x111C JUMPI DUP3 PUSH2 0x13D8 SWAP2 MLOAD PUSH2 0x13CC JUMP JUMPDEST RETURNDATASIZE SWAP2 POP PUSH2 0x187A JUMP JUMPDEST PUSH2 0x18B6 SWAP2 POP RETURNDATASIZE DUP1 DUP6 DUP4 RETURNDATACOPY PUSH2 0xA76 DUP2 DUP4 PUSH2 0x1D49 JUMP JUMPDEST CODESIZE PUSH2 0x136E JUMP JUMPDEST PUSH1 0x40 MLOAD PUSH3 0x461BCD PUSH1 0xE5 SHL DUP2 MSTORE PUSH1 0x20 PUSH1 0x4 DUP3 ADD MSTORE PUSH1 0x15 PUSH1 0x24 DUP3 ADD MSTORE PUSH21 0x496E76616C696420746F6B656E2061646472657373 PUSH1 0x58 SHL PUSH1 0x44 DUP3 ADD MSTORE PUSH1 0x64 SWAP1 REVERT JUMPDEST POP CALLVALUE PUSH2 0x1A8 JUMPI PUSH1 0x20 CALLDATASIZE PUSH1 0x3 NOT ADD SLT PUSH2 0x1A8 JUMPI PUSH1 0x40 PUSH2 0x140 SWAP2 PUSH1 0x4 CALLDATALOAD DUP2 MSTORE PUSH1 0x7 PUSH1 0x20 MSTORE KECCAK256 DUP1 SLOAD SWAP1 PUSH1 0x1 DUP1 PUSH1 0xA0 SHL SUB SWAP1 DUP2 PUSH1 0x1 DUP3 ADD SLOAD AND SWAP1 PUSH1 0x2 DUP2 ADD SLOAD PUSH1 0x3 DUP3 ADD SLOAD PUSH1 0x4 DUP4 ADD SLOAD SWAP1 PUSH1 0x5 DUP5 ADD SLOAD SWAP3 PUSH1 0x7 PUSH1 0x6 DUP7 ADD SLOAD SWAP6 ADD SLOAD SWAP6 PUSH1 0x40 MLOAD SWAP9 DUP10 MSTORE PUSH1 0x20 DUP10 ADD MSTORE PUSH1 0x40 DUP9 ADD MSTORE PUSH1 0x60 DUP8 ADD MSTORE PUSH1 0x80 DUP7 ADD MSTORE PUSH1 0xA0 DUP6 ADD MSTORE PUSH1 0xC0 DUP5 ADD MSTORE PUSH2 0x1984 PUSH1 0xE0 DUP5 ADD PUSH1 0xFF DUP4 AND PUSH2 0x1B9B JUMP JUMPDEST PUSH2 0x1998 PUSH2 0x100 DUP5 ADD PUSH1 0xFF DUP4 PUSH1 0x8 SHR AND PUSH2 0x1BBE JUMP JUMPDEST PUSH1 0x10 SHR AND PUSH2 0x120 DUP3 ADD MSTORE RETURN JUMPDEST POP CALLVALUE PUSH2 0x1A8 JUMPI DUP1 PUSH1 0x3 NOT CALLDATASIZE ADD SLT PUSH2 0x1A8 JUMPI PUSH1 0x3 SLOAD PUSH1 0x40 MLOAD PUSH1 0x1 PUSH1 0x1 PUSH1 0xA0 SHL SUB SWAP1 SWAP2 AND DUP2 MSTORE PUSH1 0x20 SWAP1 RETURN JUMPDEST POP CALLVALUE PUSH2 0x1A8 JUMPI PUSH1 0x20 CALLDATASIZE PUSH1 0x3 NOT ADD SLT PUSH2 0x1A8 JUMPI PUSH1 0x4 CALLDATALOAD SWAP1 PUSH2 0x19EB PUSH2 0x21A3 JUMP JUMPDEST DUP2 ISZERO ISZERO DUP1 PUSH2 0x1B0E JUMPI JUMPDEST PUSH2 0x19FD SWAP1 PUSH2 0x22E9 JUMP JUMPDEST DUP2 DUP2 MSTORE PUSH1 0x7 PUSH1 0x20 MSTORE PUSH1 0x40 DUP2 KECCAK256 PUSH1 0x1 DUP2 ADD SLOAD PUSH1 0x1 PUSH1 0x1 PUSH1 0xA0 SHL SUB SWAP1 PUSH2 0x1A24 SWAP1 DUP3 AND CALLER EQ PUSH2 0x2335 JUMP JUMPDEST PUSH1 0x7 DUP3 ADD SWAP1 DUP2 SLOAD SWAP2 PUSH1 0xFF DUP4 AND PUSH1 0x3 DUP2 LT ISZERO PUSH2 0x9E6 JUMPI PUSH2 0x1AC9 JUMPI PUSH1 0x2 DUP1 SWAP4 PUSH1 0xFF NOT AND OR SWAP1 SSTORE DUP2 SLOAD AND SWAP2 ADD SLOAD DUP2 EXTCODESIZE ISZERO PUSH2 0x98A JUMPI DUP3 SWAP2 PUSH1 0x64 DUP4 SWAP3 PUSH1 0x40 MLOAD SWAP5 DUP6 SWAP4 DUP5 SWAP3 PUSH4 0x4209E03D PUSH1 0xE0 SHL DUP5 MSTORE PUSH1 0x4 DUP5 ADD MSTORE PUSH1 0x0 NOT PUSH1 0x24 DUP5 ADD MSTORE DUP2 PUSH1 0x44 DUP5 ADD MSTORE GAS CALL DUP1 ISZERO PUSH2 0x97F JUMPI PUSH2 0x1ABA JUMPI JUMPDEST POP SWAP1 PUSH32 0xBD2BCEA75D16A85F005CD83447E0DE57341BF926FE7419E6D553663E91AB4DA7 DUP3 DUP1 LOG2 PUSH1 0x1 DUP1 SSTORE DUP1 RETURN JUMPDEST PUSH2 0x1AC3 SWAP1 PUSH2 0x1D02 JUMP JUMPDEST CODESIZE PUSH2 0x1A8D JUMP JUMPDEST PUSH1 0x40 MLOAD PUSH3 0x461BCD PUSH1 0xE5 SHL DUP2 MSTORE PUSH1 0x20 PUSH1 0x4 DUP3 ADD MSTORE PUSH1 0x17 PUSH1 0x24 DUP3 ADD MSTORE PUSH32 0x537562736372697074696F6E206E6F7420616374697665000000000000000000 PUSH1 0x44 DUP3 ADD MSTORE PUSH1 0x64 SWAP1 REVERT JUMPDEST POP PUSH1 0x6 SLOAD DUP3 GT ISZERO PUSH2 0x19F4 JUMP JUMPDEST POP CALLVALUE PUSH2 0x1A8 JUMPI PUSH1 0x20 CALLDATASIZE PUSH1 0x3 NOT ADD SLT PUSH2 0x1A8 JUMPI PUSH1 0x4 CALLDATALOAD PUSH2 0x1B37 PUSH2 0x1C0F JUMP JUMPDEST PUSH1 0x64 DUP2 GT PUSH2 0x1B45 JUMPI PUSH1 0x5 SSTORE DUP1 RETURN JUMPDEST PUSH1 0x40 MLOAD PUSH3 0x461BCD PUSH1 0xE5 SHL DUP2 MSTORE PUSH1 0x20 PUSH1 0x4 DUP3 ADD MSTORE PUSH1 0x28 PUSH1 0x24 DUP3 ADD MSTORE PUSH32 0x4665652070657263656E74616765206D757374206265206265747765656E2030 PUSH1 0x44 DUP3 ADD MSTORE PUSH8 0x20616E642031303 PUSH1 0xC4 SHL PUSH1 0x64 DUP3 ADD MSTORE PUSH1 0x84 SWAP1 REVERT JUMPDEST SWAP1 PUSH1 0x3 DUP3 LT ISZERO PUSH2 0x1BA8 JUMPI MSTORE JUMP JUMPDEST PUSH4 0x4E487B71 PUSH1 0xE0 SHL PUSH1 0x0 MSTORE PUSH1 0x21 PUSH1 0x4 MSTORE PUSH1 0x24 PUSH1 0x0 REVERT JUMPDEST SWAP1 PUSH1 0x2 DUP3 LT ISZERO PUSH2 0x1BA8 JUMPI MSTORE JUMP JUMPDEST PUSH1 0x4 CALLDATALOAD SWAP1 PUSH1 0x1 PUSH1 0x1 PUSH1 0xA0 SHL SUB DUP3 AND DUP3 SUB PUSH2 0x111C JUMPI JUMP JUMPDEST DUP1 SLOAD DUP3 LT ISZERO PUSH2 0x1BF9 JUMPI PUSH1 0x0 MSTORE PUSH1 0x20 PUSH1 0x0 KECCAK256 ADD SWAP1 PUSH1 0x0 SWAP1 JUMP JUMPDEST PUSH4 0x4E487B71 PUSH1 0xE0 SHL PUSH1 0x0 MSTORE PUSH1 0x32 PUSH1 0x4 MSTORE PUSH1 0x24 PUSH1 0x0 REVERT JUMPDEST PUSH1 0x0 SLOAD PUSH1 0x1 PUSH1 0x1 PUSH1 0xA0 SHL SUB AND CALLER SUB PUSH2 0x1C23 JUMPI JUMP JUMPDEST PUSH1 0x64 PUSH1 0x40 MLOAD PUSH3 0x461BCD PUSH1 0xE5 SHL DUP2 MSTORE PUSH1 0x20 PUSH1 0x4 DUP3 ADD MSTORE PUSH1 0x20 PUSH1 0x24 DUP3 ADD MSTORE PUSH32 0x4F776E61626C653A2063616C6C6572206973206E6F7420746865206F776E6572 PUSH1 0x44 DUP3 ADD MSTORE REVERT JUMPDEST ISZERO PUSH2 0x1C6E JUMPI JUMP JUMPDEST PUSH1 0x40 MLOAD PUSH3 0x461BCD PUSH1 0xE5 SHL DUP2 MSTORE PUSH1 0x20 PUSH1 0x4 DUP3 ADD MSTORE PUSH1 0x25 PUSH1 0x24 DUP3 ADD MSTORE PUSH32 0x4D7573742073756273637269626520666F72206174206C65617374206F6E6520 PUSH1 0x44 DUP3 ADD MSTORE PUSH5 0xDADEDCE8D PUSH1 0xDB SHL PUSH1 0x64 DUP3 ADD MSTORE PUSH1 0x84 SWAP1 REVERT JUMPDEST ISZERO PUSH2 0x1CC8 JUMPI JUMP JUMPDEST PUSH1 0x40 MLOAD PUSH3 0x461BCD PUSH1 0xE5 SHL DUP2 MSTORE PUSH1 0x20 PUSH1 0x4 DUP3 ADD MSTORE PUSH1 0x12 PUSH1 0x24 DUP3 ADD MSTORE PUSH18 0x125B9D985B1A590818DC99585D1BDC881251 PUSH1 0x72 SHL PUSH1 0x44 DUP3 ADD MSTORE PUSH1 0x64 SWAP1 REVERT JUMPDEST PUSH8 0xFFFFFFFFFFFFFFFF DUP2 GT PUSH2 0x1D16 JUMPI PUSH1 0x40 MSTORE JUMP JUMPDEST PUSH4 0x4E487B71 PUSH1 0xE0 SHL PUSH1 0x0 MSTORE PUSH1 0x41 PUSH1 0x4 MSTORE PUSH1 0x24 PUSH1 0x0 REVERT JUMPDEST PUSH2 0x140 DUP2 ADD SWAP1 DUP2 LT PUSH8 0xFFFFFFFFFFFFFFFF DUP3 GT OR PUSH2 0x1D16 JUMPI PUSH1 0x40 MSTORE JUMP JUMPDEST SWAP1 PUSH1 0x1F DUP1 NOT SWAP2 ADD AND DUP2 ADD SWAP1 DUP2 LT PUSH8 0xFFFFFFFFFFFFFFFF DUP3 GT OR PUSH2 0x1D16 JUMPI PUSH1 0x40 MSTORE JUMP JUMPDEST PUSH8 0xFFFFFFFFFFFFFFFF DUP2 GT PUSH2 0x1D16 JUMPI PUSH1 0x1F ADD PUSH1 0x1F NOT AND PUSH1 0x20 ADD SWAP1 JUMP JUMPDEST SWAP2 SWAP1 DUP1 PUSH1 0x1F DUP5 ADD SLT ISZERO PUSH2 0x111C JUMPI DUP3 MLOAD SWAP1 PUSH2 0x1DA0 DUP3 PUSH2 0x1D6B JUMP JUMPDEST SWAP2 PUSH2 0x1DAE PUSH1 0x40 MLOAD SWAP4 DUP5 PUSH2 0x1D49 JUMP JUMPDEST DUP1 DUP4 MSTORE PUSH1 0x20 SWAP2 DUP3 DUP3 DUP8 ADD ADD GT PUSH2 0x111C JUMPI PUSH1 0x0 JUMPDEST DUP2 DUP2 LT PUSH2 0x1DD6 JUMPI POP DUP3 PUSH1 0x0 SWAP4 SWAP5 SWAP6 POP ADD ADD MSTORE SWAP1 JUMP JUMPDEST DUP6 DUP2 ADD DUP4 ADD MLOAD DUP5 DUP3 ADD DUP5 ADD MSTORE DUP3 ADD PUSH2 0x1DC1 JUMP JUMPDEST SWAP1 PUSH1 0x20 DUP3 DUP3 SUB SLT PUSH2 0x111C JUMPI DUP2 MLOAD PUSH8 0xFFFFFFFFFFFFFFFF SWAP3 DUP4 DUP3 GT PUSH2 0x111C JUMPI ADD PUSH1 0xC0 DUP2 DUP4 SUB SLT PUSH2 0x111C JUMPI PUSH1 0x40 MLOAD SWAP3 PUSH1 0xC0 DUP5 ADD DUP5 DUP2 LT DUP3 DUP3 GT OR PUSH2 0x1D16 JUMPI PUSH1 0x40 MSTORE DUP2 MLOAD DUP5 MSTORE PUSH1 0x20 DUP3 ADD MLOAD PUSH1 0x20 DUP6 ADD MSTORE PUSH1 0x40 DUP3 ADD MLOAD DUP2 DUP2 GT PUSH2 0x111C JUMPI DUP4 PUSH2 0x1E4E SWAP2 DUP5 ADD PUSH2 0x1D87 JUMP JUMPDEST PUSH1 0x40 DUP6 ADD MSTORE PUSH1 0x60 DUP3 ADD MLOAD SWAP1 DUP2 GT PUSH2 0x111C JUMPI PUSH1 0xA0 SWAP3 PUSH2 0x1E6D SWAP2 DUP4 ADD PUSH2 0x1D87 JUMP JUMPDEST PUSH1 0x60 DUP5 ADD MSTORE PUSH1 0x80 DUP2 ADD MLOAD PUSH1 0x80 DUP5 ADD MSTORE ADD MLOAD PUSH1 0xA0 DUP3 ADD MSTORE SWAP1 JUMP JUMPDEST ISZERO PUSH2 0x1E8D JUMPI JUMP JUMPDEST PUSH1 0x40 MLOAD PUSH3 0x461BCD PUSH1 0xE5 SHL DUP2 MSTORE PUSH1 0x20 PUSH1 0x4 DUP3 ADD MSTORE PUSH1 0x1F PUSH1 0x24 DUP3 ADD MSTORE PUSH32 0x5469657220646F6573206E6F742062656C6F6E6720746F2063726561746F7200 PUSH1 0x44 DUP3 ADD MSTORE PUSH1 0x64 SWAP1 REVERT JUMPDEST DUP2 DUP2 MUL SWAP3 SWAP2 DUP2 ISZERO SWAP2 DUP5 DIV EQ OR ISZERO PUSH2 0x1EE5 JUMPI JUMP JUMPDEST PUSH4 0x4E487B71 PUSH1 0xE0 SHL PUSH1 0x0 MSTORE PUSH1 0x11 PUSH1 0x4 MSTORE PUSH1 0x24 PUSH1 0x0 REVERT JUMPDEST ISZERO PUSH2 0x1F02 JUMPI JUMP JUMPDEST PUSH1 0x40 MLOAD PUSH3 0x461BCD PUSH1 0xE5 SHL DUP2 MSTORE PUSH1 0x20 PUSH1 0x4 DUP3 ADD MSTORE PUSH1 0x14 PUSH1 0x24 DUP3 ADD MSTORE PUSH20 0x125B9CDD59999A58DA595B9D081C185E5B595B9D PUSH1 0x62 SHL PUSH1 0x44 DUP3 ADD MSTORE PUSH1 0x64 SWAP1 REVERT JUMPDEST SWAP2 SWAP1 DUP3 SUB SWAP2 DUP3 GT PUSH2 0x1EE5 JUMPI JUMP JUMPDEST MLOAD SWAP1 DUP2 ISZERO ISZERO DUP3 SUB PUSH2 0x111C JUMPI JUMP JUMPDEST SWAP1 PUSH1 0x20 DUP3 DUP3 SUB SLT PUSH2 0x111C JUMPI DUP2 MLOAD PUSH8 0xFFFFFFFFFFFFFFFF SWAP3 DUP4 DUP3 GT PUSH2 0x111C JUMPI ADD PUSH2 0x100 SWAP3 DUP4 DUP3 DUP5 SUB SLT PUSH2 0x111C JUMPI PUSH1 0x40 MLOAD SWAP4 DUP5 ADD DUP5 DUP2 LT DUP3 DUP3 GT OR PUSH2 0x1D16 JUMPI PUSH1 0x40 MSTORE DUP2 MLOAD DUP5 MSTORE PUSH1 0x20 DUP3 ADD MLOAD PUSH1 0x1 PUSH1 0x1 PUSH1 0xA0 SHL SUB DUP2 AND DUP2 SUB PUSH2 0x111C JUMPI PUSH1 0x20 DUP6 ADD MSTORE PUSH1 0x40 DUP3 ADD MLOAD SWAP1 DUP2 GT PUSH2 0x111C JUMPI PUSH1 0xE0 SWAP3 PUSH2 0x1FD0 SWAP2 DUP4 ADD PUSH2 0x1D87 JUMP JUMPDEST PUSH1 0x40 DUP5 ADD MSTORE PUSH1 0x60 DUP2 ADD MLOAD PUSH1 0x60 DUP5 ADD MSTORE PUSH1 0x80 DUP2 ADD MLOAD PUSH1 0x80 DUP5 ADD MSTORE PUSH2 0x1FF5 PUSH1 0xA0 DUP3 ADD PUSH2 0x1F4B JUMP JUMPDEST PUSH1 0xA0 DUP5 ADD MSTORE PUSH1 0xC0 DUP2 ADD MLOAD PUSH1 0xC0 DUP5 ADD MSTORE ADD MLOAD PUSH1 0xE0 DUP3 ADD MSTORE SWAP1 JUMP JUMPDEST RETURNDATASIZE ISZERO PUSH2 0x2039 JUMPI RETURNDATASIZE SWAP1 PUSH2 0x201F DUP3 PUSH2 0x1D6B JUMP JUMPDEST SWAP2 PUSH2 0x202D PUSH1 0x40 MLOAD SWAP4 DUP5 PUSH2 0x1D49 JUMP JUMPDEST DUP3 MSTORE RETURNDATASIZE PUSH1 0x0 PUSH1 0x20 DUP5 ADD RETURNDATACOPY JUMP JUMPDEST PUSH1 0x60 SWAP1 JUMP JUMPDEST ISZERO PUSH2 0x2045 JUMPI JUMP JUMPDEST PUSH1 0x40 MLOAD PUSH3 0x461BCD PUSH1 0xE5 SHL DUP2 MSTORE PUSH1 0x20 PUSH1 0x4 DUP3 ADD MSTORE PUSH1 0x21 PUSH1 0x24 DUP3 ADD MSTORE PUSH32 0x4661696C656420746F2073656E64207061796D656E7420746F2063726561746F PUSH1 0x44 DUP3 ADD MSTORE PUSH1 0x39 PUSH1 0xF9 SHL PUSH1 0x64 DUP3 ADD MSTORE PUSH1 0x84 SWAP1 REVERT JUMPDEST ISZERO PUSH2 0x209B JUMPI JUMP JUMPDEST PUSH1 0x40 MLOAD PUSH3 0x461BCD PUSH1 0xE5 SHL DUP2 MSTORE PUSH1 0x20 PUSH1 0x4 DUP3 ADD MSTORE PUSH1 0x1B PUSH1 0x24 DUP3 ADD MSTORE PUSH32 0x4661696C656420746F2073656E6420706C6174666F726D206665650000000000 PUSH1 0x44 DUP3 ADD MSTORE PUSH1 0x64 SWAP1 REVERT JUMPDEST ISZERO PUSH2 0x20E7 JUMPI JUMP JUMPDEST PUSH1 0x40 MLOAD PUSH3 0x461BCD PUSH1 0xE5 SHL DUP2 MSTORE PUSH1 0x20 PUSH1 0x4 DUP3 ADD MSTORE PUSH1 0x1F PUSH1 0x24 DUP3 ADD MSTORE PUSH32 0x4661696C656420746F20726566756E6420657863657373207061796D656E7400 PUSH1 0x44 DUP3 ADD MSTORE PUSH1 0x64 SWAP1 REVERT JUMPDEST SWAP2 SWAP1 DUP3 ADD DUP1 SWAP3 GT PUSH2 0x1EE5 JUMPI JUMP JUMPDEST PUSH1 0x3 DUP3 LT ISZERO PUSH2 0x1BA8 JUMPI MSTORE JUMP JUMPDEST PUSH1 0x2 DUP3 LT ISZERO PUSH2 0x1BA8 JUMPI MSTORE JUMP JUMPDEST SWAP1 PUSH1 0x3 DUP2 LT ISZERO PUSH2 0x1BA8 JUMPI PUSH1 0xFF DUP1 NOT DUP4 SLOAD AND SWAP2 AND OR SWAP1 SSTORE JUMP JUMPDEST DUP1 SLOAD PUSH9 0x10000000000000000 DUP2 LT ISZERO PUSH2 0x1D16 JUMPI PUSH2 0x218B SWAP2 PUSH1 0x1 DUP3 ADD DUP2 SSTORE PUSH2 0x1BE1 JUMP JUMPDEST DUP2 SWAP3 SWAP2 SLOAD SWAP1 PUSH1 0x3 SHL SWAP2 DUP3 SHL SWAP2 PUSH1 0x0 NOT SWAP1 SHL NOT AND OR SWAP1 SSTORE JUMP JUMPDEST PUSH1 0x2 PUSH1 0x1 SLOAD EQ PUSH2 0x21B4 JUMPI PUSH1 0x2 PUSH1 0x1 SSTORE JUMP JUMPDEST PUSH1 0x40 MLOAD PUSH3 0x461BCD PUSH1 0xE5 SHL DUP2 MSTORE PUSH1 0x20 PUSH1 0x4 DUP3 ADD MSTORE PUSH1 0x1F PUSH1 0x24 DUP3 ADD MSTORE PUSH32 0x5265656E7472616E637947756172643A207265656E7472616E742063616C6C00 PUSH1 0x44 DUP3 ADD MSTORE PUSH1 0x64 SWAP1 REVERT JUMPDEST ISZERO PUSH2 0x2200 JUMPI JUMP JUMPDEST PUSH1 0x40 MLOAD PUSH3 0x461BCD PUSH1 0xE5 SHL DUP2 MSTORE PUSH1 0x20 PUSH1 0x4 DUP3 ADD MSTORE PUSH1 0x1C PUSH1 0x24 DUP3 ADD MSTORE PUSH32 0x496E73756666696369656E7420746F6B656E20616C6C6F77616E636500000000 PUSH1 0x44 DUP3 ADD MSTORE PUSH1 0x64 SWAP1 REVERT JUMPDEST ISZERO PUSH2 0x224C JUMPI JUMP JUMPDEST PUSH1 0x40 MLOAD PUSH3 0x461BCD PUSH1 0xE5 SHL DUP2 MSTORE PUSH1 0x20 PUSH1 0x4 DUP3 ADD MSTORE PUSH1 0x24 DUP1 DUP3 ADD MSTORE PUSH32 0x4661696C656420746F207472616E7366657220746F6B656E7320746F20637265 PUSH1 0x44 DUP3 ADD MSTORE PUSH4 0x30BA37B9 PUSH1 0xE1 SHL PUSH1 0x64 DUP3 ADD MSTORE PUSH1 0x84 SWAP1 REVERT JUMPDEST ISZERO PUSH2 0x22A4 JUMPI JUMP JUMPDEST PUSH1 0x40 MLOAD PUSH3 0x461BCD PUSH1 0xE5 SHL DUP2 MSTORE PUSH1 0x20 PUSH1 0x4 DUP3 ADD MSTORE PUSH1 0x1F PUSH1 0x24 DUP3 ADD MSTORE PUSH32 0x4661696C656420746F207472616E7366657220706C6174666F726D2066656500 PUSH1 0x44 DUP3 ADD MSTORE PUSH1 0x64 SWAP1 REVERT JUMPDEST ISZERO PUSH2 0x22F0 JUMPI JUMP JUMPDEST PUSH1 0x40 MLOAD PUSH3 0x461BCD PUSH1 0xE5 SHL DUP2 MSTORE PUSH1 0x20 PUSH1 0x4 DUP3 ADD MSTORE PUSH1 0x17 PUSH1 0x24 DUP3 ADD MSTORE PUSH32 0x496E76616C696420737562736372697074696F6E204944000000000000000000 PUSH1 0x44 DUP3 ADD MSTORE PUSH1 0x64 SWAP1 REVERT JUMPDEST ISZERO PUSH2 0x233C JUMPI JUMP JUMPDEST PUSH1 0x40 MLOAD PUSH3 0x461BCD PUSH1 0xE5 SHL DUP2 MSTORE PUSH1 0x20 PUSH1 0x4 DUP3 ADD MSTORE PUSH1 0x16 PUSH1 0x24 DUP3 ADD MSTORE PUSH22 0x2737BA1039BAB139B1B934B83A34B7B71037BBB732B9 PUSH1 0x51 SHL PUSH1 0x44 DUP3 ADD MSTORE PUSH1 0x64 SWAP1 REVERT INVALID 0xD3 0xCF SMOD CODECOPY 0x28 CALLDATASIZE 0xDE CREATE 0xE2 ADD INVALID PUSH31 0xB13AE977B999E29D70D4C55F6C55BA26B001393EA26469706673582212201B GAS SUB 0x2C 0xE0 GAS CALLCODE MSIZE 0xF PUSH7 0x648934B9ADD5EA PC 0xD5 STOP INVALID 0x1F MSTORE8 0xBF PUSH23 0xD5F13B9D0B347564736F6C634300081400330000000000 "},"methodIdentifiers":{"contentNFT()":"28aef969","creatorRegistry()":"9a6a5cf0","owner()":"8da5cb5b","subscriptionManager()":"bf158fd2"}}}}}