{"contracts/CreatorRegistry.sol":{"CreatorRegistry":{"abi":[{"inputs":[],"stateMutability":"nonpayable","type":"constructor"},{"anonymous":false,"inputs":[{"indexed":true,"internalType":"uint256","name":"creatorId","type":"uint256"},{"indexed":true,"internalType":"address","name":"wallet","type":"address"},{"indexed":false,"internalType":"string","name":"metadataURI","type":"string"}],"name":"CreatorRegistered","type":"event"},{"anonymous":false,"inputs":[{"indexed":true,"internalType":"uint256","name":"creatorId","type":"uint256"},{"indexed":false,"internalType":"string","name":"newMetadataURI","type":"string"}],"name":"CreatorUpdated","type":"event"},{"anonymous":false,"inputs":[{"indexed":true,"internalType":"uint256","name":"creatorId","type":"uint256"},{"indexed":true,"internalType":"address","name":"wallet","type":"address"}],"name":"CreatorVerified","type":"event"},{"anonymous":false,"inputs":[{"indexed":true,"internalType":"address","name":"previousOwner","type":"address"},{"indexed":true,"internalType":"address","name":"newOwner","type":"address"}],"name":"OwnershipTransferred","type":"event"},{"inputs":[{"internalType":"address","name":"","type":"address"}],"name":"creatorIdByWallet","outputs":[{"internalType":"uint256","name":"","type":"uint256"}],"stateMutability":"view","type":"function"},{"inputs":[{"internalType":"uint256","name":"","type":"uint256"}],"name":"creators","outputs":[{"internalType":"uint256","name":"id","type":"uint256"},{"internalType":"address","name":"wallet","type":"address"},{"internalType":"string","name":"metadataURI","type":"string"},{"internalType":"uint256","name":"totalSubscribers","type":"uint256"},{"internalType":"uint256","name":"totalEarnings","type":"uint256"},{"internalType":"bool","name":"isVerified","type":"bool"},{"internalType":"uint256","name":"createdAt","type":"uint256"},{"internalType":"uint256","name":"updatedAt","type":"uint256"}],"stateMutability":"view","type":"function"},{"inputs":[{"internalType":"uint256","name":"creatorId","type":"uint256"}],"name":"getCreator","outputs":[{"components":[{"internalType":"uint256","name":"id","type":"uint256"},{"internalType":"address","name":"wallet","type":"address"},{"internalType":"string","name":"metadataURI","type":"string"},{"internalType":"uint256","name":"totalSubscribers","type":"uint256"},{"internalType":"uint256","name":"totalEarnings","type":"uint256"},{"internalType":"bool","name":"isVerified","type":"bool"},{"internalType":"uint256","name":"createdAt","type":"uint256"},{"internalType":"uint256","name":"updatedAt","type":"uint256"}],"internalType":"struct CreatorRegistry.Creator","name":"","type":"tuple"}],"stateMutability":"view","type":"function"},{"inputs":[{"internalType":"address","name":"wallet","type":"address"}],"name":"getCreatorIdByWallet","outputs":[{"internalType":"uint256","name":"","type":"uint256"}],"stateMutability":"view","type":"function"},{"inputs":[],"name":"getTotalCreators","outputs":[{"internalType":"uint256","name":"","type":"uint256"}],"stateMutability":"view","type":"function"},{"inputs":[{"internalType":"address","name":"","type":"address"}],"name":"isCreator","outputs":[{"internalType":"bool","name":"","type":"bool"}],"stateMutability":"view","type":"function"},{"inputs":[],"name":"owner","outputs":[{"internalType":"address","name":"","type":"address"}],"stateMutability":"view","type":"function"},{"inputs":[{"internalType":"string","name":"metadataURI","type":"string"}],"name":"registerCreator","outputs":[{"internalType":"uint256","name":"","type":"uint256"}],"stateMutability":"nonpayable","type":"function"},{"inputs":[],"name":"renounceOwnership","outputs":[],"stateMutability":"nonpayable","type":"function"},{"inputs":[{"internalType":"address","name":"newOwner","type":"address"}],"name":"transferOwnership","outputs":[],"stateMutability":"nonpayable","type":"function"},{"inputs":[{"internalType":"uint256","name":"creatorId","type":"uint256"},{"internalType":"string","name":"newMetadataURI","type":"string"}],"name":"updateCreatorMetadata","outputs":[],"stateMutability":"nonpayable","type":"function"},{"inputs":[{"internalType":"uint256","name":"creatorId","type":"uint256"},{"internalType":"uint256","name":"amount","type":"uint256"}],"name":"updateEarnings","outputs":[],"stateMutability":"nonpayable","type":"function"},{"inputs":[{"internalType":"uint256","name":"creatorId","type":"uint256"},{"internalType":"uint256","name":"amount","type":"uint256"}],"name":"updateSubscriberCount","outputs":[],"stateMutability":"nonpayable","type":"function"},{"inputs":[{"internalType":"uint256","name":"creatorId","type":"uint256"}],"name":"verifyCreator","outputs":[],"stateMutability":"nonpayable","type":"function"}],"evm":{"bytecode":{"linkReferences":{},"object":"6080806040523461005b5760008054336001600160a01b0319821681178355916001600160a01b03909116907f8be0079c531659141344cd1fd0a4f28419497f9722a3daafe3b4186f6b6457e09080a3610dba90816100618239f35b600080fdfe6080604052600436101561001257600080fd5b60e0600035811c9081630b8fe30e146109365781631a3062f4146108b357816331e8e39d14610895578163715018a61461083c5781638da5cb5b146108135781638ed40ab11461077d578163c76c5ddb146100b9578163cd53d08e146106e0578163d48e638a146105b2578163dac0faf9146102cb57508063e5c144111461020a578063efd46065146101c7578063f2fde38b146100fc5763fb23b20b146100b957600080fd5b346100f75760203660031901126100f7576004356001600160a01b038116908190036100f75760005260036020526020604060002054604051908152f35b600080fd5b346100f75760203660031901126100f7576004356001600160a01b03818116918290036100f75761012b610d09565b811561017357600054826bffffffffffffffffffffffff60a01b821617600055167f8be0079c531659141344cd1fd0a4f28419497f9722a3daafe3b4186f6b6457e0600080a3005b60405162461bcd60e51b815260206004820152602660248201527f4f776e61626c653a206e6577206f776e657220697320746865207a65726f206160448201526564647265737360d01b6064820152608490fd5b346100f75760203660031901126100f7576004356001600160a01b038116908190036100f7576000526004602052602060ff604060002054166040519015158152f35b346100f75760203660031901126100f757600435610226610d09565b8060005260026020526040600020541561028d57600081815260026020526040812060058101805460ff1916600190811790915501546001600160a01b031691907f470a5bab224952798b0f518022a6aba6cd578d85ca36f4e2162369eae929757b9080a3005b60405162461bcd60e51b815260206004820152601660248201527510dc99585d1bdc88191bd95cc81b9bdd08195e1a5cdd60521b6044820152606490fd5b346100f75760203660031901126100f75767ffffffffffffffff906004358281116100f7576102fe903690600401610b7c565b33600052600460205260ff6040600020541661056d57600180540191826001556040519061032b82610b3d565b8382526020820190338252604083018481526000606085015260006080850152600060a08501524260c0850152428285015285600052600260205260406000209284518455600184019060018060a01b039051166bffffffffffffffffffffffff60a01b82541617905551958651908111610557576103ad6002840154610be9565b96601f881161050c575b602097508790601f831160011461049b57600793929160009183610490575b50508160011b916000199060031b1c19161760028401555b6060840151600384015560808401516004840155600583019360a081015115159460ff199560ff87835416911617905560c081015160068501550151910155336000526003845282604060002055600484526001604060002091825416179055817f4cfde7f67060004def7ffd71f6f34b90f732485709c3c9367aed20d0fd61a8ca60405185815280610485339588830190610cc9565b0390a3604051908152f35b0151905089806103d6565b9060028501600052886000209160005b601f19851681106104f5575091839160019360079695601f198116106104dc575b505050811b0160028401556103ee565b015160001960f88460031b161c191690558980806104cc565b91928a6001819286850151815501940192016104ab565b600284016000526020600020601f830160051c8101986020841061054d575b601f0160051c01975b88811061054157506103b7565b60008155600101610534565b909850889061052b565b634e487b7160e01b600052604160045260246000fd5b60405162461bcd60e51b815260206004820152601d60248201527f416c726561647920726567697374657265642061732063726561746f720000006044820152606490fd5b346100f757602090816003193601126100f7576000816040516105d481610b3d565b8281528285820152606060408201528260608201528260808201528260a08201528260c08201520152600435600052600282526040600020906040519161061a83610b3d565b8054835260018101546001600160a01b03908116858501908152909261064260028401610c23565b9260408601938452600381015494606087019586526004820154946080880195865260ff6005840154169160a089019215158352600760068501549460c08b01958652015495858a019687526040519a8b9a818c5251908b01525116604089015251946106bd610100968760608b01526101208a0190610cc9565b965160808901525160a088015251151560c0870152519085015251908301520390f35b346100f75760203660031901126100f7576004356000526002602052604060002080549060018060a01b036001820154169261071e60028301610c23565b90600383015492600481015460ff6005830154169061075f6007600685015494015495604051998a998a5260208a01526101008060408b0152890190610cc9565b9560608801526080870152151560a086015260c08501528301520390f35b346100f75761078b36610bd3565b6000549091906001600160a01b031633036107bf5760005260026020526107bb6003604060002001918254610d61565b9055005b60405162461bcd60e51b815260206004820152602660248201527f4f6e6c79206f776e65722063616e2075706461746520737562736372696265726044820152650818dbdd5b9d60d21b6064820152608490fd5b346100f75760003660031901126100f7576000546040516001600160a01b039091168152602090f35b346100f75760003660031901126100f757610855610d09565b600080546001600160a01b0319811682556001600160a01b03167f8be0079c531659141344cd1fd0a4f28419497f9722a3daafe3b4186f6b6457e08280a3005b346100f75760003660031901126100f7576020600154604051908152f35b346100f7576108c136610bd3565b6000549091906001600160a01b031633036108f15760005260026020526107bb6004604060002001918254610d61565b60405162461bcd60e51b815260206004820152601e60248201527f4f6e6c79206f776e65722063616e20757064617465206561726e696e677300006044820152606490fd5b346100f75760403660031901126100f75767ffffffffffffffff6004356024358281116100f75761096b903690600401610b7c565b8160005260206002815260019360018060a01b038560406000200154163303610b065783600052600282526002604060002001908351908111610557576109b28254610be9565b601f8111610abd575b508295601f8211600114610a3e578180917f0a2539dd6b1c295a14eb2f24af489e7f57b1fce0127fb2f8135295dd5e13e1769798600093610a33575b501b916000199060031b1c19161790555b836000526002815242600760406000200155610a2e604051928284938452830190610cc9565b0390a2005b8701519250896109f7565b90601f1981169683600052846000209060005b898110610aa85750827f0a2539dd6b1c295a14eb2f24af489e7f57b1fce0127fb2f8135295dd5e13e176989910610a8f575b5050811b019055610a08565b86015160001960f88460031b161c191690558780610a83565b87820151835591840191908601908601610a51565b8260005283600020601f830160051c810191858410610afc575b601f0160051c019087905b828110610af05750506109bb565b60008155018790610ae2565b9091508190610ad7565b60405162461bcd60e51b815260048101839052600f60248201526e2737ba103a34329031b932b0ba37b960891b6044820152606490fd5b610100810190811067ffffffffffffffff82111761055757604052565b90601f8019910116810190811067ffffffffffffffff82111761055757604052565b81601f820112156100f75780359067ffffffffffffffff82116105575760405192610bb1601f8401601f191660200185610b5a565b828452602083830101116100f757816000926020809301838601378301015290565b60409060031901126100f7576004359060243590565b90600182811c92168015610c19575b6020831014610c0357565b634e487b7160e01b600052602260045260246000fd5b91607f1691610bf8565b9060405191826000825492610c3784610be9565b908184526001948581169081600014610ca65750600114610c63575b5050610c6192500383610b5a565b565b9093915060005260209081600020936000915b818310610c8e575050610c6193508201013880610c53565b85548884018501529485019487945091830191610c76565b915050610c6194506020925060ff191682840152151560051b8201013880610c53565b919082519283825260005b848110610cf5575050826000602080949584010152601f8019910116010190565b602081830181015184830182015201610cd4565b6000546001600160a01b03163303610d1d57565b606460405162461bcd60e51b815260206004820152602060248201527f4f776e61626c653a2063616c6c6572206973206e6f7420746865206f776e65726044820152fd5b91908201809211610d6e57565b634e487b7160e01b600052601160045260246000fdfea26469706673582212203d07d13113e4dbc8b88035ddecf4af948f5c51ee75769cbbf86321d82b5631a664736f6c63430008140033","opcodes":"PUSH1 0x80 DUP1 PUSH1 0x40 MSTORE CALLVALUE PUSH2 0x5B JUMPI PUSH1 0x0 DUP1 SLOAD CALLER PUSH1 0x1 PUSH1 0x1 PUSH1 0xA0 SHL SUB NOT DUP3 AND DUP2 OR DUP4 SSTORE SWAP2 PUSH1 0x1 PUSH1 0x1 PUSH1 0xA0 SHL SUB SWAP1 SWAP2 AND SWAP1 PUSH32 0x8BE0079C531659141344CD1FD0A4F28419497F9722A3DAAFE3B4186F6B6457E0 SWAP1 DUP1 LOG3 PUSH2 0xDBA SWAP1 DUP2 PUSH2 0x61 DUP3 CODECOPY RETURN JUMPDEST PUSH1 0x0 DUP1 REVERT INVALID PUSH1 0x80 PUSH1 0x40 MSTORE PUSH1 0x4 CALLDATASIZE LT ISZERO PUSH2 0x12 JUMPI PUSH1 0x0 DUP1 REVERT JUMPDEST PUSH1 0xE0 PUSH1 0x0 CALLDATALOAD DUP2 SHR SWAP1 DUP2 PUSH4 0xB8FE30E EQ PUSH2 0x936 JUMPI DUP2 PUSH4 0x1A3062F4 EQ PUSH2 0x8B3 JUMPI DUP2 PUSH4 0x31E8E39D EQ PUSH2 0x895 JUMPI DUP2 PUSH4 0x715018A6 EQ PUSH2 0x83C JUMPI DUP2 PUSH4 0x8DA5CB5B EQ PUSH2 0x813 JUMPI DUP2 PUSH4 0x8ED40AB1 EQ PUSH2 0x77D JUMPI DUP2 PUSH4 0xC76C5DDB EQ PUSH2 0xB9 JUMPI DUP2 PUSH4 0xCD53D08E EQ PUSH2 0x6E0 JUMPI DUP2 PUSH4 0xD48E638A EQ PUSH2 0x5B2 JUMPI DUP2 PUSH4 0xDAC0FAF9 EQ PUSH2 0x2CB JUMPI POP DUP1 PUSH4 0xE5C14411 EQ PUSH2 0x20A JUMPI DUP1 PUSH4 0xEFD46065 EQ PUSH2 0x1C7 JUMPI DUP1 PUSH4 0xF2FDE38B EQ PUSH2 0xFC JUMPI PUSH4 0xFB23B20B EQ PUSH2 0xB9 JUMPI PUSH1 0x0 DUP1 REVERT JUMPDEST CALLVALUE PUSH2 0xF7 JUMPI PUSH1 0x20 CALLDATASIZE PUSH1 0x3 NOT ADD SLT PUSH2 0xF7 JUMPI PUSH1 0x4 CALLDATALOAD PUSH1 0x1 PUSH1 0x1 PUSH1 0xA0 SHL SUB DUP2 AND SWAP1 DUP2 SWAP1 SUB PUSH2 0xF7 JUMPI PUSH1 0x0 MSTORE PUSH1 0x3 PUSH1 0x20 MSTORE PUSH1 0x20 PUSH1 0x40 PUSH1 0x0 KECCAK256 SLOAD PUSH1 0x40 MLOAD SWAP1 DUP2 MSTORE RETURN JUMPDEST PUSH1 0x0 DUP1 REVERT JUMPDEST CALLVALUE PUSH2 0xF7 JUMPI PUSH1 0x20 CALLDATASIZE PUSH1 0x3 NOT ADD SLT PUSH2 0xF7 JUMPI PUSH1 0x4 CALLDATALOAD PUSH1 0x1 PUSH1 0x1 PUSH1 0xA0 SHL SUB DUP2 DUP2 AND SWAP2 DUP3 SWAP1 SUB PUSH2 0xF7 JUMPI PUSH2 0x12B PUSH2 0xD09 JUMP JUMPDEST DUP2 ISZERO PUSH2 0x173 JUMPI PUSH1 0x0 SLOAD DUP3 PUSH12 0xFFFFFFFFFFFFFFFFFFFFFFFF PUSH1 0xA0 SHL DUP3 AND OR PUSH1 0x0 SSTORE AND PUSH32 0x8BE0079C531659141344CD1FD0A4F28419497F9722A3DAAFE3B4186F6B6457E0 PUSH1 0x0 DUP1 LOG3 STOP JUMPDEST PUSH1 0x40 MLOAD PUSH3 0x461BCD PUSH1 0xE5 SHL DUP2 MSTORE PUSH1 0x20 PUSH1 0x4 DUP3 ADD MSTORE PUSH1 0x26 PUSH1 0x24 DUP3 ADD MSTORE PUSH32 0x4F776E61626C653A206E6577206F776E657220697320746865207A65726F2061 PUSH1 0x44 DUP3 ADD MSTORE PUSH6 0x646472657373 PUSH1 0xD0 SHL PUSH1 0x64 DUP3 ADD MSTORE PUSH1 0x84 SWAP1 REVERT JUMPDEST CALLVALUE PUSH2 0xF7 JUMPI PUSH1 0x20 CALLDATASIZE PUSH1 0x3 NOT ADD SLT PUSH2 0xF7 JUMPI PUSH1 0x4 CALLDATALOAD PUSH1 0x1 PUSH1 0x1 PUSH1 0xA0 SHL SUB DUP2 AND SWAP1 DUP2 SWAP1 SUB PUSH2 0xF7 JUMPI PUSH1 0x0 MSTORE PUSH1 0x4 PUSH1 0x20 MSTORE PUSH1 0x20 PUSH1 0xFF PUSH1 0x40 PUSH1 0x0 KECCAK256 SLOAD AND PUSH1 0x40 MLOAD SWAP1 ISZERO ISZERO DUP2 MSTORE RETURN JUMPDEST CALLVALUE PUSH2 0xF7 JUMPI PUSH1 0x20 CALLDATASIZE PUSH1 0x3 NOT ADD SLT PUSH2 0xF7 JUMPI PUSH1 0x4 CALLDATALOAD PUSH2 0x226 PUSH2 0xD09 JUMP JUMPDEST DUP1 PUSH1 0x0 MSTORE PUSH1 0x2 PUSH1 0x20 MSTORE PUSH1 0x40 PUSH1 0x0 KECCAK256 SLOAD ISZERO PUSH2 0x28D JUMPI PUSH1 0x0 DUP2 DUP2 MSTORE PUSH1 0x2 PUSH1 0x20 MSTORE PUSH1 0x40 DUP2 KECCAK256 PUSH1 0x5 DUP2 ADD DUP1 SLOAD PUSH1 0xFF NOT AND PUSH1 0x1 SWAP1 DUP2 OR SWAP1 SWAP2 SSTORE ADD SLOAD PUSH1 0x1 PUSH1 0x1 PUSH1 0xA0 SHL SUB AND SWAP2 SWAP1 PUSH32 0x470A5BAB224952798B0F518022A6ABA6CD578D85CA36F4E2162369EAE929757B SWAP1 DUP1 LOG3 STOP JUMPDEST PUSH1 0x40 MLOAD PUSH3 0x461BCD PUSH1 0xE5 SHL DUP2 MSTORE PUSH1 0x20 PUSH1 0x4 DUP3 ADD MSTORE PUSH1 0x16 PUSH1 0x24 DUP3 ADD MSTORE PUSH22 0x10DC99585D1BDC88191BD95CC81B9BDD08195E1A5CDD PUSH1 0x52 SHL PUSH1 0x44 DUP3 ADD MSTORE PUSH1 0x64 SWAP1 REVERT JUMPDEST CALLVALUE PUSH2 0xF7 JUMPI PUSH1 0x20 CALLDATASIZE PUSH1 0x3 NOT ADD SLT PUSH2 0xF7 JUMPI PUSH8 0xFFFFFFFFFFFFFFFF SWAP1 PUSH1 0x4 CALLDATALOAD DUP3 DUP2 GT PUSH2 0xF7 JUMPI PUSH2 0x2FE SWAP1 CALLDATASIZE SWAP1 PUSH1 0x4 ADD PUSH2 0xB7C JUMP JUMPDEST CALLER PUSH1 0x0 MSTORE PUSH1 0x4 PUSH1 0x20 MSTORE PUSH1 0xFF PUSH1 0x40 PUSH1 0x0 KECCAK256 SLOAD AND PUSH2 0x56D JUMPI PUSH1 0x1 DUP1 SLOAD ADD SWAP2 DUP3 PUSH1 0x1 SSTORE PUSH1 0x40 MLOAD SWAP1 PUSH2 0x32B DUP3 PUSH2 0xB3D JUMP JUMPDEST DUP4 DUP3 MSTORE PUSH1 0x20 DUP3 ADD SWAP1 CALLER DUP3 MSTORE PUSH1 0x40 DUP4 ADD DUP5 DUP2 MSTORE PUSH1 0x0 PUSH1 0x60 DUP6 ADD MSTORE PUSH1 0x0 PUSH1 0x80 DUP6 ADD MSTORE PUSH1 0x0 PUSH1 0xA0 DUP6 ADD MSTORE TIMESTAMP PUSH1 0xC0 DUP6 ADD MSTORE TIMESTAMP DUP3 DUP6 ADD MSTORE DUP6 PUSH1 0x0 MSTORE PUSH1 0x2 PUSH1 0x20 MSTORE PUSH1 0x40 PUSH1 0x0 KECCAK256 SWAP3 DUP5 MLOAD DUP5 SSTORE PUSH1 0x1 DUP5 ADD SWAP1 PUSH1 0x1 DUP1 PUSH1 0xA0 SHL SUB SWAP1 MLOAD AND PUSH12 0xFFFFFFFFFFFFFFFFFFFFFFFF PUSH1 0xA0 SHL DUP3 SLOAD AND OR SWAP1 SSTORE MLOAD SWAP6 DUP7 MLOAD SWAP1 DUP2 GT PUSH2 0x557 JUMPI PUSH2 0x3AD PUSH1 0x2 DUP5 ADD SLOAD PUSH2 0xBE9 JUMP JUMPDEST SWAP7 PUSH1 0x1F DUP9 GT PUSH2 0x50C JUMPI JUMPDEST PUSH1 0x20 SWAP8 POP DUP8 SWAP1 PUSH1 0x1F DUP4 GT PUSH1 0x1 EQ PUSH2 0x49B JUMPI PUSH1 0x7 SWAP4 SWAP3 SWAP2 PUSH1 0x0 SWAP2 DUP4 PUSH2 0x490 JUMPI JUMPDEST POP POP DUP2 PUSH1 0x1 SHL SWAP2 PUSH1 0x0 NOT SWAP1 PUSH1 0x3 SHL SHR NOT AND OR PUSH1 0x2 DUP5 ADD SSTORE JUMPDEST PUSH1 0x60 DUP5 ADD MLOAD PUSH1 0x3 DUP5 ADD SSTORE PUSH1 0x80 DUP5 ADD MLOAD PUSH1 0x4 DUP5 ADD SSTORE PUSH1 0x5 DUP4 ADD SWAP4 PUSH1 0xA0 DUP2 ADD MLOAD ISZERO ISZERO SWAP5 PUSH1 0xFF NOT SWAP6 PUSH1 0xFF DUP8 DUP4 SLOAD AND SWAP2 AND OR SWAP1 SSTORE PUSH1 0xC0 DUP2 ADD MLOAD PUSH1 0x6 DUP6 ADD SSTORE ADD MLOAD SWAP2 ADD SSTORE CALLER PUSH1 0x0 MSTORE PUSH1 0x3 DUP5 MSTORE DUP3 PUSH1 0x40 PUSH1 0x0 KECCAK256 SSTORE PUSH1 0x4 DUP5 MSTORE PUSH1 0x1 PUSH1 0x40 PUSH1 0x0 KECCAK256 SWAP2 DUP3 SLOAD AND OR SWAP1 SSTORE DUP2 PUSH32 0x4CFDE7F67060004DEF7FFD71F6F34B90F732485709C3C9367AED20D0FD61A8CA PUSH1 0x40 MLOAD DUP6 DUP2 MSTORE DUP1 PUSH2 0x485 CALLER SWAP6 DUP9 DUP4 ADD SWAP1 PUSH2 0xCC9 JUMP JUMPDEST SUB SWAP1 LOG3 PUSH1 0x40 MLOAD SWAP1 DUP2 MSTORE RETURN JUMPDEST ADD MLOAD SWAP1 POP DUP10 DUP1 PUSH2 0x3D6 JUMP JUMPDEST SWAP1 PUSH1 0x2 DUP6 ADD PUSH1 0x0 MSTORE DUP9 PUSH1 0x0 KECCAK256 SWAP2 PUSH1 0x0 JUMPDEST PUSH1 0x1F NOT DUP6 AND DUP2 LT PUSH2 0x4F5 JUMPI POP SWAP2 DUP4 SWAP2 PUSH1 0x1 SWAP4 PUSH1 0x7 SWAP7 SWAP6 PUSH1 0x1F NOT DUP2 AND LT PUSH2 0x4DC JUMPI JUMPDEST POP POP POP DUP2 SHL ADD PUSH1 0x2 DUP5 ADD SSTORE PUSH2 0x3EE JUMP JUMPDEST ADD MLOAD PUSH1 0x0 NOT PUSH1 0xF8 DUP5 PUSH1 0x3 SHL AND SHR NOT AND SWAP1 SSTORE DUP10 DUP1 DUP1 PUSH2 0x4CC JUMP JUMPDEST SWAP2 SWAP3 DUP11 PUSH1 0x1 DUP2 SWAP3 DUP7 DUP6 ADD MLOAD DUP2 SSTORE ADD SWAP5 ADD SWAP3 ADD PUSH2 0x4AB JUMP JUMPDEST PUSH1 0x2 DUP5 ADD PUSH1 0x0 MSTORE PUSH1 0x20 PUSH1 0x0 KECCAK256 PUSH1 0x1F DUP4 ADD PUSH1 0x5 SHR DUP2 ADD SWAP9 PUSH1 0x20 DUP5 LT PUSH2 0x54D JUMPI JUMPDEST PUSH1 0x1F ADD PUSH1 0x5 SHR ADD SWAP8 JUMPDEST DUP9 DUP2 LT PUSH2 0x541 JUMPI POP PUSH2 0x3B7 JUMP JUMPDEST PUSH1 0x0 DUP2 SSTORE PUSH1 0x1 ADD PUSH2 0x534 JUMP JUMPDEST SWAP1 SWAP9 POP DUP9 SWAP1 PUSH2 0x52B JUMP JUMPDEST PUSH4 0x4E487B71 PUSH1 0xE0 SHL PUSH1 0x0 MSTORE PUSH1 0x41 PUSH1 0x4 MSTORE PUSH1 0x24 PUSH1 0x0 REVERT JUMPDEST PUSH1 0x40 MLOAD PUSH3 0x461BCD PUSH1 0xE5 SHL DUP2 MSTORE PUSH1 0x20 PUSH1 0x4 DUP3 ADD MSTORE PUSH1 0x1D PUSH1 0x24 DUP3 ADD MSTORE PUSH32 0x416C726561647920726567697374657265642061732063726561746F72000000 PUSH1 0x44 DUP3 ADD MSTORE PUSH1 0x64 SWAP1 REVERT JUMPDEST CALLVALUE PUSH2 0xF7 JUMPI PUSH1 0x20 SWAP1 DUP2 PUSH1 0x3 NOT CALLDATASIZE ADD SLT PUSH2 0xF7 JUMPI PUSH1 0x0 DUP2 PUSH1 0x40 MLOAD PUSH2 0x5D4 DUP2 PUSH2 0xB3D JUMP JUMPDEST DUP3 DUP2 MSTORE DUP3 DUP6 DUP3 ADD MSTORE PUSH1 0x60 PUSH1 0x40 DUP3 ADD MSTORE DUP3 PUSH1 0x60 DUP3 ADD MSTORE DUP3 PUSH1 0x80 DUP3 ADD MSTORE DUP3 PUSH1 0xA0 DUP3 ADD MSTORE DUP3 PUSH1 0xC0 DUP3 ADD MSTORE ADD MSTORE PUSH1 0x4 CALLDATALOAD PUSH1 0x0 MSTORE PUSH1 0x2 DUP3 MSTORE PUSH1 0x40 PUSH1 0x0 KECCAK256 SWAP1 PUSH1 0x40 MLOAD SWAP2 PUSH2 0x61A DUP4 PUSH2 0xB3D JUMP JUMPDEST DUP1 SLOAD DUP4 MSTORE PUSH1 0x1 DUP2 ADD SLOAD PUSH1 0x1 PUSH1 0x1 PUSH1 0xA0 SHL SUB SWAP1 DUP2 AND DUP6 DUP6 ADD SWAP1 DUP2 MSTORE SWAP1 SWAP3 PUSH2 0x642 PUSH1 0x2 DUP5 ADD PUSH2 0xC23 JUMP JUMPDEST SWAP3 PUSH1 0x40 DUP7 ADD SWAP4 DUP5 MSTORE PUSH1 0x3 DUP2 ADD SLOAD SWAP5 PUSH1 0x60 DUP8 ADD SWAP6 DUP7 MSTORE PUSH1 0x4 DUP3 ADD SLOAD SWAP5 PUSH1 0x80 DUP9 ADD SWAP6 DUP7 MSTORE PUSH1 0xFF PUSH1 0x5 DUP5 ADD SLOAD AND SWAP2 PUSH1 0xA0 DUP10 ADD SWAP3 ISZERO ISZERO DUP4 MSTORE PUSH1 0x7 PUSH1 0x6 DUP6 ADD SLOAD SWAP5 PUSH1 0xC0 DUP12 ADD SWAP6 DUP7 MSTORE ADD SLOAD SWAP6 DUP6 DUP11 ADD SWAP7 DUP8 MSTORE PUSH1 0x40 MLOAD SWAP11 DUP12 SWAP11 DUP2 DUP13 MSTORE MLOAD SWAP1 DUP12 ADD MSTORE MLOAD AND PUSH1 0x40 DUP10 ADD MSTORE MLOAD SWAP5 PUSH2 0x6BD PUSH2 0x100 SWAP7 DUP8 PUSH1 0x60 DUP12 ADD MSTORE PUSH2 0x120 DUP11 ADD SWAP1 PUSH2 0xCC9 JUMP JUMPDEST SWAP7 MLOAD PUSH1 0x80 DUP10 ADD MSTORE MLOAD PUSH1 0xA0 DUP9 ADD MSTORE MLOAD ISZERO ISZERO PUSH1 0xC0 DUP8 ADD MSTORE MLOAD SWAP1 DUP6 ADD MSTORE MLOAD SWAP1 DUP4 ADD MSTORE SUB SWAP1 RETURN JUMPDEST CALLVALUE PUSH2 0xF7 JUMPI PUSH1 0x20 CALLDATASIZE PUSH1 0x3 NOT ADD SLT PUSH2 0xF7 JUMPI PUSH1 0x4 CALLDATALOAD PUSH1 0x0 MSTORE PUSH1 0x2 PUSH1 0x20 MSTORE PUSH1 0x40 PUSH1 0x0 KECCAK256 DUP1 SLOAD SWAP1 PUSH1 0x1 DUP1 PUSH1 0xA0 SHL SUB PUSH1 0x1 DUP3 ADD SLOAD AND SWAP3 PUSH2 0x71E PUSH1 0x2 DUP4 ADD PUSH2 0xC23 JUMP JUMPDEST SWAP1 PUSH1 0x3 DUP4 ADD SLOAD SWAP3 PUSH1 0x4 DUP2 ADD SLOAD PUSH1 0xFF PUSH1 0x5 DUP4 ADD SLOAD AND SWAP1 PUSH2 0x75F PUSH1 0x7 PUSH1 0x6 DUP6 ADD SLOAD SWAP5 ADD SLOAD SWAP6 PUSH1 0x40 MLOAD SWAP10 DUP11 SWAP10 DUP11 MSTORE PUSH1 0x20 DUP11 ADD MSTORE PUSH2 0x100 DUP1 PUSH1 0x40 DUP12 ADD MSTORE DUP10 ADD SWAP1 PUSH2 0xCC9 JUMP JUMPDEST SWAP6 PUSH1 0x60 DUP9 ADD MSTORE PUSH1 0x80 DUP8 ADD MSTORE ISZERO ISZERO PUSH1 0xA0 DUP7 ADD MSTORE PUSH1 0xC0 DUP6 ADD MSTORE DUP4 ADD MSTORE SUB SWAP1 RETURN JUMPDEST CALLVALUE PUSH2 0xF7 JUMPI PUSH2 0x78B CALLDATASIZE PUSH2 0xBD3 JUMP JUMPDEST PUSH1 0x0 SLOAD SWAP1 SWAP2 SWAP1 PUSH1 0x1 PUSH1 0x1 PUSH1 0xA0 SHL SUB AND CALLER SUB PUSH2 0x7BF JUMPI PUSH1 0x0 MSTORE PUSH1 0x2 PUSH1 0x20 MSTORE PUSH2 0x7BB PUSH1 0x3 PUSH1 0x40 PUSH1 0x0 KECCAK256 ADD SWAP2 DUP3 SLOAD PUSH2 0xD61 JUMP JUMPDEST SWAP1 SSTORE STOP JUMPDEST PUSH1 0x40 MLOAD PUSH3 0x461BCD PUSH1 0xE5 SHL DUP2 MSTORE PUSH1 0x20 PUSH1 0x4 DUP3 ADD MSTORE PUSH1 0x26 PUSH1 0x24 DUP3 ADD MSTORE PUSH32 0x4F6E6C79206F776E65722063616E207570646174652073756273637269626572 PUSH1 0x44 DUP3 ADD MSTORE PUSH6 0x818DBDD5B9D PUSH1 0xD2 SHL PUSH1 0x64 DUP3 ADD MSTORE PUSH1 0x84 SWAP1 REVERT JUMPDEST CALLVALUE PUSH2 0xF7 JUMPI PUSH1 0x0 CALLDATASIZE PUSH1 0x3 NOT ADD SLT PUSH2 0xF7 JUMPI PUSH1 0x0 SLOAD PUSH1 0x40 MLOAD PUSH1 0x1 PUSH1 0x1 PUSH1 0xA0 SHL SUB SWAP1 SWAP2 AND DUP2 MSTORE PUSH1 0x20 SWAP1 RETURN JUMPDEST CALLVALUE PUSH2 0xF7 JUMPI PUSH1 0x0 CALLDATASIZE PUSH1 0x3 NOT ADD SLT PUSH2 0xF7 JUMPI PUSH2 0x855 PUSH2 0xD09 JUMP JUMPDEST PUSH1 0x0 DUP1 SLOAD PUSH1 0x1 PUSH1 0x1 PUSH1 0xA0 SHL SUB NOT DUP2 AND DUP3 SSTORE PUSH1 0x1 PUSH1 0x1 PUSH1 0xA0 SHL SUB AND PUSH32 0x8BE0079C531659141344CD1FD0A4F28419497F9722A3DAAFE3B4186F6B6457E0 DUP3 DUP1 LOG3 STOP JUMPDEST CALLVALUE PUSH2 0xF7 JUMPI PUSH1 0x0 CALLDATASIZE PUSH1 0x3 NOT ADD SLT PUSH2 0xF7 JUMPI PUSH1 0x20 PUSH1 0x1 SLOAD PUSH1 0x40 MLOAD SWAP1 DUP2 MSTORE RETURN JUMPDEST CALLVALUE PUSH2 0xF7 JUMPI PUSH2 0x8C1 CALLDATASIZE PUSH2 0xBD3 JUMP JUMPDEST PUSH1 0x0 SLOAD SWAP1 SWAP2 SWAP1 PUSH1 0x1 PUSH1 0x1 PUSH1 0xA0 SHL SUB AND CALLER SUB PUSH2 0x8F1 JUMPI PUSH1 0x0 MSTORE PUSH1 0x2 PUSH1 0x20 MSTORE PUSH2 0x7BB PUSH1 0x4 PUSH1 0x40 PUSH1 0x0 KECCAK256 ADD SWAP2 DUP3 SLOAD PUSH2 0xD61 JUMP JUMPDEST PUSH1 0x40 MLOAD PUSH3 0x461BCD PUSH1 0xE5 SHL DUP2 MSTORE PUSH1 0x20 PUSH1 0x4 DUP3 ADD MSTORE PUSH1 0x1E PUSH1 0x24 DUP3 ADD MSTORE PUSH32 0x4F6E6C79206F776E65722063616E20757064617465206561726E696E67730000 PUSH1 0x44 DUP3 ADD MSTORE PUSH1 0x64 SWAP1 REVERT JUMPDEST CALLVALUE PUSH2 0xF7 JUMPI PUSH1 0x40 CALLDATASIZE PUSH1 0x3 NOT ADD SLT PUSH2 0xF7 JUMPI PUSH8 0xFFFFFFFFFFFFFFFF PUSH1 0x4 CALLDATALOAD PUSH1 0x24 CALLDATALOAD DUP3 DUP2 GT PUSH2 0xF7 JUMPI PUSH2 0x96B SWAP1 CALLDATASIZE SWAP1 PUSH1 0x4 ADD PUSH2 0xB7C JUMP JUMPDEST DUP2 PUSH1 0x0 MSTORE PUSH1 0x20 PUSH1 0x2 DUP2 MSTORE PUSH1 0x1 SWAP4 PUSH1 0x1 DUP1 PUSH1 0xA0 SHL SUB DUP6 PUSH1 0x40 PUSH1 0x0 KECCAK256 ADD SLOAD AND CALLER SUB PUSH2 0xB06 JUMPI DUP4 PUSH1 0x0 MSTORE PUSH1 0x2 DUP3 MSTORE PUSH1 0x2 PUSH1 0x40 PUSH1 0x0 KECCAK256 ADD SWAP1 DUP4 MLOAD SWAP1 DUP2 GT PUSH2 0x557 JUMPI PUSH2 0x9B2 DUP3 SLOAD PUSH2 0xBE9 JUMP JUMPDEST PUSH1 0x1F DUP2 GT PUSH2 0xABD JUMPI JUMPDEST POP DUP3 SWAP6 PUSH1 0x1F DUP3 GT PUSH1 0x1 EQ PUSH2 0xA3E JUMPI DUP2 DUP1 SWAP2 PUSH32 0xA2539DD6B1C295A14EB2F24AF489E7F57B1FCE0127FB2F8135295DD5E13E176 SWAP8 SWAP9 PUSH1 0x0 SWAP4 PUSH2 0xA33 JUMPI JUMPDEST POP SHL SWAP2 PUSH1 0x0 NOT SWAP1 PUSH1 0x3 SHL SHR NOT AND OR SWAP1 SSTORE JUMPDEST DUP4 PUSH1 0x0 MSTORE PUSH1 0x2 DUP2 MSTORE TIMESTAMP PUSH1 0x7 PUSH1 0x40 PUSH1 0x0 KECCAK256 ADD SSTORE PUSH2 0xA2E PUSH1 0x40 MLOAD SWAP3 DUP3 DUP5 SWAP4 DUP5 MSTORE DUP4 ADD SWAP1 PUSH2 0xCC9 JUMP JUMPDEST SUB SWAP1 LOG2 STOP JUMPDEST DUP8 ADD MLOAD SWAP3 POP DUP10 PUSH2 0x9F7 JUMP JUMPDEST SWAP1 PUSH1 0x1F NOT DUP2 AND SWAP7 DUP4 PUSH1 0x0 MSTORE DUP5 PUSH1 0x0 KECCAK256 SWAP1 PUSH1 0x0 JUMPDEST DUP10 DUP2 LT PUSH2 0xAA8 JUMPI POP DUP3 PUSH32 0xA2539DD6B1C295A14EB2F24AF489E7F57B1FCE0127FB2F8135295DD5E13E176 SWAP9 SWAP10 LT PUSH2 0xA8F JUMPI JUMPDEST POP POP DUP2 SHL ADD SWAP1 SSTORE PUSH2 0xA08 JUMP JUMPDEST DUP7 ADD MLOAD PUSH1 0x0 NOT PUSH1 0xF8 DUP5 PUSH1 0x3 SHL AND SHR NOT AND SWAP1 SSTORE DUP8 DUP1 PUSH2 0xA83 JUMP JUMPDEST DUP8 DUP3 ADD MLOAD DUP4 SSTORE SWAP2 DUP5 ADD SWAP2 SWAP1 DUP7 ADD SWAP1 DUP7 ADD PUSH2 0xA51 JUMP JUMPDEST DUP3 PUSH1 0x0 MSTORE DUP4 PUSH1 0x0 KECCAK256 PUSH1 0x1F DUP4 ADD PUSH1 0x5 SHR DUP2 ADD SWAP2 DUP6 DUP5 LT PUSH2 0xAFC JUMPI JUMPDEST PUSH1 0x1F ADD PUSH1 0x5 SHR ADD SWAP1 DUP8 SWAP1 JUMPDEST DUP3 DUP2 LT PUSH2 0xAF0 JUMPI POP POP PUSH2 0x9BB JUMP JUMPDEST PUSH1 0x0 DUP2 SSTORE ADD DUP8 SWAP1 PUSH2 0xAE2 JUMP JUMPDEST SWAP1 SWAP2 POP DUP2 SWAP1 PUSH2 0xAD7 JUMP JUMPDEST PUSH1 0x40 MLOAD PUSH3 0x461BCD PUSH1 0xE5 SHL DUP2 MSTORE PUSH1 0x4 DUP2 ADD DUP4 SWAP1 MSTORE PUSH1 0xF PUSH1 0x24 DUP3 ADD MSTORE PUSH15 0x2737BA103A34329031B932B0BA37B9 PUSH1 0x89 SHL PUSH1 0x44 DUP3 ADD MSTORE PUSH1 0x64 SWAP1 REVERT JUMPDEST PUSH2 0x100 DUP2 ADD SWAP1 DUP2 LT PUSH8 0xFFFFFFFFFFFFFFFF DUP3 GT OR PUSH2 0x557 JUMPI PUSH1 0x40 MSTORE JUMP JUMPDEST SWAP1 PUSH1 0x1F DUP1 NOT SWAP2 ADD AND DUP2 ADD SWAP1 DUP2 LT PUSH8 0xFFFFFFFFFFFFFFFF DUP3 GT OR PUSH2 0x557 JUMPI PUSH1 0x40 MSTORE JUMP JUMPDEST DUP2 PUSH1 0x1F DUP3 ADD SLT ISZERO PUSH2 0xF7 JUMPI DUP1 CALLDATALOAD SWAP1 PUSH8 0xFFFFFFFFFFFFFFFF DUP3 GT PUSH2 0x557 JUMPI PUSH1 0x40 MLOAD SWAP3 PUSH2 0xBB1 PUSH1 0x1F DUP5 ADD PUSH1 0x1F NOT AND PUSH1 0x20 ADD DUP6 PUSH2 0xB5A JUMP JUMPDEST DUP3 DUP5 MSTORE PUSH1 0x20 DUP4 DUP4 ADD ADD GT PUSH2 0xF7 JUMPI DUP2 PUSH1 0x0 SWAP3 PUSH1 0x20 DUP1 SWAP4 ADD DUP4 DUP7 ADD CALLDATACOPY DUP4 ADD ADD MSTORE SWAP1 JUMP JUMPDEST PUSH1 0x40 SWAP1 PUSH1 0x3 NOT ADD SLT PUSH2 0xF7 JUMPI PUSH1 0x4 CALLDATALOAD SWAP1 PUSH1 0x24 CALLDATALOAD SWAP1 JUMP JUMPDEST SWAP1 PUSH1 0x1 DUP3 DUP2 SHR SWAP3 AND DUP1 ISZERO PUSH2 0xC19 JUMPI JUMPDEST PUSH1 0x20 DUP4 LT EQ PUSH2 0xC03 JUMPI JUMP JUMPDEST PUSH4 0x4E487B71 PUSH1 0xE0 SHL PUSH1 0x0 MSTORE PUSH1 0x22 PUSH1 0x4 MSTORE PUSH1 0x24 PUSH1 0x0 REVERT JUMPDEST SWAP2 PUSH1 0x7F AND SWAP2 PUSH2 0xBF8 JUMP JUMPDEST SWAP1 PUSH1 0x40 MLOAD SWAP2 DUP3 PUSH1 0x0 DUP3 SLOAD SWAP3 PUSH2 0xC37 DUP5 PUSH2 0xBE9 JUMP JUMPDEST SWAP1 DUP2 DUP5 MSTORE PUSH1 0x1 SWAP5 DUP6 DUP2 AND SWAP1 DUP2 PUSH1 0x0 EQ PUSH2 0xCA6 JUMPI POP PUSH1 0x1 EQ PUSH2 0xC63 JUMPI JUMPDEST POP POP PUSH2 0xC61 SWAP3 POP SUB DUP4 PUSH2 0xB5A JUMP JUMPDEST JUMP JUMPDEST SWAP1 SWAP4 SWAP2 POP PUSH1 0x0 MSTORE PUSH1 0x20 SWAP1 DUP2 PUSH1 0x0 KECCAK256 SWAP4 PUSH1 0x0 SWAP2 JUMPDEST DUP2 DUP4 LT PUSH2 0xC8E JUMPI POP POP PUSH2 0xC61 SWAP4 POP DUP3 ADD ADD CODESIZE DUP1 PUSH2 0xC53 JUMP JUMPDEST DUP6 SLOAD DUP9 DUP5 ADD DUP6 ADD MSTORE SWAP5 DUP6 ADD SWAP5 DUP8 SWAP5 POP SWAP2 DUP4 ADD SWAP2 PUSH2 0xC76 JUMP JUMPDEST SWAP2 POP POP PUSH2 0xC61 SWAP5 POP PUSH1 0x20 SWAP3 POP PUSH1 0xFF NOT AND DUP3 DUP5 ADD MSTORE ISZERO ISZERO PUSH1 0x5 SHL DUP3 ADD ADD CODESIZE DUP1 PUSH2 0xC53 JUMP JUMPDEST SWAP2 SWAP1 DUP3 MLOAD SWAP3 DUP4 DUP3 MSTORE PUSH1 0x0 JUMPDEST DUP5 DUP2 LT PUSH2 0xCF5 JUMPI POP POP DUP3 PUSH1 0x0 PUSH1 0x20 DUP1 SWAP5 SWAP6 DUP5 ADD ADD MSTORE PUSH1 0x1F DUP1 NOT SWAP2 ADD AND ADD ADD SWAP1 JUMP JUMPDEST PUSH1 0x20 DUP2 DUP4 ADD DUP2 ADD MLOAD DUP5 DUP4 ADD DUP3 ADD MSTORE ADD PUSH2 0xCD4 JUMP JUMPDEST PUSH1 0x0 SLOAD PUSH1 0x1 PUSH1 0x1 PUSH1 0xA0 SHL SUB AND CALLER SUB PUSH2 0xD1D JUMPI JUMP JUMPDEST PUSH1 0x64 PUSH1 0x40 MLOAD PUSH3 0x461BCD PUSH1 0xE5 SHL DUP2 MSTORE PUSH1 0x20 PUSH1 0x4 DUP3 ADD MSTORE PUSH1 0x20 PUSH1 0x24 DUP3 ADD MSTORE PUSH32 0x4F776E61626C653A2063616C6C6572206973206E6F7420746865206F776E6572 PUSH1 0x44 DUP3 ADD MSTORE REVERT JUMPDEST SWAP2 SWAP1 DUP3 ADD DUP1 SWAP3 GT PUSH2 0xD6E JUMPI JUMP JUMPDEST PUSH4 0x4E487B71 PUSH1 0xE0 SHL PUSH1 0x0 MSTORE PUSH1 0x11 PUSH1 0x4 MSTORE PUSH1 0x24 PUSH1 0x0 REVERT INVALID LOG2 PUSH5 0x6970667358 0x22 SLT KECCAK256 RETURNDATASIZE SMOD 0xD1 BALANCE SGT 0xE4 0xDB 0xC8 0xB8 DUP1 CALLDATALOAD 0xDD 0xEC DELEGATECALL 0xAF SWAP5 DUP16 0x5C MLOAD 0xEE PUSH22 0x769CBBF86321D82B5631A664736F6C63430008140033 "},"methodIdentifiers":{"creatorIdByWallet(address)":"c76c5ddb","creators(uint256)":"cd53d08e","getCreator(uint256)":"d48e638a","getCreatorIdByWallet(address)":"fb23b20b","getTotalCreators()":"31e8e39d","isCreator(address)":"efd46065","owner()":"8da5cb5b","registerCreator(string)":"dac0faf9","renounceOwnership()":"715018a6","transferOwnership(address)":"f2fde38b","updateCreatorMetadata(uint256,string)":"0b8fe30e","updateEarnings(uint256,uint256)":"1a3062f4","updateSubscriberCount(uint256,uint256)":"8ed40ab1","verifyCreator(uint256)":"e5c14411"}}}}}