{
  "_format": "hh-sol-artifact-1",
  "contractName": "ContentNFT",
  "sourceName": "contracts/web3patreoncontract.sol",
  "abi": [
    {
      "inputs": [
        {
          "internalType": "address",
          "name": "_creatorRegistry",
          "type": "address"
        }
      ],
      "stateMutability": "nonpayable",
      "type": "constructor"
    },
    {
      "anonymous": false,
      "inputs": [
        {
          "indexed": true,
          "internalType": "address",
          "name": "account",
          "type": "address"
        },
        {
          "indexed": true,
          "internalType": "address",
          "name": "operator",
          "type": "address"
        },
        {
          "indexed": false,
          "internalType": "bool",
          "name": "approved",
          "type": "bool"
        }
      ],
      "name": "ApprovalForAll",
      "type": "event"
    },
    {
      "anonymous": false,
      "inputs": [
        {
          "indexed": true,
          "internalType": "address",
          "name": "previousOwner",
          "type": "address"
        },
        {
          "indexed": true,
          "internalType": "address",
          "name": "newOwner",
          "type": "address"
        }
      ],
      "name": "OwnershipTransferred",
      "type": "event"
    },
    {
      "anonymous": false,
      "inputs": [
        {
          "indexed": true,
          "internalType": "uint256",
          "name": "tierId",
          "type": "uint256"
        },
        {
          "indexed": true,
          "internalType": "uint256",
          "name": "creatorId",
          "type": "uint256"
        },
        {
          "indexed": false,
          "internalType": "string",
          "name": "name",
          "type": "string"
        },
        {
          "indexed": false,
          "internalType": "uint256",
          "name": "price",
          "type": "uint256"
        }
      ],
      "name": "TierCreated",
      "type": "event"
    },
    {
      "anonymous": false,
      "inputs": [
        {
          "indexed": true,
          "internalType": "address",
          "name": "to",
          "type": "address"
        },
        {
          "indexed": true,
          "internalType": "uint256",
          "name": "tierId",
          "type": "uint256"
        },
        {
          "indexed": false,
          "internalType": "uint256",
          "name": "amount",
          "type": "uint256"
        }
      ],
      "name": "TokenMinted",
      "type": "event"
    },
    {
      "anonymous": false,
      "inputs": [
        {
          "indexed": true,
          "internalType": "address",
          "name": "operator",
          "type": "address"
        },
        {
          "indexed": true,
          "internalType": "address",
          "name": "from",
          "type": "address"
        },
        {
          "indexed": true,
          "internalType": "address",
          "name": "to",
          "type": "address"
        },
        {
          "indexed": false,
          "internalType": "uint256[]",
          "name": "ids",
          "type": "uint256[]"
        },
        {
          "indexed": false,
          "internalType": "uint256[]",
          "name": "values",
          "type": "uint256[]"
        }
      ],
      "name": "TransferBatch",
      "type": "event"
    },
    {
      "anonymous": false,
      "inputs": [
        {
          "indexed": true,
          "internalType": "address",
          "name": "operator",
          "type": "address"
        },
        {
          "indexed": true,
          "internalType": "address",
          "name": "from",
          "type": "address"
        },
        {
          "indexed": true,
          "internalType": "address",
          "name": "to",
          "type": "address"
        },
        {
          "indexed": false,
          "internalType": "uint256",
          "name": "id",
          "type": "uint256"
        },
        {
          "indexed": false,
          "internalType": "uint256",
          "name": "value",
          "type": "uint256"
        }
      ],
      "name": "TransferSingle",
      "type": "event"
    },
    {
      "anonymous": false,
      "inputs": [
        {
          "indexed": false,
          "internalType": "string",
          "name": "value",
          "type": "string"
        },
        {
          "indexed": true,
          "internalType": "uint256",
          "name": "id",
          "type": "uint256"
        }
      ],
      "name": "URI",
      "type": "event"
    },
    {
      "inputs": [
        {
          "internalType": "address",
          "name": "account",
          "type": "address"
        },
        {
          "internalType": "uint256",
          "name": "id",
          "type": "uint256"
        }
      ],
      "name": "balanceOf",
      "outputs": [
        {
          "internalType": "uint256",
          "name": "",
          "type": "uint256"
        }
      ],
      "stateMutability": "view",
      "type": "function"
    },
    {
      "inputs": [
        {
          "internalType": "address[]",
          "name": "accounts",
          "type": "address[]"
        },
        {
          "internalType": "uint256[]",
          "name": "ids",
          "type": "uint256[]"
        }
      ],
      "name": "balanceOfBatch",
      "outputs": [
        {
          "internalType": "uint256[]",
          "name": "",
          "type": "uint256[]"
        }
      ],
      "stateMutability": "view",
      "type": "function"
    },
    {
      "inputs": [
        {
          "internalType": "uint256",
          "name": "",
          "type": "uint256"
        }
      ],
      "name": "contentTiers",
      "outputs": [
        {
          "internalType": "uint256",
          "name": "id",
          "type": "uint256"
        },
        {
          "internalType": "uint256",
          "name": "creatorId",
          "type": "uint256"
        },
        {
          "internalType": "string",
          "name": "name",
          "type": "string"
        },
        {
          "internalType": "string",
          "name": "metadataURI",
          "type": "string"
        },
        {
          "internalType": "uint256",
          "name": "price",
          "type": "uint256"
        },
        {
          "internalType": "uint256",
          "name": "createdAt",
          "type": "uint256"
        }
      ],
      "stateMutability": "view",
      "type": "function"
    },
    {
      "inputs": [
        {
          "internalType": "string",
          "name": "name",
          "type": "string"
        },
        {
          "internalType": "string",
          "name": "metadataURI",
          "type": "string"
        },
        {
          "internalType": "uint256",
          "name": "price",
          "type": "uint256"
        }
      ],
      "name": "createTier",
      "outputs": [
        {
          "internalType": "uint256",
          "name": "",
          "type": "uint256"
        }
      ],
      "stateMutability": "nonpayable",
      "type": "function"
    },
    {
      "inputs": [],
      "name": "creatorRegistry",
      "outputs": [
        {
          "internalType": "contract CreatorRegistry",
          "name": "",
          "type": "address"
        }
      ],
      "stateMutability": "view",
      "type": "function"
    },
    {
      "inputs": [
        {
          "internalType": "uint256",
          "name": "",
          "type": "uint256"
        },
        {
          "internalType": "uint256",
          "name": "",
          "type": "uint256"
        }
      ],
      "name": "creatorTiers",
      "outputs": [
        {
          "internalType": "bool",
          "name": "",
          "type": "bool"
        }
      ],
      "stateMutability": "view",
      "type": "function"
    },
    {
      "inputs": [
        {
          "internalType": "uint256",
          "name": "tierId",
          "type": "uint256"
        }
      ],
      "name": "getTier",
      "outputs": [
        {
          "components": [
            {
              "internalType": "uint256",
              "name": "id",
              "type": "uint256"
            },
            {
              "internalType": "uint256",
              "name": "creatorId",
              "type": "uint256"
            },
            {
              "internalType": "string",
              "name": "name",
              "type": "string"
            },
            {
              "internalType": "string",
              "name": "metadataURI",
              "type": "string"
            },
            {
              "internalType": "uint256",
              "name": "price",
              "type": "uint256"
            },
            {
              "internalType": "uint256",
              "name": "createdAt",
              "type": "uint256"
            }
          ],
          "internalType": "struct ContentNFT.ContentTier",
          "name": "",
          "type": "tuple"
        }
      ],
      "stateMutability": "view",
      "type": "function"
    },
    {
      "inputs": [
        {
          "internalType": "address",
          "name": "account",
          "type": "address"
        },
        {
          "internalType": "uint256",
          "name": "tierId",
          "type": "uint256"
        }
      ],
      "name": "hasAccess",
      "outputs": [
        {
          "internalType": "bool",
          "name": "",
          "type": "bool"
        }
      ],
      "stateMutability": "view",
      "type": "function"
    },
    {
      "inputs": [
        {
          "internalType": "address",
          "name": "account",
          "type": "address"
        },
        {
          "internalType": "address",
          "name": "operator",
          "type": "address"
        }
      ],
      "name": "isApprovedForAll",
      "outputs": [
        {
          "internalType": "bool",
          "name": "",
          "type": "bool"
        }
      ],
      "stateMutability": "view",
      "type": "function"
    },
    {
      "inputs": [
        {
          "internalType": "address",
          "name": "to",
          "type": "address"
        },
        {
          "internalType": "uint256",
          "name": "tierId",
          "type": "uint256"
        },
        {
          "internalType": "uint256",
          "name": "amount",
          "type": "uint256"
        }
      ],
      "name": "mintToken",
      "outputs": [
        {
          "internalType": "bool",
          "name": "",
          "type": "bool"
        }
      ],
      "stateMutability": "nonpayable",
      "type": "function"
    },
    {
      "inputs": [],
      "name": "owner",
      "outputs": [
        {
          "internalType": "address",
          "name": "",
          "type": "address"
        }
      ],
      "stateMutability": "view",
      "type": "function"
    },
    {
      "inputs": [],
      "name": "renounceOwnership",
      "outputs": [],
      "stateMutability": "nonpayable",
      "type": "function"
    },
    {
      "inputs": [
        {
          "internalType": "address",
          "name": "from",
          "type": "address"
        },
        {
          "internalType": "address",
          "name": "to",
          "type": "address"
        },
        {
          "internalType": "uint256[]",
          "name": "ids",
          "type": "uint256[]"
        },
        {
          "internalType": "uint256[]",
          "name": "amounts",
          "type": "uint256[]"
        },
        {
          "internalType": "bytes",
          "name": "data",
          "type": "bytes"
        }
      ],
      "name": "safeBatchTransferFrom",
      "outputs": [],
      "stateMutability": "nonpayable",
      "type": "function"
    },
    {
      "inputs": [
        {
          "internalType": "address",
          "name": "from",
          "type": "address"
        },
        {
          "internalType": "address",
          "name": "to",
          "type": "address"
        },
        {
          "internalType": "uint256",
          "name": "id",
          "type": "uint256"
        },
        {
          "internalType": "uint256",
          "name": "amount",
          "type": "uint256"
        },
        {
          "internalType": "bytes",
          "name": "data",
          "type": "bytes"
        }
      ],
      "name": "safeTransferFrom",
      "outputs": [],
      "stateMutability": "nonpayable",
      "type": "function"
    },
    {
      "inputs": [
        {
          "internalType": "address",
          "name": "operator",
          "type": "address"
        },
        {
          "internalType": "bool",
          "name": "approved",
          "type": "bool"
        }
      ],
      "name": "setApprovalForAll",
      "outputs": [],
      "stateMutability": "nonpayable",
      "type": "function"
    },
    {
      "inputs": [
        {
          "internalType": "string",
          "name": "newuri",
          "type": "string"
        }
      ],
      "name": "setURI",
      "outputs": [],
      "stateMutability": "nonpayable",
      "type": "function"
    },
    {
      "inputs": [
        {
          "internalType": "bytes4",
          "name": "interfaceId",
          "type": "bytes4"
        }
      ],
      "name": "supportsInterface",
      "outputs": [
        {
          "internalType": "bool",
          "name": "",
          "type": "bool"
        }
      ],
      "stateMutability": "view",
      "type": "function"
    },
    {
      "inputs": [
        {
          "internalType": "address",
          "name": "newOwner",
          "type": "address"
        }
      ],
      "name": "transferOwnership",
      "outputs": [],
      "stateMutability": "nonpayable",
      "type": "function"
    },
    {
      "inputs": [
        {
          "internalType": "uint256",
          "name": "id",
          "type": "uint256"
        }
      ],
      "name": "uri",
      "outputs": [
        {
          "internalType": "string",
          "name": "",
          "type": "string"
        }
      ],
      "stateMutability": "view",
      "type": "function"
    }
  ],
  "bytecode": "0x6080346200017d576001600160401b0390601f6200208538819003918201601f19168301918483118484101762000167578084926020946040528339810103126200017d57516001600160a01b0391828216918290036200017d57604051906020820190811182821017620001675760405260008091526002546001908181811c911680156200015c575b60208210146200014857601f8111620000fa575b508160025560035460018060a01b03199233848316176003557f8be0079c531659141344cd1fd0a4f28419497f9722a3daafe3b4186f6b6457e0604051963393169180a36004556005541617600555611f029081620001838239f35b60028352601f0160051c7f405787fa12a823e0f2b7631cc41b3ba8828b3321ca811111fa75cd3aa3bb5ace9081019082905b8281106200013c5750506200009e565b8481550182906200012c565b634e487b7160e01b83526022600452602483fd5b90607f16906200008a565b634e487b7160e01b600052604160045260246000fd5b600080fdfe6080604052600436101561001257600080fd5b60003560e01c8062fdd58e1461185357806301ffc9a7146117e557806302fe53051461166c5780630e89341c1461160b57806323a36d2b146112da5780632eb2c2d614610fb0578063439e7eea14610a005780634e1273f41461085e5780634f062c5a14610746578063715018a6146106e95780638da5cb5b146106c05780639a6a5cf014610697578063a22cb465146105b3578063bc5aedc014610574578063c6530e4114610543578063cb1637de146104b6578063e985e9c514610460578063f242432a146101ba5763f2fde38b146100ec57600080fd5b346101b55760203660031901126101b557610105611879565b61010d611b00565b6001600160a01b0390811690811561016157600354826bffffffffffffffffffffffff60a01b821617600355167f8be0079c531659141344cd1fd0a4f28419497f9722a3daafe3b4186f6b6457e0600080a3005b60405162461bcd60e51b815260206004820152602660248201527f4f776e61626c653a206e6577206f776e657220697320746865207a65726f206160448201526564647265737360d01b6064820152608490fd5b600080fd5b346101b55760a03660031901126101b5576101d3611879565b6101db61188f565b906064356044356084356001600160401b0381116101b5576102019036906004016118e1565b6001600160a01b03938416933385148015610437575b61022090611c2c565b851661022d811515611c8f565b61023683611e59565b5061024084611e59565b50826000526020956000875260406000208660005287528460406000205461026a82821015611ce9565b85600052600089526040600020886000528952036040600020558360005260008752604060002082600052875260406000206102a7868254611d48565b90558186604051868152878a8201527fc3d58168c5ae7397731d063d5bbf3d657854427343f4c083240f7aacaa2d0f6260403392a43b6102e357005b61032793600087946040519687958694859363f23a6e6160e01b9b8c865233600487015260248601526044850152606484015260a0608484015260a4830190611937565b03925af160009181610408575b5061039f5782610342611d75565b6308c379a01461036a575b60405162461bcd60e51b81528061036660048201611e04565b0390fd5b610372611d93565b908161037e575061034d565b61036660405192839262461bcd60e51b845260048401526024830190611937565b6001600160e01b0319160390506103b257005b60405162461bcd60e51b815260206004820152602860248201527f455243313135353a204552433131353552656365697665722072656a656374656044820152676420746f6b656e7360c01b6064820152608490fd5b610429919250843d8611610430575b61042181836118c0565b810190611d55565b9084610334565b503d610417565b5084600052600160205260406000203360005260205261022060ff604060002054169050610217565b346101b55760403660031901126101b557610479611879565b61048161188f565b9060018060a01b03809116600052600160205260406000209116600052602052602060ff604060002054166040519015158152f35b346101b55760203660031901126101b5576004356000526007602052604060002080546001820154916104eb60028201611a5a565b6105346104fa60038401611a5a565b61052660056004860154950154936040519788978852602088015260c0604088015260c0870190611937565b908582036060870152611937565b91608084015260a08301520390f35b346101b55760403660031901126101b557602061056a610561611879565b60243590611b58565b1515604051908152f35b346101b55760403660031901126101b55760043560005260086020526040600020602435600052602052602060ff604060002054166040519015158152f35b346101b55760403660031901126101b5576105cc611879565b602435908115158092036101b5576001600160a01b03169033821461064057336000526001602052604060002082600052602052604060002060ff1981541660ff83161790556040519081527f17307eab39ab6107e8899845ad3d59bd9653f200f220920489ca2b5937696c3160203392a3005b60405162461bcd60e51b815260206004820152602960248201527f455243313135353a2073657474696e6720617070726f76616c20737461747573604482015268103337b91039b2b63360b91b6064820152608490fd5b346101b55760003660031901126101b5576005546040516001600160a01b039091168152602090f35b346101b55760003660031901126101b5576003546040516001600160a01b039091168152602090f35b346101b55760003660031901126101b557610702611b00565b600380546001600160a01b031981169091556000906001600160a01b03167f8be0079c531659141344cd1fd0a4f28419497f9722a3daafe3b4186f6b6457e08280a3005b346101b5576020806003193601126101b557600435600060a060405161076b816118a5565b828152828582015260606040820152606080820152826080820152015280151580610852575b61079a90611e8e565b600052600781526040600020604051906107b3826118a5565b8054825260018101548383019081526108416107d160028401611a5a565b6040850190815261082e6107e760038601611a5a565b916060870192835260056004870154966080890197885201549460a08801958652604051988998818a5251908901525160408801525160c0606088015260e0870190611937565b9051858203601f19016080870152611937565b915160a08401525160c08301520390f35b50600654811115610791565b346101b55760403660031901126101b5576004356001600160401b038082116101b557366023830112156101b55781600401359061089b82611977565b926108a960405194856118c0565b82845260209260248486019160051b830101913683116101b557602401905b8282106109e1575050506024359081116101b5576108ea90369060040161198e565b825181510361098a578251926108ff84611977565b9361090d60405195866118c0565b80855261091c601f1991611977565b01368486013760005b815181101561096f5761096a9061095a6001600160a01b036109478386611c02565b51166109538387611c02565b5190611b58565b6109648288611c02565b52611bdd565b610925565b5050506109866040519282849384528301906119ec565b0390f35b60405162461bcd60e51b815260048101839052602960248201527f455243313135353a206163636f756e747320616e6420696473206c656e677468604482015268040dad2e6dac2e8c6d60bb1b6064820152608490fd5b81356001600160a01b03811681036101b55781529084019084016108c8565b346101b55760603660031901126101b5576004356001600160401b0381116101b557610a309036906004016118e1565b6024356001600160401b0381116101b557610a4f9036906004016118e1565b60055460405163fb23b20b60e01b8082523360048301526001600160a01b039092169190602081602481865afa908115610e6b57600091610f7e575b5015610f3957835115610f0157825115610ebc5760443515610e775760209060246040518094819382523360048301525afa908115610e6b57600091610e39575b506001600654019182600655604051610ae4816118a5565b83815260208101918383526040820190868252606083015260443560808301524260a083015284600052600760205260406000209282518455516001840155518051906001600160401b038211610d53578190610b446002860154611a20565b601f8111610de6575b50602090601f8311600114610d7457600092610d69575b50508160011b916000199060031b1c19161760028301555b60608101518051906001600160401b038211610d5357610b9f6003850154611a20565b601f8111610d0c575b5091859391602097938890601f8311600114610c70577f4baf285bf2d939e1e30f6addbf03315085042274c5703fc126a1dde8ae20fe3a959383610c53969460059460a094600092610c65575b50508160011b916000199060031b1c19161760038501555b608081015160048501550151910155846000526008875260406000208460005287526040600020600160ff19825416179055604051918291604083526040830190611937565b604435888301520390a3604051908152f35b015190508d80610bf5565b9060038501600052896000209160005b601f1985168110610cf257509360018460059460a0947f4baf285bf2d939e1e30f6addbf03315085042274c5703fc126a1dde8ae20fe3a9a98610c539a98601f19811610610cd9575b505050811b016003850155610c0d565b015160001960f88460031b161c191690558d8080610cc9565b8183015184558a9850600190930192918b01918b01610c80565b600385016000526020600020601f840160051c810160208510610d4c575b601f830160051c82018110610d40575050610ba8565b60008155600101610d2a565b5080610d2a565b634e487b7160e01b600052604160045260246000fd5b015190508780610b64565b9250600285016000526020600020906000935b601f1984168510610dcb576001945083601f19811610610db2575b505050811b016002830155610b7c565b015160001960f88460031b161c19169055878080610da2565b81810151835560209485019460019093019290910190610d87565b909150600285016000526020600020601f840160051c810160208510610e32575b90849392915b601f830160051c82018110610e23575050610b4d565b60008155859450600101610e0d565b5080610e07565b90506020813d602011610e63575b81610e54602093836118c0565b810103126101b5575183610acc565b3d9150610e47565b6040513d6000823e3d90fd5b60405162461bcd60e51b815260206004820152601f60248201527f5072696365206d7573742062652067726561746572207468616e207a65726f006044820152606490fd5b60405162461bcd60e51b815260206004820152601860248201527f4d657461646174612055524920697320726571756972656400000000000000006044820152606490fd5b60405162461bcd60e51b815260206004820152601060248201526f13985b59481a5cc81c995c5d5a5c995960821b6044820152606490fd5b60405162461bcd60e51b815260206004820152601860248201527f4e6f74206120726567697374657265642063726561746f7200000000000000006044820152606490fd5b90506020813d602011610fa8575b81610f99602093836118c0565b810103126101b5575185610a8b565b3d9150610f8c565b346101b55760031960a0368201126101b557610fca611879565b90610fd361188f565b906001600160401b03906044358281116101b557610ff590369060040161198e565b6064358381116101b55761100d90369060040161198e565b926084359081116101b5576110269036906004016118e1565b6001600160a01b039586169590929033871480156112b1575b61104890611c2c565b825185510361125b5785169261105f841515611c8f565b60005b83518110156110f857806110796110f39286611c02565b516110848289611c02565b5190806000526020906000825260406000208c6000528252826040600020546110af82821015611ce9565b82600052600084528d6040600020906000528452036040600020556000526000815260406000209088600052526110ec6040600020918254611d48565b9055611bdd565b611062565b509094939291938287604051604081527f4a39dc06d4c0dbc64b70af90fd698a233a518aa5d07e595d983b8c0526c8f7fb611136604083018a6119ec565b9180830360208201528061114b33948b6119ec565b0390a43b61115557005b60006020946111b66111a79761119794604051998a988997889663bc197c8160e01b9e8f89523360048a0152602489015260a0604489015260a48801906119ec565b90848783030160648801526119ec565b91848303016084850152611937565b03925af16000918161123b575b5061122a576111d0611d75565b6308c379a0146111f35760405162461bcd60e51b81528061036660048201611e04565b6111fb611d93565b80611206575061034d565b60405162461bcd60e51b815260206004820152908190610366906024830190611937565b6001600160e01b031916036103b257005b61125491925060203d81116104305761042181836118c0565b90836111c3565b60405162461bcd60e51b815260206004820152602860248201527f455243313135353a2069647320616e6420616d6f756e7473206c656e677468206044820152670dad2e6dac2e8c6d60c31b6064820152608490fd5b5086600052600160205260406000203360005260205261104860ff60406000205416905061103f565b346101b55760603660031901126101b5576112f3611879565b6024908135604435916002600454146115c7576002600455811515806115bb575b61131d90611e8e565b821561157757604051926020938481018181106001600160401b0382111761156257604052600081526001600160a01b0383169283156115145761136085611e59565b5061136a83611e59565b5084600052600086526040600020846000528652604060002061138e848254611d48565b905583600060405187815285898201527fc3d58168c5ae7397731d063d5bbf3d657854427343f4c083240f7aacaa2d0f6260403392a43b611403575b50837f96234cb3d6c373a1aaa06497a540bc166d4b0359243a088eaf95e21d7253d0be91604051908152a3600160045560405160018152f35b60405185818061144163f23a6e6160e01b9586835233600484015260008c84015289604484015287606484015260a0608484015260a4830190611937565b03816000885af1600091816114f5575b506114b6578686611460611d75565b6308c379a0146114835760405162461bcd60e51b81528061036660048201611e04565b61148b611d93565b80611496575061034d565b6103669060405193849362461bcd60e51b85526004850152830190611937565b9091929394955063ffffffff60e01b16036103b257839291907f96234cb3d6c373a1aaa06497a540bc166d4b0359243a088eaf95e21d7253d0be6113ca565b61150d919250873d89116104305761042181836118c0565b9088611451565b60405162461bcd60e51b8152600481018790526021818901527f455243313135353a206d696e7420746f20746865207a65726f206164647265736044820152607360f81b6064820152608490fd5b86634e487b7160e01b60005260416004526000fd5b60405162461bcd60e51b8152602060048201819052818601527f416d6f756e74206d7573742062652067726561746572207468616e207a65726f6044820152606490fd5b50600654821115611314565b60405162461bcd60e51b815260206004820152601f818601527f5265656e7472616e637947756172643a207265656e7472616e742063616c6c006044820152606490fd5b346101b55760203660031901126101b55760043580151580611660575b61163190611e8e565b600052600760205261098661164c6003604060002001611a5a565b604051918291602083526020830190611937565b50600654811115611628565b346101b5576020806003193601126101b5576001600160401b036004358181116101b55761169e9036906004016118e1565b916116a7611b00565b8251918211610d53576116bb600254611a20565b601f8111611781575b5080601f8311600114611700575081926000926116f5575b5050600019600383901b1c191660019190911b17600255005b0151905082806116dc565b90601f1983169360026000527f405787fa12a823e0f2b7631cc41b3ba8828b3321ca811111fa75cd3aa3bb5ace926000905b8682106117695750508360019510611750575b505050811b01600255005b015160001960f88460031b161c19169055828080611745565b80600185968294968601518155019501930190611732565b60026000527f405787fa12a823e0f2b7631cc41b3ba8828b3321ca811111fa75cd3aa3bb5ace601f840160051c8101918385106117db575b601f0160051c01905b8181106117cf57506116c4565b600081556001016117c2565b90915081906117b9565b346101b55760203660031901126101b55760043563ffffffff60e01b81168091036101b557602090636cdb3d1360e11b8114908115611842575b8115611831575b506040519015158152f35b6301ffc9a760e01b14905082611826565b6303a24d0760e21b8114915061181f565b346101b55760403660031901126101b5576020611871610561611879565b604051908152f35b600435906001600160a01b03821682036101b557565b602435906001600160a01b03821682036101b557565b60c081019081106001600160401b03821117610d5357604052565b90601f801991011681019081106001600160401b03821117610d5357604052565b81601f820112156101b5578035906001600160401b038211610d535760405192611915601f8401601f1916602001856118c0565b828452602083830101116101b557816000926020809301838601378301015290565b919082519283825260005b848110611963575050826000602080949584010152601f8019910116010190565b602081830181015184830182015201611942565b6001600160401b038111610d535760051b60200190565b81601f820112156101b5578035916119a583611977565b926119b360405194856118c0565b808452602092838086019260051b8201019283116101b5578301905b8282106119dd575050505090565b813581529083019083016119cf565b90815180825260208080930193019160005b828110611a0c575050505090565b8351855293810193928101926001016119fe565b90600182811c92168015611a50575b6020831014611a3a57565b634e487b7160e01b600052602260045260246000fd5b91607f1691611a2f565b9060405191826000825492611a6e84611a20565b908184526001948581169081600014611add5750600114611a9a575b5050611a98925003836118c0565b565b9093915060005260209081600020936000915b818310611ac5575050611a9893508201013880611a8a565b85548884018501529485019487945091830191611aad565b915050611a9894506020925060ff191682840152151560051b8201013880611a8a565b6003546001600160a01b03163303611b1457565b606460405162461bcd60e51b815260206004820152602060248201527f4f776e61626c653a2063616c6c6572206973206e6f7420746865206f776e65726044820152fd5b6001600160a01b0316908115611b8557600052600060205260406000209060005260205260406000205490565b60405162461bcd60e51b815260206004820152602a60248201527f455243313135353a2061646472657373207a65726f206973206e6f742061207660448201526930b634b21037bbb732b960b11b6064820152608490fd5b6000198114611bec5760010190565b634e487b7160e01b600052601160045260246000fd5b8051821015611c165760209160051b010190565b634e487b7160e01b600052603260045260246000fd5b15611c3357565b60405162461bcd60e51b815260206004820152602e60248201527f455243313135353a2063616c6c6572206973206e6f7420746f6b656e206f776e60448201526d195c881bdc88185c1c1c9bdd995960921b6064820152608490fd5b15611c9657565b60405162461bcd60e51b815260206004820152602560248201527f455243313135353a207472616e7366657220746f20746865207a65726f206164604482015264647265737360d81b6064820152608490fd5b15611cf057565b60405162461bcd60e51b815260206004820152602a60248201527f455243313135353a20696e73756666696369656e742062616c616e636520666f60448201526939103a3930b739b332b960b11b6064820152608490fd5b91908201809211611bec57565b908160209103126101b557516001600160e01b0319811681036101b55790565b60009060033d11611d8257565b905060046000803e60005160e01c90565b600060443d10611df057604051600319913d83016004833e81516001600160401b03918282113d602484011117611df357818401948551938411611dfb573d85010160208487010111611df35750611df0929101602001906118c0565b90565b949350505050565b50949350505050565b60809060208152603460208201527f455243313135353a207472616e7366657220746f206e6f6e2d455243313135356040820152732932b1b2b4bb32b91034b6b83632b6b2b73a32b960611b60608201520190565b60405190604082018281106001600160401b03821117610d535760405260018252602082016020368237825115611c16575290565b15611e9557565b60405162461bcd60e51b815260206004820152600f60248201526e125b9d985b1a59081d1a595c881251608a1b6044820152606490fdfea2646970667358221220ce06daf8004618a26c0d38b1135328d04b99394f95d63cfabdff6364ac93e8fc64736f6c63430008140033",
  "linkReferences": {},
  "deployedLinkReferences": {}
}