{
  "_format": "hh-sol-artifact-1",
  "contractName": "CreatorRegistry",
  "sourceName": "contracts/web3patreoncontract.sol",
  "abi": [
    {
      "inputs": [],
      "stateMutability": "nonpayable",
      "type": "constructor"
    },
    {
      "anonymous": false,
      "inputs": [
        {
          "indexed": true,
          "internalType": "uint256",
          "name": "creatorId",
          "type": "uint256"
        },
        {
          "indexed": true,
          "internalType": "address",
          "name": "wallet",
          "type": "address"
        },
        {
          "indexed": false,
          "internalType": "string",
          "name": "metadataURI",
          "type": "string"
        }
      ],
      "name": "CreatorRegistered",
      "type": "event"
    },
    {
      "anonymous": false,
      "inputs": [
        {
          "indexed": true,
          "internalType": "uint256",
          "name": "creatorId",
          "type": "uint256"
        },
        {
          "indexed": false,
          "internalType": "uint256",
          "name": "totalSubscribers",
          "type": "uint256"
        },
        {
          "indexed": false,
          "internalType": "uint256",
          "name": "totalEarnings",
          "type": "uint256"
        }
      ],
      "name": "CreatorStatsUpdated",
      "type": "event"
    },
    {
      "anonymous": false,
      "inputs": [
        {
          "indexed": true,
          "internalType": "uint256",
          "name": "creatorId",
          "type": "uint256"
        },
        {
          "indexed": false,
          "internalType": "string",
          "name": "metadataURI",
          "type": "string"
        }
      ],
      "name": "CreatorUpdated",
      "type": "event"
    },
    {
      "anonymous": false,
      "inputs": [
        {
          "indexed": true,
          "internalType": "uint256",
          "name": "creatorId",
          "type": "uint256"
        }
      ],
      "name": "CreatorVerified",
      "type": "event"
    },
    {
      "anonymous": false,
      "inputs": [
        {
          "indexed": true,
          "internalType": "address",
          "name": "previousOwner",
          "type": "address"
        },
        {
          "indexed": true,
          "internalType": "address",
          "name": "newOwner",
          "type": "address"
        }
      ],
      "name": "OwnershipTransferred",
      "type": "event"
    },
    {
      "inputs": [
        {
          "internalType": "uint256",
          "name": "",
          "type": "uint256"
        }
      ],
      "name": "creators",
      "outputs": [
        {
          "internalType": "uint256",
          "name": "id",
          "type": "uint256"
        },
        {
          "internalType": "address payable",
          "name": "wallet",
          "type": "address"
        },
        {
          "internalType": "string",
          "name": "metadataURI",
          "type": "string"
        },
        {
          "internalType": "uint256",
          "name": "totalSubscribers",
          "type": "uint256"
        },
        {
          "internalType": "uint256",
          "name": "totalEarnings",
          "type": "uint256"
        },
        {
          "internalType": "bool",
          "name": "isVerified",
          "type": "bool"
        },
        {
          "internalType": "uint256",
          "name": "createdAt",
          "type": "uint256"
        },
        {
          "internalType": "uint256",
          "name": "updatedAt",
          "type": "uint256"
        }
      ],
      "stateMutability": "view",
      "type": "function"
    },
    {
      "inputs": [
        {
          "internalType": "uint256",
          "name": "creatorId",
          "type": "uint256"
        }
      ],
      "name": "getCreator",
      "outputs": [
        {
          "components": [
            {
              "internalType": "uint256",
              "name": "id",
              "type": "uint256"
            },
            {
              "internalType": "address payable",
              "name": "wallet",
              "type": "address"
            },
            {
              "internalType": "string",
              "name": "metadataURI",
              "type": "string"
            },
            {
              "internalType": "uint256",
              "name": "totalSubscribers",
              "type": "uint256"
            },
            {
              "internalType": "uint256",
              "name": "totalEarnings",
              "type": "uint256"
            },
            {
              "internalType": "bool",
              "name": "isVerified",
              "type": "bool"
            },
            {
              "internalType": "uint256",
              "name": "createdAt",
              "type": "uint256"
            },
            {
              "internalType": "uint256",
              "name": "updatedAt",
              "type": "uint256"
            }
          ],
          "internalType": "struct CreatorRegistry.Creator",
          "name": "",
          "type": "tuple"
        }
      ],
      "stateMutability": "view",
      "type": "function"
    },
    {
      "inputs": [
        {
          "internalType": "address",
          "name": "wallet",
          "type": "address"
        }
      ],
      "name": "getCreatorIdByWallet",
      "outputs": [
        {
          "internalType": "uint256",
          "name": "",
          "type": "uint256"
        }
      ],
      "stateMutability": "view",
      "type": "function"
    },
    {
      "inputs": [],
      "name": "getTotalCreators",
      "outputs": [
        {
          "internalType": "uint256",
          "name": "",
          "type": "uint256"
        }
      ],
      "stateMutability": "view",
      "type": "function"
    },
    {
      "inputs": [
        {
          "internalType": "address",
          "name": "wallet",
          "type": "address"
        }
      ],
      "name": "isVerifiedCreator",
      "outputs": [
        {
          "internalType": "bool",
          "name": "",
          "type": "bool"
        }
      ],
      "stateMutability": "view",
      "type": "function"
    },
    {
      "inputs": [],
      "name": "owner",
      "outputs": [
        {
          "internalType": "address",
          "name": "",
          "type": "address"
        }
      ],
      "stateMutability": "view",
      "type": "function"
    },
    {
      "inputs": [
        {
          "internalType": "string",
          "name": "metadataURI",
          "type": "string"
        }
      ],
      "name": "registerCreator",
      "outputs": [],
      "stateMutability": "nonpayable",
      "type": "function"
    },
    {
      "inputs": [],
      "name": "renounceOwnership",
      "outputs": [],
      "stateMutability": "nonpayable",
      "type": "function"
    },
    {
      "inputs": [
        {
          "internalType": "address",
          "name": "newOwner",
          "type": "address"
        }
      ],
      "name": "transferOwnership",
      "outputs": [],
      "stateMutability": "nonpayable",
      "type": "function"
    },
    {
      "inputs": [
        {
          "internalType": "string",
          "name": "metadataURI",
          "type": "string"
        }
      ],
      "name": "updateCreator",
      "outputs": [],
      "stateMutability": "nonpayable",
      "type": "function"
    },
    {
      "inputs": [
        {
          "internalType": "uint256",
          "name": "creatorId",
          "type": "uint256"
        },
        {
          "internalType": "int256",
          "name": "subscriberChange",
          "type": "int256"
        },
        {
          "internalType": "uint256",
          "name": "earningsChange",
          "type": "uint256"
        }
      ],
      "name": "updateStats",
      "outputs": [],
      "stateMutability": "nonpayable",
      "type": "function"
    },
    {
      "inputs": [
        {
          "internalType": "uint256",
          "name": "creatorId",
          "type": "uint256"
        }
      ],
      "name": "verifyCreator",
      "outputs": [],
      "stateMutability": "nonpayable",
      "type": "function"
    },
    {
      "inputs": [
        {
          "internalType": "address",
          "name": "",
          "type": "address"
        }
      ],
      "name": "walletToCreatorId",
      "outputs": [
        {
          "internalType": "uint256",
          "name": "",
          "type": "uint256"
        }
      ],
      "stateMutability": "view",
      "type": "function"
    }
  ],
  "bytecode": "0x6080806040523461005f5760008054336001600160a01b0319821681178355916001600160a01b03909116907f8be0079c531659141344cd1fd0a4f28419497f9722a3daafe3b4186f6b6457e09080a360018055610f9490816100658239f35b600080fdfe608080604052600436101561001357600080fd5b60e0600035811c91826331e8e39d14610b6e575081634209e03d14610a2657816350dcf827146109e6578163663222c5146100b0578163715018a61461098d5781638da5cb5b14610964578163cd53d08e146108c7578163d48e638a1461077b578163dac0faf9146104ce57508063dde9be99146102af578063e5c14411146101be578063f2fde38b146100f35763fb23b20b146100b057600080fd5b346100ee5760203660031901126100ee576004356001600160a01b038116908190036100ee5760005260066020526020604060002054604051908152f35b600080fd5b346100ee5760203660031901126100ee576004356001600160a01b03818116918290036100ee57610122610d59565b811561016a57600054826bffffffffffffffffffffffff60a01b821617600055167f8be0079c531659141344cd1fd0a4f28419497f9722a3daafe3b4186f6b6457e0600080a3005b60405162461bcd60e51b815260206004820152602660248201527f4f776e61626c653a206e6577206f776e657220697320746865207a65726f206160448201526564647265737360d01b6064820152608490fd5b346100ee5760203660031901126100ee576004356101da610d59565b801515806102a3575b6101ec90610e53565b80600052600560205260ff6005604060002001541661025e57806000526005602052610236604060002060058101600160ff198254161790556001808060a01b0391015416610e94565b507fb58683e399165d7751bef535fe75340046e8c2a16fa78e063412916e9fa3d99a600080a2005b60405162461bcd60e51b815260206004820152601860248201527f43726561746f7220616c726561647920766572696669656400000000000000006044820152606490fd5b506002548111156101e3565b346100ee576102bd36610ce8565b336000526020906006825260406000205415610489576102df81511515610db1565b336000526006825260406000205490816000526005835260026040600020019281519367ffffffffffffffff85116104735761031b8154610b89565b601f811161042d575b5081601f86116001146103a85794807f0a2539dd6b1c295a14eb2f24af489e7f57b1fce0127fb2f8135295dd5e13e176959660009161039d575b508160011b916000199060031b1c19161790555b836000526005815242600760406000200155610398604051928284938452830190610ca8565b0390a2005b90508401518761035e565b601f1986169082600052836000209160005b81811061041657509187917f0a2539dd6b1c295a14eb2f24af489e7f57b1fce0127fb2f8135295dd5e13e1769798600194106103fd575b5050811b019055610372565b86015160001960f88460031b161c1916905587806103f1565b91928560018192868a0151815501940192016103ba565b8160005282600020601f870160051c810191848810610469575b601f0160051c01905b81811061045d5750610324565b60008155600101610450565b9091508190610447565b634e487b7160e01b600052604160045260246000fd5b60405162461bcd60e51b815260048101839052601860248201527f4e6f74206120726567697374657265642063726561746f7200000000000000006044820152606490fd5b346100ee576104dc36610ce8565b906104e5610dfd565b3360005260066020526040600020546107365761050482511515610db1565b60016002540190816002556040519061051c82610bc3565b8282526020820191338352604081018581526000606083015260006080830152600060a08301524260c0830152428383015284600052600560205260406000209382518555600185019060018060a01b039051166bffffffffffffffffffffffff60a01b8254161790555180519067ffffffffffffffff8211610473576105a66002860154610b89565b601f81116106ef575b50602090601f831160011461067b5760079493929160009183610670575b50508160011b916000199060031b1c19161760028501555b60608101516003850155608081015160048501556005840160a0820151151560ff8019835416911617905560c081015160068501550151910155336000526006602052806040600020557f4cfde7f67060004def7ffd71f6f34b90f732485709c3c9367aed20d0fd61a8ca604051602081528061066733956020830190610ca8565b0390a360018055005b0151905088806105cd565b906002860160005260206000209160005b601f19851681106106d757509183916001936007979695601f198116106106be575b505050811b0160028501556105e5565b015160001960f88460031b161c191690558880806106ae565b9192602060018192868501518155019401920161068c565b600286016000526020600020601f840160051c81016020851061072f575b601f830160051c820181106107235750506105af565b6000815560010161070d565b508061070d565b60405162461bcd60e51b815260206004820152601d60248201527f416c726561647920726567697374657265642061732063726561746f720000006044820152606490fd5b346100ee57602090816003193601126100ee576004356000826040516107a081610bc3565b8281528286820152606060408201528260608201528260808201528260a08201528260c08201520152801515806108bb575b6107db90610e53565b60005260058252604060002090604051916107f583610bc3565b8054835260018101546001600160a01b03908116858501908152909261081d60028401610c02565b9260408601938452600381015494606087019586526004820154946080880195865260ff6005840154169160a089019215158352600760068501549460c08b01958652015495858a019687526040519a8b9a818c5251908b0152511660408901525194610898610100968760608b01526101208a0190610ca8565b965160808901525160a088015251151560c0870152519085015251908301520390f35b506002548111156107d2565b346100ee5760203660031901126100ee576004356000526005602052604060002080549060018060a01b036001820154169261090560028301610c02565b90600383015492600481015460ff600583015416906109466007600685015494015495604051998a998a5260208a01526101008060408b0152890190610ca8565b9560608801526080870152151560a086015260c08501528301520390f35b346100ee5760003660031901126100ee576000546040516001600160a01b039091168152602090f35b346100ee5760003660031901126100ee576109a6610d59565b600080546001600160a01b0319811682556001600160a01b03167f8be0079c531659141344cd1fd0a4f28419497f9722a3daafe3b4186f6b6457e08280a3005b346100ee5760203660031901126100ee576004356001600160a01b038116908190036100ee57600052600460205260206040600020541515604051908152f35b346100ee5760603660031901126100ee57600435602435610a45610dfd565b81151580610b62575b610a5790610e53565b81600052600560205260406000209060008113600014610ac75781604091610a936003600080516020610f3f8339815191529501918254610f31565b90555b60036004820191610aaa6044358454610f31565b80935542600782015501549082519182526020820152a260018055005b60008112610ae8575b506040600080516020610f3f83398151915291610a96565b90600160ff1b8214610b305760038101908260000382541015600014610b46578154928301928311610b3057600080516020610f3f83398151915292604092555b9150610ad0565b634e487b7160e01b600052601160045260246000fd5b600080516020610f3f8339815191529250600060409255610b29565b50600254821115610a4e565b346100ee5760003660031901126100ee576020906002548152f35b90600182811c92168015610bb9575b6020831014610ba357565b634e487b7160e01b600052602260045260246000fd5b91607f1691610b98565b610100810190811067ffffffffffffffff82111761047357604052565b90601f8019910116810190811067ffffffffffffffff82111761047357604052565b9060405191826000825492610c1684610b89565b908184526001948581169081600014610c855750600114610c42575b5050610c4092500383610be0565b565b9093915060005260209081600020936000915b818310610c6d575050610c4093508201013880610c32565b85548884018501529485019487945091830191610c55565b915050610c4094506020925060ff191682840152151560051b8201013880610c32565b919082519283825260005b848110610cd4575050826000602080949584010152601f8019910116010190565b602081830181015184830182015201610cb3565b60206003198201126100ee5767ffffffffffffffff6004358181116100ee57826023820112156100ee5780600401359182116104735760405192610d36601f8401601f191660200185610be0565b828452602483830101116100ee5781600092602460209301838601378301015290565b6000546001600160a01b03163303610d6d57565b606460405162461bcd60e51b815260206004820152602060248201527f4f776e61626c653a2063616c6c6572206973206e6f7420746865206f776e65726044820152fd5b15610db857565b60405162461bcd60e51b815260206004820152601860248201527f4d657461646174612055524920697320726571756972656400000000000000006044820152606490fd5b600260015414610e0e576002600155565b60405162461bcd60e51b815260206004820152601f60248201527f5265656e7472616e637947756172643a207265656e7472616e742063616c6c006044820152606490fd5b15610e5a57565b60405162461bcd60e51b8152602060048201526012602482015271125b9d985b1a590818dc99585d1bdc88125160721b6044820152606490fd5b600081815260046020526040812054610f2c5760035468010000000000000000811015610f18576001810180600355811015610f045790826040927fc2575a0e9e593c00f959f8c92f12db2869c3395a3b0502d05e2516446f71f85b015560035492815260046020522055600190565b634e487b7160e01b82526032600452602482fd5b634e487b7160e01b82526041600452602482fd5b905090565b91908201809211610b305756fe3bf98f0e34ccfa8e143ea2f0c79aff94b8e681f3c11522f2713688acdc12b779a2646970667358221220bd4509509b7cf7fc2e603af13f7e9d45d09a4b4976a6d23a60e3ccc8275ef3fa64736f6c63430008140033",
  "linkReferences": {},
  "deployedLinkReferences": {}
}