{
  "_format": "hh-sol-artifact-1",
  "contractName": "DeployerContract",
  "sourceName": "contracts/web3patreoncontract.sol",
  "abi": [
    {
      "inputs": [
        {
          "internalType": "address",
          "name": "treasuryWallet",
          "type": "address"
        }
      ],
      "stateMutability": "nonpayable",
      "type": "constructor"
    },
    {
      "anonymous": false,
      "inputs": [
        {
          "indexed": true,
          "internalType": "address",
          "name": "creatorRegistry",
          "type": "address"
        },
        {
          "indexed": true,
          "internalType": "address",
          "name": "contentNFT",
          "type": "address"
        },
        {
          "indexed": true,
          "internalType": "address",
          "name": "subscriptionManager",
          "type": "address"
        }
      ],
      "name": "ContractsDeployed",
      "type": "event"
    },
    {
      "inputs": [],
      "name": "contentNFT",
      "outputs": [
        {
          "internalType": "address",
          "name": "",
          "type": "address"
        }
      ],
      "stateMutability": "view",
      "type": "function"
    },
    {
      "inputs": [],
      "name": "creatorRegistry",
      "outputs": [
        {
          "internalType": "address",
          "name": "",
          "type": "address"
        }
      ],
      "stateMutability": "view",
      "type": "function"
    },
    {
      "inputs": [],
      "name": "owner",
      "outputs": [
        {
          "internalType": "address",
          "name": "",
          "type": "address"
        }
      ],
      "stateMutability": "view",
      "type": "function"
    },
    {
      "inputs": [],
      "name": "subscriptionManager",
      "outputs": [
        {
          "internalType": "address",
          "name": "",
          "type": "address"
        }
      ],
      "stateMutability": "view",
      "type": "function"
    }
  ],
  "bytecode": "0x60803461032857600090601f615a3538819003918201601f19168301926001600160401b039290918385118386101761031457816020928492604097885283398101031261022e57516001600160a01b0391828216918290036103105781156102bd5760018060a01b031991338360035416176003558451610ff980820190828210858311176102a9579082916104718339039087f0801561029f57841691828488541617875586856003541693803b1561029b578190602489518094819363f2fde38b60e01b998a845260048401525af180156102915761027e575b508487541686519061208590818301918383108584111761023c579280926020928c9561146a8439815203019082f08015610272578616808660015416176001558660035416813b15610220578291602483928b5194859384928b845260048401525af1801561026857610250575b5085905416918560015416875193612546808601948686109086111761023c5792859491928b989796936060956134ef8639835260208301528982015203019084f08015610232578416809260025416176002558360035416823b1561022e57602484928388519586948593845260048401525af180156102245761020c575b50819054167f64ff5f080a9fbac5fd2b92ee5d223ab47abf2bc09caad8eefb67cdf7f7a1796c8260015416926002541693519480a461011a90816103578239f35b6102159061032d565b6102205782386101cb565b8280fd5b84513d84823e3d90fd5b8380fd5b85513d85823e3d90fd5b634e487b7160e01b8b52604160045260248bfd5b6102599061032d565b61026457863861014b565b8680fd5b88513d84823e3d90fd5b508651903d90823e3d90fd5b61028a9097919761032d565b95386100dc565b87513d8a823e3d90fd5b5080fd5b85513d88823e3d90fd5b634e487b7160e01b89526041600452602489fd5b835162461bcd60e51b815260206004820152602660248201527f54726561737572792077616c6c65742063616e6e6f74206265207a65726f206160448201526564647265737360d01b6064820152608490fd5b8480fd5b634e487b7160e01b86526041600452602486fd5b600080fd5b6001600160401b03811161034057604052565b634e487b7160e01b600052604160045260246000fdfe6080806040526004361015601257600080fd5b600090813560e01c90816328aef9691460bd575080638da5cb5b1460965780639a6a5cf01460715763bf158fd214604857600080fd5b34606e5780600319360112606e576002546040516001600160a01b039091168152602090f35b80fd5b5034606e5780600319360112606e57546040516001600160a01b039091168152602090f35b5034606e5780600319360112606e576003546040516001600160a01b039091168152602090f35b90503460e0578160031936011260e0576001546001600160a01b03168152602090f35b5080fdfea264697066735822122096370a91ba4f3657904954597f7471bd73c14b2f37d18cab0ebeaec39be94bb064736f6c634300081400336080806040523461005f5760008054336001600160a01b0319821681178355916001600160a01b03909116907f8be0079c531659141344cd1fd0a4f28419497f9722a3daafe3b4186f6b6457e09080a360018055610f9490816100658239f35b600080fdfe608080604052600436101561001357600080fd5b60e0600035811c91826331e8e39d14610b6e575081634209e03d14610a2657816350dcf827146109e6578163663222c5146100b0578163715018a61461098d5781638da5cb5b14610964578163cd53d08e146108c7578163d48e638a1461077b578163dac0faf9146104ce57508063dde9be99146102af578063e5c14411146101be578063f2fde38b146100f35763fb23b20b146100b057600080fd5b346100ee5760203660031901126100ee576004356001600160a01b038116908190036100ee5760005260066020526020604060002054604051908152f35b600080fd5b346100ee5760203660031901126100ee576004356001600160a01b03818116918290036100ee57610122610d59565b811561016a57600054826bffffffffffffffffffffffff60a01b821617600055167f8be0079c531659141344cd1fd0a4f28419497f9722a3daafe3b4186f6b6457e0600080a3005b60405162461bcd60e51b815260206004820152602660248201527f4f776e61626c653a206e6577206f776e657220697320746865207a65726f206160448201526564647265737360d01b6064820152608490fd5b346100ee5760203660031901126100ee576004356101da610d59565b801515806102a3575b6101ec90610e53565b80600052600560205260ff6005604060002001541661025e57806000526005602052610236604060002060058101600160ff198254161790556001808060a01b0391015416610e94565b507fb58683e399165d7751bef535fe75340046e8c2a16fa78e063412916e9fa3d99a600080a2005b60405162461bcd60e51b815260206004820152601860248201527f43726561746f7220616c726561647920766572696669656400000000000000006044820152606490fd5b506002548111156101e3565b346100ee576102bd36610ce8565b336000526020906006825260406000205415610489576102df81511515610db1565b336000526006825260406000205490816000526005835260026040600020019281519367ffffffffffffffff85116104735761031b8154610b89565b601f811161042d575b5081601f86116001146103a85794807f0a2539dd6b1c295a14eb2f24af489e7f57b1fce0127fb2f8135295dd5e13e176959660009161039d575b508160011b916000199060031b1c19161790555b836000526005815242600760406000200155610398604051928284938452830190610ca8565b0390a2005b90508401518761035e565b601f1986169082600052836000209160005b81811061041657509187917f0a2539dd6b1c295a14eb2f24af489e7f57b1fce0127fb2f8135295dd5e13e1769798600194106103fd575b5050811b019055610372565b86015160001960f88460031b161c1916905587806103f1565b91928560018192868a0151815501940192016103ba565b8160005282600020601f870160051c810191848810610469575b601f0160051c01905b81811061045d5750610324565b60008155600101610450565b9091508190610447565b634e487b7160e01b600052604160045260246000fd5b60405162461bcd60e51b815260048101839052601860248201527f4e6f74206120726567697374657265642063726561746f7200000000000000006044820152606490fd5b346100ee576104dc36610ce8565b906104e5610dfd565b3360005260066020526040600020546107365761050482511515610db1565b60016002540190816002556040519061051c82610bc3565b8282526020820191338352604081018581526000606083015260006080830152600060a08301524260c0830152428383015284600052600560205260406000209382518555600185019060018060a01b039051166bffffffffffffffffffffffff60a01b8254161790555180519067ffffffffffffffff8211610473576105a66002860154610b89565b601f81116106ef575b50602090601f831160011461067b5760079493929160009183610670575b50508160011b916000199060031b1c19161760028501555b60608101516003850155608081015160048501556005840160a0820151151560ff8019835416911617905560c081015160068501550151910155336000526006602052806040600020557f4cfde7f67060004def7ffd71f6f34b90f732485709c3c9367aed20d0fd61a8ca604051602081528061066733956020830190610ca8565b0390a360018055005b0151905088806105cd565b906002860160005260206000209160005b601f19851681106106d757509183916001936007979695601f198116106106be575b505050811b0160028501556105e5565b015160001960f88460031b161c191690558880806106ae565b9192602060018192868501518155019401920161068c565b600286016000526020600020601f840160051c81016020851061072f575b601f830160051c820181106107235750506105af565b6000815560010161070d565b508061070d565b60405162461bcd60e51b815260206004820152601d60248201527f416c726561647920726567697374657265642061732063726561746f720000006044820152606490fd5b346100ee57602090816003193601126100ee576004356000826040516107a081610bc3565b8281528286820152606060408201528260608201528260808201528260a08201528260c08201520152801515806108bb575b6107db90610e53565b60005260058252604060002090604051916107f583610bc3565b8054835260018101546001600160a01b03908116858501908152909261081d60028401610c02565b9260408601938452600381015494606087019586526004820154946080880195865260ff6005840154169160a089019215158352600760068501549460c08b01958652015495858a019687526040519a8b9a818c5251908b0152511660408901525194610898610100968760608b01526101208a0190610ca8565b965160808901525160a088015251151560c0870152519085015251908301520390f35b506002548111156107d2565b346100ee5760203660031901126100ee576004356000526005602052604060002080549060018060a01b036001820154169261090560028301610c02565b90600383015492600481015460ff600583015416906109466007600685015494015495604051998a998a5260208a01526101008060408b0152890190610ca8565b9560608801526080870152151560a086015260c08501528301520390f35b346100ee5760003660031901126100ee576000546040516001600160a01b039091168152602090f35b346100ee5760003660031901126100ee576109a6610d59565b600080546001600160a01b0319811682556001600160a01b03167f8be0079c531659141344cd1fd0a4f28419497f9722a3daafe3b4186f6b6457e08280a3005b346100ee5760203660031901126100ee576004356001600160a01b038116908190036100ee57600052600460205260206040600020541515604051908152f35b346100ee5760603660031901126100ee57600435602435610a45610dfd565b81151580610b62575b610a5790610e53565b81600052600560205260406000209060008113600014610ac75781604091610a936003600080516020610f3f8339815191529501918254610f31565b90555b60036004820191610aaa6044358454610f31565b80935542600782015501549082519182526020820152a260018055005b60008112610ae8575b506040600080516020610f3f83398151915291610a96565b90600160ff1b8214610b305760038101908260000382541015600014610b46578154928301928311610b3057600080516020610f3f83398151915292604092555b9150610ad0565b634e487b7160e01b600052601160045260246000fd5b600080516020610f3f8339815191529250600060409255610b29565b50600254821115610a4e565b346100ee5760003660031901126100ee576020906002548152f35b90600182811c92168015610bb9575b6020831014610ba357565b634e487b7160e01b600052602260045260246000fd5b91607f1691610b98565b610100810190811067ffffffffffffffff82111761047357604052565b90601f8019910116810190811067ffffffffffffffff82111761047357604052565b9060405191826000825492610c1684610b89565b908184526001948581169081600014610c855750600114610c42575b5050610c4092500383610be0565b565b9093915060005260209081600020936000915b818310610c6d575050610c4093508201013880610c32565b85548884018501529485019487945091830191610c55565b915050610c4094506020925060ff191682840152151560051b8201013880610c32565b919082519283825260005b848110610cd4575050826000602080949584010152601f8019910116010190565b602081830181015184830182015201610cb3565b60206003198201126100ee5767ffffffffffffffff6004358181116100ee57826023820112156100ee5780600401359182116104735760405192610d36601f8401601f191660200185610be0565b828452602483830101116100ee5781600092602460209301838601378301015290565b6000546001600160a01b03163303610d6d57565b606460405162461bcd60e51b815260206004820152602060248201527f4f776e61626c653a2063616c6c6572206973206e6f7420746865206f776e65726044820152fd5b15610db857565b60405162461bcd60e51b815260206004820152601860248201527f4d657461646174612055524920697320726571756972656400000000000000006044820152606490fd5b600260015414610e0e576002600155565b60405162461bcd60e51b815260206004820152601f60248201527f5265656e7472616e637947756172643a207265656e7472616e742063616c6c006044820152606490fd5b15610e5a57565b60405162461bcd60e51b8152602060048201526012602482015271125b9d985b1a590818dc99585d1bdc88125160721b6044820152606490fd5b600081815260046020526040812054610f2c5760035468010000000000000000811015610f18576001810180600355811015610f045790826040927fc2575a0e9e593c00f959f8c92f12db2869c3395a3b0502d05e2516446f71f85b015560035492815260046020522055600190565b634e487b7160e01b82526032600452602482fd5b634e487b7160e01b82526041600452602482fd5b905090565b91908201809211610b305756fe3bf98f0e34ccfa8e143ea2f0c79aff94b8e681f3c11522f2713688acdc12b779a2646970667358221220bd4509509b7cf7fc2e603af13f7e9d45d09a4b4976a6d23a60e3ccc8275ef3fa64736f6c634300081400336080346200017d576001600160401b0390601f6200208538819003918201601f19168301918483118484101762000167578084926020946040528339810103126200017d57516001600160a01b0391828216918290036200017d57604051906020820190811182821017620001675760405260008091526002546001908181811c911680156200015c575b60208210146200014857601f8111620000fa575b508160025560035460018060a01b03199233848316176003557f8be0079c531659141344cd1fd0a4f28419497f9722a3daafe3b4186f6b6457e0604051963393169180a36004556005541617600555611f029081620001838239f35b60028352601f0160051c7f405787fa12a823e0f2b7631cc41b3ba8828b3321ca811111fa75cd3aa3bb5ace9081019082905b8281106200013c5750506200009e565b8481550182906200012c565b634e487b7160e01b83526022600452602483fd5b90607f16906200008a565b634e487b7160e01b600052604160045260246000fd5b600080fdfe6080604052600436101561001257600080fd5b60003560e01c8062fdd58e1461185357806301ffc9a7146117e557806302fe53051461166c5780630e89341c1461160b57806323a36d2b146112da5780632eb2c2d614610fb0578063439e7eea14610a005780634e1273f41461085e5780634f062c5a14610746578063715018a6146106e95780638da5cb5b146106c05780639a6a5cf014610697578063a22cb465146105b3578063bc5aedc014610574578063c6530e4114610543578063cb1637de146104b6578063e985e9c514610460578063f242432a146101ba5763f2fde38b146100ec57600080fd5b346101b55760203660031901126101b557610105611879565b61010d611b00565b6001600160a01b0390811690811561016157600354826bffffffffffffffffffffffff60a01b821617600355167f8be0079c531659141344cd1fd0a4f28419497f9722a3daafe3b4186f6b6457e0600080a3005b60405162461bcd60e51b815260206004820152602660248201527f4f776e61626c653a206e6577206f776e657220697320746865207a65726f206160448201526564647265737360d01b6064820152608490fd5b600080fd5b346101b55760a03660031901126101b5576101d3611879565b6101db61188f565b906064356044356084356001600160401b0381116101b5576102019036906004016118e1565b6001600160a01b03938416933385148015610437575b61022090611c2c565b851661022d811515611c8f565b61023683611e59565b5061024084611e59565b50826000526020956000875260406000208660005287528460406000205461026a82821015611ce9565b85600052600089526040600020886000528952036040600020558360005260008752604060002082600052875260406000206102a7868254611d48565b90558186604051868152878a8201527fc3d58168c5ae7397731d063d5bbf3d657854427343f4c083240f7aacaa2d0f6260403392a43b6102e357005b61032793600087946040519687958694859363f23a6e6160e01b9b8c865233600487015260248601526044850152606484015260a0608484015260a4830190611937565b03925af160009181610408575b5061039f5782610342611d75565b6308c379a01461036a575b60405162461bcd60e51b81528061036660048201611e04565b0390fd5b610372611d93565b908161037e575061034d565b61036660405192839262461bcd60e51b845260048401526024830190611937565b6001600160e01b0319160390506103b257005b60405162461bcd60e51b815260206004820152602860248201527f455243313135353a204552433131353552656365697665722072656a656374656044820152676420746f6b656e7360c01b6064820152608490fd5b610429919250843d8611610430575b61042181836118c0565b810190611d55565b9084610334565b503d610417565b5084600052600160205260406000203360005260205261022060ff604060002054169050610217565b346101b55760403660031901126101b557610479611879565b61048161188f565b9060018060a01b03809116600052600160205260406000209116600052602052602060ff604060002054166040519015158152f35b346101b55760203660031901126101b5576004356000526007602052604060002080546001820154916104eb60028201611a5a565b6105346104fa60038401611a5a565b61052660056004860154950154936040519788978852602088015260c0604088015260c0870190611937565b908582036060870152611937565b91608084015260a08301520390f35b346101b55760403660031901126101b557602061056a610561611879565b60243590611b58565b1515604051908152f35b346101b55760403660031901126101b55760043560005260086020526040600020602435600052602052602060ff604060002054166040519015158152f35b346101b55760403660031901126101b5576105cc611879565b602435908115158092036101b5576001600160a01b03169033821461064057336000526001602052604060002082600052602052604060002060ff1981541660ff83161790556040519081527f17307eab39ab6107e8899845ad3d59bd9653f200f220920489ca2b5937696c3160203392a3005b60405162461bcd60e51b815260206004820152602960248201527f455243313135353a2073657474696e6720617070726f76616c20737461747573604482015268103337b91039b2b63360b91b6064820152608490fd5b346101b55760003660031901126101b5576005546040516001600160a01b039091168152602090f35b346101b55760003660031901126101b5576003546040516001600160a01b039091168152602090f35b346101b55760003660031901126101b557610702611b00565b600380546001600160a01b031981169091556000906001600160a01b03167f8be0079c531659141344cd1fd0a4f28419497f9722a3daafe3b4186f6b6457e08280a3005b346101b5576020806003193601126101b557600435600060a060405161076b816118a5565b828152828582015260606040820152606080820152826080820152015280151580610852575b61079a90611e8e565b600052600781526040600020604051906107b3826118a5565b8054825260018101548383019081526108416107d160028401611a5a565b6040850190815261082e6107e760038601611a5a565b916060870192835260056004870154966080890197885201549460a08801958652604051988998818a5251908901525160408801525160c0606088015260e0870190611937565b9051858203601f19016080870152611937565b915160a08401525160c08301520390f35b50600654811115610791565b346101b55760403660031901126101b5576004356001600160401b038082116101b557366023830112156101b55781600401359061089b82611977565b926108a960405194856118c0565b82845260209260248486019160051b830101913683116101b557602401905b8282106109e1575050506024359081116101b5576108ea90369060040161198e565b825181510361098a578251926108ff84611977565b9361090d60405195866118c0565b80855261091c601f1991611977565b01368486013760005b815181101561096f5761096a9061095a6001600160a01b036109478386611c02565b51166109538387611c02565b5190611b58565b6109648288611c02565b52611bdd565b610925565b5050506109866040519282849384528301906119ec565b0390f35b60405162461bcd60e51b815260048101839052602960248201527f455243313135353a206163636f756e747320616e6420696473206c656e677468604482015268040dad2e6dac2e8c6d60bb1b6064820152608490fd5b81356001600160a01b03811681036101b55781529084019084016108c8565b346101b55760603660031901126101b5576004356001600160401b0381116101b557610a309036906004016118e1565b6024356001600160401b0381116101b557610a4f9036906004016118e1565b60055460405163fb23b20b60e01b8082523360048301526001600160a01b039092169190602081602481865afa908115610e6b57600091610f7e575b5015610f3957835115610f0157825115610ebc5760443515610e775760209060246040518094819382523360048301525afa908115610e6b57600091610e39575b506001600654019182600655604051610ae4816118a5565b83815260208101918383526040820190868252606083015260443560808301524260a083015284600052600760205260406000209282518455516001840155518051906001600160401b038211610d53578190610b446002860154611a20565b601f8111610de6575b50602090601f8311600114610d7457600092610d69575b50508160011b916000199060031b1c19161760028301555b60608101518051906001600160401b038211610d5357610b9f6003850154611a20565b601f8111610d0c575b5091859391602097938890601f8311600114610c70577f4baf285bf2d939e1e30f6addbf03315085042274c5703fc126a1dde8ae20fe3a959383610c53969460059460a094600092610c65575b50508160011b916000199060031b1c19161760038501555b608081015160048501550151910155846000526008875260406000208460005287526040600020600160ff19825416179055604051918291604083526040830190611937565b604435888301520390a3604051908152f35b015190508d80610bf5565b9060038501600052896000209160005b601f1985168110610cf257509360018460059460a0947f4baf285bf2d939e1e30f6addbf03315085042274c5703fc126a1dde8ae20fe3a9a98610c539a98601f19811610610cd9575b505050811b016003850155610c0d565b015160001960f88460031b161c191690558d8080610cc9565b8183015184558a9850600190930192918b01918b01610c80565b600385016000526020600020601f840160051c810160208510610d4c575b601f830160051c82018110610d40575050610ba8565b60008155600101610d2a565b5080610d2a565b634e487b7160e01b600052604160045260246000fd5b015190508780610b64565b9250600285016000526020600020906000935b601f1984168510610dcb576001945083601f19811610610db2575b505050811b016002830155610b7c565b015160001960f88460031b161c19169055878080610da2565b81810151835560209485019460019093019290910190610d87565b909150600285016000526020600020601f840160051c810160208510610e32575b90849392915b601f830160051c82018110610e23575050610b4d565b60008155859450600101610e0d565b5080610e07565b90506020813d602011610e63575b81610e54602093836118c0565b810103126101b5575183610acc565b3d9150610e47565b6040513d6000823e3d90fd5b60405162461bcd60e51b815260206004820152601f60248201527f5072696365206d7573742062652067726561746572207468616e207a65726f006044820152606490fd5b60405162461bcd60e51b815260206004820152601860248201527f4d657461646174612055524920697320726571756972656400000000000000006044820152606490fd5b60405162461bcd60e51b815260206004820152601060248201526f13985b59481a5cc81c995c5d5a5c995960821b6044820152606490fd5b60405162461bcd60e51b815260206004820152601860248201527f4e6f74206120726567697374657265642063726561746f7200000000000000006044820152606490fd5b90506020813d602011610fa8575b81610f99602093836118c0565b810103126101b5575185610a8b565b3d9150610f8c565b346101b55760031960a0368201126101b557610fca611879565b90610fd361188f565b906001600160401b03906044358281116101b557610ff590369060040161198e565b6064358381116101b55761100d90369060040161198e565b926084359081116101b5576110269036906004016118e1565b6001600160a01b039586169590929033871480156112b1575b61104890611c2c565b825185510361125b5785169261105f841515611c8f565b60005b83518110156110f857806110796110f39286611c02565b516110848289611c02565b5190806000526020906000825260406000208c6000528252826040600020546110af82821015611ce9565b82600052600084528d6040600020906000528452036040600020556000526000815260406000209088600052526110ec6040600020918254611d48565b9055611bdd565b611062565b509094939291938287604051604081527f4a39dc06d4c0dbc64b70af90fd698a233a518aa5d07e595d983b8c0526c8f7fb611136604083018a6119ec565b9180830360208201528061114b33948b6119ec565b0390a43b61115557005b60006020946111b66111a79761119794604051998a988997889663bc197c8160e01b9e8f89523360048a0152602489015260a0604489015260a48801906119ec565b90848783030160648801526119ec565b91848303016084850152611937565b03925af16000918161123b575b5061122a576111d0611d75565b6308c379a0146111f35760405162461bcd60e51b81528061036660048201611e04565b6111fb611d93565b80611206575061034d565b60405162461bcd60e51b815260206004820152908190610366906024830190611937565b6001600160e01b031916036103b257005b61125491925060203d81116104305761042181836118c0565b90836111c3565b60405162461bcd60e51b815260206004820152602860248201527f455243313135353a2069647320616e6420616d6f756e7473206c656e677468206044820152670dad2e6dac2e8c6d60c31b6064820152608490fd5b5086600052600160205260406000203360005260205261104860ff60406000205416905061103f565b346101b55760603660031901126101b5576112f3611879565b6024908135604435916002600454146115c7576002600455811515806115bb575b61131d90611e8e565b821561157757604051926020938481018181106001600160401b0382111761156257604052600081526001600160a01b0383169283156115145761136085611e59565b5061136a83611e59565b5084600052600086526040600020846000528652604060002061138e848254611d48565b905583600060405187815285898201527fc3d58168c5ae7397731d063d5bbf3d657854427343f4c083240f7aacaa2d0f6260403392a43b611403575b50837f96234cb3d6c373a1aaa06497a540bc166d4b0359243a088eaf95e21d7253d0be91604051908152a3600160045560405160018152f35b60405185818061144163f23a6e6160e01b9586835233600484015260008c84015289604484015287606484015260a0608484015260a4830190611937565b03816000885af1600091816114f5575b506114b6578686611460611d75565b6308c379a0146114835760405162461bcd60e51b81528061036660048201611e04565b61148b611d93565b80611496575061034d565b6103669060405193849362461bcd60e51b85526004850152830190611937565b9091929394955063ffffffff60e01b16036103b257839291907f96234cb3d6c373a1aaa06497a540bc166d4b0359243a088eaf95e21d7253d0be6113ca565b61150d919250873d89116104305761042181836118c0565b9088611451565b60405162461bcd60e51b8152600481018790526021818901527f455243313135353a206d696e7420746f20746865207a65726f206164647265736044820152607360f81b6064820152608490fd5b86634e487b7160e01b60005260416004526000fd5b60405162461bcd60e51b8152602060048201819052818601527f416d6f756e74206d7573742062652067726561746572207468616e207a65726f6044820152606490fd5b50600654821115611314565b60405162461bcd60e51b815260206004820152601f818601527f5265656e7472616e637947756172643a207265656e7472616e742063616c6c006044820152606490fd5b346101b55760203660031901126101b55760043580151580611660575b61163190611e8e565b600052600760205261098661164c6003604060002001611a5a565b604051918291602083526020830190611937565b50600654811115611628565b346101b5576020806003193601126101b5576001600160401b036004358181116101b55761169e9036906004016118e1565b916116a7611b00565b8251918211610d53576116bb600254611a20565b601f8111611781575b5080601f8311600114611700575081926000926116f5575b5050600019600383901b1c191660019190911b17600255005b0151905082806116dc565b90601f1983169360026000527f405787fa12a823e0f2b7631cc41b3ba8828b3321ca811111fa75cd3aa3bb5ace926000905b8682106117695750508360019510611750575b505050811b01600255005b015160001960f88460031b161c19169055828080611745565b80600185968294968601518155019501930190611732565b60026000527f405787fa12a823e0f2b7631cc41b3ba8828b3321ca811111fa75cd3aa3bb5ace601f840160051c8101918385106117db575b601f0160051c01905b8181106117cf57506116c4565b600081556001016117c2565b90915081906117b9565b346101b55760203660031901126101b55760043563ffffffff60e01b81168091036101b557602090636cdb3d1360e11b8114908115611842575b8115611831575b506040519015158152f35b6301ffc9a760e01b14905082611826565b6303a24d0760e21b8114915061181f565b346101b55760403660031901126101b5576020611871610561611879565b604051908152f35b600435906001600160a01b03821682036101b557565b602435906001600160a01b03821682036101b557565b60c081019081106001600160401b03821117610d5357604052565b90601f801991011681019081106001600160401b03821117610d5357604052565b81601f820112156101b5578035906001600160401b038211610d535760405192611915601f8401601f1916602001856118c0565b828452602083830101116101b557816000926020809301838601378301015290565b919082519283825260005b848110611963575050826000602080949584010152601f8019910116010190565b602081830181015184830182015201611942565b6001600160401b038111610d535760051b60200190565b81601f820112156101b5578035916119a583611977565b926119b360405194856118c0565b808452602092838086019260051b8201019283116101b5578301905b8282106119dd575050505090565b813581529083019083016119cf565b90815180825260208080930193019160005b828110611a0c575050505090565b8351855293810193928101926001016119fe565b90600182811c92168015611a50575b6020831014611a3a57565b634e487b7160e01b600052602260045260246000fd5b91607f1691611a2f565b9060405191826000825492611a6e84611a20565b908184526001948581169081600014611add5750600114611a9a575b5050611a98925003836118c0565b565b9093915060005260209081600020936000915b818310611ac5575050611a9893508201013880611a8a565b85548884018501529485019487945091830191611aad565b915050611a9894506020925060ff191682840152151560051b8201013880611a8a565b6003546001600160a01b03163303611b1457565b606460405162461bcd60e51b815260206004820152602060248201527f4f776e61626c653a2063616c6c6572206973206e6f7420746865206f776e65726044820152fd5b6001600160a01b0316908115611b8557600052600060205260406000209060005260205260406000205490565b60405162461bcd60e51b815260206004820152602a60248201527f455243313135353a2061646472657373207a65726f206973206e6f742061207660448201526930b634b21037bbb732b960b11b6064820152608490fd5b6000198114611bec5760010190565b634e487b7160e01b600052601160045260246000fd5b8051821015611c165760209160051b010190565b634e487b7160e01b600052603260045260246000fd5b15611c3357565b60405162461bcd60e51b815260206004820152602e60248201527f455243313135353a2063616c6c6572206973206e6f7420746f6b656e206f776e60448201526d195c881bdc88185c1c1c9bdd995960921b6064820152608490fd5b15611c9657565b60405162461bcd60e51b815260206004820152602560248201527f455243313135353a207472616e7366657220746f20746865207a65726f206164604482015264647265737360d81b6064820152608490fd5b15611cf057565b60405162461bcd60e51b815260206004820152602a60248201527f455243313135353a20696e73756666696369656e742062616c616e636520666f60448201526939103a3930b739b332b960b11b6064820152608490fd5b91908201809211611bec57565b908160209103126101b557516001600160e01b0319811681036101b55790565b60009060033d11611d8257565b905060046000803e60005160e01c90565b600060443d10611df057604051600319913d83016004833e81516001600160401b03918282113d602484011117611df357818401948551938411611dfb573d85010160208487010111611df35750611df0929101602001906118c0565b90565b949350505050565b50949350505050565b60809060208152603460208201527f455243313135353a207472616e7366657220746f206e6f6e2d455243313135356040820152732932b1b2b4bb32b91034b6b83632b6b2b73a32b960611b60608201520190565b60405190604082018281106001600160401b03821117610d535760405260018252602082016020368237825115611c16575290565b15611e9557565b60405162461bcd60e51b815260206004820152600f60248201526e125b9d985b1a59081d1a595c881251608a1b6044820152606490fdfea2646970667358221220ce06daf8004618a26c0d38b1135328d04b99394f95d63cfabdff6364ac93e8fc64736f6c634300081400336080346200014557601f6200254638819003918201601f19168301916001600160401b038311848410176200014a5780849260609460405283398101031262000145576200004d8162000160565b620000696040620000616020850162000160565b930162000160565b6000549260018060a01b03199233848616176000556040519460018060a01b03938491823391167f8be0079c531659141344cd1fd0a4f28419497f9722a3daafe3b4186f6b6457e0600080a3600180556005805516948515620000f4575082168360025416176002551681600354161760035560045416176004556040516123d09081620001768239f35b62461bcd60e51b815260206004820152602660248201527f54726561737572792077616c6c65742063616e6e6f74206265207a65726f206160448201526564647265737360d01b6064820152608490fd5b600080fd5b634e487b7160e01b600052604160045260246000fd5b51906001600160a01b0382168203620001455756fe6080604052600436101561001257600080fd5b6000803560e01c806312e8e2c314611b1a57806321235083146119cd57806328aef969146119a45780632d5bbf60146118f957806337815b09146112d95780634626402b146112b057806357e2c0f5146111a05780635ec4033414610a845780636c9eb774146105c8578063715018a61461056e5780638c639a85146105505780638da5cb5b146105295780639a6a5cf014610500578063a8602fea14610465578063d61ee6ef146103ab578063dc311dd31461020e578063ea0da2a0146101ab5763f2fde38b146100e357600080fd5b346101a85760203660031901126101a8576100fc611bcb565b610104611c0f565b6001600160a01b0390811690811561015457600054826001600160601b0360a01b821617600055167f8be0079c531659141344cd1fd0a4f28419497f9722a3daafe3b4186f6b6457e0600080a380f35b60405162461bcd60e51b815260206004820152602660248201527f4f776e61626c653a206e6577206f776e657220697320746865207a65726f206160448201526564647265737360d01b6064820152608490fd5b80fd5b50346101a85760603660031901126101a8576101c5611bcb565b6001600160a01b0316815260086020908152604080832060243584529091528120805460443592908310156101a85760206102008484611be1565b90546040519160031b1c8152f35b50346101a85760203660031901126101a85760406101409160043581610120845161023881611d2c565b82815282602082015282868201528260608201528260808201528260a08201528260c08201528260e08201528261010082015201528015158061039f575b61027f906122e9565b815260076020522060076040519161029683611d2c565b8054835260018101546001600160a01b03166020840152600281015460408401526003810154606084015260048101546080840152600581015460a0840152600681015460c084015201546102f160ff821660e08401612139565b61030560ff8260081c166101008401612145565b60018060a01b039060101c16610120820152604051908051825260018060a01b03602082015116602083015260408101516040830152606081015160608301526080810151608083015260a081015160a083015260c081015160c083015261037560e082015160e0840190611b9b565b610389610100820151610100840190611bbe565b610120908101516001600160a01b031690820152f35b50600654811115610276565b50346101a85760403660031901126101a8576001600160a01b036103cd611bcb565b16815260206008815260408220602435835281526040822060405192838383549182815201908193835284832090835b8181106104515750505084610413910385611d49565b60405193838594850191818652518092526040850193925b82811061043a57505050500390f35b83518552869550938101939281019260010161042b565b8254845292860192600192830192016103fd565b50346101a85760203660031901126101a85761047f611bcb565b610487611c0f565b6001600160a01b031680156104ac576001600160601b0360a01b600454161760045580f35b60405162461bcd60e51b815260206004820152602660248201527f54726561737572792077616c6c65742063616e6e6f74206265207a65726f206160448201526564647265737360d01b6064820152608490fd5b50346101a857806003193601126101a8576002546040516001600160a01b039091168152602090f35b50346101a857806003193601126101a857546040516001600160a01b039091168152602090f35b50346101a857806003193601126101a8576020600554604051908152f35b50346101a857806003193601126101a857610587611c0f565b600080546001600160a01b0319811682556001600160a01b03167f8be0079c531659141344cd1fd0a4f28419497f9722a3daafe3b4186f6b6457e08280a380f35b5060603660031901126101a8576044356105e06121a3565b8015906105ed8215611c67565b6105fa6004351515611cc1565b600354604051632783162d60e11b815260248035600483015290918591839182906001600160a01b03165afa8015610a575760808391610654938791610a62575b5061064d600435602083015114611e86565b0151611ed2565b9261066184341015611efb565b606461066f60055486611ed2565b049161067b8386611f3e565b9260248360018060a01b036002541660405192838092636a4731c560e11b825260043560048301525afa908115610a575784806106ff946106e3828080808d819a829a8391610a35575b50602001516001600160a01b03165af16106dd61200e565b5061203e565b6004546001600160a01b03165af16106f961200e565b50612094565b843411610a0e575b600160065401938460065562278d008083029283041417156109fa5761072d904261212c565b9160405161073a81611d2c565b848152336020820152600435604082015260243560608201528560808201524260a08201528360c08201528260e08201526101008101838152610120820190848252868552600760205260e0600760408720855181556001810160018060a01b036020880151166001600160601b0360a01b82541617905560408601516002820155606086015160038201556080860151600482015560a0860151600582015560c086015160068201550193015160038110156109e6576107fb9084612151565b519060028210156109d25761ff0083549162010000600160b01b03905160101b169260081b1690610100600160b01b0319161717905533825260086020526040822060043583526020526108528460408420612169565b6003546040516323a36d2b60e01b8152336004820152602480359082015260016044820152906020908290606490829087906001600160a01b03165af180156109c75761098e575b506002546001600160a01b031690813b1561098a578291606483926040519485938492634209e03d60e01b845260043560048501526001602485015260448401525af1801561097f5761096b575b6020848060008051602061237b83398151915260408988825190857f4ce7d0494bae52234d5b23e3c0d5c50c951ee8559386326790cded1eccaa6d3f600435938061095033954289602435859094939260609260808301968352602083015260408201520152565b0390a48151908152600086820152a260018055604051908152f35b6109758291611d02565b6101a857806108e8565b6040513d84823e3d90fd5b8280fd5b6020813d6020116109bf575b816109a760209383611d49565b8101031261098a576109b890611f4b565b503861089a565b3d915061099a565b6040513d85823e3d90fd5b634e487b7160e01b85526021600452602485fd5b634e487b7160e01b86526021600452602486fd5b634e487b7160e01b82526011600452602482fd5b610a3082808080610a1f8a34611f3e565b335af1610a2a61200e565b506120e0565b610707565b610a5191503d8085833e610a498183611d49565b810190611f58565b386106c5565b6040513d86823e3d90fd5b610a7e91503d8089833e610a768183611d49565b810190611de9565b3861063b565b5060403660031901126101a857610a996121a3565b600435151580611192575b610aad906122e9565b60243515611143576004358152600760205260408120610ada60018060a01b036001830154163314612335565b60018060a01b0360035416826003830154602460405180948193632783162d60e11b835260048301525afa80156109c757610b24918491611129575b506080602435910151611ed2565b90600781015460ff8160081c1660028110156109d257849190610d4e575050610b4f82341015611efb565b826064610b5e60055485611ed2565b04610b698185611f3e565b9060018060a01b0360025416836002860154602460405180948193636a4731c560e11b835260048301525afa918215610a575784808093926106e3828080808b610bcd9b829a8391610a355750602001516001600160a01b03165af16106dd61200e565b833411610d38575b60028054908401546001600160a01b0390911691823b15610d345760648492836040519586948593634209e03d60e01b8552600485015282602485015260448401525af1801561097f57610d20575b5050600781015460ff811660038110156109d2576001148015610d13575b15610ce35762278d00806024350290602435820403610ccf57610c676006914261212c565b92839260ff191660078201555b01556040519081527f328f4610a15d0e6c197e13cb1b184720c7e4e7dcf6e07423b7625da3128358b1602060043592a26040519081526000602082015260008051602061237b833981519152604060043592a25b6001805580f35b634e487b7160e01b85526011600452602485fd5b50600681015462278d0090816024350291602435830403610ccf5760069291610d0b9161212c565b918291610c74565b5060068201544211610c42565b610d2990611d02565b61098a578238610c24565b8380fd5b610d4982808080610a1f8934611f3e565b610bd5565b604051636eb1769f60e11b81523360048201523060248201526020816044816001600160a01b03601087901c165afa80156109c757859184916110e9575b5090610d999110156121f9565b6064610da760055486611ed2565b0490610db38286611f3e565b9160018060a01b0360025416846002870154602460405180948193636a4731c560e11b835260048301525afa80156110c45784602091610e2f9388916110cf575b508201516040516323b872dd60e01b81523360048201526001600160a01b039091166024820152604481019190915291829081906064820190565b038188601088901c6001600160a01b03165af19081156110c4578591611078575b5090610ea292610e61602093612245565b600480546040516323b872dd60e01b815233928101929092526001600160a01b03166024820152604481019290925290928391908290879082906064820190565b039260101c6001600160a01b03165af180156109c757839061103d575b610ec9915061229d565b60028054908401546001600160a01b0390911691823b15610d345760648492836040519586948593634209e03d60e01b8552600485015282602485015260448401525af1801561097f57611029575b5050600781015460ff811660038110156109d257600114801561101c575b15610fdf5762278d00806024350290602435820403610ccf5791610fd791610f6d60008051602061237b833981519152944261212c565b9060ff191660078301555b8060068301556040519081527f328f4610a15d0e6c197e13cb1b184720c7e4e7dcf6e07423b7625da3128358b1602060043592a2600701546040805194855260109190911c6001600160a01b0316602085015260043593918291820190565b0390a2610cc8565b50600681015462278d0090816024350291602435830403610ccf5791611017610fd79260008051602061237b8339815191529461212c565b610f78565b5060068201544211610f36565b61103290611d02565b61098a578238610f18565b506020813d602011611070575b8161105760209383611d49565b8101031261098a5761106b610ec991611f4b565b610ebf565b3d915061104a565b9190506020823d6020116110bc575b8161109460209383611d49565b810103126110b857610ea292610e616110ae602094611f4b565b9293505092610e50565b8480fd5b3d9150611087565b6040513d87823e3d90fd5b6110e391503d808a833e610a498183611d49565b38610df4565b935050506020823d602011611121575b8161110660209383611d49565b8101031261111c57610d99848693519091610d8c565b600080fd5b3d91506110f9565b61113d91503d8086833e610a768183611d49565b38610b16565b60405162461bcd60e51b815260206004820152602160248201527f4d7573742072656e657720666f72206174206c65617374206f6e65206d6f6e746044820152600d60fb1b6064820152608490fd5b506006546004351115610aa4565b50346101a85760203660031901126101a857600435801515806112a4575b6111c7906122e9565b81526007602052604081206040516111de81611d2c565b8154815260018201546001600160a01b039081166020830152600283015460408301526003830154606083015260048301546080830152600583015460a0830152600683015460c0830190815260079093015460e0830192916101209161124860ff821686612139565b61125c60ff8260081c166101008601612145565b60101c169101525160038110156112905760209250159081611284575b506040519015158152f35b90505142111538611279565b634e487b7160e01b83526021600452602483fd5b506006548111156111be565b50346101a857806003193601126101a8576004546040516001600160a01b039091168152602090f35b50346101a85760803660031901126101a8576064356001600160a01b038116900361111c576113066121a3565b6113136044351515611c67565b6113206004351515611cc1565b6064356001600160a01b0316156118bc57600354604051632783162d60e11b815260248035600483015290918391839182906001600160a01b03165afa801561097f5761138d9183916118a2575b50611380600435602083015114611e86565b6080604435910151611ed2565b604051636eb1769f60e11b81523360048201523060248201529091906020816044816001600160a01b03606435165afa801561097f578390839061186c575b6113d8925010156121f9565b60646113e660055484611ed2565b046113f18184611f3e565b9060248360018060a01b036002541660405192838092636a4731c560e11b825260043560048301525afa908115610a57578361146b92602092879161185857508201516040516323b872dd60e01b81523360048201526001600160a01b039091166024820152604481019190915291829081906064820190565b0381876064356001600160a01b03165af1908115610a57578491611812575b506114d59161149a602092612245565b600480546040516323b872dd60e01b815233928101929092526001600160a01b03166024820152604481019190915291829081906064820190565b0381866064356001600160a01b03165af180156109c75783906117d7575b6114fd915061229d565b600160065401918260065562278d008060443502906044358204146044351517156109fa5761152c904261212c565b9160405161153981611d2c565b84815260208101903382526040810160043581526060820160243581526080830189815260a0840142815260c085019189835260e08601938985526101008701956001875260018060a01b03606435166101208901528c8b52600760205260408b209888518a5560018a019060018060a01b039051166001600160601b0360a01b8254161790555160028901555160038801555160048701555160058601555160068501555160038110156109e6576115f59060078501612151565b519060028210156109d2579060079161ff00838501549161012062010000600160b01b0391015160101b169260081b1690610100600160b01b031916171791015533825260086020526040822060043583526020526116578460408420612169565b6003546040516323a36d2b60e01b8152336004820152602480359082015260016044820152906020908290606490829087906001600160a01b03165af180156109c75761179e575b506002546001600160a01b031690813b1561098a578291606483926040519485938492634209e03d60e01b845260043560048501526001602485015260448401525af1801561097f5761178a575b6020848060008051602061237b83398151915261177b898860405190857f4ce7d0494bae52234d5b23e3c0d5c50c951ee8559386326790cded1eccaa6d3f600435938061175733954289602435859094939260609260808301968352602083015260408201520152565b0390a4604080519182526001600160a01b0360643516602083015290918291820190565b0390a260018055604051908152f35b6117948291611d02565b6101a857806116ed565b6020813d6020116117cf575b816117b760209383611d49565b8101031261098a576117c890611f4b565b503861169f565b3d91506117aa565b506020813d60201161180a575b816117f160209383611d49565b8101031261098a576118056114fd91611f4b565b6114f3565b3d91506117e4565b90506020813d602011611850575b8161182d60209383611d49565b81010312610d34576114d59161149a611847602093611f4b565b9250509161148a565b3d9150611820565b6110e391503d8089833e610a498183611d49565b50506020813d60201161189a575b8161188760209383611d49565b8101031261111c57826113d891516113cc565b3d915061187a565b6118b691503d8085833e610a768183611d49565b3861136e565b60405162461bcd60e51b8152602060048201526015602482015274496e76616c696420746f6b656e206164647265737360581b6044820152606490fd5b50346101a85760203660031901126101a857604061014091600435815260076020522080549060018060a01b03908160018201541690600281015460038201546004830154906005840154926007600686015495015495604051988952602089015260408801526060870152608086015260a085015260c084015261198460e0840160ff8316611b9b565b611998610100840160ff8360081c16611bbe565b60101c16610120820152f35b50346101a857806003193601126101a8576003546040516001600160a01b039091168152602090f35b50346101a85760203660031901126101a857600435906119eb6121a3565b81151580611b0e575b6119fd906122e9565b81815260076020526040812060018101546001600160a01b0390611a249082163314612335565b600782019081549160ff831660038110156109e657611ac9576002809360ff1916179055815416910154813b1561098a578291606483926040519485938492634209e03d60e01b8452600484015260001960248401528160448401525af1801561097f57611aba575b50907fbd2bcea75d16a85f005cd83447e0de57341bf926fe7419e6d553663e91ab4da78280a26001805580f35b611ac390611d02565b38611a8d565b60405162461bcd60e51b815260206004820152601760248201527f537562736372697074696f6e206e6f74206163746976650000000000000000006044820152606490fd5b506006548211156119f4565b50346101a85760203660031901126101a857600435611b37611c0f565b60648111611b455760055580f35b60405162461bcd60e51b815260206004820152602860248201527f4665652070657263656e74616765206d757374206265206265747765656e2030604482015267020616e64203130360c41b6064820152608490fd5b906003821015611ba85752565b634e487b7160e01b600052602160045260246000fd5b906002821015611ba85752565b600435906001600160a01b038216820361111c57565b8054821015611bf95760005260206000200190600090565b634e487b7160e01b600052603260045260246000fd5b6000546001600160a01b03163303611c2357565b606460405162461bcd60e51b815260206004820152602060248201527f4f776e61626c653a2063616c6c6572206973206e6f7420746865206f776e65726044820152fd5b15611c6e57565b60405162461bcd60e51b815260206004820152602560248201527f4d7573742073756273637269626520666f72206174206c65617374206f6e65206044820152640dadedce8d60db1b6064820152608490fd5b15611cc857565b60405162461bcd60e51b8152602060048201526012602482015271125b9d985b1a590818dc99585d1bdc88125160721b6044820152606490fd5b67ffffffffffffffff8111611d1657604052565b634e487b7160e01b600052604160045260246000fd5b610140810190811067ffffffffffffffff821117611d1657604052565b90601f8019910116810190811067ffffffffffffffff821117611d1657604052565b67ffffffffffffffff8111611d1657601f01601f191660200190565b919080601f8401121561111c57825190611da082611d6b565b91611dae6040519384611d49565b80835260209182828701011161111c5760005b818110611dd657508260009394955001015290565b8581018301518482018401528201611dc1565b9060208282031261111c57815167ffffffffffffffff9283821161111c570160c08183031261111c576040519260c0840184811082821117611d16576040528151845260208201516020850152604082015181811161111c5783611e4e918401611d87565b6040850152606082015190811161111c5760a092611e6d918301611d87565b606084015260808101516080840152015160a082015290565b15611e8d57565b60405162461bcd60e51b815260206004820152601f60248201527f5469657220646f6573206e6f742062656c6f6e6720746f2063726561746f72006044820152606490fd5b81810292918115918404141715611ee557565b634e487b7160e01b600052601160045260246000fd5b15611f0257565b60405162461bcd60e51b8152602060048201526014602482015273125b9cdd59999a58da595b9d081c185e5b595b9d60621b6044820152606490fd5b91908203918211611ee557565b5190811515820361111c57565b9060208282031261111c57815167ffffffffffffffff9283821161111c570161010092838284031261111c5760405193840184811082821117611d16576040528151845260208201516001600160a01b038116810361111c576020850152604082015190811161111c5760e092611fd0918301611d87565b60408401526060810151606084015260808101516080840152611ff560a08201611f4b565b60a084015260c081015160c0840152015160e082015290565b3d15612039573d9061201f82611d6b565b9161202d6040519384611d49565b82523d6000602084013e565b606090565b1561204557565b60405162461bcd60e51b815260206004820152602160248201527f4661696c656420746f2073656e64207061796d656e7420746f2063726561746f6044820152603960f91b6064820152608490fd5b1561209b57565b60405162461bcd60e51b815260206004820152601b60248201527f4661696c656420746f2073656e6420706c6174666f726d2066656500000000006044820152606490fd5b156120e757565b60405162461bcd60e51b815260206004820152601f60248201527f4661696c656420746f20726566756e6420657863657373207061796d656e74006044820152606490fd5b91908201809211611ee557565b6003821015611ba85752565b6002821015611ba85752565b906003811015611ba85760ff80198354169116179055565b805468010000000000000000811015611d165761218b91600182018155611be1565b819291549060031b91821b91600019901b1916179055565b6002600154146121b4576002600155565b60405162461bcd60e51b815260206004820152601f60248201527f5265656e7472616e637947756172643a207265656e7472616e742063616c6c006044820152606490fd5b1561220057565b60405162461bcd60e51b815260206004820152601c60248201527f496e73756666696369656e7420746f6b656e20616c6c6f77616e6365000000006044820152606490fd5b1561224c57565b60405162461bcd60e51b8152602060048201526024808201527f4661696c656420746f207472616e7366657220746f6b656e7320746f2063726560448201526330ba37b960e11b6064820152608490fd5b156122a457565b60405162461bcd60e51b815260206004820152601f60248201527f4661696c656420746f207472616e7366657220706c6174666f726d20666565006044820152606490fd5b156122f057565b60405162461bcd60e51b815260206004820152601760248201527f496e76616c696420737562736372697074696f6e2049440000000000000000006044820152606490fd5b1561233c57565b60405162461bcd60e51b81526020600482015260166024820152752737ba1039bab139b1b934b83a34b7b71037bbb732b960511b6044820152606490fdfed3cf07392836def0e201fe7eb13ae977b999e29d70d4c55f6c55ba26b001393ea26469706673582212201b5a032ce05af2590f66648934b9add5ea58d500fe1f53bf76d5f13b9d0b347564736f6c63430008140033",
  "linkReferences": {},
  "deployedLinkReferences": {}
}