{
  "_format": "hh-sol-artifact-1",
  "contractName": "SubscriptionManager",
  "sourceName": "contracts/web3patreoncontract.sol",
  "abi": [
    {
      "inputs": [
        {
          "internalType": "address",
          "name": "_creatorRegistry",
          "type": "address"
        },
        {
          "internalType": "address",
          "name": "_contentNFT",
          "type": "address"
        },
        {
          "internalType": "address",
          "name": "_treasuryWallet",
          "type": "address"
        }
      ],
      "stateMutability": "nonpayable",
      "type": "constructor"
    },
    {
      "anonymous": false,
      "inputs": [
        {
          "indexed": true,
          "internalType": "address",
          "name": "previousOwner",
          "type": "address"
        },
        {
          "indexed": true,
          "internalType": "address",
          "name": "newOwner",
          "type": "address"
        }
      ],
      "name": "OwnershipTransferred",
      "type": "event"
    },
    {
      "anonymous": false,
      "inputs": [
        {
          "indexed": true,
          "internalType": "uint256",
          "name": "subscriptionId",
          "type": "uint256"
        },
        {
          "indexed": false,
          "internalType": "uint256",
          "name": "amount",
          "type": "uint256"
        },
        {
          "indexed": false,
          "internalType": "address",
          "name": "tokenAddress",
          "type": "address"
        }
      ],
      "name": "PaymentProcessed",
      "type": "event"
    },
    {
      "anonymous": false,
      "inputs": [
        {
          "indexed": true,
          "internalType": "uint256",
          "name": "subscriptionId",
          "type": "uint256"
        }
      ],
      "name": "SubscriptionCancelled",
      "type": "event"
    },
    {
      "anonymous": false,
      "inputs": [
        {
          "indexed": true,
          "internalType": "uint256",
          "name": "subscriptionId",
          "type": "uint256"
        },
        {
          "indexed": true,
          "internalType": "address",
          "name": "subscriber",
          "type": "address"
        },
        {
          "indexed": true,
          "internalType": "uint256",
          "name": "creatorId",
          "type": "uint256"
        },
        {
          "indexed": false,
          "internalType": "uint256",
          "name": "tierId",
          "type": "uint256"
        },
        {
          "indexed": false,
          "internalType": "uint256",
          "name": "amount",
          "type": "uint256"
        },
        {
          "indexed": false,
          "internalType": "uint256",
          "name": "startTime",
          "type": "uint256"
        },
        {
          "indexed": false,
          "internalType": "uint256",
          "name": "endTime",
          "type": "uint256"
        }
      ],
      "name": "SubscriptionCreated",
      "type": "event"
    },
    {
      "anonymous": false,
      "inputs": [
        {
          "indexed": true,
          "internalType": "uint256",
          "name": "subscriptionId",
          "type": "uint256"
        },
        {
          "indexed": false,
          "internalType": "uint256",
          "name": "newEndTime",
          "type": "uint256"
        }
      ],
      "name": "SubscriptionRenewed",
      "type": "event"
    },
    {
      "inputs": [
        {
          "internalType": "uint256",
          "name": "subscriptionId",
          "type": "uint256"
        }
      ],
      "name": "cancelSubscription",
      "outputs": [],
      "stateMutability": "nonpayable",
      "type": "function"
    },
    {
      "inputs": [],
      "name": "contentNFT",
      "outputs": [
        {
          "internalType": "contract ContentNFT",
          "name": "",
          "type": "address"
        }
      ],
      "stateMutability": "view",
      "type": "function"
    },
    {
      "inputs": [],
      "name": "creatorRegistry",
      "outputs": [
        {
          "internalType": "contract CreatorRegistry",
          "name": "",
          "type": "address"
        }
      ],
      "stateMutability": "view",
      "type": "function"
    },
    {
      "inputs": [
        {
          "internalType": "address",
          "name": "subscriber",
          "type": "address"
        },
        {
          "internalType": "uint256",
          "name": "creatorId",
          "type": "uint256"
        }
      ],
      "name": "getSubscriberSubscriptions",
      "outputs": [
        {
          "internalType": "uint256[]",
          "name": "",
          "type": "uint256[]"
        }
      ],
      "stateMutability": "view",
      "type": "function"
    },
    {
      "inputs": [
        {
          "internalType": "uint256",
          "name": "subscriptionId",
          "type": "uint256"
        }
      ],
      "name": "getSubscription",
      "outputs": [
        {
          "components": [
            {
              "internalType": "uint256",
              "name": "id",
              "type": "uint256"
            },
            {
              "internalType": "address",
              "name": "subscriber",
              "type": "address"
            },
            {
              "internalType": "uint256",
              "name": "creatorId",
              "type": "uint256"
            },
            {
              "internalType": "uint256",
              "name": "tierId",
              "type": "uint256"
            },
            {
              "internalType": "uint256",
              "name": "amount",
              "type": "uint256"
            },
            {
              "internalType": "uint256",
              "name": "startTime",
              "type": "uint256"
            },
            {
              "internalType": "uint256",
              "name": "endTime",
              "type": "uint256"
            },
            {
              "internalType": "enum SubscriptionManager.SubscriptionStatus",
              "name": "status",
              "type": "uint8"
            },
            {
              "internalType": "enum SubscriptionManager.PaymentType",
              "name": "paymentType",
              "type": "uint8"
            },
            {
              "internalType": "address",
              "name": "tokenAddress",
              "type": "address"
            }
          ],
          "internalType": "struct SubscriptionManager.Subscription",
          "name": "",
          "type": "tuple"
        }
      ],
      "stateMutability": "view",
      "type": "function"
    },
    {
      "inputs": [
        {
          "internalType": "uint256",
          "name": "subscriptionId",
          "type": "uint256"
        }
      ],
      "name": "isSubscriptionActive",
      "outputs": [
        {
          "internalType": "bool",
          "name": "",
          "type": "bool"
        }
      ],
      "stateMutability": "view",
      "type": "function"
    },
    {
      "inputs": [],
      "name": "owner",
      "outputs": [
        {
          "internalType": "address",
          "name": "",
          "type": "address"
        }
      ],
      "stateMutability": "view",
      "type": "function"
    },
    {
      "inputs": [],
      "name": "platformFeePercent",
      "outputs": [
        {
          "internalType": "uint256",
          "name": "",
          "type": "uint256"
        }
      ],
      "stateMutability": "view",
      "type": "function"
    },
    {
      "inputs": [
        {
          "internalType": "uint256",
          "name": "subscriptionId",
          "type": "uint256"
        },
        {
          "internalType": "uint256",
          "name": "months",
          "type": "uint256"
        }
      ],
      "name": "renewSubscription",
      "outputs": [],
      "stateMutability": "payable",
      "type": "function"
    },
    {
      "inputs": [],
      "name": "renounceOwnership",
      "outputs": [],
      "stateMutability": "nonpayable",
      "type": "function"
    },
    {
      "inputs": [
        {
          "internalType": "uint256",
          "name": "newFeePercent",
          "type": "uint256"
        }
      ],
      "name": "setPlatformFee",
      "outputs": [],
      "stateMutability": "nonpayable",
      "type": "function"
    },
    {
      "inputs": [
        {
          "internalType": "address",
          "name": "newTreasuryWallet",
          "type": "address"
        }
      ],
      "name": "setTreasuryWallet",
      "outputs": [],
      "stateMutability": "nonpayable",
      "type": "function"
    },
    {
      "inputs": [
        {
          "internalType": "uint256",
          "name": "creatorId",
          "type": "uint256"
        },
        {
          "internalType": "uint256",
          "name": "tierId",
          "type": "uint256"
        },
        {
          "internalType": "uint256",
          "name": "months",
          "type": "uint256"
        }
      ],
      "name": "subscribe",
      "outputs": [
        {
          "internalType": "uint256",
          "name": "",
          "type": "uint256"
        }
      ],
      "stateMutability": "payable",
      "type": "function"
    },
    {
      "inputs": [
        {
          "internalType": "uint256",
          "name": "creatorId",
          "type": "uint256"
        },
        {
          "internalType": "uint256",
          "name": "tierId",
          "type": "uint256"
        },
        {
          "internalType": "uint256",
          "name": "months",
          "type": "uint256"
        },
        {
          "internalType": "address",
          "name": "tokenAddress",
          "type": "address"
        }
      ],
      "name": "subscribeWithERC20",
      "outputs": [
        {
          "internalType": "uint256",
          "name": "",
          "type": "uint256"
        }
      ],
      "stateMutability": "nonpayable",
      "type": "function"
    },
    {
      "inputs": [
        {
          "internalType": "address",
          "name": "",
          "type": "address"
        },
        {
          "internalType": "uint256",
          "name": "",
          "type": "uint256"
        },
        {
          "internalType": "uint256",
          "name": "",
          "type": "uint256"
        }
      ],
      "name": "subscriberSubscriptions",
      "outputs": [
        {
          "internalType": "uint256",
          "name": "",
          "type": "uint256"
        }
      ],
      "stateMutability": "view",
      "type": "function"
    },
    {
      "inputs": [
        {
          "internalType": "uint256",
          "name": "",
          "type": "uint256"
        }
      ],
      "name": "subscriptions",
      "outputs": [
        {
          "internalType": "uint256",
          "name": "id",
          "type": "uint256"
        },
        {
          "internalType": "address",
          "name": "subscriber",
          "type": "address"
        },
        {
          "internalType": "uint256",
          "name": "creatorId",
          "type": "uint256"
        },
        {
          "internalType": "uint256",
          "name": "tierId",
          "type": "uint256"
        },
        {
          "internalType": "uint256",
          "name": "amount",
          "type": "uint256"
        },
        {
          "internalType": "uint256",
          "name": "startTime",
          "type": "uint256"
        },
        {
          "internalType": "uint256",
          "name": "endTime",
          "type": "uint256"
        },
        {
          "internalType": "enum SubscriptionManager.SubscriptionStatus",
          "name": "status",
          "type": "uint8"
        },
        {
          "internalType": "enum SubscriptionManager.PaymentType",
          "name": "paymentType",
          "type": "uint8"
        },
        {
          "internalType": "address",
          "name": "tokenAddress",
          "type": "address"
        }
      ],
      "stateMutability": "view",
      "type": "function"
    },
    {
      "inputs": [
        {
          "internalType": "address",
          "name": "newOwner",
          "type": "address"
        }
      ],
      "name": "transferOwnership",
      "outputs": [],
      "stateMutability": "nonpayable",
      "type": "function"
    },
    {
      "inputs": [],
      "name": "treasuryWallet",
      "outputs": [
        {
          "internalType": "address",
          "name": "",
          "type": "address"
        }
      ],
      "stateMutability": "view",
      "type": "function"
    }
  ],
  "bytecode": "0x6080346200014557601f6200254638819003918201601f19168301916001600160401b038311848410176200014a5780849260609460405283398101031262000145576200004d8162000160565b620000696040620000616020850162000160565b930162000160565b6000549260018060a01b03199233848616176000556040519460018060a01b03938491823391167f8be0079c531659141344cd1fd0a4f28419497f9722a3daafe3b4186f6b6457e0600080a3600180556005805516948515620000f4575082168360025416176002551681600354161760035560045416176004556040516123d09081620001768239f35b62461bcd60e51b815260206004820152602660248201527f54726561737572792077616c6c65742063616e6e6f74206265207a65726f206160448201526564647265737360d01b6064820152608490fd5b600080fd5b634e487b7160e01b600052604160045260246000fd5b51906001600160a01b0382168203620001455756fe6080604052600436101561001257600080fd5b6000803560e01c806312e8e2c314611b1a57806321235083146119cd57806328aef969146119a45780632d5bbf60146118f957806337815b09146112d95780634626402b146112b057806357e2c0f5146111a05780635ec4033414610a845780636c9eb774146105c8578063715018a61461056e5780638c639a85146105505780638da5cb5b146105295780639a6a5cf014610500578063a8602fea14610465578063d61ee6ef146103ab578063dc311dd31461020e578063ea0da2a0146101ab5763f2fde38b146100e357600080fd5b346101a85760203660031901126101a8576100fc611bcb565b610104611c0f565b6001600160a01b0390811690811561015457600054826001600160601b0360a01b821617600055167f8be0079c531659141344cd1fd0a4f28419497f9722a3daafe3b4186f6b6457e0600080a380f35b60405162461bcd60e51b815260206004820152602660248201527f4f776e61626c653a206e6577206f776e657220697320746865207a65726f206160448201526564647265737360d01b6064820152608490fd5b80fd5b50346101a85760603660031901126101a8576101c5611bcb565b6001600160a01b0316815260086020908152604080832060243584529091528120805460443592908310156101a85760206102008484611be1565b90546040519160031b1c8152f35b50346101a85760203660031901126101a85760406101409160043581610120845161023881611d2c565b82815282602082015282868201528260608201528260808201528260a08201528260c08201528260e08201528261010082015201528015158061039f575b61027f906122e9565b815260076020522060076040519161029683611d2c565b8054835260018101546001600160a01b03166020840152600281015460408401526003810154606084015260048101546080840152600581015460a0840152600681015460c084015201546102f160ff821660e08401612139565b61030560ff8260081c166101008401612145565b60018060a01b039060101c16610120820152604051908051825260018060a01b03602082015116602083015260408101516040830152606081015160608301526080810151608083015260a081015160a083015260c081015160c083015261037560e082015160e0840190611b9b565b610389610100820151610100840190611bbe565b610120908101516001600160a01b031690820152f35b50600654811115610276565b50346101a85760403660031901126101a8576001600160a01b036103cd611bcb565b16815260206008815260408220602435835281526040822060405192838383549182815201908193835284832090835b8181106104515750505084610413910385611d49565b60405193838594850191818652518092526040850193925b82811061043a57505050500390f35b83518552869550938101939281019260010161042b565b8254845292860192600192830192016103fd565b50346101a85760203660031901126101a85761047f611bcb565b610487611c0f565b6001600160a01b031680156104ac576001600160601b0360a01b600454161760045580f35b60405162461bcd60e51b815260206004820152602660248201527f54726561737572792077616c6c65742063616e6e6f74206265207a65726f206160448201526564647265737360d01b6064820152608490fd5b50346101a857806003193601126101a8576002546040516001600160a01b039091168152602090f35b50346101a857806003193601126101a857546040516001600160a01b039091168152602090f35b50346101a857806003193601126101a8576020600554604051908152f35b50346101a857806003193601126101a857610587611c0f565b600080546001600160a01b0319811682556001600160a01b03167f8be0079c531659141344cd1fd0a4f28419497f9722a3daafe3b4186f6b6457e08280a380f35b5060603660031901126101a8576044356105e06121a3565b8015906105ed8215611c67565b6105fa6004351515611cc1565b600354604051632783162d60e11b815260248035600483015290918591839182906001600160a01b03165afa8015610a575760808391610654938791610a62575b5061064d600435602083015114611e86565b0151611ed2565b9261066184341015611efb565b606461066f60055486611ed2565b049161067b8386611f3e565b9260248360018060a01b036002541660405192838092636a4731c560e11b825260043560048301525afa908115610a575784806106ff946106e3828080808d819a829a8391610a35575b50602001516001600160a01b03165af16106dd61200e565b5061203e565b6004546001600160a01b03165af16106f961200e565b50612094565b843411610a0e575b600160065401938460065562278d008083029283041417156109fa5761072d904261212c565b9160405161073a81611d2c565b848152336020820152600435604082015260243560608201528560808201524260a08201528360c08201528260e08201526101008101838152610120820190848252868552600760205260e0600760408720855181556001810160018060a01b036020880151166001600160601b0360a01b82541617905560408601516002820155606086015160038201556080860151600482015560a0860151600582015560c086015160068201550193015160038110156109e6576107fb9084612151565b519060028210156109d25761ff0083549162010000600160b01b03905160101b169260081b1690610100600160b01b0319161717905533825260086020526040822060043583526020526108528460408420612169565b6003546040516323a36d2b60e01b8152336004820152602480359082015260016044820152906020908290606490829087906001600160a01b03165af180156109c75761098e575b506002546001600160a01b031690813b1561098a578291606483926040519485938492634209e03d60e01b845260043560048501526001602485015260448401525af1801561097f5761096b575b6020848060008051602061237b83398151915260408988825190857f4ce7d0494bae52234d5b23e3c0d5c50c951ee8559386326790cded1eccaa6d3f600435938061095033954289602435859094939260609260808301968352602083015260408201520152565b0390a48151908152600086820152a260018055604051908152f35b6109758291611d02565b6101a857806108e8565b6040513d84823e3d90fd5b8280fd5b6020813d6020116109bf575b816109a760209383611d49565b8101031261098a576109b890611f4b565b503861089a565b3d915061099a565b6040513d85823e3d90fd5b634e487b7160e01b85526021600452602485fd5b634e487b7160e01b86526021600452602486fd5b634e487b7160e01b82526011600452602482fd5b610a3082808080610a1f8a34611f3e565b335af1610a2a61200e565b506120e0565b610707565b610a5191503d8085833e610a498183611d49565b810190611f58565b386106c5565b6040513d86823e3d90fd5b610a7e91503d8089833e610a768183611d49565b810190611de9565b3861063b565b5060403660031901126101a857610a996121a3565b600435151580611192575b610aad906122e9565b60243515611143576004358152600760205260408120610ada60018060a01b036001830154163314612335565b60018060a01b0360035416826003830154602460405180948193632783162d60e11b835260048301525afa80156109c757610b24918491611129575b506080602435910151611ed2565b90600781015460ff8160081c1660028110156109d257849190610d4e575050610b4f82341015611efb565b826064610b5e60055485611ed2565b04610b698185611f3e565b9060018060a01b0360025416836002860154602460405180948193636a4731c560e11b835260048301525afa918215610a575784808093926106e3828080808b610bcd9b829a8391610a355750602001516001600160a01b03165af16106dd61200e565b833411610d38575b60028054908401546001600160a01b0390911691823b15610d345760648492836040519586948593634209e03d60e01b8552600485015282602485015260448401525af1801561097f57610d20575b5050600781015460ff811660038110156109d2576001148015610d13575b15610ce35762278d00806024350290602435820403610ccf57610c676006914261212c565b92839260ff191660078201555b01556040519081527f328f4610a15d0e6c197e13cb1b184720c7e4e7dcf6e07423b7625da3128358b1602060043592a26040519081526000602082015260008051602061237b833981519152604060043592a25b6001805580f35b634e487b7160e01b85526011600452602485fd5b50600681015462278d0090816024350291602435830403610ccf5760069291610d0b9161212c565b918291610c74565b5060068201544211610c42565b610d2990611d02565b61098a578238610c24565b8380fd5b610d4982808080610a1f8934611f3e565b610bd5565b604051636eb1769f60e11b81523360048201523060248201526020816044816001600160a01b03601087901c165afa80156109c757859184916110e9575b5090610d999110156121f9565b6064610da760055486611ed2565b0490610db38286611f3e565b9160018060a01b0360025416846002870154602460405180948193636a4731c560e11b835260048301525afa80156110c45784602091610e2f9388916110cf575b508201516040516323b872dd60e01b81523360048201526001600160a01b039091166024820152604481019190915291829081906064820190565b038188601088901c6001600160a01b03165af19081156110c4578591611078575b5090610ea292610e61602093612245565b600480546040516323b872dd60e01b815233928101929092526001600160a01b03166024820152604481019290925290928391908290879082906064820190565b039260101c6001600160a01b03165af180156109c757839061103d575b610ec9915061229d565b60028054908401546001600160a01b0390911691823b15610d345760648492836040519586948593634209e03d60e01b8552600485015282602485015260448401525af1801561097f57611029575b5050600781015460ff811660038110156109d257600114801561101c575b15610fdf5762278d00806024350290602435820403610ccf5791610fd791610f6d60008051602061237b833981519152944261212c565b9060ff191660078301555b8060068301556040519081527f328f4610a15d0e6c197e13cb1b184720c7e4e7dcf6e07423b7625da3128358b1602060043592a2600701546040805194855260109190911c6001600160a01b0316602085015260043593918291820190565b0390a2610cc8565b50600681015462278d0090816024350291602435830403610ccf5791611017610fd79260008051602061237b8339815191529461212c565b610f78565b5060068201544211610f36565b61103290611d02565b61098a578238610f18565b506020813d602011611070575b8161105760209383611d49565b8101031261098a5761106b610ec991611f4b565b610ebf565b3d915061104a565b9190506020823d6020116110bc575b8161109460209383611d49565b810103126110b857610ea292610e616110ae602094611f4b565b9293505092610e50565b8480fd5b3d9150611087565b6040513d87823e3d90fd5b6110e391503d808a833e610a498183611d49565b38610df4565b935050506020823d602011611121575b8161110660209383611d49565b8101031261111c57610d99848693519091610d8c565b600080fd5b3d91506110f9565b61113d91503d8086833e610a768183611d49565b38610b16565b60405162461bcd60e51b815260206004820152602160248201527f4d7573742072656e657720666f72206174206c65617374206f6e65206d6f6e746044820152600d60fb1b6064820152608490fd5b506006546004351115610aa4565b50346101a85760203660031901126101a857600435801515806112a4575b6111c7906122e9565b81526007602052604081206040516111de81611d2c565b8154815260018201546001600160a01b039081166020830152600283015460408301526003830154606083015260048301546080830152600583015460a0830152600683015460c0830190815260079093015460e0830192916101209161124860ff821686612139565b61125c60ff8260081c166101008601612145565b60101c169101525160038110156112905760209250159081611284575b506040519015158152f35b90505142111538611279565b634e487b7160e01b83526021600452602483fd5b506006548111156111be565b50346101a857806003193601126101a8576004546040516001600160a01b039091168152602090f35b50346101a85760803660031901126101a8576064356001600160a01b038116900361111c576113066121a3565b6113136044351515611c67565b6113206004351515611cc1565b6064356001600160a01b0316156118bc57600354604051632783162d60e11b815260248035600483015290918391839182906001600160a01b03165afa801561097f5761138d9183916118a2575b50611380600435602083015114611e86565b6080604435910151611ed2565b604051636eb1769f60e11b81523360048201523060248201529091906020816044816001600160a01b03606435165afa801561097f578390839061186c575b6113d8925010156121f9565b60646113e660055484611ed2565b046113f18184611f3e565b9060248360018060a01b036002541660405192838092636a4731c560e11b825260043560048301525afa908115610a57578361146b92602092879161185857508201516040516323b872dd60e01b81523360048201526001600160a01b039091166024820152604481019190915291829081906064820190565b0381876064356001600160a01b03165af1908115610a57578491611812575b506114d59161149a602092612245565b600480546040516323b872dd60e01b815233928101929092526001600160a01b03166024820152604481019190915291829081906064820190565b0381866064356001600160a01b03165af180156109c75783906117d7575b6114fd915061229d565b600160065401918260065562278d008060443502906044358204146044351517156109fa5761152c904261212c565b9160405161153981611d2c565b84815260208101903382526040810160043581526060820160243581526080830189815260a0840142815260c085019189835260e08601938985526101008701956001875260018060a01b03606435166101208901528c8b52600760205260408b209888518a5560018a019060018060a01b039051166001600160601b0360a01b8254161790555160028901555160038801555160048701555160058601555160068501555160038110156109e6576115f59060078501612151565b519060028210156109d2579060079161ff00838501549161012062010000600160b01b0391015160101b169260081b1690610100600160b01b031916171791015533825260086020526040822060043583526020526116578460408420612169565b6003546040516323a36d2b60e01b8152336004820152602480359082015260016044820152906020908290606490829087906001600160a01b03165af180156109c75761179e575b506002546001600160a01b031690813b1561098a578291606483926040519485938492634209e03d60e01b845260043560048501526001602485015260448401525af1801561097f5761178a575b6020848060008051602061237b83398151915261177b898860405190857f4ce7d0494bae52234d5b23e3c0d5c50c951ee8559386326790cded1eccaa6d3f600435938061175733954289602435859094939260609260808301968352602083015260408201520152565b0390a4604080519182526001600160a01b0360643516602083015290918291820190565b0390a260018055604051908152f35b6117948291611d02565b6101a857806116ed565b6020813d6020116117cf575b816117b760209383611d49565b8101031261098a576117c890611f4b565b503861169f565b3d91506117aa565b506020813d60201161180a575b816117f160209383611d49565b8101031261098a576118056114fd91611f4b565b6114f3565b3d91506117e4565b90506020813d602011611850575b8161182d60209383611d49565b81010312610d34576114d59161149a611847602093611f4b565b9250509161148a565b3d9150611820565b6110e391503d8089833e610a498183611d49565b50506020813d60201161189a575b8161188760209383611d49565b8101031261111c57826113d891516113cc565b3d915061187a565b6118b691503d8085833e610a768183611d49565b3861136e565b60405162461bcd60e51b8152602060048201526015602482015274496e76616c696420746f6b656e206164647265737360581b6044820152606490fd5b50346101a85760203660031901126101a857604061014091600435815260076020522080549060018060a01b03908160018201541690600281015460038201546004830154906005840154926007600686015495015495604051988952602089015260408801526060870152608086015260a085015260c084015261198460e0840160ff8316611b9b565b611998610100840160ff8360081c16611bbe565b60101c16610120820152f35b50346101a857806003193601126101a8576003546040516001600160a01b039091168152602090f35b50346101a85760203660031901126101a857600435906119eb6121a3565b81151580611b0e575b6119fd906122e9565b81815260076020526040812060018101546001600160a01b0390611a249082163314612335565b600782019081549160ff831660038110156109e657611ac9576002809360ff1916179055815416910154813b1561098a578291606483926040519485938492634209e03d60e01b8452600484015260001960248401528160448401525af1801561097f57611aba575b50907fbd2bcea75d16a85f005cd83447e0de57341bf926fe7419e6d553663e91ab4da78280a26001805580f35b611ac390611d02565b38611a8d565b60405162461bcd60e51b815260206004820152601760248201527f537562736372697074696f6e206e6f74206163746976650000000000000000006044820152606490fd5b506006548211156119f4565b50346101a85760203660031901126101a857600435611b37611c0f565b60648111611b455760055580f35b60405162461bcd60e51b815260206004820152602860248201527f4665652070657263656e74616765206d757374206265206265747765656e2030604482015267020616e64203130360c41b6064820152608490fd5b906003821015611ba85752565b634e487b7160e01b600052602160045260246000fd5b906002821015611ba85752565b600435906001600160a01b038216820361111c57565b8054821015611bf95760005260206000200190600090565b634e487b7160e01b600052603260045260246000fd5b6000546001600160a01b03163303611c2357565b606460405162461bcd60e51b815260206004820152602060248201527f4f776e61626c653a2063616c6c6572206973206e6f7420746865206f776e65726044820152fd5b15611c6e57565b60405162461bcd60e51b815260206004820152602560248201527f4d7573742073756273637269626520666f72206174206c65617374206f6e65206044820152640dadedce8d60db1b6064820152608490fd5b15611cc857565b60405162461bcd60e51b8152602060048201526012602482015271125b9d985b1a590818dc99585d1bdc88125160721b6044820152606490fd5b67ffffffffffffffff8111611d1657604052565b634e487b7160e01b600052604160045260246000fd5b610140810190811067ffffffffffffffff821117611d1657604052565b90601f8019910116810190811067ffffffffffffffff821117611d1657604052565b67ffffffffffffffff8111611d1657601f01601f191660200190565b919080601f8401121561111c57825190611da082611d6b565b91611dae6040519384611d49565b80835260209182828701011161111c5760005b818110611dd657508260009394955001015290565b8581018301518482018401528201611dc1565b9060208282031261111c57815167ffffffffffffffff9283821161111c570160c08183031261111c576040519260c0840184811082821117611d16576040528151845260208201516020850152604082015181811161111c5783611e4e918401611d87565b6040850152606082015190811161111c5760a092611e6d918301611d87565b606084015260808101516080840152015160a082015290565b15611e8d57565b60405162461bcd60e51b815260206004820152601f60248201527f5469657220646f6573206e6f742062656c6f6e6720746f2063726561746f72006044820152606490fd5b81810292918115918404141715611ee557565b634e487b7160e01b600052601160045260246000fd5b15611f0257565b60405162461bcd60e51b8152602060048201526014602482015273125b9cdd59999a58da595b9d081c185e5b595b9d60621b6044820152606490fd5b91908203918211611ee557565b5190811515820361111c57565b9060208282031261111c57815167ffffffffffffffff9283821161111c570161010092838284031261111c5760405193840184811082821117611d16576040528151845260208201516001600160a01b038116810361111c576020850152604082015190811161111c5760e092611fd0918301611d87565b60408401526060810151606084015260808101516080840152611ff560a08201611f4b565b60a084015260c081015160c0840152015160e082015290565b3d15612039573d9061201f82611d6b565b9161202d6040519384611d49565b82523d6000602084013e565b606090565b1561204557565b60405162461bcd60e51b815260206004820152602160248201527f4661696c656420746f2073656e64207061796d656e7420746f2063726561746f6044820152603960f91b6064820152608490fd5b1561209b57565b60405162461bcd60e51b815260206004820152601b60248201527f4661696c656420746f2073656e6420706c6174666f726d2066656500000000006044820152606490fd5b156120e757565b60405162461bcd60e51b815260206004820152601f60248201527f4661696c656420746f20726566756e6420657863657373207061796d656e74006044820152606490fd5b91908201809211611ee557565b6003821015611ba85752565b6002821015611ba85752565b906003811015611ba85760ff80198354169116179055565b805468010000000000000000811015611d165761218b91600182018155611be1565b819291549060031b91821b91600019901b1916179055565b6002600154146121b4576002600155565b60405162461bcd60e51b815260206004820152601f60248201527f5265656e7472616e637947756172643a207265656e7472616e742063616c6c006044820152606490fd5b1561220057565b60405162461bcd60e51b815260206004820152601c60248201527f496e73756666696369656e7420746f6b656e20616c6c6f77616e6365000000006044820152606490fd5b1561224c57565b60405162461bcd60e51b8152602060048201526024808201527f4661696c656420746f207472616e7366657220746f6b656e7320746f2063726560448201526330ba37b960e11b6064820152608490fd5b156122a457565b60405162461bcd60e51b815260206004820152601f60248201527f4661696c656420746f207472616e7366657220706c6174666f726d20666565006044820152606490fd5b156122f057565b60405162461bcd60e51b815260206004820152601760248201527f496e76616c696420737562736372697074696f6e2049440000000000000000006044820152606490fd5b1561233c57565b60405162461bcd60e51b81526020600482015260166024820152752737ba1039bab139b1b934b83a34b7b71037bbb732b960511b6044820152606490fdfed3cf07392836def0e201fe7eb13ae977b999e29d70d4c55f6c55ba26b001393ea26469706673582212201b5a032ce05af2590f66648934b9add5ea58d500fe1f53bf76d5f13b9d0b347564736f6c63430008140033",
  "linkReferences": {},
  "deployedLinkReferences": {}
}